:020000040800F2
:10000000500D002069020008E94A0008F13D00088F
:10001000B5470008051B0008F15900080000000062
:10002000000000000000000000000000F74E000883
:10003000F51B000800000000814E000881500008F8
:10004000830200088302000883020008830200087C
:10005000830200088302000883020008830200086C
:10006000830200088302000883020008830200085C
:10007000830200088302000883020008830200084C
:10008000091B0008151B000883020008000000007F
:1000900000000000000000000000000083020008D3
:1000A000830200082D510008830200088302000823
:1000B000830200088302000883020008830200080C
:1000C00083020008830200088302000883020008FC
:1000D00083020008CD590008D9590008000000002B
:1000E0008302000883020008830200080000000069
:1000F0000000000000000000000000008302000873
:100100000000000083020008830200088302000848
:1001100000000000000000000000000000000000DF
:1001200083020008211B00082D1B00088302000821
:100130008302000800000000000000000000000032
:100140000000000000000000000000008302000822
:1001500083020008391B0008451B0008E559000808
:100160008302000883020008000000000000000075
:10017000000000000000000000000000000000007F
:1001800000000000830200080000000000000000E2
:10019000830200088302000800F002F800F055F81E
:1001A0000AA090E8000C82448344AAF10107DA45D2
:1001B00001D100F04AF8AFF2090EBAE80F0013F0CF
:1001C000010F18BFFB1A43F00103184790670000A6
:1001D000B0670000103A24BF78C878C1FAD8520737
:1001E00024BF30C830C144BF04680C6070470000B1
:1001F0000023002400250026103A28BF78C1FBD830
:10020000520728BF30C148BF0B607047662905F010
:100210003387642900F00481752900F001810020F2
:1002200070471FB505F023FF00F02AFD04000020F1
:10023000002105F08FFE401C60600020002105F0C9
:1002400073FEE0601FBD10B510BD00F065FE1146E5
:10025000FFF7E7FF05F00CFC00F091FE03B4FFF799
:10026000F2FF03BC00F0D4FE09488047094800476C
:10027000FEE7FEE7FEE7FEE7FEE7FEE7FEE7FEE756
:10028000FEE7FEE704480549054A064B70470000B3
:100290001D5100089901000850070020500D002052
:1002A000500900205009002053EA020C00F0698038
:1002B0002DE9F04B4FF00006002B1FBFB3FA83F57A
:1002C00003FA05F424FA05F65E4012BF1643B2FAAB
:1002D00082F502FA05F4C5F120051EBF22FA05FCDD
:1002E00044EA0C04203556EA044C4FEA144418BF83
:1002F000641C4FF000084FF00009904271EB030CB2
:1003000039D3002919BFB1FA81F701FA07F6B0FA1B
:1003100080F700FA07F6C7F120071EBF20FA07FC96
:1003200046EA0C062037B6FBF4FCA7EB0507103FA6
:1003300007F01F0BCBF120060CFA0BFB2CFA06F68C
:1003400044BFB3460026202FA4BF5E464FF0000BEB
:100350005BEA060C08BF4FF0010B19EB0B09ABFB76
:10036000027C48EB0608C01B06FB02CC0BFB03CC4F
:1003700071EB0C01C1E70B46024641464846BDE819
:10038000F08B13B54FF000004FF00001AFF3008089
:10039000BDE81C40704700000FB47CB50C0009AAF2
:1003A000009001D02044401E084B7B4469460190D8
:1003B000089800F000FC05461CB10020694600F0DA
:1003C0000DFC28467CBC5DF814FB000039080000D9
:1003D00070B5044685690068C10601D5302600E085
:1003E0002026C00707D070BDD4E9012130469047D0
:1003F000206A401C20626D1EF6D570BD70B50446A3
:1004000085690078C00707D170BDD4E9012120209B
:100410009047206A401C20626D1EF6D570BD00001A
:100420002DE9F0410646002410687529314616A5CD
:1004300010D0AFF30080002802DA404213A507E095
:1004400031688A0701D512A502E0490704D511A534
:10045000012401E0AFF3008000210A2206F1240705
:1004600009E0B0FBF2FCB0FBF2F302FB1C00303001
:1004700078541846491C0028F3D123462A463046B2
:10048000BDE8F04100F02AB9000000002D00000096
:100490002B000000200000002DE9F05F8946044693
:1004A0004FF0000ADFF874B1FB44C0F820A02046EA
:1004B000E1688847002874D0252806D0D4E90121B6
:1004C0009047206A401C2062F1E700265F462046E4
:1004D000E16888472028054607DB312D05D27819C9
:1004E00010F8200C08B10643F1E7B00701D526F05B
:1004F0000406C4F81CA00027C4F818A02A2D09D0AF
:10050000284605F09EFA38B304EB8708303DC8F85A
:10051000185019E059F8041B204604EB870291613A
:10052000E1688847012F054618D1E069002820DAE4
:1005300026F020061DE0D8F8180000EB800005EB3F
:1005400040003038C8F818002046E1688847054662
:1005500005F077FA0028EED1012F0AD02E2D08D110
:100560002046E16888477F1C0546022F46F020069A
:10057000C4DBA069002803DA404246F00106A0610E
:10058000F00701D026F010066C2D0BD0682D09D095
:100590004C2D39D06A2D35D0742D35D07A2D33D0ED
:1005A00016E038E0E1682F4620468847B842054605
:1005B00009D16C2F26D04FF48060E16806432046B5
:1005C0008847054604E06C2F1AD04FF4807006432C
:1005D0000DB3A5F14100192802D8203546F4006674
:1005E0004A462946204626604E46FFF70FFE80B158
:1005F00001280BD0F61D26F0070000F1080956E788
:100600004020E4E78020D8E70020D6E706F104097F
:100610004DE7284652E7206ABDE8F09F08640000D5
:1006200070B5064600F056F80468054630460A22C2
:10063000002100F0E0FA2C6070BD4FF000020429A8
:10064000C0F0128010F0030C00F01B80CCF1040C01
:10065000BCF1020F18BF00F8012BA8BF20F8022B35
:10066000A1EB0C0100F00DB85FEAC17C24BF00F8DB
:10067000012B00F8012B48BF00F8012B70474FF009
:10068000000200B5134694469646203922BFA0E8E2
:100690000C50A0E80C50B1F12001BFF4F7AF0907EE
:1006A00028BFA0E80C5048BF0CC05DF804EB8900DF
:1006B00028BF40F8042B08BF704748BF20F8022B22
:1006C00011F0804F18BF00F8012B7047704770473A
:1006D0007047000000487047F00600202DE9F04701
:1006E0000D4699469246044600F1240801688806A2
:1006F00004D5E06921F01001216000E00120A8424A
:1007000001DD471B00E00027A1697A1902EB09000F
:10071000081AA0612078C00602D42046FFF758FED0
:10072000002608E0D4E901211AF806009047206A63
:10073000401C761C20624E45F4DB2078C0060AD5AA
:100740002046FFF745FE06E0D4E90121302090471E
:10075000206A401C2062381EA7F10107F4DC07E084
:10076000D4E9012118F805009047206A401C206256
:10077000281EA5F10105F3DC2046FFF73FFE207897
:10078000000602D50220BDE8F0870120FBE7704794
:100790002DE9FF4F0C461E464FF0FF378BB0D2E9D4
:1007A0000001DDF860800A908A46C1F30A5505B958
:1007B0003D46002108464FF00000BAF1000F00F45A
:1007C000400005DA00EB80004FF4400101EA5000E0
:1007D0004FEA9059B9F1010F00DDB9460A9850EA85
:1007E0004A000ED044F61050A5F2FF3545432F14B1
:1007F000B8F1000F1ED07542291E1EDDC9F100029E
:100800001CE0B8F1010F4FF0000001D0302103E0EF
:10081000F24305E02154401CB042FBDB304600228D
:10082000002121540B99C1F80880C1E900200FB0C4
:10083000BDE8F08FBD1B6D1CDEE74A4600DA694259
:1008400006A800F0F7FA06AB93E8070003AB83E8CD
:10085000070050460A9900F0E2FB8DE80700A0F57A
:1008600000501F3800900398002D0ADD42F21F014E
:100870004A460844002303A90390684600F04BFE53
:1008800009E0A0F500504A461F38002303A9039051
:10089000684600F055FE8DE807000004000C03D008
:1008A0004FF0FF30410800E01046B8F1000F03D0D0
:1008B0000022009215461EE0751E05D400F0E4F9F2
:1008C000303262556D1EF9D5B3460122084302D07D
:1008D00000227F1C04E02078302801D100227F1EF6
:1008E000002A099784D01DE0112D07DA00F0CCF919
:1008F000303262556D1C50EA0102F5D1084302D036
:100900000098C8B10EE00021681E05E0235C625C1F
:1009100063542254401E491C8142F7DBAB46A81B9E
:10092000401E0990002004F80B000B98099AC0F8AB
:100930000880C0E9002B7AE711264FF0000857E73E
:100940002DE9F04F88460446D21D22F0070191B0F0
:10095000D1E90001CDE90A0105F04BF802460B98F8
:10096000C00F01D02D2007E02068810701D52B2082
:1009700002E0202101EAC000032A099001D0072AE1
:1009800005DB03464146204600F0C4F90BE1207820
:10099000800601D5E06900E00620B8F1650F8146C8
:1009A00006D0B8F1660F18D0B8F1670F70D131E0FA
:1009B0000020B9F1110F009001DB112301E009F1D2
:1009C00001030AAA01A90CA8FFF7E2FEDDE90C70F9
:1009D000002609F10105834647E001204B460090BF
:1009E0004FF000470AAA01A90CA8FFF7D1FEDDE9E4
:1009F0000DB00C995D46002610B909F101000D18E3
:100A0000B9EB050003D4C0F1FF3609F10105A5EBF0
:100A100009002BE0B9F1010F01DA4FF001090020C4
:100A2000B9F1110F0090484601DD112300E00346A3
:100A30000AAA01A90CA8FFF7ABFEDDE90C704D4630
:100A400000268346207800070AD4AB4500DA5D46CD
:100A500001A8012D04DD411911F8011C302907D02E
:100A60004F4502DA17F1040F04DA012082460FE045
:100A70006D1EEEE7002F02DCED1B3E4403E0781C08
:100A8000A84200DD7D1CB81B00F1010A4FF00047B1
:100A90002078000703D4AA4501DB4FF0FF3A00217C
:100AA000B7F1004F0DF143088DF8431024D0022018
:100AB0002B23002F01DA7F422D230A21021EA0F1F1
:100AC000010000DC5FB197FBF1FC97FBF1F201FB49
:100AD0001C7C17460CF1300C08F801CDEEE7A8F1AC
:100AE000010003702188090501D5452100E0652139
:100AF000A0F1010800F8011C09980FA9A1EB080753
:100B0000FF1D00B10120411901EBEA70A1693844D1
:100B1000081A401EA0612078C00602D42046FFF7C4
:100B200057FC099828B1D4E901219047206A401C5C
:100B300020622078C00622D52046FFF749FC1EE03F
:100B4000002E04DBB34502DD01A8805D00E030200B
:100B5000D4E901219047206A401C2062761CAAF14A
:100B600001005FEA000A0AD100F08AF8C068016853
:100B7000405CD4E901219047206A401C2062281E75
:100B8000A5F10105DCDC07E0D4E9012118F8010B2F
:100B90009047206A401C2062381EA7F10107F3DC51
:100BA0002046FFF72BFC032011B041E601694A1CE7
:100BB00002610878704700B58FB0CDE9013100219E
:100BC000059105497944CDE9031011466846FFF7C0
:100BD00063FC0FB000BD0000E5FFFFFF0A6802F8EC
:100BE000010B0A607047D1E900239A4202D2531CDC
:100BF0000B60107070472DE9F04791460F46804614
:100C00000446002614F8015B2DB100F031F80068AD
:100C1000405DC007F6D12B2D02D02D2D18D0641EBB
:100C20004A463946204600F0B5F827B13968A14256
:100C300001D1C7F800804FF0020471050BD5404286
:100C4000002803DDFFF746FD0460A007BDE8F0873C
:100C500046F48066E4E70028F8DAFFF73BFD04601D
:100C60006FF00040F2E7000000487047F0060020F7
:100C700010B500F005F8001D10BD00BFD9520000EE
:100C8000004870471007002030B5B0F10A024FEA63
:100C9000900E71F100034EEA817EB0EB0E0061EB25
:100CA00091014FEA101E4EEA017E10EB0E0041EB5F
:100CB00011114FEA102E4EEA016E10EB0E0041EBBF
:100CC00011214FEA104E4EEA014E10EB0E0041EB9F
:100CD0001141401841F100014FEAD00040EA417053
:100CE0004FEAD10110EB80054FEA810444EA907489
:100CF00044EB01046D1944EB0404521BA3414FF073
:100D0000000348BF0A3200D530BD401C41F100014C
:100D100030BD00002DE9F0411F460446032601685E
:100D2000072A01F4006004DB08B116A505E016A54A
:100D300003E008B115A500E015A521F01000206022
:100D4000A069C01EA0610FB1401EA0612046FFF740
:100D50003FFB4FB1D4E9012138469047206A401C3F
:100D60002062C01C206206E0206AFAE7D4E9012173
:100D700015F8010B9047761EF8D22046FFF73EFB90
:100D8000BDE8F0814E414E006E616E00494E460056
:100D9000696E66002DE9F05F824615468B46002796
:100DA0000AF10104B9460078302801D09DB113E062
:100DB00014F8010B0127782803D0582801D045B139
:100DC0000AE00DB1102D07D1002714F8010B1025F2
:100DD00002E0082500E00A250026B0460EE005FBEB
:100DE000080005FB06F101271FFA80F801EB104609
:100DF000B6F5803F00D3B94614F8010B294600F040
:100E0000B0F80028EBDABBF1000F05D00FB1641E7B
:100E100000E05446CBF80040B9F1000F06D0FFF7D0
:100E200059FC02210160C81EBDE8F09F48EA064057
:100E3000FAE700002DE9F047814616468AB03548AA
:100E400078440DC88DE80D0032487844801C03AC0E
:100E50000DC884E80D0041F69B300844372190FB13
:100E6000F1F290FBF1F5A5F1800501FB12041B3CAA
:100E700002D56442012000E00020DFF898A08046FF
:100E80000027FA44AAF1BE0A0EE0E0070AD0324673
:100E9000684607EB470101230AEB810100F050FB94
:100EA0008DE8070064107F1C002CEED1194F7F44A1
:100EB000AE3F19E0E80715D007EB04100DF1180A52
:100EC00090E80E008AE80E00C068F04201D198193F
:100ED00008903246012306A903A800F031FB03ABBA
:100EE00083E807006D10641C002DE3D14FF001036F
:100EF00032466946B8F1000F03A802D000F00BFBA0
:100F000001E000F01DFBC9E90001C9F808200AB0A2
:100F1000BDE8F087005B00007546FFF7A5FEAE4612
:100F200005006946534620F00700854618B020B5F5
:100F3000FFF7A8F9BDE820404FF000064FF000078A
:100F40004FF000084FF0000B21F00701AC46ACE871
:100F5000C009ACE8C009ACE8C009ACE8C0098D46DE
:100F600070473A2800D2303820F02002412A01D3BD
:100F7000A2F13700884201D34FF0FF30704710B51F
:100F80000446AFF300802046BDE81040FFF766B985
:100F90004FF0013C50F8042B51F8043B9A4221D108
:100FA000A2EB0C03934313EACC1317D150F8042B94
:100FB00051F8043B9A4215D1A2EB0C03934313EA78
:100FC000CC130BD150F8042B51F8043B9A4209D1B1
:100FD000A2EB0C03934313EACC13DBD04FF00000D9
:100FE000704700BFD01A01BAB1FA81F101F01801BF
:100FF00022FA01F0CB40C1F12001DBB2C0B2C01A2D
:101000002CFA01F3D11A914311EAC311E6D17047CA
:1010100001491820ABBEFEE72600020070475FEAD8
:10102000400C08BF91F0000F4FEA8C234FEAC12219
:1010300043EA51514FEA1C5018BF00F5F0404FEA07
:10104000300018BF41F000415FEA6C5C00F029807D
:10105000BCF1FF3F08BF40F080407047130C06BF53
:1010600012044FF0100C4FF0000C130E04BF1202CC
:101070000CF1080C130F04BF12010CF1040C930FB8
:1010800004BF92000CF1020CD30F04BF52000CF10C
:10109000010C11464FF00002A0F11F00A0EB0C0064
:1010A000704711F0004F08BF704731F000413FF426
:1010B000D5AF0B0C06BF09044FF0100C4FF0000C1D
:1010C0000B0E04BF09020CF1080C0B0F04BF090141
:1010D0000CF1040C8B0F04BF89000CF1020CCB0F38
:1010E00004BF49000CF1010CCCF12003A0EB0C0073
:1010F00022FA03F302FA0CF241EA030100F10100C3
:10110000704720F07F4C80EA030023F07F47ACEB70
:10111000070303F57C5300F0004003F1FF032DE9C2
:1011200080494FEA154B09B44FEA144325EA0B4EA8
:1011300024EA03480FF2042606EB132749083E78F9
:101140005FEA320203FB0667C7F5000707FB06F6F6
:101150004FEA54374FEAD64606F1020607FB066C03
:10116000CCF1005C4FEA1C472CEA074C07FB06F465
:101170000CFB06F504EB15464FEA961634BF00202B
:101180004FF000404FEAD13706FB07FC4FEA1C4CFA
:101190000CFB0BF7D21B03FB0CF761EB07010CFBFD
:1011A0000EF7B0EB074072EB17420CFB08F734BFA9
:1011B000A2EB0742B2EB074261EB17414FEA0C4446
:1011C0004FEA910706FB07FC4FEA1C4C0CFB0BF7A0
:1011D000B0EBC74072EB573203FB0CF734BFA2EB06
:1011E000C742B2EBC74261EB57310CFB0EF7B0EBD5
:1011F000C70072EB57720CFB08F734BFA2EBC702B3
:10120000B2EBC70261EB5771039F4FEA816141EA7C
:10121000921104EBCC044FEAD1374FEA826206FB0D
:1012200007FC42EA90124FEA80604FEA1C4C0CFB2C
:101230000BF7D21B03FB0CF761EB07010CFB0EF75E
:10124000B0EB074072EB17420CFB08F734BFA2EB80
:101250000742B2EB074261EB17414FEA8C554FEA68
:10126000910704EB9C2406FB07FC4FEA1C4C0CFB8B
:101270000BF7B0EBC74072EB573203FB0CF734BFF0
:10128000A2EBC742B2EBC74261EB57310CFB0EF742
:10129000B0EBC70072EB57720CFB08F734BFA2EB40
:1012A000C702B2EBC70261EB577115EB4C254FEA51
:1012B000816141EA92114FEA82624FEAD13742EAF4
:1012C000901206FB07FC44F100044FEA80604FEAED
:1012D0001C4C0CFB0BF7D21B03FB0CF761EB07015B
:1012E0000CFB0EF7B0EB074072EB17420CFB08F754
:1012F00034BFA2EB0742B2EB074261EB174115EB9B
:101300001C154FEA813141EA92414FEA823242EAAA
:1013100090424FEA80304FEA0C7644F1000448EAEC
:1013200003434EEA0B484FF0000EB2EB080C71EB92
:10133000030724BF624639464EEB0E0E4FF0000BFA
:101340000018524149414BEB0B0BB2EB080C71EB0F
:1013500003077BF1000B24BF624639464EEB0E0EAD
:101360004FF0000B0018524149414BEB0B0BB2EB15
:10137000080C71EB03077BF1000B24BF6246394672
:101380004EEB0E0E51EA020718BF46F0010616EBAF
:101390000E7655F1000254F1000103D5BDE8890134
:1013A000BDE80088BDE88901BDE80048B619524192
:1013B00041EB0101A3F10103704780807F7E7D7CBA
:1013C0007B7A7978777676757473727171706F6ED7
:1013D0006E6D6C6C6B6A6A69686867666665646482
:1013E000636362616160605F5F5E5E5D5D5C5C5B0C
:1013F0005B5A5A595958585757565655555554547B
:10140000535352525251515050504F4F4F4E4E4DD8
:101410004D4D4C4C4C4B4B4B4A4A4A494949484824
:101420004847474747464646454545444444444364
:1014300043434342424242414141002B9C4630D407
:1014400077002BD01CB54FEA370703B44FF01000DC
:101450004FF01001BAF1000F06D0BCF1000FDCBF55
:1014600040F0080040F008014FF000000FBCBDE85C
:1014700010400BF1010BBBF1010F08BF5FEA17072A
:1014800022BF12F1010211F101014FF0004143F1BD
:10149000000300F0004043EA00007047F9D357080A
:1014A000D0E746EA064613F1400F4FEA16461FDD25
:1014B00013F1200FDFBF16430A46002120335B42A1
:1014C000BED0C3F1200746EA064602FA07F74FEA04
:1014D000164646EA0706C3F1200722FA03F201FA8C
:1014E00007F721FA03F14FF0000342EA0702A7E7EA
:1014F00046EA020646EA06464FEA164646EA01066C
:10150000BCBF46EA0646360C4FF000034FF000021F
:101510004FF0000194E72DE9804C9A46934670B451
:1015200091E8380007C831EA400C48BF34EA430C60
:1015300003D5FFF7E6FDFFF780FFF0BCBDE8008CA8
:101540002DE9804C9A46934670B491E8380007C85C
:1015500010F0804F08BF13F0804F03D100F005F862
:10156000FFF76BFFF0BCBDE8008C20F07F4780EAFE
:10157000030023F07F4C07EB0C03A3F57C5300F032
:101580000040A3F1FE0392F0000F00F0B38095F04D
:10159000000F00F077802DE901494FEA11404FEA32
:1015A000144621EA004800FB06FC24EA064708FB33
:1015B00006F607FB08F800FB07F718EB06484CEBAC
:1015C000164C4FEA124B18EB07484FEA15464CEB06
:1015D000174022EA0B4E0BFB06FC25EA06470EFBE2
:1015E00006F607FB0EFE0BFB07F71EEB064E4CEB59
:1015F000164C4FF000061EEB074E4CEB174B18EB4A
:101600000B0840F1000018EB0E0B58EB000840F1FE
:1016100000008F1A4FF000013CBFC943661B14BF86
:10162000B5EB040C00213CBFC943F61B4FEA17443D
:101630004EEA8E0E27EA04454FEA1C4704FB076278
:101640002CEA074C05FB07F70CFB05F604FB0CFC2A
:1016500016EB074642EB174216EB0C4642EB1C42D8
:101660001BEB060658EB0202414146EA9E0601D5F5
:10167000BDE80189B619524141EB0101A3F1010313
:10168000BDE801894FEA14454FEA114724EA0546AF
:1016900021EA074C05FB07F406FB07F70CFB06F1F4
:1016A00005FB0CFC11EB074144EB17444FEA1247D2
:1016B00011EB0C4144EB1C4422EA074C05FB07F2FA
:1016C00006FB07F70CFB06F605FB0CFC16EB0746C2
:1016D00042EB174216EB0C4642EB1C456A1854F1DC
:1016E000000148BF7047B619524141EB0101A3F117
:1016F0000103704795F0000F37D04FEA11424FEACF
:10170000144721EA024624EA074C02FB07F106FBD4
:1017100007F70CFB06F402FB0CFC14EB074441EB4F
:1017200017414FEA154714EB0C4441EB1C4125EAE5
:10173000074C02FB07F506FB07F70CFB06F602FB5E
:101740000CFC16EB074645EB174516EB0C4645EB34
:101750001C42121951F1000148BF7047B61952419D
:1017600041EB0101A3F1010370474FEA14454FEA31
:10177000114724EA054621EA074C05FB07F106FB61
:1017800007F70CFB06F24FF0000605FB0CFC12EB12
:10179000074241EB174112EB0C4251EB1C4148BF91
:1017A0007047921841EB0101A3F10103704700005B
:1017B000014890ED050A704774000020054890ED3F
:1017C000010AD0ED020A30EE600ABDEEC00A10EE4A
:1017D000100A704774000020014890ED020A70471B
:1017E0007400002010B50B4C0C484FF4967184ED3A
:1017F000010A84ED020A9FED080A84ED030A84EDD4
:10180000040A84ED050A41806021017100F03EFD6B
:10181000A06110BD7400002000000000D40500206D
:10182000054801214170002101709FED040A80EDFF
:10183000040A80ED030A70477400002000000000D5
:101840000848002190ED010A80ED020A9FED060A8A
:1018500080ED050A80ED030A80ED040A01704170F5
:101860007047000074000020000000000748417825
:10187000002909D10178002906D00021017090EDDE
:10188000070A034803F0A4BB70470000740000205F
:10189000D40500202DE9F04100F0F8FC84494A7895
:1018A000002A4DD1834A1288A2F57F43FF3B1AD00C
:1018B00000EE102AB8EE400AB5EEC00AF1EE10FABA
:1018C00011DB10EE102A7C4B9A420CDCDFED7B0A18
:1018D00020EE200AD1ED020A9FED791A00EE810A6E
:1018E00081ED020A88618A696024851A4FF4967333
:1018F00001229FED741A7448B5F5FA7F22D991ED53
:10190000050A724E10EE105ADFED710AB54202DD83
:1019100030EE600A06E010EE105A6E4EB54204D961
:1019200030EE200A81ED050A01E081ED051A81ED16
:10193000041A438004710A7091ED050A81ED070ACB
:10194000BDE8F08191ED020AD1ED010A70EE600A66
:1019500091ED030A70EEC01A91ED040A9FED5E2A24
:101960005E4E00EE820A10EE105A81ED040AB54276
:1019700003DD9FED5B0A81ED040A10EE105A594F0A
:10198000BD4203D99FED580A81ED040A9FED570A25
:10199000B0EE002A20EE800A01EE820AD1ED041A90
:1019A0009FED532A534D544F11EE820AF3EE041A61
:1019B000BAEE0E2A10EE10CAAC4502DDB0EE610A96
:1019C00005E010EE10CABC4501D9B0EE420AF5EEB2
:1019D000C00AF1EE10FA02D2F1EE602A01E0F0EE58
:1019E000602A12EE90CABCF1804F12DAB5EEC00A3E
:1019F000F1EE10FA02D2F1EE402A01E0F0EE402AB8
:101A000012EE90CABCF17C5F03DAB0EE410A81EDC0
:101A1000040AD1ED052A9FED391A30EE620AB4EEC0
:101A2000C10AF1EE10FA01DDB0EE410A9FED341A61
:101A3000B4EEC10AF1EE10FA01D2B0EE410A32EE74
:101A4000800A10EE10CA81ED050AAC4501DDC1ED3A
:101A5000051AD1F814C0BC4501D981ED052AF5EE6F
:101A6000C00AF1EE10FA02D2B1EE600A01E0B0EE67
:101A7000600A10EE107AB74210DCF5EEC00AF1EE03
:101A800010FA02D2B1EE600A01E0B0EE600A10EE88
:101A9000103AAB4201DDC82300E078234380047193
:101AA00091ED050A81ED070A0A70C1ED030A47E7C7
:101AB000740000206C000020000048449A99993E70
:101AC0003333333F00000000D4050020CDCCCC3DA3
:101AD000CDCCCC3DCDCCCCBD0AD7233C0000484278
:101AE00000004842000048C2000048C2BC74933C59
:101AF0000AD723BD0000A041000070C1CDCC4C3FEF
:101B0000CDCC4CBFFEE70000014800F041B9000019
:101B1000C0030020014800F03BB900002004002071
:101B2000014800F035B9000080040020014800F0B1
:101B30002FB9000000030020014800F029B900007F
:101B4000E0040020014800F023B9000060030020F9
:101B500001681823CAB2103AB2FBF3F2054B6FF3D7
:101B60000901032A9B5CC36500D9091D81650846EC
:101B7000704700007C60000810B5014600208B69AA
:101B80008A6A4FF0C07453B1B3F5005F15D072B1DB
:101B9000012A0CD0022A0AD0032A09D104E01AB182
:101BA000012A06D0022A03D1C96AC90100D5012041
:101BB00010BDC96AA142FAD010BD002AF7D0012A8F
:101BC000F2D0022AF3D0032AF3D010BD30B5046856
:101BD000256825F480252560046863608368402BB0
:101BE000036803D099600068C26030BD9A600068E5
:101BF000C16030BD7047000010B53C210E4801F0B7
:101C000035FB3C210D4801F031FB0B4900200968F0
:101C100048620A490968486209499FED0A0A086052
:101C2000886081ED030A486010310860886081EDAA
:101C3000030A486010BD000098010020E001002068
:101C400074050020000000001D480068416A002261
:101C500009B242621B4800EE101A9FED1B1A03687E
:101C6000B8EEC00A0B44C0E9003120EE010AD0ED05
:101C7000031ADFED160A01EEA00A80ED030ABDEE9D
:101C8000C00A80ED020A12480068416A426209B245
:101C90000C4800EE101A10300268B8EEC00A0A4470
:101CA000C0E9002120EE010A90ED031A01EE200A9E
:101CB00080ED030ABDEEC00A80ED020A7047000005
:101CC0009801002074050020CDCC4C3ECDCC4C3F7B
:101CD000E001002072B6FEE72DE9F0410446876D71
:101CE00000F0D4FA064694F835000025022806D004
:101CF0008020606584F834500120BDE8F0812068C0
:101D0000016821F0160101602068416921F080011D
:101D10004161206C08B9A06C20B12068016821F0F5
:101D2000080101602068016821F0010101600CE0F8
:101D300000F0ACFA801B052807D92020606503203D
:101D400084F8350084F83450D7E720680068C0076D
:101D5000EED194F85C103F208840B860012084F8F0
:101D6000350084F834500020C7E790F83510022978
:101D700003D08021416501207047052180F835108E
:101D80000068016821F00101016000207047000037
:101D90002DE9F84304464FF00009CDF80090634860
:101DA0004FF41651A56D0068B0FBF1F72E6894F85A
:101DB0005C10082000FA01F131420FD021680A6856
:101DC00052070BD50A6822F004020A6094F85C10EE
:101DD0008840A860606D40F00100606594F85C1078
:101DE0004FF0010808FA01F0304208D02168496933
:101DF000090604D5A860606D40F00200606594F8A3
:101E00005C1004208840304208D0216809688907A6
:101E100004D5A860606D40F00400606594F85C1023
:101E200010208840304218D021680968090714D56D
:101E3000A86020680168490304D50068000308D53C
:101E4000A16C07E00168C90503D4016821F008010D
:101E50000160216C09B12046884794F85C1020206D
:101E60008840304231D021680968C9062DD5A86064
:101E700094F8350005282068016806D0490347D545
:101E8000006800031DD4616C1CE021F016010160A4
:101E90002068416921F080014161206C08B9A06C83
:101EA00020B12068016821F00801016094F85C10FD
:101EB0003F208840A86084F8358084F83490216DF4
:101EC0001FE0E16B09B120468847606D00282BD0E8
:101ED000606DC00714D0052084F8350020680168C3
:101EE00021F0010101600098401C0090B84203D825
:101EF00020680068C007F6D184F8358084F83490F3
:101F0000E16C002910D001B02046BDE8F04308473D
:101F10000168C905D5D4016821F01001016084F879
:101F2000358084F83490CCE7BDE8F8831C000020AD
:101F30002DE9F041044600F0A9F906465CB1022003
:101F400084F83500002584F834502068016821F0B9
:101F5000010101600DE00120BDE8F08100F096F97B
:101F6000801B052805D920206065032084F83500F2
:101F7000F2E720680068C007F0D1226811682048A5
:101F80000140D4E901031843D4E90336334318432D
:101F900063691843A3691843E3691843236A184324
:101FA0000843616A042903D1D4E90B131943084398
:101FB000106020684069666A20F0070130460E43D1
:101FC000012704280CD1A06A0643E06A40B12046EC
:101FD000FFF7D2FD20B14020606584F83570BAE784
:101FE000206846612046FFF7B3FD94F85C203F214E
:101FF00091408160656584F835700020ACE7000091
:102000003F8010F02DE9F0410446866D90F83400D1
:10201000002501280DD0012084F8340094F8357093
:102020000020012F07D084F8340002252846BDE89F
:10203000F0810220FBE7022784F8357060652046B6
:10204000FFF7C4FD94F85C103F208840B060206822
:10205000016841F016010160206C20B12068016820
:1020600041F0080101602068016841F00101016050
:10207000DCE7000070B5044600F008F90546601C76
:1020800002D004480078044400F000F9401BA0424C
:10209000FAD370BD100000202DE9F84FDFF8B8A189
:1020A0000022012403254FF00F090AF1040BAAF1C5
:1020B000040E00BF0B6804FA02F63340B34273D13A
:1020C0000F7907F00307012F01D0022F16D187687F
:1020D0004FEA420805FA08FC27EA0C07D1F80CC0C1
:1020E0000CFA08FC4CEA070CC0F808C04768B74374
:1020F0000E79C6F3001696403E4346600E79F643CD
:10210000B6070DD0C768560005FA06FC27EA0C078B
:10211000D1F808C00CFA06FC4CEA070CC0F80CC059
:102120000E7906F00306022E10D1D60800EB8608C1
:10213000D8F8206057074FEAD76C09FA0CF7BE436E
:102140000F6907FA0CF73743C8F8207006684FEAA2
:10215000420C05FA0CF7BE430F7907F0030707FAA4
:102160000CF7374307604E6816F4403F6DD03B4E86
:10217000376847F480473760366822F0030706F473
:1021800080460096364E07EB060CDCF80868970789
:102190003F0F09FA07F826EA0806DFF8C88040452D
:1021A00003D14FF000081EE04FE0DFF8BC8040454F
:1021B00002D14FF0010816E0DFF8B080404502D1AF
:1021C0004FF002080FE0DFF8A880404502D14FF041
:1021D000030808E0DFF89C80404502D14FF0040876
:1021E00001E04FF0070808FA07F848EA0608CCF8BB
:1021F0000888DAF800605746D1F804C09E435FEAC9
:10220000CC2C00D51E433E60DBF800605F46D1F861
:1022100004C09E435FEA8C2C00D51E433E60DEF86E
:1022200000607746D1F804C09E435FEA8C3C00D53D
:102230001E433E60084F083F3E68D1F804C09E43ED
:102240005FEACC3C00D51E433E60521C102AFFF4CE
:1022500031AFBDE8F88F0000083C0140443802402F
:10226000003001400000024000040240000802402B
:10227000000C0240001002400069084000D001201C
:1022800070470AB1816170470904FBE70148806823
:10229000704700001000002070B5040025D094F8AD
:1022A0003D00002520B984F83C50204600F050F94C
:1022B000242084F83D002068016821F001010160BC
:1022C0002068016841F4004101602068016821F440
:1022D0000041016000F04EFB4D4A6168914201D817
:1022E0004C4900E04C49884201D2012070BD4B4965
:1022F0002368B0FBF1F15E6826F03F060E435E6096
:102300006368934206D94FF4967359434FF47A7336
:10231000B1FBF3F12368491C1E6A26F03F063143E6
:1023200019626168914210D84900401EB0FBF1F279
:10233000521CC2F30B02042A01D2042022E0B0FB9B
:10234000F1F0401CC0F30B001CE0A268F2B301EBFB
:10235000C10303EB0116431EB3FBF6F35B1C43F40E
:1023600080431B0549D092B301EBC10202EB01117E
:10237000401EB0FBF1F0401CC0F30B0040F4804065
:1023800040F400402168CA694CF6FF739A43104339
:10239000C861D4E9071001432068026822F0C00236
:1023A00011430160D4E9030101432068826848F2C7
:1023B000FF339A4311438160D4E905010843216842
:1023C000CA6822F0FF021043C86001E00EE016E088
:1023D0002068016841F0010101602564202084F833
:1023E0003D00256384F83E50002070BD01EB41069E
:1023F000431EB3FBF6F35B1CB3E70120C2E701EB1E
:102400004101401EB0FBF1F0401CC0F30B00B7E7E8
:10241000A086010080841E0000093D0040420F009C
:102420002DE9FF4F83B09A46DDE9119793460446A4
:10243000DDF84080FFF72AFF054694F83D0020288C
:102440007FD11923012240492046009501F068FD03
:10245000002876D194F83C00012872D0012084F83D
:102460003C0020680168C90703D1016841F00101FF
:1024700001602068016821F400610160212084F876
:102480003D00402084F83E0000262664C4F82480E5
:10249000A4F82A90608D20852C48E062CDE9007573
:1024A00053465A462046049901F0BAFC70B930E010
:1024B0002A463946204601F0D9FD58B1206C04283F
:1024C00004D12068016841F400710160012007B067
:1024D000BDE8F08F606A216800780861606A401C7E
:1024E0006062218D491E89B22185628D521E6285EE
:1024F00022685369DB435B070BD469B10078106134
:10250000606A401C6062208D401E2085608D401EE8
:102510006085208D0028CBD12A463946204601F01F
:10252000D3FC0028CAD154F83D0B016841F4007176
:102530000160202004F81E09E67766770020C6E7D0
:10254000FFE70220C3E70000020010000000FFFFC9
:1025500010B586B0044614216846FEF790F813497A
:102560002068884220D112480021026842F002020D
:102570000260006800F0020005904FF44070009087
:102580001220CDE901010420CDE903106946094874
:10259000FFF782FD06481030016841F40011016028
:1025A000006800F40010059006B010BD0054004013
:1025B0003038024000040240024881680278114429
:1025C00081607047100000200B4810B5016841F48D
:1025D00000710160016841F480610160016841F4AB
:1025E00080710160032000F06FF80F2000F006F802
:1025F00000F024F8002010BD003C024070B50D4DE5
:1026000004464FF47A712878B1FBF0F00A49096862
:10261000B1FBF0F000F03EFC48B9102C07D20022CC
:102620002146501E00F030F800206C6070BD012083
:1026300070BD0000100000201C0000200A4808B5F2
:10264000016841F480410160006800F4804000901E
:102650000548001F016841F080510160006800F0EA
:102660008050009008BD000044380240002809DB7B
:1026700000F01F02012191404009800000F1E0209C
:10268000C0F8001170470000F0B40E4B1B680C46F8
:10269000C3F30223C3F10705042D00D90425191D36
:1026A000072901D2002300E0DB1E012606FA05F10E
:1026B000491E214099409E40761E16403143F0BC91
:1026C00003F0AFB90CED00E0064900F0070208681E
:1026D0004FF6FF03184040EA0220034A1043086007
:1026E000704700000CED00E00000FA052DE9F8430A
:1026F000044600684FF00109C1074FF0000601D100
:10270000400729D5DFF82081C8F86860FFF7BEFDD3
:102710000746464D05E000BFFFF7B8FDC01B022885
:1027200059D828680001F7D4A068217B800140EACD
:102730000170616808433D4984310860C8F86890B9
:10274000FFF7A4FD074604E0FFF7A0FDC01B022829
:1027500041D828680001F7D52078800752D5334842
:102760004030016841F0805101600068304D00F058
:1027700080500090286840F480702860FFF786FD44
:10278000074604E0FFF782FDC01B022823D8286813
:10279000C005F7D5254D7035286810F4407020D05D
:1027A000218A01F4407181421BD02868214920F41C
:1027B0004070C1F800900E6028602868C00710D0F3
:1027C000FFF764FD064641F2883707E0FFF75EFD3C
:1027D000801BB84202D90320BDE8F883286880072F
:1027E000F4D521691148C1F301220830032A12D01F
:1027F000016821F4F81101602868218AC1F30B01F6
:10280000084328602078000703D50B49207DC1F8D4
:10281000E0010020E0E70268084B22F4F8121940BA
:102820000A430260E8E70000000047420038024027
:1028300000700040400E474200104742FFFCFF0F6F
:102840002DE9F0470E46050065D0DFF81481D8F871
:102850000000F7B200F00700B04207D288F800701D
:10286000D8F8000000F00700B04254D128683D4C71
:10287000810712D5400703D5206840F4E05020605E
:102880002878000703D5206840F460402060206865
:10289000A96820F0F000084320602878C0072DD0F8
:1028A000304968680839012812D0022813D003285B
:1028B00011D00968890700292DDA216821F0030168
:1028C00001432160FFF7E2FC814641F2883A0EE0C5
:1028D00009688903EFE709688901ECE7FFF7D6FC8F
:1028E000A0EB0901514502D90320BDE8F08720681B
:1028F000696800F00C00B0EB810FEFD1D8F8001040
:10290000404601F00701B14207D90770006800F0A6
:102910000700B04201D00120E7E72878400705D53D
:102920002068E96820F4E050084320602878000718
:1029300006D52068296920F4604040EAC100206083
:1029400000F038F82168084AC1F30311515CC8400F
:102950000649086006480068FFF750FE0020C4E7FB
:10296000003C024008380240846000081C0000203F
:10297000140000200448054900680968044AC1F3AE
:102980008221515CC84070471C000020083802407A
:10299000946000080448054900680968044AC1F3C6
:1029A0004231515CC84070471C000020083802408A
:1029B00094600008154810B5006810F00C02144827
:1029C00013D01449042A0FD0082A0ED10F4C241F0B
:1029D0002268236802F03F025B0207D52068C0F33B
:1029E0008810A0FB010106E0084610BD2168C1F374
:1029F0008811A1FB00010023FDF756FC2168C1F3FB
:102A00000141491C4900B0FBF1F010BD08380240FB
:102A10000024F40040787D012DE9F84F04006ED0C9
:102A20002078DFF84C93C007A9F104054AD009F1DA
:102A300004000168C1F38101012908D00068C0F3D6
:102A4000810002280AD1D9F80000400206D5286882
:102A5000800337D560680028E1D033E06068B0F5C6
:102A6000803F10D0B0F5A02F286810D020F480301F
:102A70002860286820F4802028606068A8B1FFF7EB
:102A800005FC06460DE0286840F48030F4E740F489
:102A900080202860F7E700BFFFF7F8FB801B642861
:102AA00073D828688003F7D50CE0FFF7EFFB0646E4
:102AB00005E000BFFFF7EAFB801B6428F0D8286818
:102AC0008003F7D42078DFF8AC8280074FF0000A4B
:102AD0003ED5A748001D016811F00C0F08D0006812
:102AE000C0F3810002280BD1D9F80000400207D4BE
:102AF0002868800716D5E068012800D112E033E18C
:102B0000E068B8B10120C8F80000FFF7BFFB064637
:102B100005E000BFFFF7BAFB801B0228C0D8286879
:102B20008007F7D52868216920F0F80040EAC10045
:102B300028600DE0C8F800A0FFF7A8FB064604E0F7
:102B4000FFF7A4FB801B02281FD828688007F7D452
:102B50002078000722D5864F87486169703771B1A8
:102B600001210160FFF792FB064604E0FFF78EFBB0
:102B7000801B022809D838688007F7D50EE0C0F816
:102B800000A0FFF783FB064605E082E0FFF77EFB2F
:102B9000801B02287DD838688007F7D4207840074A
:102BA00068D5DFF8CCB100270BF13C0BDBF8000057
:102BB000C0000BD4DBF8001041F08051CBF80010BE
:102BC000DBF80000012700F0805000906B4E306869
:102BD000C00510D4306840F480703060FFF756FBB9
:102BE000009005E0FFF752FB0099401A022850D8E8
:102BF0003068C005F6D55E4EA0686C3601280FD04F
:102C00000528306810D020F001003060306820F0D6
:102C100004003060A068B8B1FFF738FB00900FE007
:102C2000306840F00100F4E740F004003060F7E75E
:102C3000FFF72CFB0099411A41F28830814266D897
:102C400030688007F4D50EE0FFF720FB009007E026
:102C5000FFF71CFB0099411A41F28830814256D897
:102C600030688007F4D42FB1DBF8001021F08051D8
:102C7000CBF80010A069C8B33D49091D0968C1F32C
:102C8000810102294AD00228504607D0C8F86000C6
:102C900000E03CE0FFF7FAFA04463BE04746C8F89C
:102CA0006000FFF7F3FA064605E000BFFFF7EEFA13
:102CB000801B02282BD828688001F7D4D4E90701AB
:102CC0000843A16A2E4A490802EB0141626A41EABF
:102CD0008211084394F82C1040EA0161C9F80010F1
:102CE00001203866FFF7D2FA044606E03EE000BF56
:102CF000FFF7CCFA001B022809D828688001F7D515
:102D000034E000BFFFF7C2FA001B022802D90320FB
:102D1000BDE8F88F28688001F4D427E00128F7D0B7
:102D2000D9F80000E26900F4800191421CD1226AC6
:102D300000F03F01914217D147F6C071626A01402D
:102D4000B1EB821F10D1A26A4FF0FF3300F4403183
:102D500003EB5202B1EB024F06D194F82C1000F0B5
:102D60007060B0EB016F01D00120D1E70020CFE708
:102D70000438024000004742800E47420070004085
:102D80000000FFFF10B5040002D0607F10B106E024
:102D9000012010BD00202077204600F041F80220DD
:102DA00060772068C168C943C90632D5CA2141622B
:102DB000216853204862204602F064F820BB206856
:102DC0008168164A114081602168886862681043F2
:102DD000D4E904231A43104388602168E06808613D
:102DE00020680169228941EA02410161204602F01E
:102DF0006DF848B921680A6C22F480220A642168BF
:102E00000A6CA3691A430A642268FF21516208B15F
:102E100010BD00200121617710BD0000BFFF8FFFB2
:102E200010B586B0044618216846FDF728FC09490C
:102E3000206888420CD1022000900002049068466D
:102E4000FFF754FC08B1FEF745FF03490120086075
:102E500006B010BD002800403C0E474270B5044645
:102E60000B482168C860FFF711FA05464FF47A76DF
:102E700007E000BFFFF70AFA401BB04201D9032068
:102E800070BD2068C0688006F4D5002070BD0000C9
:102E90005F3F010010B5401EB0F1807F01D30120DB
:102EA00010BD4FF0E02460610F21601702F0B9FD02
:102EB0000020A06107202061002010BD70477047EE
:102EC00070B590F83C20012A2CD0012480F83C40B9
:102ED000022280F83D2003685A689D6822F070063F
:102EE0000A6832435A60104B02689A420ED0B2F11F
:102EF000804F0BD00D4B9A4208D00D4B9A4205D013
:102F00000C4B9A4202D00C4B9A4204D1496825F0EE
:102F100080031943916080F83D40002180F83C1007
:102F2000084670BD022070BD000001400004004052
:102F300000080040000C00400040014010B50400B3
:102F400003D094F83D0010B107E0012010BD00202F
:102F500084F83C00204600F01FF8022084F83D0071
:102F6000211D206802F0E8F8012084F8460084F86A
:102F70003E0084F83F0084F8400084F8410084F863
:102F8000420084F8430084F8440084F8450084F843
:102F90003D00002010BD000008B5006811498842BE
:102FA00012D11148016841F001010160006800225E
:102FB00000F00100009011461920FFF765FBBDE805
:102FC00008401920FFF752BBB0F1804F09D10648E5
:102FD000001F016841F001010160006800F001007C
:102FE000009008BD000001404438024090F83D10B8
:102FF000012901D001207047022180F83D100168AD
:10300000CA6842F00102CA6000680E4988420ED0C8
:10301000B0F1804F0BD00C49884208D00B49884250
:1030200005D00B49884202D00A49884204D1816800
:1030300001F00701062903D0016841F00101016098
:1030400000207047000001400004004000080040DC
:10305000000C00400040014070B5044690F83C0070
:103060000025012817D0012684F83C60022084F84E
:103070003D002068826822F0770222F47F4282605D
:103080000868502838D00DDC20284FD005DC90B3DC
:10309000102811D14AE0022070BD302846D04028C7
:1030A0000AD13BE060282FD070280DD0B0F5805FAA
:1030B00003D0B0F5005F12D0012584F83D600020F8
:1030C00084F83C00284670BDCB68D1E90121206816
:1030D00002F08FF82068816841F0770109E0CB6841
:1030E000D1E90121206802F084F82068816841F468
:1030F00080418160E1E719E0CA684968206802F010
:103100002DF95021206806E0CA684968206802F05D
:1031100036F96021206802F076F8CEE7CA6849687F
:10312000206802F01BF940212068F4E7226801467C
:103130001046F0E72DE9F0410D46040003D094F865
:103140003D0018B108E00120BDE8F081002084F8BE
:103150003C00204600F040F8022084F83D00206842
:10316000816844F2070291438160211D206801F0CB
:10317000E3FF226890689169166A2B68AF69034380
:1031800040F20330814341EA0721A868EF69084310
:103190004FF6FC418843E96840EA0720014328696B
:1031A0002F6A000140EA0730084369686D6926F01C
:1031B000AA0646EA0515294393602268906154F8EF
:1031C000460B0162012004F81F09E0752076E076C5
:1031D0002077A0750020B7E7F0B587B0044614212A
:1031E0006846FDF74CFA1E4B1C4F266800241C490C
:1031F000103B022201251B48BE4211D10E6846F049
:1032000002060E60096801F002010591196841F09B
:1032100002011960196801F002010591302113E0E3
:10322000114FBE4217D10E6846F004060E600968C1
:1032300001F004010591196841F002011960196853
:1032400001F002010591C0218DE82600CDE903427D
:103250006946FEF721FF07B0F0BD00000004004002
:1032600040380240000402400008004070B590F869
:103270003E60044690F83F5090F8423090F843206A
:10328000022021B104290ED0012E1BD114E0012E01
:1032900018D1012B16D184F83E0084F84200012297
:1032A0000021206820E0012D0CD1012A0AD184F8E8
:1032B0003F0084F8430014E0012D03D1012B01D11C
:1032C000012A01D0012070BD84F83E0084F83F003F
:1032D00084F8420084F8430001220021206801F0B4
:1032E0007BFF01220421206801F076FF206801683D
:1032F00041F001010160002070BD70472DE9F041EF
:1033000004460068C66805694FF00007A90713D591
:10331000B10711D5F91E016101202077206880696D
:103320008007204602D0FFF7E8FF04E000F0BAF87B
:10333000204600F04CF92777680716D5700714D59A
:1033400021686FF0040008610220207720688069FE
:1033500010F4407F204602D0FFF7CFFF04E000F0DA
:10336000A1F8204600F033F92777280715D5300754
:1033700013D521686FF008000861042020772068C9
:10338000C0698007204602D0FFF7B7FF04E000F0D5
:1033900089F8204600F01BF92777E80616D5F006D5
:1033A00014D521686FF0100008610820207720688C
:1033B000C06910F4407F204602D0FFF79EFF04E072
:1033C00000F070F8204600F002F92777E80708D0EF
:1033D000F00706D021686FF001000861204600F078
:1033E0004FF9280608D5300606D521686FF0800011
:1033F00008612046FFF762FD680608D5700606D50D
:1034000021686FF040000861204600F077F9A806B7
:103410000AD5B00608D521686FF020000861204663
:10342000BDE8F041FFF74BBDBDE8F08170B586B057
:10343000044614216846FDF722F92068B0F1804F58
:1034400028D115480024016841F00101016001689C
:1034500001F001010591016841F00201016000687D
:10346000022500F0020005904FF400400090CDE9E5
:1034700001540126CDE9034669460848FEF70CFED3
:1034800008200090CDE90154CDE90346694604487F
:10349000FEF702FE06B070BD303802400000024068
:1034A00000040240704770B5044690F83C000026C6
:1034B0000D4601280FD0012084F83C006AB1042A8F
:1034C0001DD0082A2FD00C2A3FD00126002084F8D6
:1034D0003C00304670BD022070BD206801F09CFEAB
:1034E0002068816941F0080181612068816921F0CB
:1034F00004018161206881692A69114311E0206813
:1035000001F0B2FE2068816941F4006181612068A8
:10351000816921F480618161206881692A6941EAB9
:1035200002218161D2E7206801F0CAFE2068C169EA
:1035300041F00801C1612068C16921F00401C16145
:103540002068C1692A69114311E0206801F0E4FE96
:103550002068C16941F40061C1612068C16921F43A
:103560008061C1612068C1692A6941EA0221C161A3
:10357000ACE710B5040003D094F83D0010B107E0AB
:10358000012010BD002084F83C00204600F01EF809
:10359000022084F83D00211D206801F0CDFD0120AE
:1035A00084F8460084F83E0084F83F0084F8400028
:1035B00084F8410084F8420084F8430084F8440011
:1035C00084F8450084F83D00002010BD7047704726
:1035D00010B50446022249B104290ED0082913D09F
:1035E00094F84100012816D0012010BD94F83E0047
:1035F0000128F9D184F83E200FE094F83F0001281B
:10360000F2D184F83F2008E094F840000128EBD183
:1036100084F8402001E084F841200122206801F074
:10362000DBFD12492068884203D1426C42F400421B
:103630004264206888420ED0B0F1804F0BD00C4914
:10364000884208D00B49884205D00B49884202D0F5
:103650000A49884204D1816801F00701062903D094
:10366000016841F001010160002010BD000001402F
:103670000004004000080040000C004000400140F1
:1036800070B500681B4988422AD10A20FEF7DCFA8F
:10369000194C2078012802D16068401C606001F05C
:1036A00083FE60702078012820D1627800200146D6
:1036B0005FF0010505FA01F3134201D0401CC0B2CE
:1036C000491CC9B20829F5D3C01E022809D8606870
:1036D000642806D94FF4FA7001F01EF90220207018
:1036E00070BD607801F0A6FE01F096F9BDE870406B
:1036F000FEF7D0B80000014000000020704770477E
:1037000070470000F8B5016804460868CA684B694C
:1037100010F00F0F4FF0000559D003F0010602F42E
:103720009077374365D0C10705D0D10503D5616CCB
:1037300041F001016164410705D5D90703D0616CEF
:1037400041F002016164810705D5D90703D0616C9E
:1037500041F004016164010707D502F02001314303
:1037600003D0616C41F008016164616C00293AD0BA
:10377000800604D5900602D5204601F0B6FF2068E9
:103780004069616CC0F38010090700D460B3204623
:1037900001F076FF20684069400621D5206814308A
:1037A00050E8001F21F0400140E80012002AF5D146
:1037B000E06BA8B172490165E06BFEF7D6FA00280C
:1037C00011D0E06B016D01B0BDE8F0400847830601
:1037D0000FD593060DD52046BDE8F84001F085BF12
:1037E0002046FFF78DFFF8BD2046FFF789FF65648F
:1037F000F8BD266B2023012E7ED1C6067CD5D606C9
:103800007AD508684868009048694FF0020640067B
:103810004DD5E26B106840684FF480770004000CCF
:103820003AD0A18D814237D9E085D069B8422DD0F8
:1038300020680C3050E8001F21F4807140E800122D
:10384000002AF5D12068143050E8001F21F0010152
:1038500040E80012002AF5D12068143050E8001F1B
:1038600021F0400140E80012002AF5D184F84230EE
:10387000256320680C3050E8001F21F0100140E85B
:103880000012002AF5D1E06BFEF726FA6663A08DE0
:10389000E18D401A81B206E0A18D8142A8D1D069A4
:1038A000B842A5D166632046FFF729FFF8BDA08D79
:1038B000E18D401A81B2E08D0028F7D00029F5D0C3
:1038C00020680C3050E8002F22F4907240E8002766
:1038D000002FF5D12068143050E8002F22F00102AB
:1038E00040E80027002FF5D184F842302563206896
:1038F0000C3050E8002F00E006E022F0100240E813
:103900000023002BF3D1CDE705062BD5150629D5CD
:1039100094F841002128C9D1A068B0F5805F01D199
:103920002069B0B1206A411C21622168007848609A
:10393000E08C401E0004000CE084B7D12068C16810
:1039400021F08001C1602068C16841F04001C16080
:10395000F8BD206A0088C0F308004860206A801C17
:103960002062E5E74006F3D55006F1D5CA68204647
:1039700022F04002CA6084F8413000F037FAF8BD06
:103980003955000870B5040004D094F841000025B2
:1039900010B106E0012070BD84F84050204600F0D0
:1039A00023F8242084F841002068C16821F40051E4
:1039B000C160204601F0FAFE2068016921F49041BF
:1039C00001612068416921F02A0141612068C168D4
:1039D00041F40051C1606564202084F8410084F8FE
:1039E00042006563002070BD2DE9F04F87B00546A9
:1039F00014216846FCF743FEA348DFF88882143898
:103A0000D5F800C0DFF88092022103239F4A4027A7
:103A1000002406154FF0070BC4455AD1D9F8008091
:103A200048F01008C9F80080D9F800C00CF0100C5C
:103A3000CDF814C0D0F800C04CF0010CC0F800C0A4
:103A4000006800F00100059058028DE81300CDE9F0
:103A5000033B69461046FEF71FFBDFF838828C49AE
:103A60004046C8F800104FF0006AC0E901A4C0E960
:103A700003468915C8F81440C0E90641C8F820403B
:103A8000B146C8F82440FEF753FA08B1FEF722F910
:103A9000804EC5F83C806036C8F83850C6E90274DC
:103AA000C6E90494B4617A48F4613462783074628F
:103AB000C6E9000A3046FEF73BFA08B1FEF70AF9FC
:103AC000AE63002211462520B563FEF7DDFD2520FB
:103AD00068E0DFF8C481C44569D1DFF8ACC1A24613
:103AE000ACF1040CDCF8008048F40038CCF800801D
:103AF000DCF800C00CF4003CCDF814C0D0F800C0D5
:103B00004CF0010CC0F800C0006800F00100059006
:103B10000C208DE81300CDE9033B69461046FEF703
:103B2000BBFADFF870915D4909F1C00948464FF0D2
:103B30000068C9F80010C0E90184C0E90346C9F86B
:103B40001440C9F81840C9F81C40C9F82040C9F809
:103B50002440FEF7EDF908B1FEF7BCF8504CC5F86B
:103B60003C904E48C9F838501830A760C4E90008A6
:103B7000C4E903A6C4F814A0C4F818A0C4F81CA093
:103B8000C4F820A02046C4F824A0FEF7D1F908B15B
:103B9000FEF7A0F8AC63002211462620A563FEF7CD
:103BA00073FD2620FEF762FD07B0BDE8F08FDFF859
:103BB000F480C445F8D1D9F80080A24648F0200826
:103BC000C9F80080D9F800C00CF0200CCDF814C062
:103BD000D0F800C04CF0010CC0F800C0006800F044
:103BE000010005904FF4C0508DE813000820CDE986
:103BF000033069461046FEF74FFADFF8A4802449E7
:103C000008F16008183940464FF02069C8F80010E4
:103C1000C0E90194C0E90346C8F81440C8F8184048
:103C2000C8F81C40C8F82040C8F82440FEF780F9C6
:103C300008B1FEF74FF81A4CC5F83C801448C03460
:103C4000C8F838506030A760C4E90009C4E903A689
:103C5000C4F814A0C4F818A0C4F81CA0C4F820A08C
:103C60002046C4F824A0FEF763F908B1FEF732F845
:103C7000AC63002211464720A563FEF705FD4720EF
:103C800090E700000010014044380240000002406C
:103C9000406402400003002000440040886002406D
:103CA000200400200014014090F84230202B01D065
:103CB0000220704721B11AB10023036301F0FCBD5B
:103CC00001207047704770472DE9F843044690F88B
:103CD0004100984616460D46202802D00220BDE835
:103CE000F88385B17EB100206064212084F8410012
:103CF000FEF7CCFAA6848146E684A0682027B0F5BA
:103D0000805F02D003E00120E9E7206910B12E4670
:103D100000250EE000260CE08021204601F01CFE6C
:103D2000A8B9C6B116F8010B21684860E08C401EA6
:103D3000E084E08C4B464FF00002CDF80080002874
:103D4000EAD14FF04001204601F006FE40B184F870
:103D500041700320C3E735F8020BC0F30800E3E726
:103D600084F841700020BAE770B5044690F841002D
:103D7000202801D0022070BD01B3FAB12162A284D3
:103D8000E28400206064212384F84130A56B144B49
:103D9000EB63A56B134B2B64A56B134BEB64A36B0D
:103DA000186520681346A56B021D2846FEF72AF900
:103DB00030B110206064202084F84100012070BDE3
:103DC00021686FF0400008602068143050E8001F40
:103DD00041F0800140E80012002AF5D1002070BDBA
:103DE0003556000877560008475500087047704759
:103DF000FEE701684A69D24352050FD46FF480622E
:103E00004A61002140F8301F202242738173026909
:103E100042F00402026101730120704700207047E4
:103E20002DE9F843044600680D46DDE9089701686E
:103E30009846164641F4807101604B4600224FF0CF
:103E400001112046009700F06BF848B12068006827
:103E5000C00502D54FF4007020640320BDE8F8834C
:103E6000216805F0FE0008613B464A461549204698
:103E700000F09EF888B920684169806900903A4650
:103E80004946204600F0F2F848B1206C042804D1DD
:103E90002068016841F4007101600120DEE7F5B29D
:103EA000B8F1010F09D02168300A08613A46494645
:103EB000204600F0DBF80028E7D1206805610020EB
:103EC000CCE700000200010070B516460D4604461E
:103ED0001EE02046FFF78DFF08B1012070BD681C71
:103EE00016D0FEF7D3F9801BA84200D885B9206808
:103EF0004069C04340070BD5002044F8300F202113
:103F00006173A073216941F0200121612073E4E70E
:103F100020684069C0434007DBD4002070BD00002A
:103F20002DE9F047984617460D460446C1F307466B
:103F3000DDF820902AE000BFB8F1FF3F26D0FEF761
:103F4000A5F9A0EB0901414502D8B8F1000F1DD138
:103F50002068012E16D0806925EA00000004000CBC
:103F600012D00020B84211D1002044F8300F202197
:103F70006173A073216941F0200121612073012048
:103F8000BDE8F0874069E7E70120EBE72068012EF4
:103F90000AD0806925EA00000004000C06D0002049
:103FA000B842C9D00020EBE74069F3E70120F7E70A
:103FB0002DE9F047984616460D4604464FF0000995
:103FC0004FF0200AC1F3074723E020684069C0434F
:103FD000400515D42068016841F400710160216832
:103FE0006FF480604861C4F8309084F83DA084F894
:103FF0003E90216C41F00401216484F83C9021E062
:10400000701C06D0FEF742F9A0EB0800B04203D8BE
:1040100016B1012F1FD021E02068012F15D0806933
:1040200025EA00000004000C18D000BF44F8309FBF
:1040300084F80DA084F80E90216941F020012161DF
:1040400084F80C900120BDE8F087406925EA000063
:104050000004000CEAD12068406901E02068806912
:1040600025EA00000004000CAFD1ECE770B516465D
:104070000D4604461EE02046FFF7BBFE08B10120B6
:1040800070BD681C16D0FEF701F9801BA84200D84D
:1040900085B920684069C04300060BD5002044F86C
:1040A000300F20216173A073216941F0200121614B
:1040B0002073E4E720684069C0430006DBD4002099
:1040C00070BD00002DE9F04703291AD302785B2A5E
:1040D00017D14278DFF894804FF001095D2A02D0B1
:1040E0004518A91E16E04FF6FF714446A8F80010C7
:1040F0000021A8F80210C01CFCF792FAA08084F8F6
:104100000690BDE8F0870278282A02D142785B2A1F
:1041100003D0401C8142F6D8F3E7801C0446FCF72C
:104120007FFA86B200E0641CA54202D920782C28D0
:10413000F9D1A542E5D9641C2046FCF771FA87B293
:1041400000E0641CA54202D920782C28F9D1A542B0
:10415000D7D9601CFCF764FAA8F80060A8F80270D0
:10416000A8F8040088F80690CBE700006C00002057
:104170002DE9F84F074600682249884238D1016886
:10418000C943CA064FF0000129D402684068009074
:10419000F86B0068406880B2802802D2C0F18000CD
:1041A00000E00020184C86B26088864217D06588EF
:1041B000DFF85880894608F1800A0DE018F80510EC
:1041C0006D1C05F07F050A2914D020787F2803D2C2
:1041D0000AF80010401C2070B542EFD166803868A4
:1041E0000168C943090703D4016841680091406828
:1041F000BDE8F88F054821788030FFF763FF84F829
:104200000090E9E70010014068000020F005002060
:1042100010B580210948FCF710FA094900204880B0
:104220000870802205490748FFF73EFD05480068F1
:10423000C16841F01001C16010BD0000F005002010
:10424000680000202802002070B502211848FEF7FF
:1042500013F878B15FF00004FEF718F81549002252
:104260004D784DB10023012D0BD0022D10D0032D20
:104270001CD119E00124EFE7C4B101234B70886021
:1042800014E08D68401B1E2810D374B1022007E093
:1042900044B18B68C01AB0F5FA6F07D3022203202D
:1042A000487003E0012200E004B94B70104670BD75
:1042B00000000240200000200448002101704160FD
:1042C000417081608170C160704700002000002053
:1042D00070B501211848FDF7CFFF78B15FF00004F9
:1042E000FDF7D4FF154900220D784DB10023012DB3
:1042F0000BD0022D10D0032D1CD119E00124EFE7C3
:10430000C4B101230B70486014E04D68401B1E28A7
:1043100010D374B1022007E044B14B68C01AB0F565
:10432000FA6F07D302220320087003E0012200E0A5
:1043300004B90B70104670BD000002402000002040
:10434000214808B5016841F400110160016801F4D9
:1043500000110091016841F48001016000680022B1
:1043600000F48000009011461020FEF78DF9102017
:10437000FEF77CF9002211461120FEF785F9112085
:10438000FEF774F9002211463920FEF77DF9392035
:10439000FEF76CF9002211463A20FEF775F93A2033
:1043A000FEF764F9002211464520FEF76DF945201D
:1043B000FEF75CF9002211464620FEF765F9BDE8DC
:1043C00008404620FEF752B9303802402DE9F0414E
:1043D00086B014216846FCF752F930480024016881
:1043E00041F004010160016801F0040105910168D8
:1043F00041F080010160016801F0800105910168D0
:1044000041F001010160016801F0010105910168BD
:1044100041F0020101600068012200F00200204F1B
:104420005603059031463846FDF72BFFDFF87480C0
:104430004FF47045002229464046FDF722FF112027
:104440000096CDE90104694638460394FDF724FE41
:1044500040F2031001268DE85100134F694638469B
:10446000FDF71AFEF020CDE90004694638460294B3
:10447000FDF712FE40F20740CDE9000469464046D0
:104480000294FDF709FE0095CDE9016469464046B6
:104490000394FDF701FE06B0BDE8F081303802401C
:1044A0000008024000040240000002400D4810B520
:1044B0000B4901600C49416000214FF4804281604A
:1044C000C0E9031241618161C1610162FDF7E4FE4F
:1044D000002803D0BDE81040FDF7FCBB10BD000074
:1044E0000054004094000020A08601000B4810B545
:1044F0000949016000217F22C0E90112FF22C0E9C1
:10450000032141618161FEF73DFC002803D0BDE835
:104510001040FDF7DFBB10BD00280040E800002080
:1045200010B586B0002417480094019402940394B7
:1045300004941349059401606321C0E9011442F217
:104540000F71C0E9031444618461FEF7F7FC08B100
:10455000FDF7C0FB4FF48050009069460948FEF714
:104560007BFD08B1FDF7B6FB049404A9054805944A
:10457000FEF7A6FC002801D0FDF7ACFB06B010BD8D
:10458000000001400801002010B58EB000240794FF
:10459000089409940A940B941C2168460C94FCF727
:1045A0006EF823484FF08041C0E9001441F61F41E6
:1045B000C0E9024104618461FEF7C0FC08B1FDF767
:1045C00089FB4FF48050079007A91948FEF744FD76
:1045D00008B1FDF77FFB1648FEF7CBFF08B1FDF7EA
:1045E00079FB0B940BA912480C94FEF769FC08B1F7
:1045F000FDF770FB602000904FF4E150CDE901041D
:10460000002269460A480494FEF74DFF08B1FDF701
:1046100061FB0422694606480194FEF744FF08B195
:10462000FDF758FB0248FEF701FF0EB010BD000079
:104630005001002010B58CB024216846FCF71FF80B
:1046400000241648099414490A94C0E900144FF64E
:10465000FF71C0E90241046184610320CDE90004D7
:104660000120CDE902040494CDE905400794694690
:104670000A480894FEF75EFD08B1FDF72BFB09948C
:1046800009A906480A94FEF71BFC002801D0FDF793
:1046900021FB0CB010BD0000000400409801002078
:1046A00010B58CB024216846FBF7E9FF00241648BA
:1046B000099414490A94C0E900144FF6FF71C0E947
:1046C0000241046184610320CDE900040120CDE9A9
:1046D00002040494CDE90540079469460A48089409
:1046E000FEF728FD08B1FDF7F5FA099409A9064877
:1046F0000A94FEF7E5FB002801D0FDF7EBFA0CB0B9
:1047000010BD000000080040E00100200C4810B57A
:104710000A4901604FF4E1314160002181600C22BF
:10472000C160C0E904128161C161FFF72BF9002863
:1047300003D0BDE81040FDF7CDBA10BD0010014018
:10474000280200200C4810B50A4901604FF4E131FD
:104750004160002181600C22C160C0E904128161C6
:10476000C161FFF70FF9002803D0BDE81040FDF745
:10477000B1BA10BD00440040700200200C4810B5D2
:104780000A4901604FF4E1314160002181600C224F
:10479000C160C0E904128161C161FFF7F3F800282C
:1047A00003D0BDE81040FDF795BA10BD00140140DC
:1047B000B8020020FEE700002DE9F0471A4D1B4C1F
:1047C0001B4F061E41F61F484FF480514FF400590D
:1047D0000CDD01222846FDF754FD002249462846FB
:1047E000FDF74FFD4246002130460DE04FF000023C
:1047F00028460CDAFDF745FD012249462846FDF71B
:1048000040FD42460021704201F022F907E0FDF729
:1048100038FD002249462846FDF733FD0020E060C0
:1048200039688863BDE8F08700040240300000204A
:10483000500100202DE9F0471A4D1B4C1B4F061E5E
:1048400041F61F484FF480414FF400490CDD01222E
:104850002846FDF716FD002249462846FDF711FDC2
:104860004246002130460DE04FF0000228460CDAA7
:10487000FDF707FD012249462846FDF702FD4246A5
:104880000021704201F0E4F807E0FDF7FAFC002295
:1048900049462846FDF7F5FC002020613968486349
:1048A000BDE8F087000402403000002050010020E5
:1048B00070B5164C2078002824D0FDF7E7FCE1699C
:1048C000884220D3124D00224FF480512846FDF734
:1048D000D8FC00224FF400512846FDF7D2FC0022FC
:1048E0004FF480412846FDF7CCFC00224FF40041F4
:1048F0002846FDF7C6FC074900200A68906309684E
:104900004863207070BD012070BD000030000020A1
:10491000000402405001002070B5134C05460122EE
:1049200011032046FDF7ADFC012251032046FDF79F
:10493000A8FC012291032046FDF7A3FC0122D1032C
:104940002046FDF79EFC094800210268916300683B
:104950004163074C01206160A1602070FDF796FC67
:104960002844E06170BD00000004024050010020B6
:104970003000002010B504210548FEF729FE002173
:104980000348FEF725FEBDE8104000F083B80000A4
:1049900050010020014AC2E90101704730000020A7
:1049A00010B51C482DED048BDFED168A9FED168A9D
:1049B0009FED169ADFED169AF0EE681AB0EE481ADF
:1049C000F0EE490AB0EE690A00F02AFA1148F0EE5A
:1049D000681AB0EE481AF0EE490AB0EE690A2030C3
:1049E00000F01EFAB0EE480A0A4800F035FAB0EEC0
:1049F000480ABDEC048B0748BDE81040203000F0A9
:104A00002BBA000000F8E04500000000CDCCCC3D02
:104A10009A99193F9405002010B51A481B4C2DEDAA
:104A2000028B90ED020A1848F8EEC00A90ED028A57
:104A300084ED050A84ED068A94ED010A1448B8EE67
:104A4000C00A00F067F9F0EE408A94ED020A1048BF
:104A5000F8EEC80AB8EEC00A203000F05BF9B0EEFC
:104A6000408ABDEEE80A10EE100AFFF7A5FEBDEE83
:104A7000C80ABDEC028BBDE8104010EE100AFFF72B
:104A8000D9BE0000740500208405002030000020FD
:104A90009405002010B5114C00224FF4805120469F
:104AA000FDF7EFFB00224FF400512046FDF7E9FB34
:104AB00000224FF480412046FDF7E3FB00224FF433
:104AC00000412046FDF7DDFB054900200A689063A0
:104AD0000968486303494860886010BD00040240CB
:104AE0005001002030000020FEE770B5002404F1E2
:104AF000B000C0B200F0EAF8002000F0E7F81020A3
:104B000000F0E4F80025002000F0F2F86D1CEDB292
:104B1000802DF8D3641CE4B2082CE8D370BD0000EB
:104B200070B5C820FDF7A6FA044D0024285D00F0FA
:104B3000CDF8641CE4B2172CF8D370BD50000020EF
:104B400010B50446B031C8B200F0C0F8102040EAF9
:104B5000141000F0BBF804F00F00BDE8104000F0A6
:104B6000B5B800002DE9F047203A0024089E0F4612
:104B70008146D5B27F2803D900208F1C8146FFB221
:104B8000102B394612D0FFF7DBFF1B4905EB450020
:104B900001EB4005285D0EB1C043C0B200F0A8F89B
:104BA000641CE4B2062CF5D3BDE8F087FFF7C8FF1C
:104BB000DFF8488004EB051118F801000EB1C0437E
:104BC000C0B200F095F8641CE4B2082CF2D37F1C4C
:104BD000F9B24846FFF7B4FF0024474604EB05103E
:104BE0003844007A0EB1C043C0B200F081F8641CB2
:104BF000E4B2082CF2D3D7E7AC600008D462000816
:104C00002DE9FF4F81B00026DDE90EA91D46934630
:104C1000804634464FEA5A0727E0281B401EC1B29F
:104C20000A2001F079F9BBFBF0F00A21B0FBF1F2A8
:104C300001FB120026B9691E8C4201DA48B1012637
:104C40003030C2B207FB0480C0B25346CDF80090AA
:104C500006E007FB0480C0B253462022CDF8009046
:104C60000299FFF77FFF641CE4B2AC42D5D305B0D4
:104C7000BDE8F08F2DE9F8431E46174689460446E5
:104C80000025DDF8208014E0334649462046CDF863
:104C90000080FFF767FF0C2E10D00834E4B27A2CA6
:104CA00001D90C2E0CD0782C01D9102E08D06D1CF7
:104CB000EDB27A5D002AE7D1BDE8F883A41DEDE7E7
:104CC00009F10100002400F0FF09F0E701B584B00C
:104CD00001214FF4807204A88DE807000B460022E2
:104CE00078210248FDF79CFB05B000BD9400002030
:104CF00001B584B001214FF4807204A88DE807004B
:104D00000B46402278210248FDF78AFB05B000BD22
:104D10009400002090ED012AD0ED041A30EE601AC4
:104D2000D0ED000A22EE210AD0ED052A00EE810A1C
:104D300071EE622AD0ED020A00EEA20AD0ED030A5B
:104D4000F4EEC00AF1EE10FA02D2B0EE600A08E00A
:104D5000F1EE602AF4EEC02AF1EE10FA01DDB0EEB9
:104D6000620AB5EEC02AF1EE10FA53DDF1EE602AC8
:104D7000F4EEC02AF1EE10FA04D2F4EEC00AF1EE1D
:104D800010FA13DCB5EEC01AF1EE10FA04DDF4EE01
:104D9000C02AF1EE10FA09DAB5EEC01AF1EE10FAF7
:104DA00008D2F4EEC00AF1EE10FA03D871EE811ABF
:104DB000C0ED041AC0EE821AD0ED040AF4EEE10A46
:104DC000F1EE10FA01DDC0ED041A90ED042AF1EEC7
:104DD000610AB4EEE02AF1EE10FA01D2C0ED040A45
:104DE000D0ED070AF5EEC00AF1EE10FA0DDDF7EE90
:104DF000001A90ED062A71EEE01A61EE821AB0EE0A
:104E0000402AB0EE610A00EE820A80ED060A80EDCB
:104E1000051A7047DFED010AE0E70000000000001E
:104E200080EC040A9FED050A80ED040A80ED050A76
:104E300080ED060A80ED070A7047000000000000C0
:104E40009FED040A80ED040A80ED050A80ED060A54
:104E50007047000000000000B5EEC00AF1EE10FA45
:104E600002D29FED060A06E010EE101AB1F17E5F45
:104E700001DDB7EE000A80ED070A70470000000070
:104E8000704700002DE9F041044600680025C16824
:104E9000490618D4C16841F08001C160FDF7F6F9F8
:104EA00006464FF47A78042707E000BFFDF7EEF9D5
:104EB000801B404501D9677701252068C0684006FE
:104EC00001D4002DF2D02846BDE8F08170B504462B
:104ED00000680025C16821F08001C16020688068F9
:104EE000800606D42046FDF7B9FF10B10420607794
:104EF0000125284670BD70471CB500788DF800006C
:104F0000F3208DF80100AB208DF8020009B10120DB
:104F100000E000208DF8030000208DF804006B20D5
:104F20008DF805000621684600F044F81CBD00001D
:104F30001CB5044600788DF800009A208DF8010019
:104F400004208DF8020000208DF803006B208DF8FE
:104F500004000521684600F02DF89FED020A84ED5B
:104F6000020A1CBD000000002DE9F0410F461E465C
:104F7000154604461C21FBF782FB277065802671CD
:104F80002773FD2060730020A073290AE173257444
:104F90006674A074E07420756075A075E0756B2070
:104FA0009FED030A207684ED020ABDE8F08100003F
:104FB00000000000054A00BF92F84130212BFBD0D1
:104FC0000A4601460148FEF7CFBE0000B8020020A5
:104FD00010B504462DED028BB0EE408A90ED020A2A
:104FE00038EE400AB5EEC00AF1EE10FA3FD09FED60
:104FF000211AC0EE010A9FED200A20EE800ABDEEC4
:10500000C00A10EE100A002831D002DC4FF0010176
:1050100001E04FF0000101DCC0F1000022782273B2
:105020004FF0FD026273A17361884FF064034FEA91
:105030001122E2732174217961744FEA1061A17425
:105040004FEA1041E1744FEA1021217560754FF06D
:105050000000A075E0754FF06B0020764FF00D0258
:1050600004F10C010548FEF72FFE84ED028ABDEC29
:10507000028B10BD0000B44300004845B802002078
:10508000FDF79ABA30B593B030216846FBF7F7FACE
:1050900014210CA8FBF7F3FA1E480025016841F023
:1050A00080510160006800F0805011901A4801683A
:1050B00041F4404101600068022400F44040119036
:1050C000092000904FF4803001900120CDE90504C3
:1050D000800507900C2008906020CDE90904042089
:1050E0000B906846FDF798FC08B172B6FEE70CA974
:1050F0000F2081E831004FF48050CDE90F050321E6
:105100000CA8FDF79DFB002801D072B6FEE713B096
:1051100030BD000040380240007000400248016885
:1051200041F470010160704788ED00E00148FEF72E
:10513000E5B8000008010020F0B502681F4B204CC4
:10514000204D214E4FF0804C984207D0604505D04D
:10515000A04203D0A84201D0B04203D122F0700790
:105160004A683A43984210D060450ED0A0420CD015
:10517000A8420AD0B04208D0144CA04205D0144C2A
:10518000A04202D0134CA04203D122F44074CA685A
:1051900022434C6922F0800222438C68C4620C686E
:1051A0008462984201D109690163016841F00401F8
:1051B0000160012141610260F0BD0000000001407A
:1051C0000004004000080040000C00400040014086
:1051D000004401400048014010B501F01F030121C7
:1051E000046A99408C430462016A9A401143016247
:1051F00010BD10B5846842EA032224F47F440A43B8
:105200002243826010BD826822F070020A4342F09D
:10521000070181607047000030B5036A026A22F01E
:10522000010202624268846924F073050C682C4311
:1052300023F002058B682B430A4DA8420BD123F0C3
:105240000805CB6822F440722B434D6923F0040318
:1052500015438A692A434260846149684163036255
:1052600030BD00000000014030B5026A036A23F03F
:1052700010030362436884690D6824F4E64444EA39
:1052800005248D6822F0200242EA05120B4DA84247
:105290000ED1CD6822F0800242EA05124D6923F456
:1052A000406343EA85038D6922F0400243EA8503A7
:1052B0004360846149688163026230BD000001403F
:1052C00030B5036A026A22F4807202624268C469DD
:1052D00023F4007324F073050C682C438D6843EAB3
:1052E00005230C4DA8420ED1CD6823F4006343EA98
:1052F00005234D6922F4405242EA05128D6923F4D8
:10530000806342EA05124260C4614968C163036276
:1053100030BD00000000014030B5046A026A22F48A
:10532000805202624268C3690D6823F4E64343EA8F
:1053300005238D6824F4005444EA0534064DA84240
:1053400004D14D6922F4804242EA85124260C36171
:1053500049680164046230BD0000014010B5036A71
:10536000046A24F001040462846924F0F00444EA2D
:10537000021423F00A020A438461026210BD10B5D0
:10538000036A046A24F010040462846923F0A00311
:1053900024F4704444EA023243EA0111826101625A
:1053A00010BD00F001B800000A4800690F2121EA91
:1053B000101009490B6803229A4340EA02100A6858
:1053C000520701D440F040000968490501D440F07B
:1053D00080007047000002401004024010B53421E4
:1053E0000F48FBF74CF90E4C0020DFED0E1A207031
:1053F0004FF47A70606240F2DC50A062E062B7EE77
:10540000001ADFED090A9FED090A201DFFF708FDCC
:10541000201DBDE810409FED060AFFF71DBD0000EE
:10542000400500200080BB4452491D3A0AD7A33DE5
:1054300000000000F8B50025DFF8C0C08DF800506E
:105440006C462E462A462946012700BF07FA01F37B
:10545000034204D03CF91130521C1E44D2B2491C04
:10546000C9B20829F2D304B122702548254C22B1D3
:10547000072A06D32178B9B337E02178054699B3D6
:1054800006E096FBF2F10DB2217869B385422CD18A
:1054900002202070201DFFF7D3FC2078022826D0A0
:1054A000012820D100EE105A2586201DF8EEC00AF2
:1054B0009FED150AFFF72EFCBDEEC00A616A41F6AA
:1054C0001F4710EE100A7E423A460D1A0844314634
:1054D00000F0C6FA04463A463146284600F0C0FAC3
:1054E0002146FFF757FAF8BD05E02770DAE794F890
:1054F00032000028F7D1FFF7CDFAF4E79C600008EE
:105500000080FFFF40050020000000000548012149
:1055100000F8321B00F80219002120F82C19FFF7BF
:105520008FBC000040050020024900200870FFF7F2
:10553000B1BA00004005002010B5806B0021C18584
:10554000FEF7DEF810BD70B5846B2068406994F8F2
:105550004110C0F3C0100025212904D118B1E58401
:10556000204600F0B4F82068406994F84210C0F377
:105570008010222904D118B1E585204600F080F87A
:10558000606C40F0100060642046FEF7B9F870BD12
:1055900010B50146806B096809684FF00002C90523
:1055A0002ED4C28501680C3151E8003F23F480738A
:1055B00041E80034002CF5D10168143151E8003F76
:1055C00023F0010341E80034002CF5D101681431C7
:1055D00051E8003F23F0400341E80034002CF5D1AE
:1055E000202180F84210016B012909D101680C319A
:1055F00051E8003F23F0100341E80034002CF5D1BE
:105600004263016B012902D0FEF75CFB10BD818D66
:10561000FEF775F810BD10B5806B01214163016B79
:10562000012902D0FEF74FFB10BD818D4908FEF71E
:1056300066F810BD10B50146806B09680968C90598
:1056400016D40021C1840168143151E8002F22F0E2
:10565000800241E80023002BF5D101680C3151E8AC
:10566000002F42F0400241E80023002BF5D110BD8D
:10567000FEF7BCFB10BD10B5806BFEF7B8FB10BD8C
:1056800001680C3151E8002F22F4907241E80023A8
:10569000002BF5D10168143151E8002F22F00102EE
:1056A00041E80023002BF5D1016B012909D10168E4
:1056B0000C3151E8002F22F0100241E80023002BAA
:1056C000F5D1202180F84210002101637047016864
:1056D0000C3151E8002F22F0C00241E80023002BDA
:1056E000F5D1202180F84110704708B590F842109C
:1056F000222901D0022008BD82684FF480539A42CB
:1057000001D1016921B1816A9A421BD04AB10AE0F4
:105710000268816A5268C2F308020A80816A891CA1
:1057200008E0026972B10268526802F07F020A70F2
:10573000816A491C8162C18D491E0904090CC18519
:1057400003D01BE002685268F1E70168CA6822F0E2
:105750002002CA600168CA6822F48072CA600168C7
:105760004A6922F001024A61202180F8421000219A
:105770004163026B012A03D0FEF7A4FA002008BDA2
:10578000016301680C3151E8002F22F0100241E85A
:105790000023002BF5D101680A68D20602D50A68F9
:1057A00049680091818DFDF7AAFFE7E770B50446CF
:1057B00000680169E26821F44051114301612169E7
:1057C000A068E26908436169114308432168CA6817
:1057D00049F20C639A430243CA6020684169A26996
:1057E00021F440711143416131492068884202D05F
:1057F0003049884202D1FDF7CDF801E0FDF7BAF853
:10580000E2690023192164253226B2F5004F62684F
:1058100028D0A0FB0101930F9200FAF745FD014645
:10582000B0FBF5F06FF01802504301EB800006EB7F
:105830000010B0FBF5F000F0F002B1FBF5F002EB68
:105840000012B1FBF5F06FF01803584301EB800034
:1058500006EB0010B0FBF5F000F00F0021681044DB
:10586000886070BDA0FB010192185B41FAF71CFD36
:105870000146B0FBF5F00201B1FBF5F06FF0180343
:10588000584301EB800006EBC000B0FBF5F000F0E0
:10589000F80002EB4002B1FBF5F0584301EB800049
:1058A00006EBC000B0FBF5F000F00700D6E7000003
:1058B000001001400014014038B581620446828521
:1058C000002013466064222284F84220E56B1F4AC0
:1058D000EA63E56B1E4A2A64E56B1E4AEA64E26BE2
:1058E00010650A462168E06B091DFCF78BFB30B19F
:1058F00010206064202084F84200012038BD206818
:10590000016840680090206948B120680C3050E878
:10591000001F41F4807140E80012002AF5D1206890
:10592000143050E8001F41F0010140E80012002A45
:10593000F5D12068143050E8001F41F0400140E8E4
:105940000012002AF5D1002038BD00009155000852
:1059500017560008475500082DE9F84398461746A2
:105960000D460446089E24E0701C22D0FCF78EFCF5
:10597000A0EB0800B0421AD8CEB12068C168490730
:1059800017D5802D15D0402D13D00168C9430907C4
:105990000FD401680025406800902046FFF770FE94
:1059A0000820606484F840500120BDE8F88303209B
:1059B000FBE72068006835EA000004D00020B84208
:1059C000D2D00020F1E70120F9E700000148FEF7FE
:1059D000CFBB0000280200200148FDF793BE000065
:1059E000700200200148FDF78DBE0000B8020020C3
:1059F000FEE703B401984100009850EAC12018BFA7
:105A000004204A0D18BF40F0010040F2FF72B2EBD3
:105A1000515F08BF40F00200012808BF052002B016
:105A200070470907090E002804DB00F1E02080F828
:105A30000014704700F00F0000F1E02080F8141D02
:105A4000704730380A2801D2012070470020704783
:105A5000884201DA084670479042FCDD10467047E4
:105A6000884201DA084670479042FCDD10467047D4
:105A70009AB0FCF7A9FDFFF705FBFEF7A7FCFEF7C0
:105A80005FFCFEF713FDFEF731FDFEF749FDFEF763
:105A90003DFEFEF779FDFEF7CDFDFEF701FEFEF7B8
:105AA00051FEFEF76BFEFFF73BF8FFF71EF80024F0
:105AB0000C23DEA2214620460094FFF7DBF8FFF717
:105AC00070FCFEF757FFFCF797F8FEF7F5FBFFF7C2
:105AD00085FCFEF765FFAF234FF4FA720121D6482B
