:020000040800F2
:10000000D80D002071020008855300081D46000825
:1000100051500008A51C00080563000800000000FE
:1000200000000000000000000000000093570008DE
:10003000E11F0008000000001D5700087D5900085E
:100040008B0200088B0200088B0200088B0200085C
:100050008B0200088B0200088B0200088B0200084C
:100060008B0200088B0200088B0200088B0200083C
:100070008B0200088B0200088B0200088B0200082C
:10008000F51E0008011F00088B0200080000000098
:100090000000000000000000000000008B020008CB
:1000A0008B020008295A00088B0200088B02000806
:1000B0008B0200088B0200088B0200088B020008EC
:1000C0008B0200088B0200088B0200088B020008DC
:1000D0008B020008E1620008ED62000800000000E9
:1000E0008B0200088B0200088B0200080000000051
:1000F0000000000000000000000000008B0200086B
:10010000000000008B0200088B0200088B02000830
:1001100000000000000000000000000000000000DF
:100120008B0200080D1F0008191F00088B02000831
:100130008B0200080000000000000000000000002A
:100140000000000000000000000000008B0200081A
:100150008B020008251F0008311F0008F962000803
:100160008B0200088B020008000000000000000065
:10017000000000000000000000000000000000007F
:10018000000000008B0200080000000000000000DA
:100190008B0200088B02000800F002F800F058F80B
:1001A0000AA090E8000C82448344AAF10107DA45D2
:1001B00001D100F04DF8AFF2090EBAE80F0013F0CC
:1001C000010F18BFFB1A43F0010318476C780000B9
:1001D0008C780000103A24BF78C878C1FAD852074A
:1001E00024BF30C830C144BF04680C6070470000B1
:1001F0000023002400250026103A28BF78C1FBD830
:10020000520728BF30C148BF0B607047662906F00F
:100210008D87642900F03081752900F02D817329C4
:1002200000F02785002070471FB506F07AFF00F028
:1002300069FD04000020002106F0E6FE401C60601D
:100240000020002106F0CAFEE0601FBD10B510BD01
:1002500000F0A4FE1146FFF7E7FF06F093F800F068
:10026000D0FE03B4FFF7F2FF03BC00F013FF000061
:100270000948804709480047FEE7FEE7FEE7FEE73A
:10028000FEE7FEE7FEE7FEE7FEE7FEE70448054976
:10029000054A064B70470000195A000899010008EA
:1002A000D8070020D80D0020D8090020D809002048
:1002B00053EA020C00F069802DE9F04B4FF0000684
:1002C000002B1FBFB3FA83F503FA05F424FA05F6F1
:1002D0005E4012BF1643B2FA82F502FA05F4C5F188
:1002E00020051EBF22FA05FC44EA0C04203556EA1C
:1002F000044C4FEA144418BF641C4FF000084FF040
:100300000009904271EB030C39D3002919BFB1FAEF
:1003100081F701FA07F6B0FA80F700FA07F6C7F19D
:1003200020071EBF20FA07FC46EA0C062037B6FB62
:10033000F4FCA7EB0507103F07F01F0BCBF12006DD
:100340000CFA0BFB2CFA06F644BFB3460026202F0E
:10035000A4BF5E464FF0000B5BEA060C08BF4FF0EF
:10036000010B19EB0B09ABFB027C48EB0608C01B29
:1003700006FB02CC0BFB03CC71EB0C01C1E70B4677
:10038000024641464846BDE8F08B13B54FF00000E9
:100390004FF00001AFF30080BDE81C407047000043
:1003A0000FB47CB50C0009AA009001D02044401E77
:1003B000084B7B4469460190089800F028FC0546EC
:1003C0001CB10020694600F035FC28467CBC5DF875
:1003D00014FB00008908000070B5044685690068B8
:1003E000C10601D5302600E02026C00707D070BD29
:1003F000D4E9012130469047206A401C20626D1EDE
:10040000F6D570BD70B5044685690078C00707D180
:1004100070BDD4E9012120209047206A401C206251
:100420006D1EF6D570BD70B50C460546012A05D087
:100430002878800600D5EA69002302E0012305E060
:100440005B1C934202D2E05C0028F9D1A869E6184F
:10045000C01AA861286A184428622846FFF7BCFF22
:1004600004E0D5E9012114F8010B9047B442F8D318
:100470002846FFF7C7FF70BD2DE9F041064600246E
:1004800010687529314616A510D0AFF300800028FA
:1004900002DA404213A507E031688A0701D512A5A8
:1004A00002E0490704D511A5012401E0AFF3008063
:1004B00000210A2206F1240709E0B0FBF2FCB0FBA0
:1004C000F2F302FB1C00303078541846491C002817
:1004D000F3D123462A463046BDE8F04100F02AB960
:1004E000000000002D0000002B0000002000000094
:1004F0002DE9F05F894604464FF0000ADFF874B139
:10050000FB44C0F820A02046E1688847002874D04A
:10051000252806D0D4E901219047206A401C20629A
:10052000F1E700265F462046E16888472028054617
:1005300007DB312D05D2781910F8200C08B10643DD
:10054000F1E7B00701D526F00406C4F81CA0002787
:10055000C4F818A02A2D09D0284605F0FCFE38B3AF
:1005600004EB8708303DC8F8185019E059F8041B0F
:10057000204604EB87029161E1688847012F054618
:1005800018D1E069002820DA26F020061DE0D8F80E
:10059000180000EB800005EB40003038C8F8180068
:1005A0002046E1688847054605F0D5FE0028EED1D3
:1005B000012F0AD02E2D08D12046E16888477F1CE4
:1005C0000546022F46F02006C4DBA069002803DAA6
:1005D000404246F00106A061F00701D026F0100667
:1005E0006C2D0BD0682D09D04C2D39D06A2D35D00B
:1005F000742D35D07A2D33D016E038E0E1682F46DF
:1006000020468847B842054609D16C2F26D04FF4C2
:100610008060E168064320468847054604E06C2F69
:100620001AD04FF4807006430DB3A5F1410019288C
:1006300002D8203546F400664A4629462046266000
:100640004E46FFF7E3FD80B101280BD0F61D26F0E2
:10065000070000F1080956E74020E4E78020D8E7CA
:100660000020D6E706F104094DE7284652E7206A44
:10067000BDE8F09F6474000070B5064600F056F8BF
:100680000468054630460A22002100F0F6FA2C6084
:1006900070BD4FF000020429C0F0128010F0030C6E
:1006A00000F01B80CCF1040CBCF1020F18BF00F865
:1006B000012BA8BF20F8022BA1EB0C0100F00DB814
:1006C0005FEAC17C24BF00F8012B00F8012B48BF72
:1006D00000F8012B70474FF0000200B51346944616
:1006E0009646203922BFA0E80C50A0E80C50B1F18A
:1006F0002001BFF4F7AF090728BFA0E80C5048BF9E
:100700000CC05DF804EB890028BF40F8042B08BF3B
:10071000704748BF20F8022B11F0804F18BF00F837
:10072000012B7047704770477047000000487047C2
:10073000780700202DE9F0470D4699469246044679
:1007400000F124080168880604D5E06921F0100151
:10075000216000E00120A84201DD471B00E00027E6
:10076000A1697A1902EB0900081AA0612078C00675
:1007700002D42046FFF730FE002608E0D4E901212C
:100780001AF806009047206A401C761C20624E45ED
:10079000F4DB2078C0060AD52046FFF71DFE06E0F0
:1007A000D4E9012130209047206A401C2062381E85
:1007B000A7F10107F4DC07E0D4E9012118F80500EE
:1007C0009047206A401C2062281EA5F10105F3DC39
:1007D0002046FFF717FE2078000602D50220BDE86C
:1007E000F0870120FBE770472DE9FF4F0C461E46BE
:1007F0004FF0FF378BB0D2E90001DDF860800A903E
:100800008A46C1F30A5505B93D46002108464FF016
:100810000000BAF1000F00F4400005DA00EB8000A0
:100820004FF4400101EA50004FEA9059B9F1010F2D
:1008300000DDB9460A9850EA4A000ED044F610503E
:10084000A5F2FF3545432F14B8F1000F1ED07542B5
:10085000291E1EDDC9F100021CE0B8F1010F4FF0A6
:10086000000001D0302103E0F24305E02154401C98
:10087000B042FBDB30460022002121540B99C1F825
:100880000880C1E900200FB0BDE8F08FBD1B6D1CD2
:10089000DEE74A4600DA694206A800F00DFB06AB27
:1008A00093E8070003AB83E8070050460A9900F07D
:1008B000F8FB8DE80700A0F500501F380090039862
:1008C000002D0ADD42F21F014A460844002303A915
:1008D0000390684600F061FE09E0A0F500504A462A
:1008E0001F38002303A90390684600F06BFE8DE8D3
:1008F00007000004000C03D04FF0FF30410800E077
:100900001046B8F1000F03D00022009215461EE0F9
:10091000751E05D400F0FAF9303262556D1EF9D516
:10092000B3460122084302D000227F1C04E0207855
:10093000302801D100227F1E002A099784D01DE0B3
:10094000112D07DA00F0E2F9303262556D1C50EAE1
:100950000102F5D1084302D00098C8B10EE0002191
:10096000681E05E0235C625C63542254401E491CEF
:100970008142F7DBAB46A81B401E0990002004F81B
:100980000B000B98099AC0F80880C0E9002B7AE7A1
:1009900011264FF0000857E72DE9F04F884604462E
:1009A000D21D22F0070191B0D1E90001CDE90A0181
:1009B00005F0A9FC02460B98C00F01D02D2007E0DE
:1009C0002068810701D52B2002E0202101EAC00028
:1009D000032A099001D0072A05DB03464146204639
:1009E00000F0DAF90BE12078800601D5E06900E03B
:1009F0000620B8F1650F814606D0B8F1660F18D011
:100A0000B8F1670F70D131E00020B9F1110F0090FB
:100A100001DB112301E009F101030AAA01A90CA8D5
:100A2000FFF7E2FEDDE90C70002609F101058346BF
:100A300047E001204B4600904FF000470AAA01A969
:100A40000CA8FFF7D1FEDDE90DB00C995D4600263C
:100A500010B909F101000D18B9EB050003D4C0F17C
:100A6000FF3609F10105A5EB09002BE0B9F1010FF3
:100A700001DA4FF001090020B9F1110F009048464A
:100A800001DD112300E003460AAA01A90CA8FFF723
:100A9000ABFEDDE90C704D4600268346207800074A
:100AA0000AD4AB4500DA5D4601A8012D04DD4119E9
:100AB00011F8011C302907D04F4502DA17F1040F55
:100AC00004DA012082460FE06D1EEEE7002F02DC03
:100AD000ED1B3E4403E0781CA84200DD7D1CB81BE2
:100AE00000F1010A4FF000472078000703D4AA451F
:100AF00001DB4FF0FF3A0021B7F1004F0DF1430841
:100B00008DF8431024D002202B23002F01DA7F42DE
:100B10002D230A21021EA0F1010000DC5FB197FB2A
:100B2000F1FC97FBF1F201FB1C7C17460CF1300C39
:100B300008F801CDEEE7A8F101000370218809054E
:100B400001D5452100E06521A0F1010800F8011C54
:100B500009980FA9A1EB0807FF1D00B10120411959
:100B600001EBEA70A1693844081A401EA0612078A0
:100B7000C00602D42046FFF72FFC099828B1D4E91B
:100B800001219047206A401C20622078C00622D5AF
:100B90002046FFF721FC1EE0002E04DBB34502DDFA
:100BA00001A8805D00E03020D4E901219047206A4F
:100BB000401C2062761CAAF101005FEA000A0AD1FB
:100BC00000F0A0F8C0680168405CD4E901219047BA
:100BD000206A401C2062281EA5F10105DCDC07E02C
:100BE000D4E9012118F8010B9047206A401C2062CB
:100BF000381EA7F10107F3DC2046FFF703FC0320B2
:100C000011B041E601694A1C02610878704700B5DD
:100C10008FB0CDE901310021059105497944CDE935
:100C2000031011466846FFF763FC0FB000BD0000DB
:100C3000E5FFFFFF0A6802F8010B0A607047D1E97F
:100C400000239A4202D2531C0B601070704710B5FB
:100C5000436913B1AFF3008001E0FFF7E4FB01202B
:100C600010BD127800F124010A7000224A7001229E
:100C7000EDE711684FF0FF32E9E72DE9F0479146C3
:100C80000F4680460446002614F8015B2DB100F0A3
:100C900031F80068405DC007F6D12B2D02D02D2D14
:100CA00018D0641E4A463946204600F0B5F827B1F0
:100CB0003968A14201D1C7F800804FF002047105E4
:100CC0000BD54042002803DDFFF730FD0460A0078C
:100CD000BDE8F08746F48066E4E70028F8DAFFF71D
:100CE00025FD04606FF00040F2E700000048704707
:100CF0007807002010B500F005F8001D10BD00BFFA
:100D000009630000004870479807002030B5B0F133
:100D10000A024FEA900E71F100034EEA817EB0EBB9
:100D20000E0061EB91014FEA101E4EEA017E10EBBE
:100D30000E0041EB11114FEA102E4EEA016E10EB3E
:100D40000E0041EB11214FEA104E4EEA014E10EB1E
:100D50000E0041EB1141401841F100014FEAD00073
:100D600040EA41704FEAD10110EB80054FEA81045F
:100D700044EA907444EB01046D1944EB0404521BE3
:100D8000A3414FF0000348BF0A3200D530BD401CDC
:100D900041F1000130BD00002DE9F0411F4604463D
:100DA00003260168072A01F4006004DB08B116A5D8
:100DB00005E016A503E008B115A500E015A521F092
:100DC00010002060A069C01EA0610FB1401EA0618C
:100DD0002046FFF701FB4FB1D4E901213846904787
:100DE000206A401C2062C01C206206E0206AFAE7EC
:100DF000D4E9012115F8010B9047761EF8D2204660
:100E0000FFF700FBBDE8F0814E414E006E616E00C1
:100E1000494E4600696E66002DE9F05F8246154630
:100E20008B4600270AF10104B9460078302801D02A
:100E30009DB113E014F8010B0127782803D058283E
:100E400001D045B10AE00DB1102D07D1002714F8EB
:100E5000010B102502E0082500E00A250026B04617
:100E60000EE005FB080005FB06F101271FFA80F8DC
:100E700001EB1046B6F5803F00D3B94614F8010BDC
:100E8000294600F0B0F80028EBDABBF1000F05D0DE
:100E90000FB1641E00E05446CBF80040B9F1000FDA
:100EA00006D0FFF743FC02210160C81EBDE8F09F99
:100EB00048EA0640FAE700002DE9F0478146164669
:100EC0008AB0354878440DC88DE80D003248784422
:100ED000801C03AC0DC884E80D0041F69B3008442B
:100EE000372190FBF1F290FBF1F5A5F1800501FBB4
:100EF00012041B3C02D56442012000E00020DFF810
:100F000098A080460027FA44AAF1BE0A0EE0E00746
:100F10000AD03246684607EB470101230AEB8101FC
:100F200000F050FB8DE8070064107F1C002CEED110
:100F3000194F7F44AE3F19E0E80715D007EB0410C6
:100F40000DF1180A90E80E008AE80E00C068F04221
:100F500001D1981908903246012306A903A800F090
:100F600031FB03AB83E807006D10641C002DE3D157
:100F70004FF0010332466946B8F1000F03A802D0D2
:100F800000F00BFB01E000F01DFBC9E90001C9F80E
:100F900008200AB0BDE8F087306B00007546FFF707
:100FA000A5FEAE4605006946534620F0070085467B
:100FB00018B020B5FFF76AF9BDE820404FF00006F1
:100FC0004FF000074FF000084FF0000B21F0070131
:100FD000AC46ACE8C009ACE8C009ACE8C009ACE874
:100FE000C0098D4670473A2800D2303820F02002E0
:100FF000412A01D3A2F13700884201D34FF0FF30DC
:10100000704710B50446AFF300802046BDE810409D
:10101000FFF727B94FF0013C50F8042B51F8043B7F
:101020009A4221D1A2EB0C03934313EACC1317D1BC
:1010300050F8042B51F8043B9A4215D1A2EB0C0353
:10104000934313EACC130BD150F8042B51F8043B13
:101050009A4209D1A2EB0C03934313EACC13DBD0E1
:101060004FF00000704700BFD01A01BAB1FA81F109
:1010700001F0180122FA01F0CB40C1F12001DBB2EE
:10108000C0B2C01A2CFA01F3D11A914311EAC3116C
:10109000E6D1704701491820ABBEFEE726000200EA
:1010A00070475FEA400C08BF91F0000F4FEA8C23B5
:1010B0004FEAC12243EA51514FEA1C5018BF00F5D4
:1010C000F0404FEA300018BF41F000415FEA6C5C2D
:1010D00000F02980BCF1FF3F08BF40F0804070471E
:1010E000130C06BF12044FF0100C4FF0000C130E3F
:1010F00004BF12020CF1080C130F04BF12010CF113
:10110000040C930F04BF92000CF1020CD30F04BF28
:1011100052000CF1010C11464FF00002A0F11F002B
:10112000A0EB0C00704711F0004F08BF704731F082
:1011300000413FF4D5AF0B0C06BF09044FF0100C73
:101140004FF0000C0B0E04BF09020CF1080C0B0F42
:1011500004BF09010CF1040C8B0F04BF89000CF1D2
:10116000020CCB0F04BF49000CF1010CCCF12003A1
:10117000A0EB0C0022FA03F302FA0CF241EA03019D
:1011800000F10100704720F07F4C80EA030023F05B
:101190007F47ACEB070303F57C5300F0004003F1FD
:1011A000FF032DE980494FEA154B09B44FEA144378
:1011B00025EA0B4E24EA03480FF2042606EB132718
:1011C00049083E785FEA320203FB0667C7F500076D
:1011D00007FB06F64FEA54374FEAD64606F10206F9
:1011E00007FB066CCCF1005C4FEA1C472CEA074C6D
:1011F00007FB06F40CFB06F504EB15464FEA9616C2
:1012000034BF00204FF000404FEAD13706FB07FC07
:101210004FEA1C4C0CFB0BF7D21B03FB0CF761EBEA
:1012200007010CFB0EF7B0EB074072EB17420CFB0B
:1012300008F734BFA2EB0742B2EB074261EB17415C
:101240004FEA0C444FEA910706FB07FC4FEA1C4C9F
:101250000CFB0BF7B0EBC74072EB573203FB0CF7FC
:1012600034BFA2EBC742B2EBC74261EB57310CFB74
:101270000EF7B0EBC70072EB57720CFB08F734BFE8
:10128000A2EBC702B2EBC70261EB5771039F4FEAB3
:10129000816141EA921104EBCC044FEAD1374FEA65
:1012A000826206FB07FC42EA90124FEA80604FEA36
:1012B0001C4C0CFB0BF7D21B03FB0CF761EB07017B
:1012C0000CFB0EF7B0EB074072EB17420CFB08F774
:1012D00034BFA2EB0742B2EB074261EB17414FEA82
:1012E0008C554FEA910704EB9C2406FB07FC4FEA60
:1012F0001C4C0CFB0BF7B0EBC74072EB573203FBF7
:101300000CF734BFA2EBC742B2EBC74261EB5731D7
:101310000CFB0EF7B0EBC70072EB57720CFB08F733
:1013200034BFA2EBC702B2EBC70261EB577115EBFA
:101330004C254FEA816141EA92114FEA82624FEAFD
:10134000D13742EA901206FB07FC44F100044FEA51
:1013500080604FEA1C4C0CFB0BF7D21B03FB0CF715
:1013600061EB07010CFB0EF7B0EB074072EB174285
:101370000CFB08F734BFA2EB0742B2EB074261EB6C
:10138000174115EB1C154FEA813141EA92414FEAB2
:10139000823242EA90424FEA80304FEA0C7644F1C2
:1013A000000448EA03434EEA0B484FF0000EB2EB4C
:1013B000080C71EB030724BF624639464EEB0E0E54
:1013C0004FF0000B0018524149414BEB0B0BB2EBB5
:1013D000080C71EB03077BF1000B24BF6246394612
:1013E0004EEB0E0E4FF0000B0018524149414BEBF3
:1013F0000B0BB2EB080C71EB03077BF1000B24BF66
:10140000624639464EEB0E0E51EA020718BF46F00F
:10141000010616EB0E7655F1000254F1000103D5DA
:10142000BDE88901BDE80088BDE88901BDE8004844
:10143000B619524141EB0101A3F1010370478080CD
:101440007F7E7D7C7B7A797877767675747372711E
:1014500071706F6E6E6D6C6C6B6A6A6968686766D6
:1014600066656464636362616160605F5F5E5E5D68
:101470005D5C5C5B5B5A5A595958585757565655DC
:1014800055555454535352525251515050504F4F3E
:101490004F4E4E4D4D4D4C4C4C4B4B4B4A4A4A498E
:1014A00049494848484747474746464645454544D1
:1014B0004444444343434342424242414141002B5E
:1014C0009C4630D477002BD01CB54FEA370703B4C5
:1014D0004FF010004FF01001BAF1000F06D0BCF130
:1014E000000FDCBF40F0080040F008014FF00000A2
:1014F0000FBCBDE810400BF1010BBBF1010F08BFA1
:101500005FEA170722BF12F1010211F101014FF04A
:10151000004143F1000300F0004043EA000070473F
:10152000F9D35708D0E746EA064613F1400F4FEAD1
:1015300016461FDD13F1200FDFBF16430A460021B8
:1015400020335B42BED0C3F1200746EA064602FACA
:1015500007F74FEA164646EA0706C3F1200722FAC4
:1015600003F201FA07F721FA03F14FF0000342EA10
:101570000702A7E746EA020646EA06464FEA16468B
:1015800046EA0106BCBF46EA0646360C4FF00003A9
:101590004FF000024FF0000194E72DE9804C9A468D
:1015A000934670B491E8380007C831EA400C48BF50
:1015B00034EA430C03D5FFF7E6FDFFF780FFF0BCEC
:1015C000BDE8008C2DE9804C9A46934670B491E8B2
:1015D000380007C810F0804F08BF13F0804F03D1C8
:1015E00000F005F8FFF76BFFF0BCBDE8008C20F0C1
:1015F0007F4780EA030023F07F4C07EB0C03A3F541
:101600007C5300F00040A3F1FE0392F0000F00F0C5
:10161000B38095F0000F00F077802DE901494FEA83
:1016200011404FEA144621EA004800FB06FC24EA78
:10163000064708FB06F607FB08F800FB07F718EB60
:1016400006484CEB164C4FEA124B18EB07484FEA92
:1016500015464CEB174022EA0B4E0BFB06FC25EA25
:1016600006470EFB06F607FB0EFE0BFB07F71EEB0D
:10167000064E4CEB164C4FF000061EEB074E4CEBA3
:10168000174B18EB0B0840F1000018EB0E0B58EB52
:10169000000840F100008F1A4FF000013CBFC94321
:1016A000661B14BFB5EB040C00213CBFC943F61BFD
:1016B0004FEA17444EEA8E0E27EA04454FEA1C47CC
:1016C00004FB07622CEA074C05FB07F70CFB05F649
:1016D00004FB0CFC16EB074642EB174216EB0C46DC
:1016E00042EB1C421BEB060658EB0202414146EA64
:1016F0009E0601D5BDE80189B619524141EB0101B1
:10170000A3F10103BDE801894FEA14454FEA1147EF
:1017100024EA054621EA074C05FB07F406FB07F718
:101720000CFB06F105FB0CFC11EB074144EB1744E5
:101730004FEA124711EB0C4144EB1C4422EA074CE0
:1017400005FB07F206FB07F70CFB06F605FB0CFC96
:1017500016EB074642EB174216EB0C4642EB1C45D4
:101760006A1854F1000148BF7047B619524141EB65
:101770000101A3F10103704795F0000F37D04FEA44
:1017800011424FEA144721EA024624EA074C02FBC1
:1017900007F106FB07F70CFB06F402FB0CFC14EB4D
:1017A000074441EB17414FEA154714EB0C4441EB5A
:1017B0001C4125EA074C02FB07F506FB07F70CFB6B
:1017C00006F602FB0CFC16EB074645EB174516EB3D
:1017D0000C4645EB1C42121951F1000148BF7047FD
:1017E000B619524141EB0101A3F1010370474FEAE1
:1017F00014454FEA114724EA054621EA074C05FB48
:1018000007F106FB07F70CFB06F24FF0000605FB9D
:101810000CFC12EB074241EB174112EB0C4251EB6F
:101820001C4148BF7047921841EB0101A3F101032D
:1018300070470000014890ED050A7047CC00002079
:10184000054890ED010AD0ED020A30EE600ABDEEC7
:10185000C00A10EE100A7047CC000020014890ED3D
:10186000020A7047CC00002010B50B4C0C484FF416
:10187000967184ED010A84ED020A9FED080A84ED59
:10188000030A84ED040A84ED050A41808021017178
:1018900001F0B2F8E06110BDCC00002000000000B3
:1018A00040060020054801214170002101709FED94
:1018B000040A80ED040A80ED030A7047CC00002082
:1018C000000000000848002190ED010A80ED020AA6
:1018D0009FED060A80ED050A80ED030A80ED040AFB
:1018E0000170417070470000CC0000200000000033
:1018F00010B5074C6078002809D12078002806D060
:1019000094ED080A034803F0AFFF0020207010BDDB
:10191000CC00002040060020014880ED060A7047F8
:10192000CC0000200848D0ED010AF4EE400AF1EEA8
:1019300010FA05D0DFED050AC0ED040AC0ED030A78
:1019400080ED010A70470000CC000020000000007C
:101950002DE9F0472DED068B01F04EF8B84C61787B
:1019600000294ED1B7490988A1F57F42FF3A1AD024
:1019700000EE101AB8EE400AB5EEC00AF1EE10FA09
:1019800011DB10EE101AB04A91420CDCDFEDAF0A09
:1019900020EE200AD4ED020A9FEDAD1A00EE810A76
:1019A00084ED020AE061E1694FF4FA79401AA94D29
:1019B000802601279FEDA89A484526D994ED050A6F
:1019C000A64910EE100ADFEDA60A884202DD30EECD
:1019D000600A06E010EE100AA249884204D930EEEF
:1019E000200A84ED050A01E084ED059A84ED049A4D
:1019F0004FF4967068802E71277094ED050A84ED7F
:101A0000080ABDEC068BBDE8F087D4ED020A94ED20
:101A1000010A70EEC08A94ED030A38EEC08AF5EE32
:101A2000C08AF1EE10FA02D2B1EE680A01E0B0EE1F
:101A3000680A10EE100A4FF0804A9FED8BAA5045BD
:101A400005DD94ED040A08EE8A0A84ED040A87494C
:101A50002069884203DD9FED860A84ED040A8549EA
:101A60002069884203D99FED840A84ED040AF5EECB
:101A7000C08AF0EE499AF1EE10FA02D2B1EE680A8D
:101A800001E0B0EE680A10EE100A7C494FF07E5873
:101A9000884220DDB5EEC08AF1EE10FA02D2B1EE36
:101AA000480A01E0B0EE480A10EE100A404512DA8A
:101AB00000F0A2FF616A401A48450CD9F5EEC08AD1
:101AC000F1EE10FA02DDF0EE049A01E0F8EE049A6D
:101AD00000F092FF606228EE8A0AF2EE000A08EE39
:101AE000200AD4ED040A9FED661A00EE810A39EE51
:101AF000C08A94ED060A10EE100A504504DC10EE80
:101B0000100AB0F1404F03D9DFED5E0A00EE208AE3
:101B10005D495E4AB3EE0E1AFBEE0C1A18EE100A7F
:101B2000884202DDB0EE418A05E018EE100A9042CC
:101B300001D9B0EE618AF5EEC08AF1EE10FA02D258
:101B4000B1EE680A01E0B0EE680A10EE100A4FF03C
:101B50007F53B6EE000A984202DAB0EE498A13E0EB
:101B6000DFF82CC160450FDAB5EEC08AF1EE10FA4D
:101B700002D2F1EE480A01E0F0EE480A10EE90CAF7
:101B80009C4501DA28EE008A94ED052AB0F1824FD7
:101B900078EE420A06DB884202DAB7EE080A01E074
:101BA000B0EE080AF4EEC00AF1EE10FA06DCB1EE6F
:101BB000400AF4EEC00AF1EE10FA01D2F0EE400A4B
:101BC00032EE200A10EE100A84ED050A884201DD8B
:101BD00084ED051A6069904201D9C4ED051AF5EE4D
:101BE000C08AF1EE10FA02D2F1EE680A01E0F0EEDE
:101BF000680A9FED281A284980EE810A10EE100A23
:101C0000404502DDB7EE000A05E010EE100A8842FA
:101C100001DA9FED220A9FED221AF3EE040A40EE4C
:101C2000010ABCEEE00A10EE100A68802E7194EDF5
:101C3000050A84ED080A2770C4ED038AE1E6000076
:101C4000CC000020C4000020000048449A99193FAD
:101C5000CCCCCC3E4006002000000000CDCCCC3DDA
:101C6000CDCCCC3DCDCCCCBD0AD7233C0000C84266
:101C70000000C8420000C8C20000C8C20000704195
:101C80008FC2753D9A99193E0000F0410000E0C1F5
:101C90000000A04000001643CDCC4C3DCDCC4C3DC7
:101CA00000008C43FEE7000006480121064A41700F
:101CB000017000218170416011605160916081600C
:101CC00070470000F40000205C07002014489FEDDE
:101CD000130A817849B190ED010AF8EE400A00EE4E
:101CE000101AB8EE401A80EE810A02780D49012AD6
:101CF00004D0022A06D0032A0CD107E081ED000AA5
:101D0000022106E081ED010A032102E081ED020AD1
:101D100004210170002181704160704700000000C3
:101D2000F40000205C07002070B588B000F054FD7E
:101D300007210491012105910221002006910290C2
:101D4000019001A902A800F0B3FC68B90E490D4842
:101D50000E4D0E460024C86056F824200023294664
:101D6000022000F0FBFC20B100F0EEFC002008B0E7
:101D700070BD641C2D1D042CEED300F0E5FC012089
:101D8000F5E70000A0B811CA6807002000F00708B6
:101D9000032805D2044901EB800090ED000A70474A
:101DA0009FED020A704700005C0700200000000061
:101DB0000148807870470000F40000200148007856
:101DC00070470000F400002030B50D490D4C002094
:101DD000CB680D4AA34206D132C902F10C0C9361C3
:101DE0008CE8320003E0D0601061506190610749D7
:101DF000087048708870486010605060906030BD16
:101E000000F00708A0B811CA5C070020F400002009
:101E10002DE9F041284C06460F466078002831D065
:101E200000F0EAFD0546384600270228207806D053
:101E3000012807D0022805D0032803D01AE004287F
:101E400036D11AE0012E05D1A07818B9C4E9017580
:101E500000F036F8A078401E0E2806D2A068281A96
:101E60001E2802D3A56000F02BF8A0780F2801D31C
:101E7000FFF72CFF2078042803D1012E04D0022E76
:101E800016D00020BDE8F0810C4800F10C0190ED67
:101E9000000A81ED000A90ED010A81ED010A90ED42
:101EA000020A81ED020AFFF73FFF67700120E9E7B0
:101EB00067700220E6E70000F40000205C070020C5
:101EC0000A480188A1F57F42FF3A03D00188B1F5A5
:101ED000487F01D90020704705484268114441609D
:101EE0008178491C8170012070470000C4000020E7
:101EF000F4000020014800F057BA00002C04002034
:101F0000014800F051BA00008C040020014800F0A4
:101F10004BBA0000EC040020014800F045BA000074
:101F20006C030020014800F03FBA00004C0500207F
:101F3000014800F039BA0000CC03002001681823E2
:101F4000CAB2103AB2FBF3F2054B6FF30901032A50
:101F50009B5CC36500D9091D816508467047000078
:101F60003071000810B5014600208B698A6A4FF075
:101F7000C07453B1B3F5005F15D072B1012A0CD013
:101F8000022A0AD0032A09D104E01AB1012A06D094
:101F9000022A03D1C96AC90100D5012010BDC96A4E
:101FA000A142FAD010BD002AF7D0012AF2D0022AAD
:101FB000F3D0032AF3D010BD30B50468256825F4AA
:101FC00080252560046863608368402B036803D024
:101FD00099600068C26030BD9A600068C16030BD21
:101FE0007047000010B53C210E4801F0F5FC3C2183
:101FF0000D4801F0F1FC0B490020096848620A49CC
:102000000968486209499FED0A0A0860886081ED05
:10201000030A486010310860886081ED030A486057
:1020200010BD0000040200204C020020E00500204A
:10203000000000001D480068416A002209B24262A7
:102040001B4800EE101A9FED1B1A0368B8EEC00A79
:102050000B44C0E9003120EE010AD0ED031ADFED98
:10206000160A01EEA00A80ED030ABDEEC00A80ED5B
:10207000020A12480068416A426209B20C4800EE46
:10208000101A10300268B8EEC00A0A44C0E90021F4
:1020900020EE010A90ED031A01EE200A80ED030AFA
:1020A000BDEEC00A80ED020A704700000402002065
:1020B000E0050020CDCC4C3ECDCC4C3F4C02002066
:1020C00072B6FEE7002229B101291AD002291BD0DD
:1020D0004FF440720E490B6823F440730B600B6899
:1020E00013430B600A6822F0F8020A600A680223B0
:1020F00003EBC00002430A60086840F480300860C7
:1021000070474FF48072E5E74FF40072E2E7000099
:10211000103C02401348016889050FD5016821F47D
:1021200000710160016841F400610160016821F4FF
:1021300000610160016841F40071016001684905B6
:102140000FD5016821F480610160016841F480517C
:102150000160016821F480510160016841F48061EF
:1021600001607047003C024008490A6822F440724E
:102170000A600A6842F004020A600A684FF4803379
:1021800043EA002002430A6070470000103C02400E
:10219000064A136823F440731360136813601368CE
:1021A00043F001031360017070470000103C0240CF
:1021B000094910B50C6824F440740C600C6844F4B0
:1021C00040740C600C6844F001040C600260BFF3C2
:1021D0006F8F436010BD0000103C0240074A136837
:1021E00023F440731360136843F48073136013681F
:1021F00043F001031360018070470000103C02406F
:10220000074A136823F440731360136843F40073A0
:102210001360136843F0010313600160704700000E
:10222000103C02401C490868C2061C4805D5C2691A
:1022300042F01002C26110220A600A68920605D5B7
:10224000C26942F00802C26120220A600A6852068E
:1022500005D5C26942F00402C26140220A600A68E0
:10226000120605D5C26942F00202C26180220A60EC
:102270000A68D20506D5C26942F00102C2614FF474
:1022800080720A600A68920705D5C26942F020028E
:10229000C2610220086070470C3C024048000020E8
:1022A00070B5114904460020C86100F0A5FB064640
:1022B0000E4D09E0601C07D024B100F09DFB801B8F
:1022C000A04201D9032070BD2868C003F2D4286859
:1022D000C00701D001202860286810F4F970F2D0FE
:1022E000FFF7A0FF012070BD480000200C3C024019
:1022F0002DE9F0410446876D00F07EFB064694F818
:1023000035000025022806D08020606584F834500E
:102310000120BDE8F0812068016821F0160101600C
:102320002068416921F080014161206C08B9A06CEE
:1023300020B12068016821F008010160206801686F
:1023400021F0010101600CE000F056FB801B052824
:1023500007D920206065032084F8350084F83450C4
:10236000D7E720680068C007EED194F85C103F20E2
:102370008840B860012084F8350084F8345000208B
:10238000C7E790F83510022903D08021416501206C
:102390007047052180F835100068016821F00101BF
:1023A00001600020704700002DE9F84304464FF01B
:1023B0000009CDF8009063484FF41651A56D0068F0
:1023C000B0FBF1F72E6894F85C10082000FA01F1D8
:1023D00031420FD021680A6852070BD50A6822F0F3
:1023E00004020A6094F85C108840A860606D40F0B8
:1023F0000100606594F85C104FF0010808FA01F0E4
:10240000304208D021684969090604D5A860606D8A
:1024100040F00200606594F85C100420884030426F
:1024200008D021680968890704D5A860606D40F06C
:102430000400606594F85C1010208840304218D089
:1024400021680968090714D5A86020680168490354
:1024500004D50068000308D5A16C07E00168C90530
:1024600003D4016821F008010160216C09B1204604
:10247000884794F85C1020208840304231D0216891
:102480000968C9062DD5A86094F83500052820688C
:10249000016806D0490347D5006800031DD4616C6C
:1024A0001CE021F0160101602068416921F08001E3
:1024B0004161206C08B9A06C20B12068016821F04E
:1024C0000801016094F85C103F208840A86084F8FF
:1024D000358084F83490216D1FE0E16B09B120460E
:1024E0008847606D00282BD0606DC00714D0052090
:1024F00084F835002068016821F00101016000982E
:10250000401C0090B84203D820680068C007F6D18C
:1025100084F8358084F83490E16C002910D001B043
:102520002046BDE8F04308470168C905D5D40168D5
:1025300021F01001016084F8358084F83490CCE7F4
:10254000BDE8F883740000202DE9F041044600F056
:1025500053FA06465CB1022084F83500002584F861
:1025600034502068016821F0010101600DE0012074
:10257000BDE8F08100F040FA801B052805D9202035
:102580006065032084F83500F2E720680068C00722
:10259000F0D12268116820480140D4E901031843B2
:1025A000D4E903363343184363691843A3691843D6
:1025B000E3691843236A18430843616A042903D175
:1025C000D4E90B1319430843106020684069666A18
:1025D00020F0070130460E43012704280CD1A06AE1
:1025E0000643E06A40B12046FFF7BCFC20B1402022
:1025F000606584F83570BAE7206846612046FFF7C9
:102600009DFC94F85C203F2191408160656584F8D1
:1026100035700020ACE700003F8010F02DE9F0415C
:102620000446866D90F83400002501280DD0012065
:1026300084F8340094F835700020012F07D084F816
:10264000340002252846BDE8F0810220FBE702277E
:1026500084F8357060652046FFF7AEFC94F85C1096
:102660003F208840B0602068016841F01601016099
:10267000206C20B12068016841F0080101602068E9
:10268000016841F001010160DCE7000070B504461B
:1026900000F0B2F90546601C02D0044800780444FA
:1026A00000F0AAF9401BA042FAD370BD68000020D8
:1026B0002DE9F047044622480F46017E01290AD041
:1026C0000121804601764CF250394846FFF7E8FD7B
:1026D000020003D02FE00220BDE8F0874FF0FF306A
:1026E00038602068174D012801D0A6681CE0207CC6
:1026F0006168FFF739FD4846FFF7D2FD02462868BA
:1027000020F00400286014E0217C3046FFF7DAFC5A
:102710004846FFF7C5FD0200286820F0FA0028604F
:1027200001D03E6005E0761CD4E902100844B042B6
:10273000EAD8FFF7EFFC002188F818101046CBE725
:1027400048000020103C02400348016841F000416D
:102750000160002070470000103C02402DE9F04766
:102760001B4E05461446307E1F468946012808D078
:10277000012030764CF250384046FFF791FD18B1F9
:1027800014E00220BDE8F0879DB1012D16D0022D86
:1027900019D022463B464846FFF70AFD4046FFF760
:1027A0007FFD0C490A6822F001020A60002131769F
:1027B000E8E7E1B24846FFF7EBFCEFE7A1B2484695
:1027C000FFF70CFDEAE721464846FFF719FDE5E76C
:1027D00048000020103C0240074900200A68002AF7
:1027E00009DA054A054B0C3A1360054B136009687A
:1027F000002900DA01207047103C024023016745A0
:10280000AB89EFCD2DE9F84FDFF8B8A10022012404
:1028100003254FF00F090AF1040BAAF1040E00BFC3
:102820000B6804FA02F63340B34273D10F7907F014
:102830000307012F01D0022F16D187684FEA420803
:1028400005FA08FC27EA0C07D1F80CC00CFA08FCC2
:102850004CEA070CC0F808C04768B7430E79C6F3C6
:10286000001696403E4346600E79F643B6070DD0FB
:10287000C768560005FA06FC27EA0C07D1F808C01D
:102880000CFA06FC4CEA070CC0F80CC00E7906F0F6
:102890000306022E10D1D60800EB8608D8F8206077
:1028A00057074FEAD76C09FA0CF7BE430F6907FACE
:1028B0000CF73743C8F8207006684FEA420C05FA57
:1028C0000CF7BE430F7907F0030707FA0CF73743FD
:1028D00007604E6816F4403F6DD03B4E376847F4B2
:1028E00080473760366822F0030706F4804600967A
:1028F000364E07EB060CDCF8086897073F0F09FA1D
:1029000007F826EA0806DFF8C880404503D14FF0F3
:1029100000081EE04FE0DFF8BC80404502D14FF0D8
:10292000010816E0DFF8B080404502D14FF0020800
:102930000FE0DFF8A880404502D14FF0030808E01F
:10294000DFF89C80404502D14FF0040801E04FF0D1
:10295000070808FA07F848EA0608CCF80888DAF801
:1029600000605746D1F804C09E435FEACC2C00D5E6
:102970001E433E60DBF800605F46D1F804C09E4312
:102980005FEA8C2C00D51E433E60DEF8006077467F
:10299000D1F804C09E435FEA8C3C00D51E433E60E4
:1029A000084F083F3E68D1F804C09E435FEACC3C24
:1029B00000D51E433E60521C102AFFF431AFBDE823
:1029C000F88F0000083C01404438024000300140CC
:1029D000000002400004024000080240000C0240D7
:1029E000001002400069084000D0012070470AB181
:1029F000816170470904FBE7014880687047000067
:102A00006800002070B5040025D094F83D00002532
:102A100020B984F83C50204600F050F9242084F876
:102A20003D002068016821F0010101602068016813
:102A300041F4004101602068016821F40041016017
:102A400000F04EFB4D4A6168914201D84C4900E0CC
:102A50004C49884201D2012070BD4B492368B0FB2C
:102A6000F1F15E6826F03F060E435E6063689342B4
:102A700006D94FF4967359434FF47A73B1FBF3F1CF
:102A80002368491C1E6A26F03F06314319626168BB
:102A9000914210D84900401EB0FBF1F2521CC2F323
:102AA0000B02042A01D2042022E0B0FBF1F0401C0A
:102AB000C0F30B001CE0A268F2B301EBC10303EB0F
:102AC0000116431EB3FBF6F35B1C43F480431B0566
:102AD00049D092B301EBC10202EB0111401EB0FBE1
:102AE000F1F0401CC0F30B0040F4804040F4004083
:102AF0002168CA694CF6FF739A431043C861D4E950
:102B0000071001432068026822F0C00211430160EF
:102B1000D4E9030101432068826848F2FF339A43F5
:102B200011438160D4E9050108432168CA6822F095
:102B3000FF021043C86001E00EE016E02068016863
:102B400041F0010101602564202084F83D002563E7
:102B500084F83E50002070BD01EB4106431EB3FBDC
:102B6000F6F35B1CB3E70120C2E701EB4101401E15
:102B7000B0FBF1F0401CC0F30B00B7E7A0860100EA
:102B800080841E0000093D0040420F002DE9FF4FE8
:102B900083B09A46DDE9119793460446DDF84080FC
:102BA000FFF72AFF054694F83D0020287FD119231E
:102BB000012240492046009501F0C8FD002876D149
:102BC00094F83C00012872D0012084F83C00206871
:102BD0000168C90703D1016841F001010160206863
:102BE000016821F400610160212084F83D0040204B
:102BF00084F83E0000262664C4F82480A4F82A90B5
:102C0000608D20852C48E062CDE9007553465A4618
:102C10002046049901F01AFD70B930E02A46394681
:102C2000204601F039FE58B1206C042804D12068F8
:102C3000016841F400710160012007B0BDE8F08F28
:102C4000606A216800780861606A401C6062218DBA
:102C5000491E89B22185628D521E628522685369A0
:102C6000DB435B070BD469B100781061606A401CDC
:102C70006062208D401E2085608D401E6085208D05
:102C80000028CBD12A463946204601F033FD0028E2
:102C9000CAD154F83D0B016841F400710160202055
:102CA00004F81E09E67766770020C6E7FFE70220F2
:102CB000C3E70000020010000000FFFF10B586B05F
:102CC000044614216846FDF706FD13492068884232
:102CD00020D112480021026842F00202026000681E
:102CE00000F0020005904FF4407000901220CDE9F2
:102CF00001010420CDE9031069460948FFF782FD70
:102D000006481030016841F400110160006800F4C9
:102D10000010059006B010BD00540040303802404D
:102D200000040240024881680278114481607047C3
:102D3000680000200B4810B5016841F40071016083
:102D4000016841F480610160016841F480710160B3
:102D5000032000F06FF80F2000F006F800F024F8D0
:102D6000002010BD003C024070B50D4D04464FF4EC
:102D70007A712878B1FBF0F00A490968B1FBF0F0EC
:102D800000F03EFC48B9102C07D200222146501E0C
:102D900000F030F800206C6070BD012070BD0000B4
:102DA00068000020740000200A4808B5016841F45A
:102DB00080410160006800F4804000900548001FD9
:102DC000016841F080510160006800F0805000907F
:102DD00008BD000044380240002809DB00F01F0253
:102DE000012191404009800000F1E020C0F800116D
:102DF00070470000F0B40E4B1B680C46C3F302236F
:102E0000C3F10705042D00D90425191D072901D296
:102E1000002300E0DB1E012606FA05F1491E2140D1
:102E200099409E40761E16403143F0BC03F083BAB1
:102E30000CED00E0064900F0070208684FF6FF03BA
:102E4000184040EA0220034A10430860704700001F
:102E50000CED00E00000FA052DE9F8430446006897
:102E60004FF00109C1074FF0000601D1400729D5F5
:102E7000DFF82081C8F86860FFF7BEFD0746464DC1
:102E800005E000BFFFF7B8FDC01B022859D828682D
:102E90000001F7D4A068217B800140EA01706168DD
:102EA00008433D4984310860C8F86890FFF7A4FDE5
:102EB000074604E0FFF7A0FDC01B022841D82868A0
:102EC0000001F7D52078800752D53348403001689B
:102ED00041F0805101600068304D00F0805000905A
:102EE000286840F480702860FFF786FD074604E0FC
:102EF000FFF782FDC01B022823D82868C005F7D53C
:102F0000254D7035286810F4407020D0218A01F4D6
:102F1000407181421BD02868214920F44070C1F8DB
:102F200000900E6028602868C00710D0FFF764FD8D
:102F3000064641F2883707E0FFF75EFD801BB84286
:102F400002D90320BDE8F88328688007F4D52169F9
:102F50001148C1F301220830032A12D0016821F47C
:102F6000F81101602868218AC1F30B010843286029
:102F70002078000703D50B49207DC1F8E00100202F
:102F8000E0E70268084B22F4F81219400A43026095
:102F9000E8E70000000047420038024000700040AF
:102FA000400E474200104742FFFCFF0F2DE9F0475B
:102FB0000E46050065D0DFF81481D8F80000F7B29E
:102FC00000F00700B04207D288F80070D8F800007F
:102FD00000F00700B04254D128683D4C810712D55B
:102FE000400703D5206840F4E050206028780007AF
:102FF00003D5206840F4604020602068A96820F074
:10300000F000084320602878C0072DD03049686858
:103010000839012812D0022813D0032811D00968DA
:10302000890700292DDA216821F00301014321607D
:10303000FFF7E2FC814641F2883A0EE00968890315
:10304000EFE709688901ECE7FFF7D6FCA0EB09017F
:10305000514502D90320BDE8F0872068696800F077
:103060000C00B0EB810FEFD1D8F80010404601F012
:103070000701B14207D90770006800F00700B042AD
:1030800001D00120E7E72878400705D52068E968E6
:1030900020F4E050084320602878000706D5206817
:1030A000296920F4604040EAC100206000F038F84F
:1030B0002168084AC1F30311515CC8400649086001
:1030C00006480068FFF750FE0020C4E7003C0240BD
:1030D0000838024038710008740000206C0000209D
:1030E0000448054900680968044AC1F38221515C1B
:1030F000C84070477400002008380240487100083A
:103100000448054900680968044AC1F34231515C2A
:10311000C840704774000020083802404871000819
:10312000154810B5006810F00C02144813D014496B
:10313000042A0FD0082A0ED10F4C241F22682368BE
:1031400002F03F025B0207D52068C0F38810A0FBA5
:10315000010106E0084610BD2168C1F38811A1FBFA
:1031600000010023FDF7A4F82168C1F30141491CC7
:103170004900B0FBF1F010BD083802400024F40013
:1031800040787D012DE9F84F04006ED02078DFF8FB
:103190004C93C007A9F104054AD009F10400016865
:1031A000C1F38101012908D00068C0F38100022821
:1031B0000AD1D9F80000400206D52868800337D527
:1031C00060680028E1D033E06068B0F5803F10D03F
:1031D000B0F5A02F286810D020F48030286028682F
:1031E00020F4802028606068A8B1FFF705FC06463F
:1031F0000DE0286840F48030F4E740F48020286037
:10320000F7E700BFFFF7F8FB801B642873D8286836
:103210008003F7D50CE0FFF7EFFB064605E000BFA3
:10322000FFF7EAFB801B6428F0D828688003F7D4F6
:103230002078DFF8AC8280074FF0000A3ED5A7481F
:10324000001D016811F00C0F08D00068C0F3810068
:1032500002280BD1D9F80000400207D42868800763
:1032600016D5E068012800D112E033E1E068B8B17A
:103270000120C8F80000FFF7BFFB064605E000BFCD
:10328000FFF7BAFB801B0228C0D828688007F7D553
:103290002868216920F0F80040EAC10028600DE0AC
:1032A000C8F800A0FFF7A8FB064604E0FFF7A4FB60
:1032B000801B02281FD828688007F7D420780007D1
:1032C00022D5864F87486169703771B1012101604D
:1032D000FFF792FB064604E0FFF78EFB801B0228F7
:1032E00009D838688007F7D50EE0C0F800A0FFF7CE
:1032F00083FB064605E082E0FFF77EFB801B022889
:103300007DD838688007F7D42078400768D5DFF883
:10331000CCB100270BF13C0BDBF80000C0000BD454
:10332000DBF8001041F08051CBF80010DBF8000012
:10333000012700F0805000906B4E3068C00510D41B
:10334000306840F480703060FFF756FB009005E075
:10335000FFF752FB0099401A022850D83068C00588
:10336000F6D55E4EA0686C3601280FD0052830686F
:1033700010D020F001003060306820F00400306090
:10338000A068B8B1FFF738FB00900FE0306840F05C
:103390000100F4E740F004003060F7E7FFF72CFB92
:1033A0000099411A41F28830814266D8306880071E
:1033B000F4D50EE0FFF720FB009007E0FFF71CFBC1
:1033C0000099411A41F28830814256D8306880070E
:1033D000F4D42FB1DBF8001021F08051CBF80010AD
:1033E000A069C8B33D49091D0968C1F381010229DB
:1033F0004AD00228504607D0C8F8600000E03CE000
:10340000FFF7FAFA04463BE04746C8F86000FFF7CA
:10341000F3FA064605E000BFFFF7EEFA801B02282C
:103420002BD828688001F7D4D4E907010843A16AA2
:103430002E4A490802EB0141626A41EA82110843BF
:1034400094F82C1040EA0161C9F800100120386698
:10345000FFF7D2FA044606E03EE000BFFFF7CCFAE1
:10346000001B022809D828688001F7D534E000BF86
:10347000FFF7C2FA001B022802D90320BDE8F88F2B
:1034800028688001F4D427E00128F7D0D9F800009B
:10349000E26900F4800191421CD1226A00F03F01F0
:1034A000914217D147F6C071626A0140B1EB821FA9
:1034B00010D1A26A4FF0FF3300F4403103EB520207
:1034C000B1EB024F06D194F82C1000F07060B0EB15
:1034D000016F01D00120D1E70020CFE7043802407E
:1034E00000004742800E4742007000400000FFFF8E
:1034F00010B5040002D0607F10B106E0012010BDBD
:1035000000202077204600F041F8022060772068F4
:10351000C168C943C90632D5CA2141622168532016
:103520004862204602F0FCF820BB20688168164AF9
:10353000114081602168886862681043D4E90423DF
:103540001A43104388602168E068086120680169B7
:10355000228941EA02410161204602F005F948B999
:1035600021680A6C22F480220A6421680A6CA3692B
:103570001A430A642268FF21516208B110BD00207D
:103580000121617710BD0000BFFF8FFF10B586B02D
:10359000044618216846FDF79EF8094920688842CC
:1035A0000CD102200090000204906846FFF754FC02
:1035B00008B1FEF785FD03490120086006B010BD83
:1035C000002800403C0E474270B504460B48216875
:1035D000C860FFF711FA05464FF47A7607E000BF9E
:1035E000FFF70AFA401BB04201D9032070BD2068E2
:1035F000C0688006F4D5002070BD00005F3F010068
:1036000010B5401EB0F1807F01D3012010BD4FF0F6
:10361000E02460610F21601702F08DFE0020A061A0
:1036200007202061002010BD7047704770B590F8EA
:103630003C20012A2CD0012480F83C40022280F852
:103640003D2003685A689D6822F070060A6832437C
:103650005A60104B02689A420ED0B2F1804F0BD0E4
:103660000D4B9A4208D00D4B9A4205D00C4B9A4212
:1036700002D00C4B9A4204D1496825F080031943CB
:10368000916080F83D40002180F83C10084670BDF4
:10369000022070BD0000014000040040000800400E
:1036A000000C00400040014010B5040003D094F825
:1036B0003D0010B107E0012010BD002084F83C005F
:1036C000204600F01FF8022084F83D00211D2068EC
:1036D00002F0B0F9012084F8460084F83E0084F836
:1036E0003F0084F8400084F8410084F8420084F8E8
:1036F000430084F8440084F8450084F83D0000202D
:1037000010BD000008B500681149884212D1114867
:10371000016841F0010101600068002200F0010031
:10372000009011461920FFF765FBBDE808401920FD
:10373000FFF752BBB0F1804F09D10648001F016866
:1037400041F001010160006800F00100009008BD37
:10375000000001404438024090F83D10012901D09A
:1037600001207047022180F83D100168CA6842F0CC
:103770000102CA6000680E4988420ED0B0F1804F45
:103780000BD00C49884208D00B49884205D00B4920
:10379000884202D00A49884204D1816801F00701B9
:1037A000062903D0016841F0010101600020704743
:1037B000000001400004004000080040000C0040F0
:1037C0000040014070B5044690F83C0000250128F7
:1037D00017D0012684F83C60022084F83D00206860
:1037E000826822F0770222F47F42826008685028C3
:1037F00038D00DDC20284FD005DC90B3102811D133
:103800004AE0022070BD302846D040280AD13BE073
:1038100060282FD070280DD0B0F5805F03D0B0F5B0
:10382000005F12D0012584F83D60002084F83C0040
:10383000284670BDCB68D1E90121206802F057F914
:103840002068816841F0770109E0CB68D1E9012166
:10385000206802F04CF92068816841F48041816061
:10386000E1E719E0CA684968206802F0F5F95021DB
:10387000206806E0CA684968206802F0FEF9602105
:10388000206802F03EF9CEE7CA684968206802F075
:10389000E3F940212068F4E7226801461046F0E78A
:1038A0002DE9F0410D46040003D094F83D0018B115
:1038B00008E00120BDE8F081002084F83C002046AB
:1038C00000F040F8022084F83D002068816844F24E
:1038D000070291438160211D206802F0ABF8226845
:1038E00090689169166A2B68AF69034340F2033010
:1038F000814341EA0721A868EF6908434FF6FC417C
:103900008843E96840EA0720014328692F6A0001DB
:1039100040EA0730084369686D6926F0AA0646EA5E
:103920000515294393602268906154F8460B0162A3
:10393000012004F81F09E0752076E0762077A07555
:103940000020B7E7F0B587B0044614216846FCF7BD
:10395000C2FE1E4B1C4F266800241C49103B02224D
:1039600001251B48BE4211D10E6846F002060E60CA
:10397000096801F002010591196841F0020119601E
:10398000196801F002010591302113E0114FBE4288
:1039900017D10E6846F004060E60096801F00401B4
:1039A0000591196841F002011960196801F00201DE
:1039B0000591C0218DE82600CDE903426946FEF756
:1039C00021FF07B0F0BD0000000400404038024075
:1039D000000402400008004070B590F83E600446C4
:1039E00090F83F5090F8423090F84320022021B1E7
:1039F00004290ED0012E1BD114E0012E18D1012B69
:103A000016D184F83E0084F842000122002120688B
:103A100020E0012D0CD1012A0AD184F83F0084F85E
:103A2000430014E0012D03D1012B01D1012A01D063
:103A3000012070BD84F83E0084F83F0084F8420005
:103A400084F8430001220021206802F043F801229B
:103A50000421206802F03EF82068016841F001016D
:103A60000160002070BD70472DE9F04104460068F8
:103A7000C66805694FF00007A90713D5B10711D52E
:103A8000F91E0161012020772068806980072046A7
:103A900002D0FFF7E8FF04E000F0BAF8204600F09B
:103AA0004CF92777680716D5700714D521686FF091
:103AB00004000861022020772068806910F4407FAC
:103AC000204602D0FFF7CFFF04E000F0A1F8204627
:103AD00000F033F92777280715D5300713D521686B
:103AE0006FF008000861042020772068C069800713
:103AF000204602D0FFF7B7FF04E000F089F8204627
:103B000000F01BF92777E80616D5F00614D52168D2
:103B10006FF010000861082020772068C06910F459
:103B2000407F204602D0FFF79EFF04E000F070F8CF
:103B3000204600F002F92777E80708D0F00706D002
:103B400021686FF001000861204600F04FF9280657
:103B500008D5300606D521686FF080000861204640
:103B6000FFF762FD680608D5700606D521686FF07C
:103B700040000861204600F0D7F9A8060AD5B00633
:103B800008D521686FF0200008612046BDE8F041AB
:103B9000FFF74BBDBDE8F08170B586B00446142137
:103BA0006846FCF798FD2068B0F1804F28D1154891
:103BB0000024016841F001010160016801F0010188
:103BC0000591016841F0020101600068022500F0E2
:103BD000020005904FF400400090CDE90154012609
:103BE000CDE9034669460848FEF70CFE0820009020
:103BF000CDE90154CDE9034669460448FEF702FECB
:103C000006B070BD3038024000000240000402409F
:103C1000704770B5044690F83C0000260D46012818
:103C20000FD0012084F83C006AB1042A1DD0082A74
:103C30002FD00C2A3FD00126002084F83C003046CB
:103C400070BD022070BD206801F064FF20688169AA
:103C500041F0080181612068816921F004018161DE
:103C6000206881692A69114311E0206801F07AFF18
:103C70002068816941F4006181612068816921F4D3
:103C800080618161206881692A6941EA022181613C
:103C9000D2E7206801F092FF2068C16941F0080175
:103CA000C1612068C16921F00401C1612068C16956
:103CB0002A69114311E0206801F0ACFF2068C16956
:103CC00041F40061C1612068C16921F48061C16172
:103CD0002068C1692A6941EA0221C161ACE710B5D7
:103CE000040003D094F83D0010B107E0012010BD9E
:103CF000002084F83C00204600F01EF8022084F8E2
:103D00003D00211D206801F095FE012084F8460049
:103D100084F83E0084F83F0084F8400084F84100B5
:103D200084F8420084F8430084F8440084F8450095
:103D300084F83D00002010BD7047704710B5044660
:103D4000022249B104290ED0082913D094F8410069
:103D5000012816D0012010BD94F83E000128F9D1A9
:103D600084F83E200FE094F83F000128F2D184F857
:103D70003F2008E094F840000128EBD184F840206F
:103D800001E084F841200122206801F0A3FE1249DD
:103D90002068884203D1426C42F4004242642068A9
:103DA00088420ED0B0F1804F0BD00C49884208D029
:103DB0000B49884205D00B49884202D00A49884203
:103DC00004D1816801F00701062903D0016841F0A0
:103DD00001010160002010BD00000140000400400E
:103DE00000080040000C00400040014070B5006831
:103DF0004749884244D10A20FEF71CF9454C2078F7
:103E0000012805D16078012802D0E068401CE060FC
:103E10002078012811D1206978B1E06821698842B1
:103E20000BD302F00BF801F009FAFDF73BFD00207F
:103E30002070BDE8704001F0A6BA01F033FFA07019
:103E4000207801285FD1607801285CD0A278002119
:103E50000846012505FA00F3134201D0491CC9B2F6
:103E6000401CC0B20828F5D3C91E022909D8E06851
:103E7000642806D94FF4FA7001F09CF902202070F2
:103E800070BD607802280CD3E0694FF41671884247
:103E900007DA1030E061884200DDE161E06901F09D
:103EA000B3FFA07801F044FF6078022829D31A48B4
:103EB0001A49DFED1B0A006809689FED1A1A0844C9
:103EC00000EBD070401000EE100AB8EEC00A20EEF1
:103ED000200AD4ED0C0A00EE810AB2EE041A84ED39
:103EE0000C0AD4ED080AF8EEE00A70EE600A80EEE3
:103EF000810AFDF711FD94ED0C0ABDEEC00A84EDB8
:103F0000080A01F0D7F9BDE87040FDF721BD0000B7
:103F100000000140000000208C00002090000020E4
:103F20009A99193E9A99593F704770477047000017
:103F3000F8B5016804460868CA684B6910F00F0FAD
:103F40004FF0000559D003F0010602F49077374393
:103F500065D0C10705D0D10503D5616C41F00101E1
:103F60006164410705D5D90703D0616C41F00201B6
:103F70006164810705D5D90703D0616C41F0040164
:103F80006164010707D502F02001314303D0616C61
:103F900041F008016164616C00293AD0800604D5C3
:103FA000900602D5204602F02AF820684069616C2C
:103FB000C0F38010090700D460B3204601F0EAFF87
:103FC00020684069400621D52068143050E8001F61
:103FD00021F0400140E80012002AF5D1E06BA8B1C1
:103FE00072490165E06BFEF7CCF9002811D0E06B57
:103FF000016D01B0BDE8F040084783060FD5930678
:104000000DD52046BDE8F84001F0F9BF2046FFF786
:104010008DFFF8BD2046FFF789FF6564F8BD266B6C
:104020002023012E7ED1C6067CD5D6067AD5086817
:104030004868009048694FF0020640064DD5E26B93
:10404000106840684FF480770004000C3AD0A18DCE
:10405000814237D9E085D069B8422DD020680C3034
:1040600050E8001F21F4807140E80012002AF5D1C9
:104070002068143050E8001F21F0010140E80012D0
:10408000002AF5D12068143050E8001F21F04001CB
:1040900040E80012002AF5D184F8423025632068F8
:1040A0000C3050E8001F21F0100140E80012002AF7
:1040B000F5D1E06BFEF71CF96663A08DE18D401A27
:1040C00081B206E0A18D8142A8D1D069B842A5D1C4
:1040D00066632046FFF729FFF8BDA08DE18D401AE9
:1040E00081B2E08D0028F7D00029F5D020680C308F
:1040F00050E8002F22F4907240E80027002FF5D1FD
:104100002068143050E8002F22F0010240E8002718
:10411000002FF5D184F84230256320680C3050E838
:10412000002F00E006E022F0100240E80023002B00
:10413000F3D1CDE705062BD5150629D594F8410016
:104140002128C9D1A068B0F5805F01D12069B0B144
:10415000206A411C2162216800784860E08C401E82
:104160000004000CE084B7D12068C16821F0800110
:10417000C1602068C16841F04001C160F8BD206A9B
:104180000088C0F308004860206A801C2062E5E7D0
:104190004006F3D55006F1D5CA68204622F0400209
:1041A000CA6084F8413000F037FAF8BD4D5E00086F
:1041B00070B5040004D094F84100002510B106E069
:1041C000012070BD84F84050204600F023F82420E0
:1041D00084F841002068C16821F40051C160204684
:1041E00001F06EFF2068016921F4904101612068AF
:1041F000416921F02A0141612068C16841F4005100
:10420000C1606564202084F8410084F84200656341
:10421000002070BD2DE9F04F87B005461421684697
:10422000FCF759FAA348DFF888821438D5F800C0A3
:10423000DFF88092022103239F4A402700240615BD
:104240004FF0070BC4455AD1D9F8008048F0100848
:10425000C9F80080D9F800C00CF0100CCDF814C0DB
:10426000D0F800C04CF0010CC0F800C0006800F0AD
:104270000100059058028DE81300CDE9033B694623
:104280001046FEF7BFFADFF838828C494046C8F87E
:1042900000104FF0006AC0E901A4C0E90346891587
:1042A000C8F81440C0E90641C8F82040B146C8F833
:1042B0002440FEF749F908B1FDF702FF804EC5F82A
:1042C0003C806036C8F83850C6E90274C6E90494E8
:1042D000B4617A48F461346278307462C6E9000AE5
:1042E0003046FEF731F908B1FDF7EAFEAE63002271
:1042F00011462520B563FEF77DFD252068E0DFF837
:10430000C481C44569D1DFF8ACC1A246ACF1040C4C
:10431000DCF8008048F40038CCF80080DCF800C0FD
:104320000CF4003CCDF814C0D0F800C04CF0010CE7
:10433000C0F800C0006800F0010005900C208DE876
:104340001300CDE9033B69461046FEF75BFADFF840
:1043500070915D4909F1C00948464FF00068C9F8FD
:104360000010C0E90184C0E90346C9F81440C9F847
:104370001840C9F81C40C9F82040C9F82440FEF78D
:10438000E3F808B1FDF79CFE504CC5F83C904E4850
:10439000C9F838501830A760C4E90008C4E903A67A
:1043A000C4F814A0C4F818A0C4F81CA0C4F820A035
:1043B0002046C4F824A0FEF7C7F808B1FDF780FE38
:1043C000AC63002211462620A563FEF713FD2620CC
:1043D000FEF702FD07B0BDE8F08FDFF8F480C445BA
:1043E000F8D1D9F80080A24648F02008C9F800802A
:1043F000D9F800C00CF0200CCDF814C0D0F800C0E3
:104400004CF0010CC0F800C0006800F001000590FD
:104410004FF4C0508DE813000820CDE90330694601
:104420001046FEF7EFF9DFF8A480244908F1600890
:10443000183940464FF02069C8F80010C0E90194CF
:10444000C0E90346C8F81440C8F81840C8F81C4032
:10445000C8F82040C8F82440FEF776F808B1FDF708
:104460002FFE1A4CC5F83C801448C034C8F83850A8
:104470006030A760C4E90009C4E903A6C4F814A029
:10448000C4F818A0C4F81CA0C4F820A02046C4F8A2
:1044900024A0FEF759F808B1FDF712FEAC63002224
:1044A00011464720A563FEF7A5FC472090E70000D2
:1044B00000100140443802400000024040640240C5
:1044C0006C03002000440040886002408C040020FF
:1044D0000014014090F84230202B01D00220704798
:1044E00021B11AB10023036301F070BE01207047AF
:1044F000704770472DE9F843044690F8410098460C
:1045000016460D46202802D00220BDE8F88385B16A
:104510007EB100206064212084F84100FEF76CFA2F
:10452000A6848146E684A0682027B0F5805F02D08B
:1045300003E00120E9E7206910B12E4600250EE0D6
:1045400000260CE08021204601F090FEA8B9C6B1FB
:1045500016F8010B21684860E08C401EE084E08C76
:104560004B464FF00002CDF800800028EAD14FF012
:104570004001204601F07AFE40B184F841700320EA
:10458000C3E735F8020BC0F30800E3E784F8417095
:104590000020BAE770B5044690F84100202801D009
:1045A000022070BD01B3FAB12162A284E28400202E
:1045B0006064212384F84130A56B144BEB63A56B39
:1045C000134B2B64A56B134BEB64A36B186520682E
:1045D0001346A56B021D2846FEF720F830B11020C7
:1045E0006064202084F84100012070BD21686FF0D4
:1045F000400008602068143050E8001F41F080013E
:1046000040E80012002AF5D1002070BD495F000883
:104610008B5F00085B5E000870477047FEE701682B
:104620004A69D24352050FD46FF480624A61002177
:1046300040F8301F202242738173026942F0040265
:104640000261017301207047002070472DE9F84393
:10465000044600680D46DDE908970168984616464D
:1046600041F4807101604B4600224FF00111204659
:10467000009700F06BF848B120680068C00502D5CB
:104680004FF4007020640320BDE8F883216805F032
:10469000FE0008613B464A461549204600F09EF858
:1046A00088B920684169806900903A4649462046A9
:1046B00000F0F2F848B1206C042804D120680168A9
:1046C00041F4007101600120DEE7F5B2B8F1010F9D
:1046D00009D02168300A08613A464946204600F070
:1046E000DBF80028E7D1206805610020CCE7000056
:1046F0000200010070B516460D4604461EE0204635
:10470000FFF78DFF08B1012070BD681C16D0FEF7C1
:1047100073F9801BA84200D885B920684069C0435E
:1047200040070BD5002044F8300F20216173A0739F
:10473000216941F0200121612073E4E7206840698C
:10474000C0434007DBD4002070BD00002DE9F047D6
:10475000984617460D460446C1F30746DDF82090FB
:104760002AE000BFB8F1FF3F26D0FEF745F9A0EBE5
:104770000901414502D8B8F1000F1DD12068012E72
:1047800016D0806925EA00000004000C12D0002039
:10479000B84211D1002044F8300F20216173A0737A
:1047A000216941F02001216120730120BDE8F087DB
:1047B0004069E7E70120EBE72068012E0AD0806915
:1047C00025EA00000004000C06D00020B842C9D041
:1047D0000020EBE74069F3E70120F7E72DE9F04718
:1047E000984616460D4604464FF000094FF0200A41
:1047F000C1F3074723E020684069C043400515D452
:104800002068016841F40071016021686FF48060E4
:104810004861C4F8309084F83DA084F83E90216C43
:1048200041F00401216484F83C9021E0701C06D022
:10483000FEF7E2F8A0EB0800B04203D816B1012F52
:104840001FD021E02068012F15D0806925EA0000E3
:104850000004000C18D000BF44F8309F84F80DA06D
:1048600084F80E90216941F02001216184F80C90B8
:104870000120BDE8F087406925EA00000004000C33
:10488000EAD12068406901E02068806925EA0000DB
:104890000004000CAFD1ECE770B516460D46044697
:1048A0001EE02046FFF7BBFE08B1012070BD681C6A
:1048B00016D0FEF7A1F8801BA84200D885B9206861
:1048C0004069C04300060BD5002044F8300F20217A
:1048D0006173A073216941F0200121612073E4E735
:1048E00020684069C0430006DBD4002070BD000092
:1048F0002DE9F04703291AD302785B2A17D14278B1
:10490000DFF894804FF001095D2A02D04518A91EF6
:1049100016E04FF6FF714446A8F800100021A8F8F1
:104920000210C01CFBF7A8FEA08084F80690BDE82A
:10493000F0870278282A02D142785B2A03D0401CF3
:104940008142F6D8F3E7801C0446FBF795FE86B259
:1049500000E0641CA54202D920782C28F9D1A54298
:10496000E5D9641C2046FBF787FE87B200E0641C93
:10497000A54202D920782C28F9D1A542D7D9601CAC
:10498000FBF77AFEA8F80060A8F80270A8F8040007
:1049900088F80690CBE70000C40000202DE9F84F0E
:1049A000074600682249884238D10168C943CA06CF
:1049B0004FF0000129D4026840680090F86B00684D
:1049C000406880B2802802D2C0F1800000E0002060
:1049D000184C86B26088864217D06588DFF8588008
:1049E000894608F1800A0DE018F805106D1C05F0E5
:1049F0007F050A2914D020787F2803D20AF80010F6
:104A0000401C2070B542EFD1668038680168C94308
:104A1000090703D40168416800914068BDE8F88F38
:104A2000054821788030FFF763FF84F80090E9E7BC
:104A300000100140C00000205C06002010B580215D
:104A40000948FBF726FE09490020488008708022AB
:104A500005490748FFF73EFD05480068C16841F079
:104A60001001C16010BD00005C060020C0000020E5
:104A70009402002070B502211848FDF7B3FF78B109
:104A80005FF00004FDF7B8FF154900224D784DB1E5
:104A90000023012D0BD0022D10D0032D1CD119E0C5
:104AA0000124EFE7C4B101234B70886014E08D68E6
:104AB000401B1E2810D374B1022007E044B18B685C
:104AC000C01AB0F5FA6F07D302220320487003E042
:104AD000012200E004B94B70104670BD0000024096
:104AE0007800002070B54FF480711848FDF77AFF08
:104AF00070B10024FDF780FF154900228D784DB17B
:104B00000023012D0BD0022D10D0032D1CD119E054
:104B10000124EFE7C4B101238B70C86014E0CD68B5
:104B2000401B1E2810D374B1022007E044B1CB68AB
:104B3000C01AB0F5FA6F07D302220320887003E091
:104B4000012200E004B98B70104670BD00000240E5
:104B500078000020044800210170416041708160AC
:104B60008170C160704700007800002070B501219D
:104B70001848FDF737FF78B15FF00004FDF73CFF00
:104B8000154900220D784DB10023012D0BD0022DC7
:104B900010D0032D1CD119E00124EFE7C4B101238B
:104BA0000B70486014E04D68401B1E2810D374B190
:104BB000022007E044B14B68C01AB0F5FA6F07D382
:104BC00002220320087003E0012200E004B90B7008
:104BD000104670BD0000024078000020214808B552
:104BE000016841F400110160016801F400110091B5
:104BF000016841F4800101600068002200F4800037
:104C0000009011461020FEF7F5F81020FEF7E4F8AA
:104C1000002211461120FEF7EDF81120FEF7DCF816
:104C2000002211463920FEF7E5F83920FEF7D4F8C6
:104C3000002211463A20FEF7DDF83A20FEF7CCF8C4
:104C4000002211464520FEF7D5F84520FEF7C4F8AE
:104C5000002211464620FEF7CDF8BDE80840462068
:104C6000FEF7BAB8303802402DE9F04186B0142181
:104C70006846FBF730FD30480024016841F004012C
:104C80000160016801F004010591016841F08001B3
:104C90000160016801F080010591016841F00101A6
:104CA0000160016801F001010591016841F0020114
:104CB00001600068012200F00200204F56030590B9
:104CC00031463846FDF793FEDFF874804FF47045A7
:104CD000002229464046FDF78AFE11200096CDE9C4
:104CE0000104694638460394FDF78CFD40F2031039
:104CF00001268DE85100134F69463846FDF782FDC5
:104D0000F020CDE90004694638460294FDF77AFDAB
:104D100040F20740CDE90004694640460294FDF7A1
:104D200071FD0095CDE90164694640460394FDF7A5
:104D300069FD06B0BDE8F08130380240000802404D
:104D400000040240000002400D4810B50B4901600C
:104D50000C49416000214FF480428160C0E9031298
:104D600041618161C1610162FDF74CFE002803D001
:104D7000BDE81040FDF7A4B910BD0000005400408C
:104D800000010020801A06000B4810B50949016097
:104D900000217F22C0E90112FF22C0E90321416105
:104DA0008161FEF7A5FB002803D0BDE81040FDF7A8
:104DB00087B910BD002800405401002010B586B00E
:104DC0000024174800940194029403940494134916
:104DD000059401606321C0E9011442F20F71C0E93A
:104DE000031444618461FEF75FFC08B1FDF768F9C4
:104DF0004FF48050009069460948FEF7E3FC08B183
:104E0000FDF75EF9049404A905480594FEF70EFC2D
:104E1000002801D0FDF754F906B010BD0000014094
:104E20007401002010B58EB00024079408940994F2
:104E30000A940B941C2168460C94FBF74CFC234805
:104E40004FF08041C0E9001441F61F41C0E9024122
:104E500004618461FEF728FC08B1FDF731F94FF4D5
:104E60008050079007A91948FEF7ACFC08B1FDF780
:104E700027F91648FEF733FF08B1FDF721F90B9427
:104E80000BA912480C94FEF7D1FB08B1FDF718F9F5
:104E9000602000904FF4E150CDE901040022694602
:104EA0000A480494FEF7B5FE08B1FDF709F904229B
:104EB000694606480194FEF7ACFE08B1FDF700F91B
:104EC0000248FEF769FE0EB010BD0000BC010020D4
:104ED00010B58CB024216846FBF7FDFB0024164872
:104EE000099414490A94C0E900144FF6FF71C0E90F
:104EF0000241046184610320CDE900040120CDE971
:104F000002040494CDE90540079469460A480894D0
:104F1000FEF7C6FC08B1FDF7D3F8099409A90648C5
:104F20000A94FEF783FB002801D0FDF7C9F80CB006
:104F300010BD0000000400400402002010B58CB039
:104F400024216846FBF7C7FB00241648099414493E
:104F50000A94C0E900144FF6FF71C0E902410461F0
:104F600084610320CDE900040120CDE9020404940A
:104F7000CDE90540079469460A480894FEF790FC7D
:104F800008B1FDF79DF8099409A906480A94FEF7AF
:104F90004DFB002801D0FDF793F80CB010BD0000C8
:104FA000000800404C0200200C4810B50A4901607E
:104FB0004FF4E1314160002181600C22C160C0E901
:104FC00004128161C161FFF7F3F8002803D0BDE846
:104FD0001040FDF775B810BD00100140940200208C
:104FE0000C4810B50A4901604FF4E13141600021DD
:104FF00081600C22C160C0E904128161C161FFF7C8
:10500000D7F8002803D0BDE81040FDF759B810BD0F
:1050100000440040DC0200200C4810B50A49016041
:105020004FF4E1314160002181600C22C160C0E990
:1050300004128161C161FFF7BBF8002803D0BDE80D
:105040001040FDF73DB810BD0014014024030020BE
:10505000FEE700002DE9F0471A4D1B4C1B4F061EC2
:1050600041F61F484FF480514FF400590CDD0122E6
:105070002846FDF7BCFC002249462846FDF7B7FC50
:105080004246002130460DE04FF0000228460CDA7F
:10509000FDF7ADFC012249462846FDF7A8FC424633
:1050A0000021704201F05EF907E0FDF7A0FC00224C
:1050B00049462846FDF79BFC0020E060396888637C
:1050C000BDE8F0870004024088000020BC010020F9
:1050D0002DE9F0471A4D1B4C1B4F061E41F61F4889
:1050E0004FF480414FF400490CDD01222846FDF7C2
:1050F0007EFC002249462846FDF779FC4246002105
:1051000030460DE04FF0000228460CDAFDF76FFC48
:10511000012249462846FDF76AFC424600217042BA
:1051200001F020F907E0FDF762FC0022494628461D
:10513000FDF75DFC0020206139684863BDE8F08719
:105140000004024088000020BC01002070B5164C0D
:105150002078002824D0FDF74FFCE169884220D355
:10516000124D00224FF480512846FDF740FC0022EA
:105170004FF400512846FDF73AFC00224FF48041DD
:105180002846FDF734FC00224FF400412846FDF785
:105190002EFC074900200A68906309684863207064
:1051A00070BD012070BD0000880000200004024096
:1051B000BC01002070B5134C0546012211032046A6
:1051C000FDF715FC012251032046FDF710FC0122DA
:1051D00091032046FDF70BFC0122D1032046FDF789
:1051E00006FC094800210268916300684163074C8E
:1051F00001206160A1602070FDF7FEFB2844E061A2
:1052000070BD000000040240BC01002088000020A6
:1052100010B504210548FEF791FD00210348FEF773
:105220008DFDBDE8104000F083B80000BC010020F7
:10523000014AC2E9010170478800002010B51C48EE
:105240002DED048BDFED168A9FED168A9FED169AE1
:10525000DFED169AF0EE681AB0EE481AF0EE490A41
:10526000B0EE690A00F02AFA1148F0EE681AB0EEC2
:10527000481AF0EE490AB0EE690A203000F01EFA32
:10528000B0EE480A0A4800F035FAB0EE480ABDEC24
:10529000048B0748BDE81040203000F02BBA000016
:1052A00000F8E04500000000CDCCCC3D9A99193FB4
:1052B0000006002010B51A481B4C2DED028B90ED16
:1052C000020A1848F8EEC00A90ED028A84ED050A39
:1052D00084ED068A94ED010A1448B8EEC00A00F085
:1052E00067F9F0EE408A94ED020A1048F8EEC80A19
:1052F000B8EEC00A203000F05BF9B0EE408ABDEE97
:10530000E80A10EE100AFFF7A5FEBDEEC80ABDECD4
:10531000028BBDE8104010EE100AFFF7D9BE000066
:10532000E0050020F0050020880000200006002095
:1053300010B5114C00224FF480512046FDF757FB69
:1053400000224FF400512046FDF751FB00224FF49C
:1053500080412046FDF74BFB00224FF400412046E0
:10536000FDF745FB054900200A689063096848631A
:1053700003494860886010BD00040240BC01002061
:1053800088000020FEE770B5002404F1B000C0B230
:1053900000F0EAF8002000F0E7F8102000F0E4F850
:1053A0000025002000F0F2F86D1CEDB2802DF8D33E
:1053B000641CE4B2082CE8D370BD000070B5C820AE
:1053C000FDF764F9044D0024285D00F0CDF8641C5D
:1053D000E4B2172CF8D370BDA800002010B5044625
:1053E000B031C8B200F0C0F8102040EA141000F04C
:1053F000BBF804F00F00BDE8104000F0B5B80000A5
:105400002DE9F047203A0024089E0F468146D5B288
:105410007F2803D900208F1C8146FFB2102B39460C
:1054200012D0FFF7DBFF1B4905EB450001EB400500
:10543000285D0EB1C043C0B200F0A8F8641CE4B20D
:10544000062CF5D3BDE8F087FFF7C8FFDFF84880EA
:1054500004EB051118F801000EB1C043C0B200F012
:1054600095F8641CE4B2082CF2D37F1CF9B24846CC
:10547000FFF7B4FF0024474604EB05103844007AD8
:105480000EB1C043C0B200F081F8641CE4B2082C35
:10549000F2D3D7E760710008887300082DE9FF4F49
:1054A00081B00026DDE90EA91D46934680463446AC
:1054B0004FEA5A0727E0281B401EC1B20A2001F01C
:1054C00085FDBBFBF0F00A21B0FBF1F201FB1200FD
:1054D00026B9691E8C4201DA48B101263030C2B2C9
:1054E00007FB0480C0B25346CDF8009006E007FBEE
:1054F0000480C0B253462022CDF800900299FFF7F5
:105500007FFF641CE4B2AC42D5D305B0BDE8F08F98
:105510002DE9F8431E461746894604460025DDF866
:10552000208014E0334649462046CDF80080FFF73E
:1055300067FF0C2E10D00834E4B27A2C01D90C2E5F
:105540000CD0782C01D9102E08D06D1CEDB27A5DEC
:10555000002AE7D1BDE8F883A41DEDE709F10100B9
:10556000002400F0FF09F0E701B584B001214FF4F9
:10557000807204A88DE807000B46002278210248BB
:10558000FDF704FB05B000BD0001002001B584B0AB
:1055900001214FF4807204A88DE807000B464022D9
:1055A00078210248FDF7F2FA05B000BD00010020A5
:1055B00090ED012AD0ED041A30EE601AD0ED000A09
:1055C00022EE210AD0ED052A00EE810A71EE622A50
:1055D000D0ED020A00EEA20AD0ED030AF4EEC00AF2
:1055E000F1EE10FA02D2B0EE600A08E0F1EE602AA5
:1055F000F4EEC02AF1EE10FA01DDB0EE620AB5EE6B
:10560000C02AF1EE10FA53DDF1EE602AF4EEC02A62
:10561000F1EE10FA04D2F4EEC00AF1EE10FA13DC47
:10562000B5EEC01AF1EE10FA04DDF4EEC02AF1EE88
:1056300010FA09DAB5EEC01AF1EE10FA08D2F4EE5B
:10564000C00AF1EE10FA03D871EE811AC0ED041A07
:10565000C0EE821AD0ED040AF4EEE10AF1EE10FA7F
:1056600001DDC0ED041A90ED042AF1EE610AB4EEFA
:10567000E02AF1EE10FA01D2C0ED040AD0ED070ADB
:10568000F5EEC00AF1EE10FA0DDDF7EE001A90ED1E
:10569000062A71EEE01A61EE821AB0EE402AB0EEF0
:1056A000610A00EE820A80ED060A80ED051A704755
:1056B000DFED010AE0E700000000000080EC040AD2
:1056C0009FED050A80ED040A80ED050A80ED060ACB
:1056D00080ED070A70470000000000009FED040AFB
:1056E00080ED040A80ED050A80ED060A704700008F
:1056F00000000000B5EEC00AF1EE10FA02D29FEDF4
:10570000060A06E010EE101AB1F17E5F01DDB7EE79
:10571000000A80ED070A7047000000007047000093
:105720002DE9F041044600680025C168490618D4F7
:10573000C16841F08001C160FDF75EF906464FF493
:105740007A78042707E000BFFDF756F9801B404533
:1057500001D9677701252068C068400601D4002D73
:10576000F2D02846BDE8F08170B5044600680025F7
:10577000C16821F08001C16020688068800606D47D
:105780002046FDF721FF10B104206077012528464F
:1057900070BD70471CB500788DF80000F3208DF8BF
:1057A0000100AB208DF8020009B1012000E00020CB
:1057B0008DF8030000208DF804006B208DF80500A3
:1057C0000621684600F044F81CBD00001CB50446E4
:1057D00000788DF800009A208DF8010004208DF8E3
:1057E000020000208DF803006B208DF804000521D5
:1057F000684600F02DF89FED020A84ED020A1CBDF8
:10580000000000002DE9F0410F461E4615460446F3
:105810001C21FAF760FF2770658026712773FD2031
:1058200060730020A073290AE17325746674A07464
:10583000E07420756075A075E0756B209FED030A1C
:10584000207684ED020ABDE8F0810000000000002F
:1058500043186B2203F8012C0A46014664230148D1
:10586000FEF748BE2403002010B504462DED028B40
:10587000B0EE408A90ED020A78EE400AF5EEC00ADA
:10588000F1EE10FA40D09FED221A80EE810ADFED92
:10589000210A20EE200ABDEEC00A10EE100A0028F0
:1058A00032D002DC4FF0010101E04FF0000101DCD9
:1058B000C0F10000227822734FF0FD026273A173E1
:1058C00061884FEA1122E2732174217961744FEAF1
:1058D0001061A1744FEA1041E1744FEA1021217563
:1058E00060754FF00000A075E0750B4890F841001E
:1058F000202809D16B22227604F10C010D220648E2
:10590000FEF748FE84ED028ABDEC028B10BD00005C
:105910000000B44300004845240300201CB5007873
:105920008DF80000FE208DF8010098208DF802000F
:1059300000208DF803006B208DF8040005216846D7
:10594000FFF786FF1CBD000038B5044600788DF8CF
:1059500000000A208DF801006D208DF802006B20F8
:105960008DF8030004216846FFF772FF9FED020ADD
:1059700084ED020A38BD000000000000FDF7D2B936
:1059800030B593B030216846FAF7A5FE14210CA873
:10599000FAF7A1FE1E480025016841F08051016020
:1059A000006800F0805011901A48016841F44041AD
:1059B00001600068022400F440401190092000902A
:1059C0004FF4803001900120CDE905048005079057
:1059D0000C2008906020CDE9090404200B90684653
:1059E000FDF7D0FB08B172B6FEE70CA90F2081E8E5
:1059F00031004FF48050CDE90F0503210CA8FDF7CD
:105A0000D5FA002801D072B6FEE713B030BD000011
:105A100040380240007000400248016841F47001C3
:105A20000160704788ED00E00148FEF71DB80000F6
:105A300074010020F0B502681F4B204C204D214E10
:105A40004FF0804C984207D0604505D0A04203D06B
:105A5000A84201D0B04203D122F070074A683A430D
:105A6000984210D060450ED0A0420CD0A8420AD077
:105A7000B04208D0144CA04205D0144CA04202D031
:105A8000134CA04203D122F44074CA6822434C69EB
:105A900022F0800222438C68C4620C6884629842BF
:105AA00001D109690163016841F00401016001212C
:105AB00041610260F0BD00000000014000040040B0
:105AC00000080040000C004000400140004401403C
:105AD0000048014010B501F01F030121046A9940FC
