:020000040800F2
:10000000000C0020410200086D3400086D29000832
:10001000393100086F070008F93F000800000000B0
:100020000000000000000000000000007B38000815
:100030003508000800000000053800087D38000879
:100040005B0200085B0200085B0200085B0200081C
:100050005B0200085B0200085B0200085B0200080C
:100060005B0200085B0200085B0200085B020008FC
:100070005B0200085B0200085B0200085B020008EC
:10008000710700087D0700085B02000800000000FF
:100090000000000000000000000000005B020008FB
:1000A0005B020008293900085B0200085B020008B7
:1000B0005B0200085B0200085B0200085B020008AC
:1000C0005B0200085B0200085B0200085B0200089C
:1000D0005B020008D53F0008E13F00080000000077
:1000E0005B0200085B0200085B02000800000000E1
:1000F0000000000000000000000000005B0200089B
:10010000000000005B0200085B0200085B020008C0
:1001100000000000000000000000000000000000DF
:100120005B02000889070008950700085B020008C9
:100130005B0200080000000000000000000000005A
:100140000000000000000000000000005B0200084A
:100150005B020008A1070008AD070008ED3F00089A
:100160005B0200085B0200080000000000000000C5
:10017000000000000000000000000000000000007F
:10018000000000005B02000800000000000000000A
:100190005B0200085B02000800F002F800F041F882
:1001A0000AA090E8000C82448344AAF10107DA45D2
:1001B00001D100F036F8AFF2090EBAE80F0013F0E3
:1001C000010F18BFFB1A43F0010318472C4A000027
:1001D0004C4A0000103A24BF78C878C1FAD85207B8
:1001E00024BF30C830C144BF04680C6070470000B1
:1001F0000023002400250026103A28BF78C1FBD830
:10020000520728BF30C148BF0B607047642900F017
:10021000F380002070471FB504F0C4F81FBD10B56F
:1002200010BD00F06AFA1146FFF7F5FF03F00CFF6E
:1002300000F088FA03B4FFF7F2FF03BC00F090FA75
:100240000948804709480047FEE7FEE7FEE7FEE76A
:10025000FEE7FEE7FEE7FEE7FEE7FEE704480549A6
:10026000054A064B7047000019390008990100083B
:1002700000060020000C00200008002000080020DC
:1002800053EA020C00F069802DE9F04B4FF00006B4
:10029000002B1FBFB3FA83F503FA05F424FA05F621
:1002A0005E4012BF1643B2FA82F502FA05F4C5F1B8
:1002B00020051EBF22FA05FC44EA0C04203556EA4C
:1002C000044C4FEA144418BF641C4FF000084FF070
:1002D0000009904271EB030C39D3002919BFB1FA20
:1002E00081F701FA07F6B0FA80F700FA07F6C7F1CE
:1002F00020071EBF20FA07FC46EA0C062037B6FB93
:10030000F4FCA7EB0507103F07F01F0BCBF120060D
:100310000CFA0BFB2CFA06F644BFB3460026202F3E
:10032000A4BF5E464FF0000B5BEA060C08BF4FF01F
:10033000010B19EB0B09ABFB027C48EB0608C01B59
:1003400006FB02CC0BFB03CC71EB0C01C1E70B46A7
:10035000024641464846BDE8F08B13B54FF0000019
:100360004FF00001AFF30080BDE81C407047000073
:100370000FB47CB50C0009AA009001D02044401EA7
:10038000084B7B4469460190089800F096F90546B1
:100390001CB10020694600F0A3F928467CBC5DF83A
:1003A00014FB00006503000070B504468569006811
:1003B000C10601D5302600E02026C00707D070BD59
:1003C000D4E9012130469047206A401C20626D1E0E
:1003D000F6D570BD70B5044685690078C00707D1B1
:1003E00070BDD4E9012120209047206A401C206282
:1003F0006D1EF6D570BD00002DE9F04106460024C3
:1004000010687529314616A510D0AFF3008000287A
:1004100002DA404213A507E031688A0701D512A528
:1004200002E0490704D511A5012401E0AFF30080E3
:1004300000210A2206F1240709E0B0FBF2FCB0FB20
:10044000F2F302FB1C00303078541846491C002897
:10045000F3D123462A463046BDE8F04100F0CEB83D
:10046000000000002D0000002B0000002000000014
:100470002DE9F05F894604464FF0000ADFF824B109
:10048000FB44C0F820A02046E168884700287DD0C2
:10049000252806D0D4E901219047206A401C20621B
:1004A000F1E700255F462046E16888472028064698
:1004B00007DB312E05D2B81910F8200C08B105431E
:1004C000F1E7A80701D525F00405C4F81CA0002712
:1004D000C4F818A02A2E09D0304603F09EFD38B388
:1004E00004EB8708303EC8F8186019E059F8041B7F
:1004F000204604EB87029161E1688847012F064698
:1005000018D1E069002820DA25F020051DE0D8F890
:10051000180000EB800006EB40003038C8F81800E7
:100520002046E1688847064603F077FD0028EED1B3
:10053000012F0AD02E2E08D12046E16888477F1C63
:100540000646022F45F02005C4DBA069002803DA27
:10055000404245F00105A061E80701D025F01005F3
:10056000A6B1A6F14100192802D8203645F400654D
:100570004A463146204625604D46FFF747FE60B1AA
:10058000012807D0ED1D25F0070000E007E000F18D
:10059000080978E705F1040975E730467AE7206A2B
:1005A000BDE8F09F624700004FF0000200B513461F
:1005B00094469646203922BFA0E80C50A0E80C5083
:1005C000B1F12001BFF4F7AF090728BFA0E80C5034
:1005D00048BF0CC05DF804EB890028BF40F8042B2D
:1005E00008BF704748BF20F8022B11F0804F18BF9A
:1005F00000F8012B70477047704770472DE9F047AE
:100600000D4699469246044600F124080168880682
:1006100004D5E06921F01001216000E00120A8422A
:1006200001DD471B00E00027A1697A1902EB0900F0
:10063000081AA0612078C00602D42046FFF7B4FE55
:10064000002608E0D4E901211AF806009047206A44
:10065000401C761C20624E45F4DB2078C0060AD58B
:100660002046FFF7A1FE06E0D4E9012130209047A3
:10067000206A401C2062381EA7F10107F4DC07E065
:10068000D4E9012118F805009047206A401C206237
:10069000281EA5F10105F3DC2046FFF79BFE20781C
:1006A000000602D50220BDE8F0870120FBE700002C
:1006B00001694A1C02610878704700B58FB0CDE926
:1006C00001310021059105497944CDE90310114616
:1006D0006846FFF7CDFE0FB000BD0000E5FFFFFF4D
:1006E0000A6802F8010B0A607047D1E900239A42B8
:1006F00002D2531C0B6010707047754600F02CF846
:10070000AE4605006946534620F00700854618B0FE
:1007100020B5FFF7A3FDBDE820404FF000064FF0E5
:1007200000074FF000084FF0000B21F00701AC4626
:10073000ACE8C009ACE8C009ACE8C009ACE8C00945
:100740008D46704710B50446AFF300802046BDE8E3
:100750001040FFF76FBD0000004870479C05002067
:1007600001491820ABBEFEE7260002007047FEE7F5
:10077000014800F02DB9000088030020014800F076
:1007800027B90000E8030020014800F021B900006B
:1007900048040020014800F01BB90000C8020020F6
:1007A000014800F015B90000A8040020014800F03D
:1007B0000FB900002803002001681823CAB2103ABC
:1007C000B2FBF3F2054B6FF30901032A9B5CC3658F
:1007D00000D9091D8165084670470000AE43000836
:1007E00010B5014600208B698A6A4FF0C07453B17E
:1007F000B3F5005F15D072B1012A0CD0022A0AD0DD
:10080000032A09D104E01AB1012A06D0022A03D131
:10081000C96AC90100D5012010BDC96AA142FAD038
:1008200010BD002AF7D0012AF2D0022AF3D0032A01
:10083000F3D010BD7047000010B53C210E4801F008
:10084000FDFA3C210D4801F0F9FA0B490020096836
:1008500048620A490968486209499FED0A0A086026
:10086000886081ED030A486010310860886081ED7E
:10087000030A486010BD000060010020A8010020AC
:100880003C050020000000001D480068416A00226D
:1008900009B242621B4800EE101A9FED1B1A036852
:1008A000B8EEC00A0B44C0E9003120EE010AD0EDD9
:1008B000031ADFED160A01EEA00A80ED030ABDEE71
:1008C000C00A80ED020A12480068416A426209B219
:1008D0000C4800EE101A10300268B8EEC00A0A4444
:1008E000C0E9002120EE010A90ED031A01EE200A72
:1008F00080ED030ABDEEC00A80ED020A70470000D9
:10090000600100203C050020CDCC4C3ECDCC4C3FBE
:10091000A801002072B6FEE72DE9F0410446876D7C
:1009200000F09CFA064694F835000025022806D00F
:100930008020606584F834500120BDE8F081206893
:10094000016821F0160101602068416921F08001F1
:100950004161206C08B9A06C20B12068016821F0C9
:10096000080101602068016821F0010101600CE0CC
:1009700000F074FA801B052807D920206065032049
:1009800084F8350084F83450D7E720680068C00741
:10099000EED194F85C103F208840B860012084F8C4
:1009A000350084F834500020C7E790F8351002294C
:1009B00003D08021416501207047052180F8351062
:1009C0000068016821F0010101600020704700000B
:1009D0002DE9F84304464FF00009CDF80090634834
:1009E0004FF41651A56D0068B0FBF1F72E6894F82E
:1009F0005C10082000FA01F131420FD021680A682A
:100A000052070BD50A6822F004020A6094F85C10C1
:100A10008840A860606D40F00100606594F85C104B
:100A20004FF0010808FA01F0304208D02168496906
:100A3000090604D5A860606D40F00200606594F876
:100A40005C1004208840304208D02168096889077A
:100A500004D5A860606D40F00400606594F85C10F7
:100A600010208840304218D021680968090714D541
:100A7000A86020680168490304D50068000308D510
:100A8000A16C07E00168C90503D4016821F00801E1
:100A90000160216C09B12046884794F85C10202041
:100AA0008840304231D021680968C9062DD5A86038
:100AB00094F8350005282068016806D0490347D519
:100AC000006800031DD4616C1CE021F01601016078
:100AD0002068416921F080014161206C08B9A06C57
:100AE00020B12068016821F00801016094F85C10D1
:100AF0003F208840A86084F8358084F83490216DC8
:100B00001FE0E16B09B120468847606D00282BD0BB
:100B1000606DC00714D0052084F835002068016896
:100B200021F0010101600098401C0090B84203D8F8
:100B300020680068C007F6D184F8358084F83490C6
:100B4000E16C002910D001B02046BDE8F043084711
:100B50000168C905D5D4016821F01001016084F84D
:100B6000358084F83490CCE7BDE8F8831800002085
:100B70002DE9F041044600F071F906465CB102200F
:100B800084F83500002584F834502068016821F08D
:100B9000010101600DE00120BDE8F08100F05EF987
:100BA000801B052805D920206065032084F83500C6
:100BB000F2E720680068C007F0D122681168204879
:100BC0000140D4E901031843D4E903363343184301
:100BD00063691843A3691843E3691843236A1843F8
:100BE0000843616A042903D1D4E90B13194308436C
:100BF000106020684069666A20F0070130460E43A5
:100C0000012704280CD1A06A0643E06A40B12046BF
:100C1000FFF7E6FD20B14020606584F83570BAE743
:100C2000206846612046FFF7C7FD94F85C203F210D
:100C300091408160656584F835700020ACE7000064
:100C40003F8010F070B5044600F008F90546601CBE
:100C500002D004480078044400F000F9401BA04290
:100C6000FAD370BD0C0000202DE9F84FDFF8B8A1D1
:100C70000022012403254FF00F090AF1040BAAF109
:100C8000040E00BF0B6804FA02F63340B34273D17E
:100C90000F7907F00307012F01D0022F16D18768C3
:100CA0004FEA420805FA08FC27EA0C07D1F80CC005
:100CB0000CFA08FC4CEA070CC0F808C04768B743B8
:100CC0000E79C6F3001696403E4346600E79F64311
:100CD000B6070DD0C768560005FA06FC27EA0C07D0
:100CE000D1F808C00CFA06FC4CEA070CC0F80CC09E
:100CF0000E7906F00306022E10D1D60800EB860806
:100D0000D8F8206057074FEAD76C09FA0CF7BE43B2
:100D10000F6907FA0CF73743C8F8207006684FEAE6
:100D2000420C05FA0CF7BE430F7907F0030707FAE8
:100D30000CF7374307604E6816F4403F6DD03B4ECA
:100D4000376847F480473760366822F0030706F4B7
:100D500080460096364E07EB060CDCF808689707CD
:100D60003F0F09FA07F826EA0806DFF8C880404571
:100D700003D14FF000081EE04FE0DFF8BC80404593
:100D800002D14FF0010816E0DFF8B080404502D1F3
:100D90004FF002080FE0DFF8A880404502D14FF085
:100DA000030808E0DFF89C80404502D14FF00408BA
:100DB00001E04FF0070808FA07F848EA0608CCF8FF
:100DC0000888DAF800605746D1F804C09E435FEA0D
:100DD000CC2C00D51E433E60DBF800605F46D1F8A6
:100DE00004C09E435FEA8C2C00D51E433E60DEF8B3
:100DF00000607746D1F804C09E435FEA8C3C00D582
:100E00001E433E60084F083F3E68D1F804C09E4331
:100E10005FEACC3C00D51E433E60521C102AFFF412
:100E200031AFBDE8F88F0000083C01404438024073
:100E3000003001400000024000040240000802406F
:100E4000000C0240001002400069084000D0012060
:100E500070470AB1816170470904FBE70148806867
:100E6000704700000C00002070B5040025D094F8F5
:100E70003D00002520B984F83C50204600F050F990
:100E8000242084F83D002068016821F00101016000
:100E90002068016841F4004101602068016821F484
:100EA0000041016000F04EFB4D4A6168914201D85B
:100EB0004C4900E04C49884201D2012070BD4B49A9
:100EC0002368B0FBF1F15E6826F03F060E435E60DA
:100ED0006368934206D94FF4967359434FF47A737B
:100EE000B1FBF3F12368491C1E6A26F03F0631432B
:100EF00019626168914210D84900401EB0FBF1F2BE
:100F0000521CC2F30B02042A01D2042022E0B0FBDF
:100F1000F1F0401CC0F30B001CE0A268F2B301EB3F
:100F2000C10303EB0116431EB3FBF6F35B1C43F452
:100F300080431B0549D092B301EBC10202EB0111C2
:100F4000401EB0FBF1F0401CC0F30B0040F48040A9
:100F500040F400402168CA694CF6FF739A4310437D
:100F6000C861D4E9071001432068026822F0C0027A
:100F700011430160D4E9030101432068826848F20B
:100F8000FF339A4311438160D4E905010843216886
:100F9000CA6822F0FF021043C86001E00EE016E0CC
:100FA0002068016841F0010101602564202084F877
:100FB0003D00256384F83E50002070BD01EB4106E2
:100FC000431EB3FBF6F35B1CB3E70120C2E701EB62
:100FD0004101401EB0FBF1F0401CC0F30B00B7E72D
:100FE000A086010080841E0000093D0040420F00E1
:100FF0002DE9FF4F83B09A46DDE9119793460446E9
:10100000DDF84080FFF72AFF054694F83D002028D0
:101010007FD11923012240492046009501F03EFD71
:10102000002876D194F83C00012872D0012084F881
:101030003C0020680168C90703D1016841F0010143
:1010400001602068016821F400610160212084F8BA
:101050003D00402084F83E0000262664C4F8248029
:10106000A4F82A90608D20852C48E062CDE90075B7
:1010700053465A462046049901F090FC70B930E07E
:101080002A463946204601F0AFFD58B1206C0428AD
:1010900004D12068016841F400710160012007B0AB
:1010A000BDE8F08F606A216800780861606A401CC2
:1010B0006062218D491E89B22185628D521E628532
:1010C00022685369DB435B070BD469B10078106178
:1010D000606A401C6062208D401E2085608D401E2D
:1010E0006085208D0028CBD12A463946204601F064
:1010F000A9FC0028CAD154F83D0B016841F40071E5
:101100000160202004F81E09E67766770020C6E714
:10111000FFE70220C3E70000020010000000FFFF0D
:1011200010B586B0044614216846FFF73DFA13490E
:101130002068884220D112480021026842F0020251
:101140000260006800F0020005904FF440700090CB
:101150001220CDE901010420CDE9031069460948B8
:10116000FFF782FD06481030016841F4001101606C
:10117000006800F40010059006B010BD0054004057
:10118000303802400004024002488168027811446D
:10119000816070470C0000200B4810B5016841F4D5
:1011A00000710160016841F480610160016841F4EF
:1011B00080710160032000F06FF80F2000F006F846
:1011C00000F024F8002010BD003C024070B50D4D29
:1011D00004464FF47A712878B1FBF0F00A490968A7
:1011E000B1FBF0F000F03EFC48B9102C07D2002211
:1011F0002146501E00F030F800206C6070BD0120C8
:1012000070BD00000C000020180000200A4808B53E
:10121000016841F480410160006800F48040009062
:101220000548001F016841F080510160006800F02E
:101230008050009008BD000044380240002809DBBF
:1012400000F01F02012191404009800000F1E020E0
:10125000C0F8001170470000F0B40E4B1B680C463C
:10126000C3F30223C3F10705042D00D90425191D7A
:10127000072901D2002300E0DB1E012606FA05F152
:10128000491E214099409E40761E16403143F0BCD5
:1012900002F0B3BE0CED00E0064900F0070208685A
:1012A0004FF6FF03184040EA0220034A104308604B
:1012B000704700000CED00E00000FA052DE9F8434E
:1012C000044600684FF00109C1074FF0000601D144
:1012D000400729D5DFF82081C8F86860FFF7BEFD18
:1012E0000746464D05E000BFFFF7B8FDC01B0228CA
:1012F00059D828680001F7D4A068217B800140EA12
:101300000170616808433D4984310860C8F86890FD
:10131000FFF7A4FD074604E0FFF7A0FDC01B02286D
:1013200041D828680001F7D52078800752D5334886
:101330004030016841F0805101600068304D00F09C
:1013400080500090286840F480702860FFF786FD88
:10135000074604E0FFF782FDC01B022823D8286857
:10136000C005F7D5254D7035286810F4407020D0A1
:10137000218A01F4407181421BD02868214920F460
:101380004070C1F800900E6028602868C00710D037
:10139000FFF764FD064641F2883707E0FFF75EFD80
:1013A000801BB84202D90320BDE8F8832868800773
:1013B000F4D521691148C1F301220830032A12D063
:1013C000016821F4F81101602868218AC1F30B013A
:1013D000084328602078000703D50B49207DC1F819
:1013E000E0010020E0E70268084B22F4F8121940FF
:1013F0000A430260E8E7000000004742003802406C
:1014000000700040400E474200104742FFFCFF0FB3
:101410002DE9F0470E46050065D0DFF81481D8F8B5
:101420000000F7B200F00700B04207D288F8007061
:10143000D8F8000000F00700B04254D128683D4CB5
:10144000810712D5400703D5206840F4E0502060A2
:101450002878000703D5206840F4604020602068A9
:10146000A96820F0F000084320602878C0072DD03C
:10147000304968680839012812D0022813D003289F
:1014800011D00968890700292DDA216821F00301AC
:1014900001432160FFF7E2FC814641F2883A0EE009
:1014A00009688903EFE709688901ECE7FFF7D6FCD3
:1014B000A0EB0901514502D90320BDE8F08720685F
:1014C000696800F00C00B0EB810FEFD1D8F8001084
:1014D000404601F00701B14207D90770006800F0EB
:1014E0000700B04201D00120E7E72878400705D582
:1014F0002068E96820F4E05008432060287800075D
:1015000006D52068296920F4604040EAC1002060C7
:1015100000F038F82168084AC1F30311515CC84053
:101520000649086006480068FFF750FE0020C4E73F
:10153000003C024008380240B64300081800002072
:10154000100000200448054900680968044AC1F3F6
:101550008221515CC84070471800002008380240C2
:10156000C64300080448054900680968044AC1F3F5
:101570004231515CC84070471800002008380240D2
:10158000C6430008154810B5006810F00C02144856
:1015900013D01449042A0FD0082A0ED10F4C241F4F
:1015A0002268236802F03F025B0207D52068C0F37F
:1015B0008810A0FB010106E0084610BD2168C1F3B8
:1015C0008811A1FB00010023FEF75AFE2168C1F338
:1015D0000141491C4900B0FBF1F010BD0838024040
:1015E0000024F40040787D012DE9F84F04006ED00E
:1015F0002078DFF84C93C007A9F104054AD009F11F
:1016000004000168C1F38101012908D00068C0F31A
:10161000810002280AD1D9F80000400206D52868C6
:10162000800337D560680028E1D033E06068B0F50A
:10163000803F10D0B0F5A02F286810D020F4803063
:101640002860286820F4802028606068A8B1FFF72F
:1016500005FC06460DE0286840F48030F4E740F4CD
:1016600080202860F7E700BFFFF7F8FB801B6428A5
:1016700073D828688003F7D50CE0FFF7EFFB064628
:1016800005E000BFFFF7EAFB801B6428F0D828685C
:101690008003F7D42078DFF8AC8280074FF0000A8F
:1016A0003ED5A748001D016811F00C0F08D0006856
:1016B000C0F3810002280BD1D9F80000400207D402
:1016C0002868800716D5E068012800D112E033E1D0
:1016D000E068B8B10120C8F80000FFF7BFFB06467C
:1016E00005E000BFFFF7BAFB801B0228C0D82868BE
:1016F0008007F7D52868216920F0F80040EAC1008A
:1017000028600DE0C8F800A0FFF7A8FB064604E03B
:10171000FFF7A4FB801B02281FD828688007F7D496
:101720002078000722D5864F87486169703771B1EC
:1017300001210160FFF792FB064604E0FFF78EFBF4
:10174000801B022809D838688007F7D50EE0C0F85A
:1017500000A0FFF783FB064605E082E0FFF77EFB73
:10176000801B02287DD838688007F7D4207840078E
:1017700068D5DFF8CCB100270BF13C0BDBF800009B
:10178000C0000BD4DBF8001041F08051CBF8001002
:10179000DBF80000012700F0805000906B4E3068AD
:1017A000C00510D4306840F480703060FFF756FBFD
:1017B000009005E0FFF752FB0099401A022850D82C
:1017C0003068C005F6D55E4EA0686C3601280FD093
:1017D0000528306810D020F001003060306820F01B
:1017E00004003060A068B8B1FFF738FB00900FE04C
:1017F000306840F00100F4E740F004003060F7E7A3
:10180000FFF72CFB0099411A41F28830814266D8DB
:1018100030688007F4D50EE0FFF720FB009007E06A
:10182000FFF71CFB0099411A41F28830814256D8DB
:1018300030688007F4D42FB1DBF8001021F080511C
:10184000CBF80010A069C8B33D49091D0968C1F370
:10185000810102294AD00228504607D0C8F860000A
:1018600000E03CE0FFF7FAFA04463BE04746C8F8E0
:101870006000FFF7F3FA064605E000BFFFF7EEFA57
:10188000801B02282BD828688001F7D4D4E90701EF
:101890000843A16A2E4A490802EB0141626A41EA03
:1018A0008211084394F82C1040EA0161C9F8001035
:1018B00001203866FFF7D2FA044606E03EE000BF9A
:1018C000FFF7CCFA001B022809D828688001F7D559
:1018D00034E000BFFFF7C2FA001B022802D9032040
:1018E000BDE8F88F28688001F4D427E00128F7D0FC
:1018F000D9F80000E26900F4800191421CD1226A0B
:1019000000F03F01914217D147F6C071626A014071
:10191000B1EB821F10D1A26A4FF0FF3300F44031C7
:1019200003EB5202B1EB024F06D194F82C1000F0F9
:101930007060B0EB016F01D00120D1E70020CFE74C
:101940000438024000004742800E474200700040C9
:101950000000FFFF10B5040002D0607F10B106E068
:10196000012010BD00202077204600F041F8022021
:1019700060772068C168C943C90632D5CA2141626F
:10198000216853204862204601F03EFF20BB2068BA
:101990008168164A11408160216888686268104336
:1019A000D4E904231A43104388602168E068086181
:1019B00020680169228941EA02410161204601F063
:1019C00047FF48B921680A6C22F480220A64216822
:1019D0000A6CA3691A430A642268FF21516208B1A4
:1019E00010BD00200121617710BD0000BFFF8FFFF7
:1019F00010B586B0044618216846FEF7D5FD0949A2
:101A0000206888420CD102200090000204906846B1
:101A1000FFF754FC08B1FEF77DFF03490120086081
:101A200006B010BD002800403C0E474270B5044689
:101A30000B482168C860FFF711FA05464FF47A7623
:101A400007E000BFFFF70AFA401BB04201D90320AC
:101A500070BD2068C0688006F4D5002070BD00000D
:101A60005F3F010010B5401EB0F1807F01D301201F
:101A700010BD4FF0E02460610F21601702F0BDFA45
:101A80000020A06107202061002010BD7047704732
:101A900070B590F83C20012A2CD0012480F83C40FD
:101AA000022280F83D2003685A689D6822F0700683
:101AB0000A6832435A60104B02689A420ED0B2F163
:101AC000804F0BD00D4B9A4208D00D4B9A4205D057
:101AD0000C4B9A4202D00C4B9A4204D1496825F033
:101AE00080031943916080F83D40002180F83C104C
:101AF000084670BD022070BD000001400004004097
:101B000000080040000C00400040014010B50400F7
:101B100003D094F83D0010B107E0012010BD002073
:101B200084F83C00204600F01FF8022084F83D00B5
:101B3000211D206801F0FEFE012084F8460084F893
:101B40003E0084F83F0084F8400084F8410084F8A7
:101B5000420084F8430084F8440084F8450084F887
:101B60003D00002010BD000008B500681149884202
:101B700012D11148016841F00101016000680022A2
:101B800000F00100009011461920FFF765FBBDE849
:101B900008401920FFF752BBB0F1804F09D1064829
:101BA000001F016841F001010160006800F00100C0
:101BB000009008BD000001404438024090F83D10FC
:101BC000012901D001207047022180F83D100168F1
:101BD000CA6842F00102CA6000680E4988420ED00D
:101BE000B0F1804F0BD00C49884208D00B49884295
:101BF00005D00B49884202D00A49884204D1816845
:101C000001F00701062903D0016841F001010160DC
:101C10000020704700000140000400400008004020
:101C2000000C00400040014070B5044690F83C00B4
:101C30000025012817D0012684F83C60022084F892
:101C40003D002068826822F0770222F47F428260A1
:101C50000868502838D00DDC20284FD005DC90B320
:101C6000102811D14AE0022070BD302846D040280B
:101C70000AD13BE060282FD070280DD0B0F5805FEE
:101C800003D0B0F5005F12D0012584F83D6000203C
:101C900084F83C00284670BDCB68D1E9012120685A
:101CA00001F0A5FE2068816841F0770109E0CB686A
:101CB000D1E90121206801F09AFE2068816841F491
:101CC00080418160E1E719E0CA684968206801F055
:101CD00043FF5021206806E0CA684968206801F087
:101CE0004CFF6021206801F08CFECEE7CA6849688D
:101CF000206801F031FF40212068F4E722680146A6
:101D00001046F0E72DE9F0410D46040003D094F8A9
:101D10003D0018B108E00120BDE8F081002084F802
:101D20003C00204600F040F8022084F83D00206886
:101D3000816844F2070291438160211D206801F00F
:101D4000F9FD226890689169166A2B68AF690343B0
:101D500040F20330814341EA0721A868EF69084354
:101D60004FF6FC418843E96840EA072001432869AF
:101D70002F6A000140EA0730084369686D6926F060
:101D8000AA0646EA0515294393602268906154F833
:101D9000460B0162012004F81F09E0752076E07609
:101DA0002077A0750020B7E7F0B587B0044614216E
:101DB0006846FEF7F9FB1E4B1C4F266800241C49A1
:101DC000103B022201251B48BE4211D10E6846F08D
:101DD00002060E60096801F002010591196841F0E0
:101DE00002011960196801F002010591302113E028
:101DF000114FBE4217D10E6846F004060E60096806
:101E000001F004010591196841F002011960196897
:101E100001F002010591C0218DE82600CDE90342C1
:101E20006946FEF721FF07B0F0BD00000004004046
:101E300040380240000402400008004070B590F8AD
:101E40003E60044690F83F5090F8423090F84320AE
:101E5000022021B104290ED0012E1BD114E0012E45
:101E600018D1012B16D184F83E0084F842000122DB
:101E70000021206820E0012D0CD1012A0AD184F82C
:101E80003F0084F8430014E0012D03D1012B01D160
:101E9000012A01D0012070BD84F83E0084F83F0083
:101EA00084F8420084F8430001220021206801F0F8
:101EB00091FD01220421206801F08CFD2068016859
:101EC00041F001010160002070BD70472DE9F04133
:101ED00004460068C66805694FF00007A90713D5D6
:101EE000B10711D5F91E01610120207720688069B2
:101EF0008007204602D0FFF7E8FF04E000F0BAF8C0
:101F0000204600F04CF92777680716D5700714D5DE
:101F100021686FF004000861022020772068806942
:101F200010F4407F204602D0FFF7CFFF04E000F01E
:101F3000A1F8204600F033F92777280715D5300798
:101F400013D521686FF0080008610420207720680D
:101F5000C0698007204602D0FFF7B7FF04E000F019
:101F600089F8204600F01BF92777E80616D5F00619
:101F700014D521686FF010000861082020772068D0
:101F8000C06910F4407F204602D0FFF79EFF04E0B6
:101F900000F070F8204600F002F92777E80708D033
:101FA000F00706D021686FF001000861204600F0BC
:101FB0004FF9280608D5300606D521686FF0800055
:101FC00008612046FFF762FD680608D5700606D551
:101FD00021686FF040000861204600F09FF9A806D4
:101FE0000AD5B00608D521686FF0200008612046A8
:101FF000BDE8F041FFF74BBDBDE8F08170B586B09C
:10200000044614216846FEF7CFFA2068B0F1804FED
:1020100028D115480024016841F0010101600168E0
:1020200001F001010591016841F0020101600068C1
:10203000022500F0020005904FF400400090CDE929
:1020400001540126CDE9034669460848FEF70CFE17
:1020500008200090CDE90154CDE9034669460448C3
:10206000FEF702FE06B070BD3038024000000240AC
:1020700000040240704770B5044690F83C0000260A
:102080000D4601280FD0012084F83C006AB1042AD3
:102090001DD0082A2FD00C2A3FD00126002084F81A
:1020A0003C00304670BD022070BD206801F0B2FCDB
:1020B0002068816941F0080181612068816921F00F
:1020C00004018161206881692A69114311E0206857
:1020D00001F0C8FC2068816941F4006181612068D9
:1020E000816921F480618161206881692A6941EAFE
:1020F00002218161D2E7206801F0E0FC2068C1691B
:1021000041F00801C1612068C16921F00401C16189
:102110002068C1692A69114311E0206801F0FAFCC6
:102120002068C16941F40061C1612068C16921F47E
:102130008061C1612068C1692A6941EA0221C161E7
:10214000ACE710B5040003D094F83D0010B107E0EF
:10215000012010BD002084F83C00204600F01EF84D
:10216000022084F83D00211D206801F0E3FB0120DE
:1021700084F8460084F83E0084F83F0084F840006C
:1021800084F8410084F8420084F8430084F8440055
:1021900084F8450084F83D00002010BD704770476A
:1021A00010B50446022249B104290ED0082913D0E3
:1021B00094F84100012816D0012010BD94F83E008B
:1021C0000128F9D184F83E200FE094F83F0001285F
:1021D000F2D184F83F2008E094F840000128EBD1C8
:1021E00084F8402001E084F841200122206801F0B9
:1021F000F1FB12492068884203D1426C42F400424C
:102200004264206888420ED0B0F1804F0BD00C4958
:10221000884208D00B49884205D00B49884202D039
:102220000A49884204D1816801F00701062903D0D8
:10223000016841F001010160002010BD0000014073
:102240000004004000080040000C00400040014035
:1022500070B500682A49884226D10A20FEF714FB8F
:10226000284C2078012802D16068401C606001F091
:1022700099FC60702078012816D162780021084608
:102280005FF0010505FA00F3134201D0491CC9B201
:10229000401CC0B20828F5D3032906D34FF496702A
:1022A00000F0FCFF0220207070BD6068B0F5E16FA7
:1022B0001ED960686421B0FBF1F0103800EE100AFE
:1022C0009FED111A1149F8EE400AB6EE000A00EE31
:1022D000C10A10EE100A884201DA9FED0D0ADFED07
:1022E0000D0A0D4820EE200ABDEEC00A80ED090A55
:1022F000607801F09FFCBDE8704001F04FB800002D
:1023000000000140000000200AD7233CCDCCCC3E89
:10231000CDCCCC3E00001644080500207047704725
:1023200070470000F8B5016804460868CA684B6940
:1023300010F00F0F4FF0000559D003F0010602F422
:102340009077374365D0C10705D0D10503D5616CBF
:1023500041F001016164410705D5D90703D0616CE3
:1023600041F002016164810705D5D90703D0616C92
:1023700041F004016164010707D502F020013143F7
:1023800003D0616C41F008016164616C00293AD0AE
:10239000800604D5900602D5204601F0F9FC20689D
:1023A0004069616CC0F38010090700D460B3204617
:1023B00001F0C7FC20684069400621D52068143030
:1023C00050E8001F21F0400140E80012002AF5D13A
:1023D000E06BA8B172490165E06BFEF7E6FA0028F0
:1023E00011D0E06B016D01B0BDE8F04008478306F5
:1023F0000FD593060DD52046BDE8F84001F0C8BCC6
:102400002046FFF78DFFF8BD2046FFF789FF656482
:10241000F8BD266B2023012E7ED1C6067CD5D606BC
:102420007AD508684868009048694FF0020640066F
:102430004DD5E26B106840684FF480770004000CC3
:102440003AD0A18D814237D9E085D069B8422DD0EC
:1024500020680C3050E8001F21F4807140E8001221
:10246000002AF5D12068143050E8001F21F0010146
:1024700040E80012002AF5D12068143050E8001F0F
:1024800021F0400140E80012002AF5D184F84230E2
:10249000256320680C3050E8001F21F0100140E84F
:1024A0000012002AF5D1E06BFEF736FA6663A08DC4
:1024B000E18D401A81B206E0A18D8142A8D1D06998
:1024C000B842A5D166632046FFF729FFF8BDA08D6D
:1024D000E18D401A81B2E08D0028F7D00029F5D0B7
:1024E00020680C3050E8002F22F4907240E800275A
:1024F000002FF5D12068143050E8002F22F001029F
:1025000040E80027002FF5D184F842302563206889
:102510000C3050E8002F00E006E022F0100240E806
:102520000023002BF3D1CDE705062BD5150629D5C1
:1025300094F841002128C9D1A068B0F5805F01D18D
:102540002069B0B1206A411C21622168007848608E
:10255000E08C401E0004000CE084B7D12068C16804
:1025600021F08001C1602068C16841F04001C16074
:10257000F8BD206A0088C0F308004860206A801C0B
:102580002062E5E74006F3D55006F1D5CA6820463B
:1025900022F04002CA6084F8413000F0E6F9F8BD4C
:1025A000353D000870B5040004D094F841000025C2
:1025B00010B106E0012070BD84F84050204600F0C4
:1025C00023F8242084F841002068C16821F40051D8
:1025D000C160204601F03EFC2068016921F4904171
:1025E00001612068416921F02A0141612068C168C8
:1025F00041F40051C1606564202084F8410084F8F2
:1026000042006563002070BD2DE9F04F87B005469C
:1026100014216846FDF7C8FFA348DFF88882143804
:10262000D5F800C0DFF88092022103239F4A40279B
:10263000002406154FF0070BC4455BD1D9F8008084
:1026400048F01008C9F80080D9F800C00CF0100C50
:10265000CDF814C0D0F800C04CF0010CC0F800C098
:10266000006800F00100059058028DE81300CDE9E4
:10267000033B69461046FEF7F7FADFF838828C49CB
:1026800040464FF0006AC8F80010C0E901A4C0E954
:102690000346C8F81440C8F81840C8F81C40C8F8E9
:1026A0002040B146C8F82440FEF762FA08B1FEF7B0
:1026B00031F9804EC5F83C806036C8F83850C6E91C
:1026C0000274C6E90494B4617948F46134627830E4
:1026D0007462C6E9000A3046FEF74AFA08B1FEF70E
:1026E00019F9AE63002211462520B563FEF7B4FD4B
:1026F000252068E0DFF8C081C44569D1DFF8A8C1B2
:10270000A246ACF1040CDCF8008048F40038CCF8A8
:102710000080DCF800C00CF4003CCDF814C0D0F808
:1027200000C04CF0010CC0F800C0006800F00100CF
:1027300005900C208DE81300CDE9033B6946104657
:10274000FEF792FADFF86C915C4909F1C00948463E
:102750004FF00068C9F80010C0E90184C0E90346E1
:10276000C9F81440C9F81840C9F81C40C9F82040FD
:10277000C9F82440FEF7FCF908B1FEF7CBF8504C3D
:10278000C5F83C904D48C9F838501830A760C4E9E6
:102790000008C4E903A6C4F814A0C4F818A0C4F83B
:1027A0001CA0C4F820A02046C4F824A0FEF7E0F93D
:1027B00008B1FEF7AFF8AC63002211462620A563EE
:1027C000FEF74AFD2620FEF739FD07B0BDE8F08F81
:1027D000DFF8F080C445F8D1D9F80080A24648F06F
:1027E0002008C9F80080D9F800C00CF0200CCDF802
:1027F00014C0D0F800C04CF0010CC0F800C0006854
:1028000000F0010005904FF4C0508DE8130008203F
:10281000CDE9033069461046FEF726FADFF8A080BE
:10282000234908F16008183940464FF02069C8F87C
:102830000010C0E90194C0E90346C8F81440C8F884
:102840001840C8F81C40C8F82040C8F82440FEF7DB
:102850008FF908B1FEF75EF8194CC5F83C801448B2
:10286000C034C8F838506030A760C4E90009C4E932
:1028700003A6C4F814A0C4F818A0C4F81CA0C4F897
:1028800020A02046C4F824A0FEF772F908B1FEF794
:1028900041F8AC63002211464720A563FEF7DCFC3B
:1028A000472090E7001001404438024000000240F9
:1028B00040640240C802002000440040886002409A
:1028C000E80300200014014070472DE9F843044656
:1028D00090F84100984616460D46202802D0022066
:1028E000BDE8F88385B17EB100206064212084F8C2
:1028F0004100FEF7B3FAA6848146E684A06820274B
:10290000B0F5805F02D003E00120E9E7206910B153
:102910002E4600250EE000260CE08021204601F026
:102920001FFBA8B9C6B116F8010B21684860E08CFE
:10293000401EE084E08C4B464FF00002CDF8008052
:102940000028EAD14FF04001204601F009FB40B1D8
:1029500084F841700320C3E735F8020BC0F3080088
:10296000E3E784F841700020BAE77047FEE70168AA
:102970004A69D24352050FD46FF480624A61002144
:1029800040F8301F202242738173026942F0040232
:102990000261017301207047002070472DE9F84360
:1029A000044600680D46DDE908970168984616461A
:1029B00041F4807101604B4600224FF00111204626
:1029C000009700F06BF848B120680068C00502D598
:1029D0004FF4007020640320BDE8F883216805F0FF
:1029E000FE0008613B464A461549204600F09EF825
:1029F00088B920684169806900903A464946204676
:102A000000F0F2F848B1206C042804D12068016875
:102A100041F4007101600120DEE7F5B2B8F1010F69
:102A200009D02168300A08613A464946204600F03C
:102A3000DBF80028E7D1206805610020CCE7000022
:102A40000200010070B516460D4604461EE0204601
:102A5000FFF78DFF08B1012070BD681C16D0FEF78E
:102A6000FDF9801BA84200D885B920684069C043A1
:102A700040070BD5002044F8300F20216173A0736C
:102A8000216941F0200121612073E4E72068406959
:102A9000C0434007DBD4002070BD00002DE9F047A3
:102AA000984617460D460446C1F30746DDF82090C8
:102AB0002AE000BFB8F1FF3F26D0FEF7CFF9A0EB28
:102AC0000901414502D8B8F1000F1DD12068012E3F
:102AD00016D0806925EA00000004000C12D0002006
:102AE000B84211D1002044F8300F20216173A07347
:102AF000216941F02001216120730120BDE8F087A8
:102B00004069E7E70120EBE72068012E0AD08069E1
:102B100025EA00000004000C06D00020B842C9D00D
:102B20000020EBE74069F3E70120F7E72DE9F047E4
:102B3000984616460D4604464FF000094FF0200A0D
:102B4000C1F3074723E020684069C043400515D41E
:102B50002068016841F40071016021686FF48060B1
:102B60004861C4F8309084F83DA084F83E90216C10
:102B700041F00401216484F83C9021E0701C06D0EF
:102B8000FEF76CF9A0EB0800B04203D816B1012F94
:102B90001FD021E02068012F15D0806925EA0000B0
:102BA0000004000C18D000BF44F8309F84F80DA03A
:102BB00084F80E90216941F02001216184F80C9085
:102BC0000120BDE8F087406925EA00000004000C00
:102BD000EAD12068406901E02068806925EA0000A8
:102BE0000004000CAFD1ECE770B516460D46044664
:102BF0001EE02046FFF7BBFE08B1012070BD681C37
:102C000016D0FEF72BF9801BA84200D885B92068A2
:102C10004069C04300060BD5002044F8300F202146
:102C20006173A073216941F0200121612073E4E701
:102C300020684069C0430006DBD4002070BD00005E
:102C40000248002101704160704700001C00002014
:102C500070B501211848FEF7F7F878B15FF000046D
:102C6000FEF7FCF8154900220D784DB10023012D27
:102C70000BD0022D10D0032D1CD119E00124EFE759
:102C8000C4B101230B70486014E04D68401B1E283E
:102C900010D374B1022007E044B14B68C01AB0F5FC
:102CA000FA6F07D302220320087003E0012200E03C
:102CB00004B90B70104670BD000002401C000020DB
:102CC000214808B5016841F400110160016801F470
:102CD00000110091016841F4800101600068002248
:102CE00000F48000009011461020FEF7B5FA102085
:102CF000FEF7A4FA002211461120FEF7ADFA1120CA
:102D0000FEF79CFA002211463920FEF7A5FA392079
:102D1000FEF794FA002211463A20FEF79DFA3A2077
:102D2000FEF78CFA002211464520FEF795FA452061
:102D3000FEF784FA002211464620FEF78DFABDE820
:102D400008404620FEF77ABA303802402DE9F041BB
:102D500086B014216846FDF727FC3048002401683E
:102D600041F004010160016801F00401059101686E
:102D700041F080010160016801F080010591016866
:102D800041F001010160016801F001010591016854
:102D900041F0020101600068012200F00200204FB2
:102DA0005503059029463846FEF753F8DFF874803E
:102DB0004FF47046002231464046FEF74AF8112093
:102DC0000095CDE90104694638460394FDF74CFFB0
:102DD0000125CDE90054144F694638460295FDF7A8
:102DE00043FF4FF4F970CDE9000469463846029478
:102DF000FDF73AFF40F20740CDE90004694640463E
:102E00000294FDF731FF0096CDE901546946404632
:102E10000394FDF729FF06B0BDE8F0813038024089
:102E20000008024000040240000002400D4810B5B6
:102E30000B4901600C49416000214FF480428160E0
:102E4000C0E9031241618161C1610162FEF70CF8C2
:102E5000002803D0BDE81040FDF75CBD10BD0000A8
:102E6000005400405C000020A08601000B4810B513
:102E70000949016000217F22C0E90112FF22C0E957
:102E8000032141618161FEF765FD002803D0BDE8A3
:102E90001040FDF73FBD10BD00280040B0000020ED
:102EA00010B586B00024184800940194029403944D
:102EB00004941449059401606321C0E9011441F6AA
:102EC0001F41C0E903148021C0E90541FEF71EFE41
:102ED00008B1FDF71FFD4FF48050009069460A4885
:102EE000FEF7A2FE08B1FDF715FD049404A90648FB
:102EF0000594FEF7CDFD002801D0FDF70BFD06B0CF
:102F000010BD000000000140D000002010B58EB0C0
:102F100000240794089409940A940B941C21684691
:102F20000C94FDF741FB23484FF08041C0E90014A9
:102F300041F61F41C0E9024104618461FEF7E6FDEC
:102F400008B1FDF7E7FC4FF48050079007A9194836
:102F5000FEF76AFE08B1FDF7DDFC1648FFF7F1F851
:102F600008B1FDF7D7FC0B940BA912480C94FEF79F
:102F70008FFD08B1FDF7CEFC602000904FF4E150CA
:102F8000CDE90104002269460A480494FFF773F86A
:102F900008B1FDF7BFFC0422694606480194FFF71B
:102FA0006AF808B1FDF7B6FC0248FFF727F80EB043
:102FB00010BD00001801002010B58CB02421684617
:102FC000FDF7F2FA00241648099414490A94C0E95E
:102FD00000144FF6FF71C0E90241046184610320CF
:102FE000CDE900040120CDE902040494CDE90540B7
:102FF000079469460A480894FEF784FE08B1FDF775
:1030000089FC099409A906480A94FEF741FD0028A5
:1030100001D0FDF77FFC0CB010BD000000040040A3
:103020006001002010B58CB024216846FDF7BCFA81
:1030300000241648099414490A94C0E900144FF674
:10304000FF71C0E90241046184610320CDE90004FD
:103050000120CDE902040494CDE9054007946946B6
:103060000A480894FEF74EFE08B1FDF753FC099498
:1030700009A906480A94FEF70BFD002801D0FDF7C8
:1030800049FC0CB010BD000000080040A801002061
:103090000C4810B50A4901604FF4E131416000214C
:1030A00081600C22C160C0E904128161C161FFF737
:1030B00079FA002803D0BDE81040FDF72BBC10BD05
:1030C00000100140F00100200C4810B50A490160D1
:1030D0004FF4E1314160002181600C22C160C0E900
:1030E00004128161C161FFF75DFA002803D0BDE8D9
:1030F0001040FDF70FBC10BD004400403802002016
:103100000C4810B50A4901604FF4E13141600021DB
:1031100081600C22C160C0E904128161C161FFF7C6
:1031200041FA002803D0BDE81040FDF7F3BB10BD05
:103130000014014080020020FEE700002DE9F04766
:103140001A4D1B4C1B4F061E41F61F484FF4805171
:103150004FF400590CDD01222846FDF77AFE0022CB
:1031600049462846FDF775FE4246002130460DE0EF
:103170004FF0000228460CDAFDF76BFE01224946AB
:103180002846FDF766FE42460021704200F04CFFE3
:1031900007E0FDF75EFE002249462846FDF759FE8E
:1031A0000020E06039688863BDE8F08700040240D1
:1031B00024000020180100202DE9F0471A4D1B4C77
:1031C0001B4F061E41F61F484FF480414FF4004943
:1031D0000CDD01222846FDF73CFE00224946284628
:1031E000FDF737FE4246002130460DE04FF0000269
:1031F00028460CDAFDF72DFE012249462846FDF748
:1032000028FE42460021704200F00EFF07E0FDF765
:1032100020FE002249462846FDF71BFE00202061C3
:1032200039684863BDE8F0870004024024000020AC
:103230001801002070B5164C2078002824D0FDF726
:103240000DFEE169884220D3124D00224FF48051D7
:103250002846FDF7FEFD00224FF400512846FDF7F9
:10326000F8FD00224FF480412846FDF7F2FD0022D0
:103270004FF400412846FDF7ECFD074900200A689D
:10328000906309684863207070BD012070BD000024
:1032900024000020000402401801002070B5134CE7
:1032A0000546012211032046FDF7D3FD01225103FB
:1032B0002046FDF7CEFD012291032046FDF7C9FD12
:1032C0000122D1032046FDF7C4FD09480021026810
:1032D000916300684163074C01206160A160207028
:1032E000FDF7BCFD2844E06170BD00000004024011
:1032F000180100202400002010B504210548FEF725
:103300004FFF00210348FEF74BFFBDE8104000F0DF
:1033100083B8000018010020014AC2E9010170478A
:103320002400002010B51C482DED048BDFED168A1B
:103330009FED168A9FED169ADFED169AF0EE681A49
:10334000B0EE481AF0EE490AB0EE690A00F02AFA27
:103350001148F0EE681AB0EE481AF0EE490AB0EEE5
:10336000690A203000F01EFAB0EE480A0A4800F060
:1033700035FAB0EE480ABDEC048B0748BDE81040B2
:10338000203000F02BBA000000F8E04500000000FB
:10339000CDCCCC3D9A99193F5C05002010B51A4858
:1033A0001B4C2DED028B90ED020A1848F8EEC00A76
:1033B00090ED028A84ED050A84ED068A94ED010AF7
:1033C0001448B8EEC00A00F067F9F0EE408A94EDB8
:1033D000020A1048F8EEC80AB8EEC00A203000F021
:1033E0005BF9B0EE408ABDEEE80A10EE100AFFF776
:1033F000A5FEBDEEC80ABDEC028BBDE8104010EE84
:10340000100AFFF7D9BE00003C0500204C05002043
:10341000240000205C05002010B5114C00224FF460
:1034200080512046FDF715FD00224FF40051204643
:10343000FDF70FFD00224FF480412046FDF709FD06
:1034400000224FF400412046FDF703FD054900200E
:103450000A6890630968486303494860886010BD42
:10346000000402401801002024000020FEE770B58F
:10347000002404F1B000C0B200F0EAF8002000F02F
:10348000E7F8102000F0E4F80025002000F0F2F842
:103490006D1CEDB2802DF8D3641CE4B2082CE8D387
:1034A00070BD000070B5C820FDF7CCFB044D0024B2
:1034B000285D00F0CDF8641CE4B2172CF8D370BD81
:1034C0004400002010B50446B031C8B200F0C0F886
:1034D000102040EA141000F0BBF804F00F00BDE823
:1034E000104000F0B5B800002DE9F047203A002464
:1034F000089E0F468146D5B27F2803D900208F1C35
:103500008146FFB2102B394612D0FFF7DBFF1B4973
:1035100005EB450001EB4005285D0EB1C043C0B28C
:1035200000F0A8F8641CE4B2062CF5D3BDE8F087DF
:10353000FFF7C8FFDFF8488004EB051118F8010019
:103540000EB1C043C0B200F095F8641CE4B2082C80
:10355000F2D37F1CF9B24846FFF7B4FF0024474678
:1035600004EB05103844007A0EB1C043C0B200F03D
:1035700081F8641CE4B2082CF2D3D7E7DE430008DC
:10358000064600082DE9FF4F81B00026DDE90EA9AF
:103590001D469346804634464FEA5A0727E0281BCB
:1035A000401EC1B20A2000F0F5FEBBFBF0F00A217C
:1035B000B0FBF1F201FB120026B9691E8C4201DA60
:1035C00048B101263030C2B207FB0480C0B2534676
:1035D000CDF8009006E007FB0480C0B253462022DD
:1035E000CDF800900299FFF77FFF641CE4B2AC4273
:1035F000D5D305B0BDE8F08F2DE9F8431E46174638
:10360000894604460025DDF8208014E0334649460B
:103610002046CDF80080FFF767FF0C2E10D008344D
:10362000E4B27A2C01D90C2E0CD0782C01D9102EB2
:1036300008D06D1CEDB27A5D002AE7D1BDE8F883B1
:10364000A41DEDE709F10100002400F0FF09F0E7F7
:1036500001B584B001214FF4807204A88DE8070001
:103660000B46002278210248FDF7C2FC05B000BDE0
:103670005C00002001B584B001214FF4807204A8E1
:103680008DE807000B46402278210248FDF7B0FC88
:1036900005B000BD5C00002090ED012AD0ED041AB9
:1036A00030EE601AD0ED000A22EE210AD0ED052A94
:1036B00000EE810A71EE622AD0ED020A00EEA20A43
:1036C000D0ED030AF4EEC00AF1EE10FA02D2B0EE29
:1036D000600A08E0F1EE602AF4EEC02AF1EE10FA7A
:1036E00001DDB0EE620AB5EEC02AF1EE10FA53DD4C
:1036F000F1EE602AF4EEC02AF1EE10FA04D2F4EEF4
:10370000C00AF1EE10FA13DCB5EEC01AF1EE10FAB1
:1037100004DDF4EEC02AF1EE10FA09DAB5EEC01AB3
:10372000F1EE10FA08D2F4EEC00AF1EE10FA03D866
:1037300071EE811AC0ED041AC0EE821AD0ED040AAF
:10374000F4EEE10AF1EE10FA01DDC0ED041A90ED9D
:10375000042AF1EE610AB4EEE02AF1EE10FA01D289
:10376000C0ED040AD0ED070AF5EEC00AF1EE10FA3A
:103770000DDDF7EE001A90ED062A71EEE01A61EE0B
:10378000821AB0EE402AB0EE610A00EE820A80EDA5
:10379000060A80ED051A7047DFED010AE0E7000038
:1037A0000000000080EC040A9FED050A80ED040A89
:1037B00080ED050A80ED060A80ED070A70470000DB
:1037C000000000009FED040A80ED040A80ED050A68
:1037D00080ED060A7047000000000000B5EEC00A48
:1037E000F1EE10FA02D29FED060A06E010EE101A72
:1037F000B1F17E5F01DDB7EE000A80ED070A704788
:1038000000000000704700002DE9F0410446006808
:103810000025C168490618D4C16841F08001C16023
:10382000FDF71CFB06464FF47A78042707E000BF3B
:10383000FDF714FB801B404501D9677701252068FF
:10384000C068400601D4002DF2D02846BDE8F081C2
:1038500070B5044600680025C16821F08001C16090
:1038600020688068800606D42046FEF7DFF810B195
:10387000042060770125284670BD7047FDF784BCA1
:1038800030B593B030216846FCF78EFE14210CA8A9
:10389000FCF78AFE1E480025016841F08051016056
:1038A000006800F0805011901A48016841F44041CE
:1038B00001600068022400F440401190092000904B
:1038C0004FF4803001900120CDE905048005079078
:1038D0000C2008906020CDE9090404200B90684674
:1038E000FDF782FE08B172B6FEE70CA90F2081E851
:1038F00031004FF48050CDE90F0503210CA8FDF7EE
:1039000087FD002801D072B6FEE713B030BD00007D
:1039100040380240007000400248016841F47001E4
:103920000160704788ED00E00148FEF7CFBA000063
:10393000D0000020F0B502681F4B204C204D214ED6
:103940004FF0804C984207D0604505D0A04203D08C
:10395000A84201D0B04203D122F070074A683A432E
:10396000984210D060450ED0A0420CD0A8420AD098
:10397000B04208D0144CA04205D0144CA04202D052
:10398000134CA04203D122F44074CA6822434C690C
:1039900022F0800222438C68C4620C6884629842E0
:1039A00001D109690163016841F00401016001214D
:1039B00041610260F0BD00000000014000040040D1
:1039C00000080040000C004000400140004401405D
:1039D0000048014010B501F01F030121046A99401D
:1039E0008C430462016A9A401143016210BD10B514
:1039F000846842EA032224F47F440A43224382601B
:103A000010BD826822F070020A4342F00701816013
:103A10007047000030B5036A026A22F001020262B8
:103A20004268846924F073050C682C4323F0020576
:103A30008B682B430A4DA8420BD123F00805CB68B5
:103A400022F440722B434D6923F0040315438A6925
:103A50002A434260846149684163036230BD0000CB
:103A60000000014030B5026A036A23F010030362CC
:103A7000436884690D6824F4E64444EA05248D68AB
:103A800022F0200242EA05120B4DA8420ED1CD6869
:103A900022F0800242EA05124D6923F4406343EAB2
:103AA00085038D6922F0400243EA85034360846107
:103AB00049688163026230BD0000014030B5036A8D
:103AC000026A22F4807202624268C46923F40073BD
:103AD00024F073050C682C438D6843EA05230C4DD4
:103AE000A8420ED1CD6823F4006343EA05234D6953
:103AF00022F4405242EA05128D6923F4806342EABF
:103B000005124260C4614968C163036230BD0000B0
:103B10000000014030B5046A026A22F48052026259
:103B20004268C3690D6823F4E64343EA05238D68C0
:103B300024F4005444EA0534064DA84204D14D69EA
:103B400022F4804242EA85124260C36149680164FE
:103B5000046230BD0000014010B5036A046A24F01D
:103B600001040462846924F0F00444EA021423F09E
:103B70000A020A438461026210BD10B5036A046A36
:103B800024F010040462846923F0A00324F4704438
:103B900044EA023243EA01118261016210BD00F081
:103BA00001B800000A4800690F2121EA10100949F4
:103BB0000B6803229A4340EA02100A68520701D4B4
:103BC00040F040000968490501D440F0800070478A
:103BD000000002401004024010B534210F48FCF7E9
:103BE000E3FC0E4C0020DFED0E1A20704FF416702F
:103BF000606240F2DC50A062E0629FED0A1ADFEDE5
:103C00000A0A9FED0A0A201DFFF7CCFD201DBDE822
:103C100010409FED070AFFF7E1BD000008050020F6
:103C20000080BB44CDCC4C3F17B7D139CDCC4C3DF7
:103C300000000000F8B50025DFF8C0C08DF8005086
:103C40006C462E462A462946012700BF07FA01F393
:103C5000034204D03CF91130521C1E44D2B2491C1C
:103C6000C9B20829F2D304B122702548254C22B1EB
:103C7000072A06D32178B9B337E02178054699B3EE
:103C800006E096FBF2F10DB2217869B385422CD1A2
:103C900002202070201DFFF795FD2078022826D0F5
:103CA000012820D100EE105A2586201DF8EEC00A0A
:103CB0009FED150AFFF7F0FCBDEEC00A616A41F600
:103CC0001F4710EE100A7E423A460D1A084431464C
:103CD00000F0B2F904463A463146284600F0ACF905
:103CE0002146FFF719FBF8BD05E02770DAE794F8E5
:103CF00032000028F7D1FFF78FFBF4E7CE4300082E
:103D00000080FFFF0805002000000000044801219A
:103D100000F8301B002120F82C19FFF753BD0000DC
:103D200008050020024900200870FFF775BB00005D
:103D30000805002010B5806B0021C185FEF7F0FA60
:103D400010BD01680C3151E8002F22F4907241E857
:103D50000023002BF5D10168143151E8002F22F027
:103D6000010241E80023002BF5D1016B012909D1A3
:103D700001680C3151E8002F22F0100241E80023C5
:103D8000002BF5D1202180F84210002101637047FB
:103D900008B590F84210222901D0022008BD82689F
:103DA0004FF480539A4201D1016921B1816A9A424C
:103DB0001BD04AB10AE00268816A5268C2F3080265
:103DC0000A80816A891C08E0026972B1026852683F
:103DD00002F07F020A70816A491C8162C18D491E0E
:103DE0000904090CC18503D01BE002685268F1E7A1
:103DF0000168CA6822F02002CA600168CA6822F419
:103E00008072CA6001684A6922F001024A61202179
:103E100080F8421000214163026B012A03D0FEF7B3
:103E200053FD002008BD016301680C3151E8002FEB
:103E300022F0100241E80023002BF5D101680A6846
:103E4000D20602D50A6849680091818DFEF767FAAB
:103E5000E7E7000070B5044600680169E26821F4F4
:103E60004051114301612169A068E2690843616919
:103E7000114308432168CA6849F20C639A4302431C
:103E8000CA6020684169A26921F44071114341610F
:103E900031492068884202D03049884202D1FDF77A
:103EA00061FB01E0FDF74EFBE26900231921642567
:103EB0003226B2F5004F626828D0A0FB0101930FB3
:103EC0009200FCF7DDF90146B0FBF5F06FF0180247
:103ED000504301EB800006EB0010B0FBF5F000F062
:103EE000F002B1FBF5F002EB0012B1FBF5F06FF060
:103EF0001803584301EB800006EB0010B0FBF5F00F
:103F000000F00F0021681044886070BDA0FB010123
:103F100092185B41FCF7B4F90146B0FBF5F00201E1
:103F2000B1FBF5F06FF01803584301EB800006EB8E
:103F3000C000B0FBF5F000F0F80002EB4002B1FB6E
:103F4000F5F0584301EB800006EBC000B0FBF5F044
:103F500000F00700D6E70000001001400014014007
:103F60002DE9F843984617460D460446089E24E07E
:103F7000701C22D0FCF772FFA0EB0800B0421AD8E8
:103F8000CEB12068C168490717D5802D15D0402DC6
:103F900013D00168C94309070FD4016800254068A0
:103FA00000902046FFF7CDFE0820606484F8405062
:103FB0000120BDE8F8830320FBE72068006835EAAC
:103FC000000004D00020B842D2D00020F1E7012048
:103FD000F9E700000148FEF7A5B90000F001002054
:103FE0000148FEF79FB90000380200200148FEF7A3
:103FF00099B9000080020020FEE70907090E002899
:1040000004DB00F1E02080F80014704700F00F009E
:1040100000F1E02080F8141D704730380A2801D2E2
:104020000120704700207047884201DA0846704737
:104030009042FCDD10467047884201DA084670471E
:104040009042FCDD104670479AB0FDF7A5F8FFF7E7
:1040500017FCFEF77BFEFEF733FEFEF7E7FEFEF7EA
:1040600005FFFEF71DFFFFF713F8FEF74FFFFEF702
:10407000A3FFFEF7D7FFFFF727F8FFF741F8FFF799
:1040800011FAFFF7F4F900240C2399A221462046E7
:104090000094FFF7B1FAFFF782FDFFF72DF9FCF767
:1040A000CBFBFEF7CDFDFFF797FDFFF73BF9FFF7E1
:1040B000DEF900210C2391A208460094FFF79CFA38
:1040C0000C2391A2012100200094FFF795FA91485A
:1040D000FDF774FDDFF84092FEF7BAFD064699F849
:1040E00000004D4620B101280BD0022817D111E065
:1040F000012E14D16C60FFF709FEFFF713F90120C0
:1041000004E0022E0BD1FFF70DFE02202870FFF70E
:10411000AEF904E0FFF78EF8012E00D12C70FCF709
:104120009DFEA968401AC828D6D9FCF797FE0C2630
:10413000A860CDE9006468780021C209012308461F
:10414000FFF720FACDE9006468780123C0F38012FC
:1041500000210620FFF716FACDE9006468780123F4
:10416000C0F3401200210C20FFF70CFACDE90064E7
:1041700068780123C0F3001200211220FFF702FA31
:10418000CDE9006468780123C0F3C0020021182043
:10419000FFF7F8F9CDE9006468780123C0F38002E5
:1041A00000211E20FFF7EEF9CDE9006468780123B5
:1041B000C0F3400200212420FFF7E4F9CDE90064B8
:1041C0006878012300F0010200212A20FFF7DAF9C4
:1041D000287820B1012806D002280BD184E00C23D6
:1041E0004EA2009402E00C234DA200940021322044
:1041F000FFF702FA68686421B0FBF1F3B0FBF1F25B
:1042000001FB13051026CDE90064032301210020E2
:10421000FFF7B8F910232E22012118200094FFF790
:1042200063F9CDE9006402232A4601212020FFF72B
:10423000A9F910237322012130200094FFF754F9CB
:104240003849394D394E09682868CDE9000138A24E
:10425000162103A83368FCF78BF80C2303AA03216B
:1042600000200094FFF7C8F93649374FDFF8DC80AB
:1042700009683868CDE9000135A2162103A8D8F8ED
:104280000030FCF775F80C2303AA042100200094E9
:10429000FFF7B2F93348D8F800103A68406A891A33
:1042A000CDE90010306829682FA2431A162103A80F
:1042B000FCF75EF80C2303AA052100200094FFF709
:1042C0009BF928683A68D8F800108DE807002BA2FF
:1042D000402109A83368FCF74BF882B20A2309A9E8
:1042E0002A48FEF7F2FAF7E60C2329A200947DE7AC
:1042F00032364820426F6F742E2E2E005072657336
:1043000073204B4559000000746F205354415254A0
:1043100000000000D00000200000002049444C00B4
:1043200052554E00300000203800002028000020A8
:104330004C3A252B3035642F252B3036642F253011
:1043400035640000340000203C0000202C000020D8
:10435000523A252B3035642F252B3036642F2530EB
:10436000356400000805002045252B3035642F25D5
:104370002B303564204253253034640025642C25CD
:10438000642C25642C25640D0A00000038020020EE
:10439000535450000246012000E05043491EC9B268
:1043A000FBD270474FF04070E1EE100A70470006F4
:1043B00010160006101600000000000000000102A8
:1043C0000304060708090000000001020304B80BFB
:1043D000DC05E803FA0006FF18FC24FA48F40000A4
:1043E000000000000000002F000000000700070090
:1043F00000147F147F1400242A7F2A1200626408AC
:104400001323003649552250000005030000000028
:104410001C224100000041221C000014083E081428
:104420000008083E0808000000A060000008080816
:104430000808000060600000002010080402003E30
:104440005149453E0000427F4000004261514946CB
:10445000002141454B31001814127F1000274545BB
:104460004539003C4A4949300001710905030036CD
:104470004949493600064949291E000036360000E0
:1044800000005636000000081422410000141414E5
:1044900014140000412214080002015109060032E0
:1044A0004959513E007C1211127C007F494949361E
:1044B000003E41414122007F4141221C007F494989
:1044C0004941007F09090901003E4149497A007FBD
:1044D0000808087F0000417F4100002040413F0163
:1044E000007F08142241007F40404040007F020CC2
:1044F000027F007F0408107F003E4141413E007F63
:1045000009090906003E4151215E007F091929462B
:104510000046494949310001017F0101003F404007
:10452000403F001F2040201F003F4038403F0063B5
:1045300014081463000708700807006151494543D7
:1045400000007F41410000552A552A550000414195
:104550007F0000040201020400404040404000008F
:1045600001020400002054545478007F4844443829
:1045700000384444442000384444487F00385454B0
:10458000541800087E0901020018A4A4A47C007F2E
:10459000080404780000447D4000004080847D00D1
:1045A000007F102844000000417F4000007C041878
:1045B0000478007C0804047800384444443800FC43
:1045C000242424180018242418FC007C080404085F
:1045D00000485454542000043F444020003C4040D4
:1045E000207C001C2040201C003C4030403C00440B
:1045F00028102844001CA0A0A07C004464544C4413
:104600001414141414140000000000000000000032
:10461000000000000000000000F8000000000000A2
:1046200000333000000000100C06100C06000000E3
:1046300000000000000040C07840C0784000043F07
:1046400004043F040400007088FC083000000018D7
:1046500020FF211E0000F008F000E01800000021FB
:104660001C031E211E0000F00888700000001E219F
:1046700023241927211010160E000000000000004E
:10468000000000000000000000E01804020000002C
:1046900000071820400000020418E000000000405D
:1046A000201807000000404080F0804040000202D7
:1046B000010F01020200000000F0000000000101F3
:1046C000011F01010100000000000000000080B097
:1046D0007000000000000000000000000000000169
:1046E0000101010101010000000000000000003094
:1046F000300000000000000000008060180400602E
:1047000018060100000000E010080810E000000F8B
:10471000102020100F00001010F8000000000020F2
:10472000203F20200000007008080888700000303A
:1047300028242221300000300888884830000018E2
:10474000202020110E000000C02010F800000007FB
:104750000424243F240000F8088888080800001971
:10476000212020110E0000E0108888180000000FA2
:10477000112020110E0000380808C8380800000079
:10478000003F000000000070880808887000001CCE
:10479000222121221C0000E010080810E000000087
:1047A000312222110F00000000C0C00000000000F4
:1047B0000030300000000000008000000000000019
:1047C0008060000000000000804020100800000110
:1047D00002040810200040404040404040000404D3
:1047E000040404040400000810204080000000209D
:1047F000100804020100007048080808F0000000DA
:10480000003036010000C030C828E810E00007186A
:10481000272423140B000000C038E0000000203CD7
:1048200023020227382008F8888888700000203F7B
:10483000202020110E00C030080808083800071892
:1048400020202010080008F808080810E000203F89
:10485000202020100F0008F88888E8081000203F6A
:1048600020202320180008F88888E8081000203F3E
:10487000200003000000C0300808083800000718B6
:104880002020221E020008F808000008F808203F37
:10489000210101213F20000808F80808000000203D
:1048A000203F2020000000000808F8080800C08011
:1048B00080807F00000008F888C028180800203F8A
:1048C00020012638200008F8080000000000203FE2
:1048D00020202020300008F8F800F8F80800203FD9
:1048E000003F003F200008F830C00008F808203FD3
:1048F000200007183F00E01008080810E0000F1023
:10490000202020100F0008F808080808F000203FB9
:10491000210101010000E01008080810E0000F1854
:10492000242438504F0008F8888888887000203F79
:104930002000030C30200070880808083800003878
:10494000202121221C00180808F80808180000007F
:10495000203F2000000008F808000008F808001FA9
:10496000202020201F000878880000C83808000098
:1049700007380E010000F80800F80008F800033CB2
:104980000700073C0300081868808068180820307A
:104990002C03032C30200838C800C8380800000059
:1049A000203F2000000010080808C8380800203800
:1049B000262120201800000000FE02020200000054
:1049C000007F40404000000C30C0000000000000AC
:1049D00000010638C00000020202FE000000004094
:1049E00040407F00000000000402020204000000BA
:1049F00000000000000000000000000000008080B7
:104A0000808080808080000202040000000000009E
:104A1000000000000000000080808080000000197D
:104A2000242222223F2008F8008080000000003F5E
:104A3000112020110E000000008080800000000E78
:104A4000112020201100000000808088F800000E56
:104A5000112020103F200000808080800000001F77
:104A6000222222221300008080F0888888180020EB
:104A7000203F202000000000808080808000006BAC
:104A800094949493600008F8008080800000203F98
:104A9000210000203F2000809898000000000020A6
:104AA000203F20200000000000809898000000C0F7
:104AB0008080807F000008F8000080808000203F18
:104AC00024022D302000000808F80000000000201B
:104AD000203F202000008080808080808000203F58
:104AE00020003F20003F8080008080800000203F29
:104AF000210000203F200000808080800000001FF7
:104B0000202020201F00808000808000000080FF87
:104B1000A12020110E000000008080808000000E87
:104B2000112020A0FF8080808000808080002020D5
:104B30003F21200001000000808080808000003341
:104B4000242424241900008080E0808000000000DC
:104B5000001F202000008080000000808000001FD7
:104B6000202020103F208080800000808080000175
:104B70000E300806010080800080008080800F30A9
:104B80000C030C300F00008080008080800000202B
:104B9000312E0E3120008080800000808080808156
:104BA0008E701806010000808080808080000021C7
:104BB000302C2221300000000000807C0202000026
:104BC0000000003F40400002027C800000000040E6
:104BD000403F0000000000000000FF000000000057
:104BE0000000FF00000004000008000000000000BA
:104BF0000002000100001000184C00080000002016
:104C00005C000000D4010008744C00085C00002027
:104C1000A40B0000F00100080000000000000000EC
:104C20000000000001000000100000000000000073
:104C30000024F4000000000000000000000000005C
:104C40000000000000000000000000000000000064
:104C5000000000000000000000000000AED580A8A9
:104C60003FD30040A1C8DA1281CFD9F1DB40A4A61E
:044C70008D14AF00F0
:040000050800019955
:00000001FF
