:020000040800F2
:10000000300D00205902000809390008132C00089F
:10001000D5350008B30900081147000800000000AA
:10002000000000000000000000000000173D000874
:10003000A10A000800000000A13C0008ED3D0008F6
:1000400073020008730200087302000873020008BC
:1000500073020008730200087302000873020008AC
:10006000730200087302000873020008730200089C
:10007000730200087302000873020008730200088C
:10008000B5090008C109000873020008000000005B
:1000900000000000000000000000000073020008E3
:1000A00073020008993E00087302000873020008FA
:1000B000730200087302000873020008730200084C
:1000C000730200087302000873020008730200083C
:1000D00073020008ED460008F94600080000000021
:1000E0007302000873020008730200080000000099
:1000F0000000000000000000000000007302000883
:100100000000000073020008730200087302000878
:1001100000000000000000000000000000000000DF
:1001200073020008CD090008D9090008730200080D
:100130007302000800000000000000000000000042
:100140000000000000000000000000007302000832
:1001500073020008E5090008F109000805470008D6
:100160007302000873020008000000000000000095
:10017000000000000000000000000000000000007F
:1001800000000000730200080000000000000000F2
:10019000730200087302000800F002F800F04DF846
:1001A0000AA090E8000C82448344AAF10107DA45D2
:1001B00001D100F042F8AFF2090EBAE80F0013F0D7
:1001C000010F18BFFB1A43F00103184778520000D3
:1001D00098520000103A24BF78C878C1FAD8520764
:1001E00024BF30C830C144BF04680C6070470000B1
:1001F0000023002400250026103A28BF78C1FBD830
:10020000520728BF30C148BF0B607047642900F017
:10021000FF80752900F0FC80002070471FB504F0B6
:10022000E7FC00F063FB04000020002104F0CAFC9E
:10023000401C60601FBD10B510BD00F032FB1146C0
:10024000FFF7ECFF04F08CFA00F062FB03B4FFF759
:10025000F2FF03BC00F0A6FB0948804709480047AD
:10026000FEE7FEE7FEE7FEE7FEE7FEE7FEE7FEE766
:10027000FEE7FEE704480549054A064B70470000C3
:10028000893E00089901000830070020300D002049
:10029000300900203009002053EA020C00F0698088
:1002A0002DE9F04B4FF00006002B1FBFB3FA83F58A
:1002B00003FA05F424FA05F65E4012BF1643B2FABB
:1002C00082F502FA05F4C5F120051EBF22FA05FCED
:1002D00044EA0C04203556EA044C4FEA144418BF93
:1002E000641C4FF000084FF00009904271EB030CC2
:1002F00039D3002919BFB1FA81F701FA07F6B0FA2C
:1003000080F700FA07F6C7F120071EBF20FA07FCA6
:1003100046EA0C062037B6FBF4FCA7EB0507103FB6
:1003200007F01F0BCBF120060CFA0BFB2CFA06F69C
:1003300044BFB3460026202FA4BF5E464FF0000BFB
:100340005BEA060C08BF4FF0010B19EB0B09ABFB86
:10035000027C48EB0608C01B06FB02CC0BFB03CC5F
:1003600071EB0C01C1E70B46024641464846BDE829
:10037000F08B13B54FF000004FF00001AFF3008099
:10038000BDE81C40704700000FB47CB50C0009AA02
:10039000009001D02044401E084B7B4469460190E8
:1003A000089800F0CAF905461CB10020694600F023
:1003B000D7F928467CBC5DF814FB0000CD03000093
:1003C00070B5044685690068C10601D5302600E095
:1003D0002026C00707D070BDD4E9012130469047E0
:1003E000206A401C20626D1EF6D570BD70B50446B3
:1003F00085690078C00707D170BDD4E901212020AC
:100400009047206A401C20626D1EF6D570BD00002A
:100410002DE9F0410646002410687529314616A5DD
:1004200010D0AFF30080002802DA404213A507E0A5
:1004300031688A0701D512A502E0490704D511A544
:10044000012401E0AFF3008000210A2206F1240715
:1004500009E0B0FBF2FCB0FBF2F302FB1C00303011
:1004600078541846491C0028F3D123462A463046C2
:10047000BDE8F04100F002B9000000002D000000CE
:100480002B000000200000002DE9F05F89460446A3
:100490004FF0000ADFF824B1FB44C0F820A020464A
:1004A000E168884700287DD0252806D0D4E90121BD
:1004B0009047206A401C2062F1E700255F462046F5
:1004C000E16888472028064607DB312E05D2B81997
:1004D00010F8200C08B10543F1E7A80701D525F075
:1004E0000405C4F81CA00027C4F818A02A2E09D0BF
:1004F000304604F01EF938B304EB8708303EC8F8E4
:10050000186019E059F8041B204604EB870291613A
:10051000E1688847012F064618D1E069002820DAF3
:1005200025F020051DE0D8F8180000EB800006EB50
:1005300040003038C8F818002046E1688847064671
:1005400004F0F7F80028EED1012F0AD02E2E08D1A2
:100550002046E16888477F1C0646022F45F02005AB
:10056000C4DBA069002803DA404245F00105A06120
:10057000E80701D025F01005A6B1A6F14100192821
:1005800002D8203645F400654A46314620462560AB
:100590004D46FFF73BFE60B1012807D0ED1D25F069
:1005A000070000E007E000F1080978E705F1040919
:1005B00075E730467AE7206ABDE8F09F964F000065
:1005C00070B5064600F056F80468054630460A2223
:1005D000002100F0D2F82C6070BD4FF00002042919
:1005E000C0F0128010F0030C00F01B80CCF1040C62
:1005F000BCF1020F18BF00F8012BA8BF20F8022B96
:10060000A1EB0C0100F00DB85FEAC17C24BF00F83B
:10061000012B00F8012B48BF00F8012B70474FF069
:10062000000200B5134694469646203922BFA0E842
:100630000C50A0E80C50B1F12001BFF4F7AF09074E
:1006400028BFA0E80C5048BF0CC05DF804EB89003F
:1006500028BF40F8042B08BF704748BF20F8022B82
:1006600011F0804F18BF00F8012B7047704770479A
:100670007047000000487047CC0600202DE9F04785
:100680000D4699469246044600F124080168880602
:1006900004D5E06921F01001216000E00120A842AA
:1006A00001DD471B00E00027A1697A1902EB090070
:1006B000081AA0612078C00602D42046FFF780FE09
:1006C000002608E0D4E901211AF806009047206AC4
:1006D000401C761C20624E45F4DB2078C0060AD50B
:1006E0002046FFF76DFE06E0D4E901213020904757
:1006F000206A401C2062381EA7F10107F4DC07E0E5
:10070000D4E9012118F805009047206A401C2062B6
:10071000281EA5F10105F3DC2046FFF767FE2078CF
:10072000000602D50220BDE8F0870120FBE70000AB
:1007300001694A1C02610878704700B58FB0CDE9A5
:1007400001310021059105497944CDE90310114695
:100750006846FFF799FE0FB000BD0000E5FFFFFF00
:100760000A6802F8010B0A607047D1E900239A4237
:1007700002D2531C0B60107070472DE9F047914670
:100780000F4680460446002614F8015B2DB100F0A8
:1007900031F80068405DC007F6D12B2D02D02D2D19
:1007A00018D0641E4A463946204600F02BF827B17F
:1007B0003968A14201D1C7F800804FF002047105E9
:1007C0000BD54042002803DDFFF754FF0460A0076B
:1007D000BDE8F08746F48066E4E70028F8DAFFF722
:1007E00049FF04606FF00040F2E7000000487047E6
:1007F000CC06002010B500F079F8001D10BD00BF38
:10080000C54300002DE9F05F824615468B46002760
:100810000AF10104B9460078302801D09DB113E0F7
:1008200014F8010B0127782803D0582801D045B1CE
:100830000AE00DB1102D07D1002714F8010B102587
:1008400002E0082500E00A250026B0460EE005FB80
:10085000080005FB06F101271FFA80F801EB10469E
:10086000B6F5803F00D3B94614F8010B294600F0D5
:1008700041F80028EBDABBF1000F05D00FB1641E80
:1008800000E05446CBF80040B9F1000F06D0FFF766
:10089000F1FE02210160C81EBDE8F09F48EA064053
:1008A000FAE77546FFF7A2FFAE46050069465346D4
:1008B00020F00700854618B020B5FFF7DBFCBDE847
:1008C00020404FF000064FF000074FF000084FF0B7
:1008D000000B21F00701AC46ACE8C009ACE8C00948
:1008E000ACE8C009ACE8C0098D46704700487047C5
:1008F000EC0600203A2800D2303820F02002412AAD
:1009000001D3A2F13700884201D34FF0FF30704786
:1009100010B50446AFF300802046BDE81040FFF755
:1009200095BC00004FF0013C50F8042B51F8043BFB
:100930009A4221D1A2EB0C03934313EACC1317D1B3
:1009400050F8042B51F8043B9A4215D1A2EB0C034A
:10095000934313EACC130BD150F8042B51F8043B0A
:100960009A4209D1A2EB0C03934313EACC13DBD0D8
:100970004FF00000704700BFD01A01BAB1FA81F100
:1009800001F0180122FA01F0CB40C1F12001DBB2E5
:10099000C0B2C01A2CFA01F3D11A914311EAC31163
:1009A000E6D1704701491820ABBEFEE726000200E1
:1009B0007047FEE7014800F041B9000098030020AD
:1009C000014800F03BB90000F8030020014800F0A6
:1009D00035B9000058040020014800F02FB900008C
:1009E000D8020020014800F029B90000B804002016
:1009F000014800F023B900003803002001681823E3
:100A0000CAB2103AB2FBF3F2054B6FF30901032AA5
:100A10009B5CC36500D9091D8165084670470000CD
:100A2000FA4B000810B5014600208B698A6A4FF026
:100A3000C07453B1B3F5005F15D072B1012A0CD068
:100A4000022A0AD0032A09D104E01AB1012A06D0E9
:100A5000022A03D1C96AC90100D5012010BDC96AA3
:100A6000A142FAD010BD002AF7D0012AF2D0022A02
:100A7000F3D0032AF3D010BD30B50468256825F4FF
:100A800080252560046863608368402B036803D079
:100A900099600068C26030BD9A600068C16030BD76
:100AA0007047000010B53C210E4801F035FB3C2199
:100AB0000D4801F031FB0B490020096848620A49E2
:100AC0000968486209499FED0A0A0860886081ED5B
:100AD000030A486010310860886081ED030A4860AD
:100AE00010BD000070010020B80100204C0500205E
:100AF000000000001D480068416A002209B24262FD
:100B00001B4800EE101A9FED1B1A0368B8EEC00ACE
:100B10000B44C0E9003120EE010AD0ED031ADFEDED
:100B2000160A01EEA00A80ED030ABDEEC00A80EDB0
:100B3000020A12480068416A426209B20C4800EE9B
:100B4000101A10300268B8EEC00A0A44C0E9002149
:100B500020EE010A90ED031A01EE200A80ED030A4F
:100B6000BDEEC00A80ED020A70470000700100204F
:100B70004C050020CDCC4C3ECDCC4C3FB8010020E4
:100B800072B6FEE72DE9F0410446876D00F0D4FA15
:100B9000064694F835000025022806D080206065BE
:100BA00084F834500120BDE8F0812068016821F00C
:100BB000160101602068416921F080014161206CCB
:100BC00008B9A06C20B12068016821F0080101601B
:100BD0002068016821F0010101600CE000F0ACFA2E
:100BE000801B052807D920206065032084F8350084
:100BF00084F83450D7E720680068C007EED194F835
:100C00005C103F208840B860012084F8350084F8EB
:100C100034500020C7E790F83510022903D0802116
:100C2000416501207047052180F835100068016892
:100C300021F0010101600020704700002DE9F84318
:100C400004464FF00009CDF8009063484FF4165168
:100C5000A56D0068B0FBF1F72E6894F85C100820D1
:100C600000FA01F131420FD021680A6852070BD512
:100C70000A6822F004020A6094F85C108840A860B8
:100C8000606D40F00100606594F85C104FF0010861
:100C900008FA01F0304208D021684969090604D5F4
:100CA000A860606D40F00200606594F85C1004205C
:100CB0008840304208D021680968890704D5A860B7
:100CC000606D40F00400606594F85C10102088406E
:100CD000304218D021680968090714D5A860206837
:100CE0000168490304D50068000308D5A16C07E03A
:100CF0000168C90503D4016821F008010160216C75
:100D000009B12046884794F85C1020208840304282
:100D100031D021680968C9062DD5A86094F835003E
:100D200005282068016806D0490347D500680003FC
:100D30001DD4616C1CE021F016010160206841693E
:100D400021F080014161206C08B9A06C20B12068BD
:100D5000016821F00801016094F85C103F20884090
:100D6000A86084F8358084F83490216D1FE0E16B31
:100D700009B120468847606D00282BD0606DC00700
:100D800014D0052084F835002068016821F00101A5
:100D900001600098401C0090B84203D820680068A9
:100DA000C007F6D184F8358084F83490E16C0029CE
:100DB00010D001B02046BDE8F04308470168C905DE
:100DC000D5D4016821F01001016084F8358084F8E1
:100DD0003490CCE7BDE8F883180000202DE9F041FD
:100DE000044600F0A9F906465CB1022084F83500FB
:100DF000002584F834502068016821F00101016069
:100E00000DE00120BDE8F08100F096F9801B052877
:100E100005D920206065032084F83500F2E72068BA
:100E20000068C007F0D12268116820480140D4E969
:100E300001031843D4E90336334318436369184365
:100E4000A3691843E3691843236A18430843616A96
:100E5000042903D1D4E90B13194308431060206817
:100E60004069666A20F0070130460E4301270428D6
:100E70000CD1A06A0643E06A40B12046FFF7D2FDDC
:100E800020B14020606584F83570BAE7206846617B
:100E90002046FFF7B3FD94F85C203F21914081602C
:100EA000656584F835700020ACE700003F8010F0E5
:100EB0002DE9F0410446866D90F8340000250128A4
:100EC0000DD0012084F8340094F835700020012FF3
:100ED00007D084F8340002252846BDE8F0810220BE
:100EE000FBE7022784F8357060652046FFF7C4FDF4
:100EF00094F85C103F208840B0602068016841F0A1
:100F000016010160206C20B12068016841F00801E1
:100F100001602068016841F001010160DCE7000028
:100F200070B5044600F008F90546601C02D004487C
:100F30000078044400F000F9401BA042FAD370BDD1
:100F40000C0000202DE9F84FDFF8B8A100220124A1
:100F500003254FF00F090AF1040BAAF1040E00BF9C
:100F60000B6804FA02F63340B34273D10F7907F0ED
:100F70000307012F01D0022F16D187684FEA4208DC
:100F800005FA08FC27EA0C07D1F80CC00CFA08FC9B
:100F90004CEA070CC0F808C04768B7430E79C6F39F
:100FA000001696403E4346600E79F643B6070DD0D4
:100FB000C768560005FA06FC27EA0C07D1F808C0F6
:100FC0000CFA06FC4CEA070CC0F80CC00E7906F0CF
:100FD0000306022E10D1D60800EB8608D8F8206050
:100FE00057074FEAD76C09FA0CF7BE430F6907FAA7
:100FF0000CF73743C8F8207006684FEA420C05FA30
:101000000CF7BE430F7907F0030707FA0CF73743D5
:1010100007604E6816F4403F6DD03B4E376847F48A
:1010200080473760366822F0030706F48046009652
:10103000364E07EB060CDCF8086897073F0F09FAF5
:1010400007F826EA0806DFF8C880404503D14FF0CC
:1010500000081EE04FE0DFF8BC80404502D14FF0B1
:10106000010816E0DFF8B080404502D14FF00208D9
:101070000FE0DFF8A880404502D14FF0030808E0F8
:10108000DFF89C80404502D14FF0040801E04FF0AA
:10109000070808FA07F848EA0608CCF80888DAF8DA
:1010A00000605746D1F804C09E435FEACC2C00D5BF
:1010B0001E433E60DBF800605F46D1F804C09E43EB
:1010C0005FEA8C2C00D51E433E60DEF80060774658
:1010D000D1F804C09E435FEA8C3C00D51E433E60BD
:1010E000084F083F3E68D1F804C09E435FEACC3CFD
:1010F00000D51E433E60521C102AFFF431AFBDE8FC
:10110000F88F0000083C01404438024000300140A4
:10111000000002400004024000080240000C0240AF
:10112000001002400069084000D0012070470AB159
:10113000816170470904FBE701488068704700003F
:101140000C00002070B5040025D094F83D00002567
:1011500020B984F83C50204600F050F9242084F84F
:101160003D002068016821F00101016020680168EC
:1011700041F4004101602068016821F400410160F0
:1011800000F04EFB4D4A6168914201D84C4900E0A5
:101190004C49884201D2012070BD4B492368B0FB05
:1011A000F1F15E6826F03F060E435E60636893428D
:1011B00006D94FF4967359434FF47A73B1FBF3F1A8
:1011C0002368491C1E6A26F03F0631431962616894
:1011D000914210D84900401EB0FBF1F2521CC2F3FC
:1011E0000B02042A01D2042022E0B0FBF1F0401CE3
:1011F000C0F30B001CE0A268F2B301EBC10303EBE8
:101200000116431EB3FBF6F35B1C43F480431B053E
:1012100049D092B301EBC10202EB0111401EB0FBB9
:10122000F1F0401CC0F30B0040F4804040F400405B
:101230002168CA694CF6FF739A431043C861D4E928
:10124000071001432068026822F0C00211430160C8
:10125000D4E9030101432068826848F2FF339A43CE
:1012600011438160D4E9050108432168CA6822F06E
:10127000FF021043C86001E00EE016E0206801683C
:1012800041F0010101602564202084F83D002563C0
:1012900084F83E50002070BD01EB4106431EB3FBB5
:1012A000F6F35B1CB3E70120C2E701EB4101401EEE
:1012B000B0FBF1F0401CC0F30B00B7E7A0860100C3
:1012C00080841E0000093D0040420F002DE9FF4FC1
:1012D00083B09A46DDE9119793460446DDF84080D5
:1012E000FFF72AFF054694F83D0020287FD11923F7
:1012F000012240492046009501F024FD002876D1C6
:1013000094F83C00012872D0012084F83C00206849
:101310000168C90703D1016841F00101016020683B
:10132000016821F400610160212084F83D00402023
:1013300084F83E0000262664C4F82480A4F82A908D
:10134000608D20852C48E062CDE9007553465A46F1
:101350002046049901F076FC70B930E02A463946FF
:10136000204601F095FD58B1206C042804D1206876
:10137000016841F400710160012007B0BDE8F08F01
:10138000606A216800780861606A401C6062218D93
:10139000491E89B22185628D521E62852268536979
:1013A000DB435B070BD469B100781061606A401CB5
:1013B0006062208D401E2085608D401E6085208DDE
:1013C0000028CBD12A463946204601F08FFC002860
:1013D000CAD154F83D0B016841F40071016020202E
:1013E00004F81E09E67766770020C6E7FFE70220CB
:1013F000C3E70000020010000000FFFF10B586B038
:10140000044614216846FFF70AF913492068884208
:1014100020D112480021026842F0020202600068F6
:1014200000F0020005904FF4407000901220CDE9CA
:1014300001010420CDE9031069460948FFF782FD48
:1014400006481030016841F400110160006800F4A2
:101450000010059006B010BD005400403038024026
:10146000000402400248816802781144816070479C
:101470000C0000200B4810B5016841F400710160B8
:10148000016841F480610160016841F4807101608C
:10149000032000F06FF80F2000F006F800F024F8A9
:1014A000002010BD003C024070B50D4D04464FF4C5
:1014B0007A712878B1FBF0F00A490968B1FBF0F0C5
:1014C00000F03EFC48B9102C07D200222146501EE5
:1014D00000F030F800206C6070BD012070BD00008D
:1014E0000C000020180000200A4808B5016841F4EB
:1014F00080410160006800F4804000900548001FB2
:10150000016841F080510160006800F08050009057
:1015100008BD000044380240002809DB00F01F022B
:10152000012191404009800000F1E020C0F8001145
:1015300070470000F0B40E4B1B680C46C3F3022347
:10154000C3F10705042D00D90425191D072901D26F
:10155000002300E0DB1E012606FA05F1491E2140AA
:1015600099409E40761E16403143F0BC03F0D1B83E
:101570000CED00E0064900F0070208684FF6FF0393
:10158000184040EA0220034A1043086070470000F8
:101590000CED00E00000FA052DE9F8430446006870
:1015A0004FF00109C1074FF0000601D1400729D5CE
:1015B000DFF82081C8F86860FFF7BEFD0746464D9A
:1015C00005E000BFFFF7B8FDC01B022859D8286806
:1015D0000001F7D4A068217B800140EA01706168B6
:1015E00008433D4984310860C8F86890FFF7A4FDBE
:1015F000074604E0FFF7A0FDC01B022841D8286879
:101600000001F7D52078800752D533484030016873
:1016100041F0805101600068304D00F08050009032
:10162000286840F480702860FFF786FD074604E0D4
:10163000FFF782FDC01B022823D82868C005F7D514
:10164000254D7035286810F4407020D0218A01F4AF
:10165000407181421BD02868214920F44070C1F8B4
:1016600000900E6028602868C00710D0FFF764FD66
:10167000064641F2883707E0FFF75EFD801BB8425F
:1016800002D90320BDE8F88328688007F4D52169D2
:101690001148C1F301220830032A12D0016821F455
:1016A000F81101602868218AC1F30B010843286002
:1016B0002078000703D50B49207DC1F8E001002008
:1016C000E0E70268084B22F4F81219400A4302606E
:1016D000E8E7000000004742003802400070004088
:1016E000400E474200104742FFFCFF0F2DE9F04734
:1016F0000E46050065D0DFF81481D8F80000F7B277
:1017000000F00700B04207D288F80070D8F8000057
:1017100000F00700B04254D128683D4C810712D533
:10172000400703D5206840F4E05020602878000787
:1017300003D5206840F4604020602068A96820F04C
:10174000F000084320602878C0072DD03049686831
:101750000839012812D0022813D0032811D00968B3
:10176000890700292DDA216821F003010143216056
:10177000FFF7E2FC814641F2883A0EE009688903EE
:10178000EFE709688901ECE7FFF7D6FCA0EB090158
:10179000514502D90320BDE8F0872068696800F050
:1017A0000C00B0EB810FEFD1D8F80010404601F0EB
:1017B0000701B14207D90770006800F00700B04286
:1017C00001D00120E7E72878400705D52068E968BF
:1017D00020F4E050084320602878000706D52068F0
:1017E000296920F4604040EAC100206000F038F828
:1017F0002168084AC1F30311515CC84006490860DA
:1018000006480068FFF750FE0020C4E7003C024095
:1018100008380240024C0008180000201000002088
:101820000448054900680968044AC1F38221515CF3
:10183000C84070471800002008380240124C0008C9
:101840000448054900680968044AC1F34231515C03
:10185000C84070471800002008380240124C0008A9
:10186000154810B5006810F00C02144813D0144944
:10187000042A0FD0082A0ED10F4C241F2268236897
:1018800002F03F025B0207D52068C0F38810A0FB7E
:10189000010106E0084610BD2168C1F38811A1FBD3
:1018A00000010023FEF7F8FC2168C1F30141491C47
:1018B0004900B0FBF1F010BD083802400024F400EC
:1018C00040787D012DE9F84F04006ED02078DFF8D4
:1018D0004C93C007A9F104054AD009F1040001683E
:1018E000C1F38101012908D00068C0F381000228FA
:1018F0000AD1D9F80000400206D52868800337D500
:1019000060680028E1D033E06068B0F5803F10D017
:10191000B0F5A02F286810D020F480302860286807
:1019200020F4802028606068A8B1FFF705FC064617
:101930000DE0286840F48030F4E740F4802028600F
:10194000F7E700BFFFF7F8FB801B642873D828680F
:101950008003F7D50CE0FFF7EFFB064605E000BF7C
:10196000FFF7EAFB801B6428F0D828688003F7D4CF
:101970002078DFF8AC8280074FF0000A3ED5A748F8
:10198000001D016811F00C0F08D00068C0F3810041
:1019900002280BD1D9F80000400207D4286880073C
:1019A00016D5E068012800D112E033E1E068B8B153
:1019B0000120C8F80000FFF7BFFB064605E000BFA6
:1019C000FFF7BAFB801B0228C0D828688007F7D52C
:1019D0002868216920F0F80040EAC10028600DE085
:1019E000C8F800A0FFF7A8FB064604E0FFF7A4FB39
:1019F000801B02281FD828688007F7D420780007AA
:101A000022D5864F87486169703771B10121016025
:101A1000FFF792FB064604E0FFF78EFB801B0228CF
:101A200009D838688007F7D50EE0C0F800A0FFF7A6
:101A300083FB064605E082E0FFF77EFB801B022861
:101A40007DD838688007F7D42078400768D5DFF85C
:101A5000CCB100270BF13C0BDBF80000C0000BD42D
:101A6000DBF8001041F08051CBF80010DBF80000EB
:101A7000012700F0805000906B4E3068C00510D4F4
:101A8000306840F480703060FFF756FB009005E04E
:101A9000FFF752FB0099401A022850D83068C00561
:101AA000F6D55E4EA0686C3601280FD00528306848
:101AB00010D020F001003060306820F00400306069
:101AC000A068B8B1FFF738FB00900FE0306840F035
:101AD0000100F4E740F004003060F7E7FFF72CFB6B
:101AE0000099411A41F28830814266D830688007F7
:101AF000F4D50EE0FFF720FB009007E0FFF71CFB9A
:101B00000099411A41F28830814256D830688007E6
:101B1000F4D42FB1DBF8001021F08051CBF8001085
:101B2000A069C8B33D49091D0968C1F381010229B3
:101B30004AD00228504607D0C8F8600000E03CE0D8
:101B4000FFF7FAFA04463BE04746C8F86000FFF7A3
:101B5000F3FA064605E000BFFFF7EEFA801B022805
:101B60002BD828688001F7D4D4E907010843A16A7B
:101B70002E4A490802EB0141626A41EA8211084398
:101B800094F82C1040EA0161C9F800100120386671
:101B9000FFF7D2FA044606E03EE000BFFFF7CCFABA
:101BA000001B022809D828688001F7D534E000BF5F
:101BB000FFF7C2FA001B022802D90320BDE8F88F04
:101BC00028688001F4D427E00128F7D0D9F8000074
:101BD000E26900F4800191421CD1226A00F03F01C9
:101BE000914217D147F6C071626A0140B1EB821F82
:101BF00010D1A26A4FF0FF3300F4403103EB5202E0
:101C0000B1EB024F06D194F82C1000F07060B0EBED
:101C1000016F01D00120D1E70020CFE70438024056
:101C200000004742800E4742007000400000FFFF66
:101C300010B5040002D0607F10B106E0012010BD95
:101C400000202077204600F041F8022060772068CD
:101C5000C168C943C90632D5CA21416221685320EF
:101C60004862204602F01EF820BB20688168164AB0
:101C7000114081602168886862681043D4E90423B8
:101C80001A43104388602168E06808612068016990
:101C9000228941EA02410161204602F027F848B951
:101CA00021680A6C22F480220A6421680A6CA36904
:101CB0001A430A642268FF21516208B110BD002056
:101CC0000121617710BD0000BFFF8FFF10B586B006
:101CD000044618216846FEF7A2FC0949206888429C
:101CE0000CD102200090000204906846FFF754FCDB
:101CF00008B1FEF745FF03490120086006B010BD9A
:101D0000002800403C0E474270B504460B4821684D
:101D1000C860FFF711FA05464FF47A7607E000BF76
:101D2000FFF70AFA401BB04201D9032070BD2068BA
:101D3000C0688006F4D5002070BD00005F3F010040
:101D400010B5401EB0F1807F01D3012010BD4FF0CF
:101D5000E02460610F21601702F0DBFC0020A0612D
:101D600007202061002010BD7047704770B590F8C3
:101D70003C20012A2CD0012480F83C40022280F82B
:101D80003D2003685A689D6822F070060A68324355
:101D90005A60104B02689A420ED0B2F1804F0BD0BD
:101DA0000D4B9A4208D00D4B9A4205D00C4B9A42EB
:101DB00002D00C4B9A4204D1496825F080031943A4
:101DC000916080F83D40002180F83C10084670BDCD
:101DD000022070BD000001400004004000080040E7
:101DE000000C00400040014010B5040003D094F8FE
:101DF0003D0010B107E0012010BD002084F83C0038
:101E0000204600F01FF8022084F83D00211D2068C4
:101E100002F048F8012084F8460084F83E0084F877
:101E20003F0084F8400084F8410084F8420084F8C0
:101E3000430084F8440084F8450084F83D00002005
:101E400010BD000008B500681149884212D1114840
:101E5000016841F0010101600068002200F001000A
:101E6000009011461920FFF765FBBDE808401920D6
:101E7000FFF752BBB0F1804F09D10648001F01683F
:101E800041F001010160006800F00100009008BD10
:101E9000000001404438024090F83D10012901D073
:101EA00001207047022180F83D100168CA6842F0A5
:101EB0000102CA6000680E4988420ED0B0F1804F1E
:101EC0000BD00C49884208D00B49884205D00B49F9
:101ED000884202D00A49884204D1816801F0070192
:101EE000062903D0016841F001010160002070471C
:101EF000000001400004004000080040000C0040C9
:101F00000040014070B5044690F83C0000250128CF
:101F100017D0012684F83C60022084F83D00206838
:101F2000826822F0770222F47F428260086850289B
:101F300038D00DDC20284FD005DC90B3102811D10B
:101F40004AE0022070BD302846D040280AD13BE04C
:101F500060282FD070280DD0B0F5805F03D0B0F589
:101F6000005F12D0012584F83D60002084F83C0019
:101F7000284670BDCB68D1E90121206801F0EFFF50
:101F80002068816841F0770109E0CB68D1E901213F
:101F9000206801F0E4FF2068816841F4804181609D
:101FA000E1E719E0CA684968206802F08DF850211D
:101FB000206806E0CA684968206802F096F8602147
:101FC000206801F0D6FFCEE7CA684968206802F0B1
:101FD0007BF840212068F4E7226801461046F0E7CC
:101FE0002DE9F0410D46040003D094F83D0018B1EE
:101FF00008E00120BDE8F081002084F83C00204684
:1020000000F040F8022084F83D002068816844F226
:10201000070291438160211D206801F043FF22687F
:1020200090689169166A2B68AF69034340F20330E8
:10203000814341EA0721A868EF6908434FF6FC4154
:102040008843E96840EA0720014328692F6A0001B4
:1020500040EA0730084369686D6926F0AA0646EA37
:102060000515294393602268906154F8460B01627C
:10207000012004F81F09E0752076E0762077A0752E
:102080000020B7E7F0B587B0044614216846FEF794
:10209000C6FA1E4B1C4F266800241C49103B022226
:1020A00001251B48BE4211D10E6846F002060E60A3
:1020B000096801F002010591196841F002011960F7
:1020C000196801F002010591302113E0114FBE4261
:1020D00017D10E6846F004060E60096801F004018D
:1020E0000591196841F002011960196801F00201B7
:1020F0000591C0218DE82600CDE903426946FEF72F
:1021000021FF07B0F0BD000000040040403802404D
:10211000000402400008004070B590F83E6004469C
:1021200090F83F5090F8423090F84320022021B1BF
:1021300004290ED0012E1BD114E0012E18D1012B41
:1021400016D184F83E0084F8420001220021206864
:1021500020E0012D0CD1012A0AD184F83F0084F837
:10216000430014E0012D03D1012B01D1012A01D03C
:10217000012070BD84F83E0084F83F0084F84200DE
:1021800084F8430001220021206801F0DBFE0122D7
:102190000421206801F0D6FE2068016841F00101A9
:1021A0000160002070BD70472DE9F04104460068D1
:1021B000C66805694FF00007A90713D5B10711D507
:1021C000F91E016101202077206880698007204680
:1021D00002D0FFF7E8FF04E000F0BAF8204600F074
:1021E0004CF92777680716D5700714D521686FF06A
:1021F00004000861022020772068806910F4407F85
:10220000204602D0FFF7CFFF04E000F0A1F82046FF
:1022100000F033F92777280715D5300713D5216843
:102220006FF008000861042020772068C0698007EB
:10223000204602D0FFF7B7FF04E000F089F82046FF
:1022400000F01BF92777E80616D5F00614D52168AB
:102250006FF010000861082020772068C06910F432
:10226000407F204602D0FFF79EFF04E000F070F8A8
:10227000204600F002F92777E80708D0F00706D0DB
:1022800021686FF001000861204600F04FF9280630
:1022900008D5300606D521686FF080000861204619
:1022A000FFF762FD680608D5700606D521686FF055
:1022B00040000861204600F075F9A8060AD5B0066E
:1022C00008D521686FF0200008612046BDE8F04184
:1022D000FFF74BBDBDE8F08170B586B00446142110
:1022E0006846FEF79CF92068B0F1804F28D1154868
:1022F0000024016841F001010160016801F0010161
:102300000591016841F0020101600068022500F0BA
:10231000020005904FF400400090CDE901540126E1
:10232000CDE9034669460848FEF70CFE08200090F8
:10233000CDE90154CDE9034669460448FEF702FEA3
:1023400006B070BD30380240000002400004024078
:10235000704770B5044690F83C0000260D460128F1
:102360000FD0012084F83C006AB1042A1DD0082A4D
:102370002FD00C2A3FD00126002084F83C003046A4
:1023800070BD022070BD206801F0FCFD20688169ED
:1023900041F0080181612068816921F004018161B7
:1023A000206881692A69114311E0206801F012FE5A
:1023B0002068816941F4006181612068816921F4AC
:1023C00080618161206881692A6941EA0221816115
:1023D000D2E7206801F02AFE2068C16941F00801B7
:1023E000C1612068C16921F00401C1612068C1692F
:1023F0002A69114311E0206801F044FE2068C16998
:1024000041F40061C1612068C16921F48061C1614A
:102410002068C1692A6941EA0221C161ACE710B5AF
:10242000040003D094F83D0010B107E0012010BD76
:10243000002084F83C00204600F01EF8022084F8BA
:102440003D00211D206801F02DFD012084F846008B
:1024500084F83E0084F83F0084F8400084F841008E
:1024600084F8420084F8430084F8440084F845006E
:1024700084F83D00002010BD7047704710B5044639
:10248000022249B104290ED0082913D094F8410042
:10249000012816D0012010BD94F83E000128F9D182
:1024A00084F83E200FE094F83F000128F2D184F830
:1024B0003F2008E094F840000128EBD184F8402048
:1024C00001E084F841200122206801F03BFD12491F
:1024D0002068884203D1426C42F400424264206882
:1024E00088420ED0B0F1804F0BD00C49884208D002
:1024F0000B49884205D00B49884202D00A498842DC
:1025000004D1816801F00701062903D0016841F078
:1025100001010160002010BD0000014000040040E6
:1025200000080040000C00400040014070B5006809
:102530001A4988422AD10A20FEF7DCFA184C207882
:10254000012802D16068401C606001F0E3FD60700A
:10255000207801281AD16278002001465FF0010539
:1025600005FA01F3134201D0401CC0B2491CC9B2A4
:102570000829F5D3C01E022809D86068642806D946
:102580004FF4FA7001F0D8F80220207070BD607826
:1025900001F006FEBDE8704001F04EB900000140B8
:1025A000000000207047704770470000F8B50168D0
:1025B00004460868CA684B6910F00F0F4FF0000519
:1025C00059D003F0010602F49077374365D0C10774
:1025D00005D0D10503D5616C41F00101616441076B
:1025E00005D5D90703D0616C41F002016164810710
:1025F00005D5D90703D0616C41F00401616401077E
:1026000007D502F02001314303D0616C41F008018D
:102610006164616C00293AD0800604D5900602D529
:10262000204601F0F2FE20684069616CC0F3801022
:10263000090700D460B3204601F0B2FE206840696B
:10264000400621D52068143050E8001F21F04001D9
:1026500040E80012002AF5D1E06BA8B1724901658B
:10266000E06BFEF7D8FA002811D0E06B016D01B0E5
:10267000BDE8F040084783060FD593060DD52046E8
:10268000BDE8F84001F0C1BE2046FFF78DFFF8BD60
:102690002046FFF789FF6564F8BD266B2023012ED5
:1026A0007ED1C6067CD5D6067AD5086848680090E3
:1026B00048694FF0020640064DD5E26B106840684D
:1026C0004FF480770004000C3AD0A18D814237D9B5
:1026D000E085D069B8422DD020680C3050E8001F4A
:1026E00021F4807140E80012002AF5D120681430EE
:1026F00050E8001F21F0010140E80012002AF5D146
:102700002068143050E8001F21F0400140E800121A
:10271000002AF5D184F84230256320680C3050E857
:10272000001F21F0100140E80012002AF5D1E06BF3
:10273000FEF728FA6663A08DE18D401A81B206E0AB
:10274000A18D8142A8D1D069B842A5D16663204647
:10275000FFF729FFF8BDA08DE18D401A81B2E08D11
:102760000028F7D00029F5D020680C3050E8002F61
:1027700022F4907240E80027002FF5D12068143031
:1027800050E8002F22F0010240E80027002FF5D189
:1027900084F84230256320680C3050E8002F00E0B8
:1027A00006E022F0100240E80023002BF3D1CDE731
:1027B00005062BD5150629D594F841002128C9D145
:1027C000A068B0F5805F01D12069B0B1206A411CDA
:1027D0002162216800784860E08C401E0004000CF3
:1027E000E084B7D12068C16821F08001C160206811
:1027F000C16841F04001C160F8BD206A0088C0F3A3
:1028000008004860206A801C2062E5E74006F3D596
:102810005006F1D5CA68204622F04002CA6084F80A
:10282000413000F0F5F9F8BDA542000870B504008C
:1028300004D094F84100002510B106E0012070BDDD
:1028400084F84050204600F023F8242084F841000A
:102850002068C16821F40051C160204601F036FEB5
:102860002068016921F4904101612068416921F0EB
:102870002A0141612068C16841F40051C16065646A
:10288000202084F8410084F842006563002070BD78
:102890002DE9F04F87B0054614216846FDF7BFFECD
:1028A000A348DFF888821438D5F800C0DFF880929A
:1028B000022103239F4A4027002406154FF0070BEF
:1028C000C4455AD1D9F8008048F01008C9F80080F2
:1028D000D9F800C00CF0100CCDF814C0D0F800C02E
:1028E0004CF0010CC0F800C0006800F00100059039
:1028F00058028DE81300CDE9033B69461046FEF708
:1029000021FBDFF838828C494046C8F800104FF0B0
:10291000006AC0E901A4C0E903468915C8F814405B
:10292000C0E90641C8F82040B146C8F82440FEF787
:1029300055FA08B1FEF724F9804EC5F83C806036A0
:10294000C8F83850C6E90274C6E90494B4617A48FC
:10295000F461346278307462C6E9000A3046FEF7EA
:102960003DFA08B1FEF70CF9AE63002211462520AE
:10297000B563FEF7DFFD252068E0DFF8C481C445BC
:1029800069D1DFF8ACC1A246ACF1040CDCF80080E0
:1029900048F40038CCF80080DCF800C00CF4003CAF
:1029A000CDF814C0D0F800C04CF0010CC0F800C045
:1029B000006800F0010005900C208DE81300CDE9BF
:1029C000033B69461046FEF7BDFADFF870915D499A
:1029D00009F1C00948464FF00068C9F80010C0E985
:1029E0000184C0E90346C9F81440C9F81840C9F881
:1029F0001C40C9F82040C9F82440FEF7EFF908B19F
:102A0000FEF7BEF8504CC5F83C904E48C9F8385017
:102A10001830A760C4E90008C4E903A6C4F814A0EC
:102A2000C4F818A0C4F81CA0C4F820A02046C4F81C
:102A300024A0FEF7D3F908B1FEF7A2F8AC63002298
:102A400011462620A563FEF775FD2620FEF764FDDE
:102A500007B0BDE8F08FDFF8F480C445F8D1D9F8AD
:102A60000080A24648F02008C9F80080D9F800C0CC
:102A70000CF0200CCDF814C0D0F800C04CF0010CC4
:102A8000C0F800C0006800F0010005904FF4C0508D
:102A90008DE813000820CDE9033069461046FEF7A3
:102AA00051FADFF8A480244908F16008183940463B
:102AB0004FF02069C8F80010C0E90194C0E903464E
:102AC000C8F81440C8F81840C8F81C40C8F820409E
:102AD000C8F82440FEF782F908B1FEF751F81A4C05
:102AE000C5F83C801448C034C8F838506030A7603E
:102AF000C4E90009C4E903A6C4F814A0C4F818A0E6
:102B0000C4F81CA0C4F820A02046C4F824A0FEF7F6
:102B100065F908B1FEF734F8AC630022114647208E
:102B2000A563FEF707FD472090E700000010014075
:102B3000443802400000024040640240D8020020B5
:102B40000044004088600240F80300200014014067
:102B500090F84230202B01D00220704721B11AB1E9
:102B60000023036301F038BD0120704770477047B0
:102B70002DE9F843044690F84100984616460D4664
:102B8000202802D00220BDE8F88385B17EB1002064
:102B90006064212084F84100FEF7CEFAA6848146C5
:102BA000E684A0682027B0F5805F02D003E0012012
:102BB000E9E7206910B12E4600250EE000260CE062
:102BC0008021204601F058FDA8B9C6B116F8010BC6
:102BD00021684860E08C401EE084E08C4B464FF05A
:102BE0000002CDF800800028EAD14FF040012046D5
:102BF00001F042FD40B184F841700320C3E735F88D
:102C0000020BC0F30800E3E784F841700020BAE744
:102C10007047FEE701684A69D24352050FD46FF44A
:102C200080624A61002140F8301F20224273817384
:102C3000026942F004020261017301207047002022
:102C4000704700002DE9F843044600680D46DDE9B1
:102C5000089701689846164641F4807101604B461A
:102C600000224FF001112046009700F06BF848B1A8
:102C700020680068C00502D54FF40070206403206E
:102C8000BDE8F883216805F0FE0008613B464A462E
:102C90001549204600F09EF888B92068416980698E
:102CA00000903A464946204600F0F2F848B1206CC0
:102CB000042804D12068016841F4007101600120FA
:102CC000DEE7F5B2B8F1010F09D02168300A0861DA
:102CD0003A464946204600F0DBF80028E7D1206854
:102CE00005610020CCE700000200010070B5164627
:102CF0000D4604461EE02046FFF78CFF08B1012078
:102D000070BD681C16D0FEF717FA801BA84200D8C9
:102D100085B920684069C04340070BD5002044F8BE
:102D2000300F20216173A073216941F020012161DE
:102D30002073E4E720684069C0434007DBD40020EB
:102D400070BD00002DE9F047984617460D46044631
:102D5000C1F30746DDF820902AE000BFB8F1FF3F3D
:102D600026D0FEF7E9F9A0EB0901414502D8B8F1F8
:102D7000000F1DD12068012E16D0806925EA0000C1
:102D80000004000C12D00020B84211D1002044F8F9
:102D9000300F20216173A073216941F0200121616E
:102DA00020730120BDE8F0874069E7E70120EBE7E9
:102DB0002068012E0AD0806925EA00000004000C7A
:102DC00006D00020B842C9D00020EBE74069F3E705
:102DD0000120F7E72DE9F047984616460D460446D0
:102DE0004FF000094FF0200AC1F3074723E02068A5
:102DF0004069C043400515D42068016841F4007162
:102E0000016021686FF480604861C4F8309084F8F4
:102E10003DA084F83E90216C41F00401216484F8C7
:102E20003C9021E0701C06D0FEF786F9A0EB08006C
:102E3000B04203D816B1012F1FD021E02068012F26
:102E400015D0806925EA00000004000C18D000BFEE
:102E500044F8309F84F80DA084F80E90216941F069
:102E60002001216184F80C900120BDE8F0874069C1
:102E700025EA00000004000CEAD12068406901E066
:102E80002068806925EA00000004000CAFD1ECE75F
:102E900070B516460D4604461EE02046FFF7BAFE02
:102EA00008B1012070BD681C16D0FEF745F9801BE3
:102EB000A84200D885B920684069C04300060BD5F8
:102EC000002044F8300F20216173A073216941F084
:102ED000200121612073E4E720684069C0430006B7
:102EE000DBD4002070BD00002DE9F04703291AD380
:102EF00002785B2A17D14278DFF894804FF00109FD
:102F00005D2A02D04518A91E16E04FF6FF7144460F
:102F1000A8F800100021A8F80210C01CFDF750FB13
:102F2000A08084F80690BDE8F0870278282A02D1B4
:102F300042785B2A03D0401C8142F6D8F3E7801C1C
:102F40000446FDF73DFB86B200E0641CA54202D9B1
:102F500020782C28F9D1A542E5D9641C2046FDF73C
:102F60002FFB87B200E0641CA54202D920782C28F0
:102F7000F9D1A542D7D9601CFDF722FBA8F8006063
:102F8000A8F80270A8F8040088F80690CBE70000C3
:102F9000640000202DE9F84F074600682249884266
:102FA00038D10168C943CA064FF0000129D402682C
:102FB00040680090F86B0068406880B2802802D2B8
:102FC000C0F1800000E00020184C86B26088864284
:102FD00017D06588DFF85880894608F1800A0DE02F
:102FE00018F805106D1C05F07F050A2914D020780B
:102FF0007F2803D20AF80010401C2070B542EFD1A0
:10300000668038680168C943090703D401684168CC
:1030100000914068BDE8F88F054821788030FFF7BF
:1030200063FF84F80090E9E7001001406000002091
:10303000CC05002010B580210948FDF7CEFA0949DA
:10304000002048800870802205490748FFF780FD6E
:1030500005480068C16841F01001C16010BD000062
:10306000CC050020600000200002002070B5022185
:103070001848FEF757F878B15FF00004FEF75CF8E7
:10308000154900224D784DB10023012D0BD0022DA2
:1030900010D0032D1CD119E00124EFE7C4B10123A6
:1030A0004B70886014E08D68401B1E2810D374B1EB
:1030B000022007E044B18B68C01AB0F5FA6F07D35D
:1030C00002220320487003E0012200E004B94B70A3
:1030D000104670BD000002401C0000200348002183
:1030E0000170416041708160704700001C00002049
:1030F00070B501211848FEF715F878B15FF00004AB
:10310000FEF71AF8154900220D784DB10023012D64
:103110000BD0022D10D0032D1CD119E00124EFE7B4
:10312000C4B101230B70486014E04D68401B1E2899
:1031300010D374B1022007E044B14B68C01AB0F557
:10314000FA6F07D302220320087003E0012200E097
:1031500004B90B70104670BD000002401C00002036
:10316000214808B5016841F400110160016801F4CB
:1031700000110091016841F48001016000680022A3
:1031800000F48000009011461020FEF7D3F91020C3
:10319000FEF7C2F9002211461120FEF7CBF91120EB
:1031A000FEF7BAF9002211463920FEF7C3F939209B
:1031B000FEF7B2F9002211463A20FEF7BBF93A2099
:1031C000FEF7AAF9002211464520FEF7B3F9452083
:1031D000FEF7A2F9002211464620FEF7ABF9BDE842
:1031E00008404620FEF798B9303802402DE9F041FA
:1031F00086B014216846FDF712FA304800240168B1
:1032000041F004010160016801F0040105910168C9
:1032100041F080010160016801F0800105910168C1
:1032200041F001010160016801F0010105910168AF
:1032300041F0020101600068012200F00200204F0D
:103240005603059031463846FDF771FFDFF874806C
:103250004FF47045002229464046FDF768FF1120D3
:103260000096CDE90104694638460394FDF76AFEED
:1032700040F2031001268DE85100134F694638468D
:10328000FDF760FEF020CDE900046946384602945F
:10329000FDF758FE40F20740CDE90004694640467C
:1032A0000294FDF74FFE0095CDE901646946404662
:1032B0000394FDF747FE06B0BDE8F08130380240C8
:1032C0000008024000040240000002400D4810B512
:1032D0000B4901600C49416000214FF4804281603C
:1032E000C0E9031241618161C1610162FDF72AFFFA
:1032F000002803D0BDE81040FDF742BC10BD00001F
:10330000005400406C000020A08601000B4810B55E
:103310000949016000217F22C0E90112FF22C0E9B2
:10332000032141618161FEF783FC002803D0BDE8E1
:103330001040FDF725BC10BD00280040C000002053
:1033400010B586B0002417480094019402940394A9
:1033500004941349059401606321C0E9011442F209
:103360000F71C0E9031444618461FEF73DFD08B1AB
:10337000FDF706FC4FF48050009069460948FEF7BF
:10338000C1FD08B1FDF7FCFB049404A905480594B0
:10339000FEF7ECFC002801D0FDF7F2FB06B010BDF3
:1033A00000000140E000002010B58EB0002407941A
:1033B000089409940A940B941C2168460C94FDF718
:1033C0002EF923484FF08041C0E9001441F61F4117
:1033D000C0E9024104618461FEF706FD08B1FDF712
:1033E000CFFB4FF48050079007A91948FEF78AFDDC
:1033F00008B1FDF7C5FB1648FFF711F808B1FDF756
:10340000BFFB0B940BA912480C94FEF7AFFC08B15C
:10341000FDF7B6FB602000904FF4E150CDE90104C8
:10342000002269460A480494FEF793FF08B1FDF7AD
:10343000A7FB0422694606480194FEF78AFF08B1FB
:10344000FDF79EFB0248FEF747FF0EB010BD0000DF
:103450002801002010B58CB024216846FDF7DFF864
:1034600000241648099414490A94C0E900144FF640
:10347000FF71C0E90241046184610320CDE90004C9
:103480000120CDE902040494CDE905400794694682
:103490000A480894FEF7A4FD08B1FDF771FB0994F2
:1034A00009A906480A94FEF761FC002801D0FDF73F
:1034B00067FB0CB010BD000000040040700100204C
:1034C00010B58CB024216846FDF7A9F800241648F1
:1034D000099414490A94C0E900144FF6FF71C0E939
:1034E0000241046184610320CDE900040120CDE99B
:1034F00002040494CDE90540079469460A480894FB
:10350000FEF76EFD08B1FDF73BFB099409A90648DB
:103510000A94FEF72BFC002801D0FDF731FB0CB01C
:1035200010BD000000080040B80100200C4810B594
:103530000A4901604FF4E1314160002181600C22B1
:10354000C160C0E904128161C161FFF76FF9002811
:1035500003D0BDE81040FDF713BB10BD00100140C3
:10356000000200200C4810B50A4901604FF4E13117
:103570004160002181600C22C160C0E904128161B8
:10358000C161FFF753F9002803D0BDE81040FDF7F3
:10359000F7BA10BD00440040480200200C4810B5A6
:1035A0000A4901604FF4E1314160002181600C2241
:1035B000C160C0E904128161C161FFF737F90028D9
:1035C00003D0BDE81040FDF7DBBA10BD0014014088
:1035D00090020020FEE700002DE9F0471A4D1B4C39
:1035E0001B4F061E41F61F484FF480514FF40059FF
:1035F0000CDD01222846FDF79AFD002249462846A7
:10360000FDF795FD4246002130460DE04FF00002E7
:1036100028460CDAFDF78BFD012249462846FDF7C6
:1036200086FD42460021704201F08AF807E0FDF76E
:103630007EFD002249462846FDF779FD0020E06026
:1036400039688863BDE8F087000402402800002044
:10365000280100202DE9F0471A4D1B4C1B4F061E78
:1036600041F61F484FF480414FF400490CDD012220
:103670002846FDF75CFD002249462846FDF757FD28
:103680004246002130460DE04FF0000228460CDA99
:10369000FDF74DFD012249462846FDF748FD42460B
:1036A0000021704201F04CF807E0FDF740FD0022D8
:1036B00049462846FDF73BFD0020206139684863F4
:1036C000BDE8F08700040240280000202801002007
:1036D00070B5164C2078002824D0FDF72DFDE16947
:1036E000884220D3124D00224FF480512846FDF726
:1036F0001EFD00224FF400512846FDF718FD002260
:103700004FF480412846FDF712FD00224FF400419E
:103710002846FDF70CFD074900200A6890630968F8
:103720004863207070BD012070BD0000280000209B
:10373000000402402801002070B5134C0546012208
:1037400011032046FDF7F3FC012251032046FDF74B
:10375000EEFC012291032046FDF7E9FC0122D10392
:103760002046FDF7E4FC09480021026891630068E7
:103770004163074C01206160A1602070FDF7DCFC13
:103780002844E06170BD00000004024028010020D0
:103790002800002010B504210548FEF76FFE002127
:1037A0000348FEF76BFEBDE8104000F083B8000050
:1037B00028010020014AC2E90101704728000020C9
:1037C00010B51C482DED048BDFED168A9FED168A8F
:1037D0009FED169ADFED169AF0EE681AB0EE481AD1
:1037E000F0EE490AB0EE690A00F02AFA1148F0EE4C
:1037F000681AB0EE481AF0EE490AB0EE690A2030B5
:1038000000F01EFAB0EE480A0A4800F035FAB0EEB1
:10381000480ABDEC048B0748BDE81040203000F09A
:103820002BBA000000F8E04500000000CDCCCC3DF4
:103830009A99193F6C05002010B51A481B4C2DEDC4
:10384000028B90ED020A1848F8EEC00A90ED028A49
:1038500084ED050A84ED068A94ED010A1448B8EE59
:10386000C00A00F067F9F0EE408A94ED020A1048B1
:10387000F8EEC80AB8EEC00A203000F05BF9B0EEEE
:10388000408ABDEEE80A10EE100AFFF7A5FEBDEE75
:10389000C80ABDEC028BBDE8104010EE100AFFF71D
:1038A000D9BE00004C0500205C0500202800002047
:1038B0006C05002010B5114C00224FF480512046B9
:1038C000FDF735FC00224FF400512046FDF72FFC98
:1038D00000224FF480412046FDF729FC00224FF4DE
:1038E00000412046FDF723FC054900200A6890634B
:1038F0000968486303494860886010BD00040240BD
:103900002801002028000020FEE770B5002404F103
:10391000B000C0B200F0EAF8002000F0E7F8102094
:1039200000F0E4F80025002000F0F2F86D1CEDB284
:10393000802DF8D3641CE4B2082CE8D370BD0000DD
:1039400070B5C820FDF7ECFA044D0024285D00F0A6
:10395000CDF8641CE4B2172CF8D370BD48000020E9
:1039600010B50446B031C8B200F0C0F8102040EAEB
:10397000141000F0BBF804F00F00BDE8104000F098
:10398000B5B800002DE9F047203A0024089E0F4604
:103990008146D5B27F2803D900208F1C8146FFB213
:1039A000102B394612D0FFF7DBFF1B4905EB450012
:1039B00001EB4005285D0EB1C043C0B200F0A8F88D
:1039C000641CE4B2062CF5D3BDE8F087FFF7C8FF0E
:1039D000DFF8488004EB051118F801000EB1C04370
:1039E000C0B200F095F8641CE4B2082CF2D37F1C3E
:1039F000F9B24846FFF7B4FF0024474604EB051030
:103A00003844007A0EB1C043C0B200F081F8641CA3
:103A1000E4B2082CF2D3D7E72A4C0008524E000833
:103A20002DE9FF4F81B00026DDE90EA91D46934622
:103A3000804634464FEA5A0727E0281B401EC1B291
:103A40000A2001F0B7F8BBFBF0F00A21B0FBF1F25D
:103A500001FB120026B9691E8C4201DA48B1012629
:103A60003030C2B207FB0480C0B25346CDF800909C
:103A700006E007FB0480C0B253462022CDF8009038
:103A80000299FFF77FFF641CE4B2AC42D5D305B0C6
:103A9000BDE8F08F2DE9F8431E46174689460446D7
:103AA0000025DDF8208014E0334649462046CDF855
:103AB0000080FFF767FF0C2E10D00834E4B27A2C98
:103AC00001D90C2E0CD0782C01D9102E08D06D1CE9
:103AD000EDB27A5D002AE7D1BDE8F883A41DEDE7D9
:103AE00009F10100002400F0FF09F0E701B584B0FE
:103AF00001214FF4807204A88DE807000B460022D4
:103B000078210248FDF7E2FB05B000BD6C00002003
:103B100001B584B001214FF4807204A88DE807003C
:103B20000B46402278210248FDF7D0FB05B000BDCE
:103B30006C00002090ED012AD0ED041A30EE601ADE
:103B4000D0ED000A22EE210AD0ED052A00EE810A0E
:103B500071EE622AD0ED020A00EEA20AD0ED030A4D
:103B6000F4EEC00AF1EE10FA02D2B0EE600A08E0FC
:103B7000F1EE602AF4EEC02AF1EE10FA01DDB0EEAB
:103B8000620AB5EEC02AF1EE10FA53DDF1EE602ABA
:103B9000F4EEC02AF1EE10FA04D2F4EEC00AF1EE0F
:103BA00010FA13DCB5EEC01AF1EE10FA04DDF4EEF3
:103BB000C02AF1EE10FA09DAB5EEC01AF1EE10FAE9
:103BC00008D2F4EEC00AF1EE10FA03D871EE811AB1
:103BD000C0ED041AC0EE821AD0ED040AF4EEE10A38
:103BE000F1EE10FA01DDC0ED041A90ED042AF1EEB9
:103BF000610AB4EEE02AF1EE10FA01D2C0ED040A37
:103C0000D0ED070AF5EEC00AF1EE10FA0DDDF7EE81
:103C1000001A90ED062A71EEE01A61EE821AB0EEFB
:103C2000402AB0EE610A00EE820A80ED060A80EDBD
:103C3000051A7047DFED010AE0E700000000000010
:103C400080EC040A9FED050A80ED040A80ED050A68
:103C500080ED060A80ED070A7047000000000000B2
:103C60009FED040A80ED040A80ED050A80ED060A46
:103C70007047000000000000B5EEC00AF1EE10FA37
:103C800002D29FED060A06E010EE101AB1F17E5F37
:103C900001DDB7EE000A80ED070A70470000000062
:103CA000704700002DE9F041044600680025C16816
:103CB000490618D4C16841F08001C160FDF73CFAA3
:103CC00006464FF47A78042707E000BFFDF734FA80
:103CD000801B404501D9677701252068C0684006F0
:103CE00001D4002DF2D02846BDE8F08170B504461D
:103CF00000680025C16821F08001C16020688068EB
:103D0000800606D42046FDF7FFFF10B1042060773F
:103D10000125284670BD70471CB500788DF800005D
:103D2000F3208DF80100AB208DF8020009B10120CD
:103D300000E000208DF8030000208DF804006B20C7
:103D40008DF805000621684600F048F81CBD00000B
:103D50001CB5044600788DF800009A208DF801000B
:103D600004208DF8020000208DF803006B208DF8F0
:103D700004000521684600F031F89FED020A84ED49
:103D8000020A1CBD000000002DE9F0410F461E464E
:103D9000154604462021FCF742FC277065802671F9
:103DA0002773FD206073C5F30320A073E5732674A9
:103DB00000206074A074E0746B202075E168C4F882
:103DC00015102169C4F819109FED030A607784ED7E
:103DD000020ABDE8F0810000000000000A4601462A
:103DE00064230148FEF7C4BE90020020FDF73ABBF1
:103DF00030B593B030216846FCF711FC14210CA8B3
:103E0000FCF70DFC1E480025016841F0805101605F
:103E1000006800F0805011901A48016841F4404158
:103E200001600068022400F44040119009200090D5
:103E30004FF4803001900120CDE905048005079002
:103E40000C2008906020CDE9090404200B906846FE
:103E5000FDF738FD08B172B6FEE70CA90F2081E826
:103E600031004FF48050CDE90F0503210CA8FDF778
:103E70003DFC002801D072B6FEE713B030BD000053
:103E800040380240007000400248016841F470016F
:103E90000160704788ED00E00148FEF785B9000039
:103EA000E0000020F0B502681F4B204C204D214E51
:103EB0004FF0804C984207D0604505D0A04203D017
:103EC000A84201D0B04203D122F070074A683A43B9
:103ED000984210D060450ED0A0420CD0A8420AD023
:103EE000B04208D0144CA04205D0144CA04202D0DD
:103EF000134CA04203D122F44074CA6822434C6997
:103F000022F0800222438C68C4620C68846298426A
:103F100001D109690163016841F0040101600121D7
:103F200041610260F0BD000000000140000400405B
:103F300000080040000C00400040014000440140E7
:103F40000048014010B501F01F030121046A9940A7
:103F50008C430462016A9A401143016210BD10B59E
:103F6000846842EA032224F47F440A4322438260A5
:103F700010BD826822F070020A4342F0070181609E
:103F80007047000030B5036A026A22F00102026243
:103F90004268846924F073050C682C4323F0020501
:103FA0008B682B430A4DA8420BD123F00805CB6840
:103FB00022F440722B434D6923F0040315438A69B0
:103FC0002A434260846149684163036230BD000056
:103FD0000000014030B5026A036A23F01003036257
:103FE000436884690D6824F4E64444EA05248D6836
:103FF00022F0200242EA05120B4DA8420ED1CD68F4
:1040000022F0800242EA05124D6923F4406343EA3C
:1040100085038D6922F0400243EA85034360846191
:1040200049688163026230BD0000014030B5036A17
:10403000026A22F4807202624268C46923F4007347
:1040400024F073050C682C438D6843EA05230C4D5E
:10405000A8420ED1CD6823F4006343EA05234D69DD
:1040600022F4405242EA05128D6923F4806342EA49
:1040700005124260C4614968C163036230BD00003B
:104080000000014030B5046A026A22F480520262E4
:104090004268C3690D6823F4E64343EA05238D684B
:1040A00024F4005444EA0534064DA84204D14D6975
:1040B00022F4804242EA85124260C3614968016489
:1040C000046230BD0000014010B5036A046A24F0A8
:1040D00001040462846924F0F00444EA021423F029
:1040E0000A020A438461026210BD10B5036A046AC1
:1040F00024F010040462846923F0A00324F47044C3
:1041000044EA023243EA01118261016210BD00F00B
:1041100001B800000A4800690F2121EA101009497E
:104120000B6803229A4340EA02100A68520701D43E
:1041300040F040000968490501D440F08000704714
:10414000000002401004024010B534210F48FCF773
:1041500066FA0E4C0020DFED0E1A20704FF47A70D4
:10416000606240F2DC50A062E062B7EE001ADFED60
:10417000090A9FED090A201DFFF762FD201DBDE819
:1041800010409FED060AFFF777BD000018050020DC
:104190000080BB4452491D3A0AD7A33D00000000ED
:1041A000F8B50025DFF8C0C08DF800506C462E46EB
:1041B0002A462946012700BF07FA01F3034204D02B
:1041C0003CF91130521C1E44D2B2491CC9B2082914
:1041D000F2D304B122702548254C22B1072A06D318
:1041E0002178B9B337E02178054699B306E096FB0C
:1041F000F2F10DB2217869B385422CD102202070F2
:10420000201DFFF72DFD2078022826D0012820D17F
:1042100000EE105A2586201DF8EEC00A9FED150A03
:10422000FFF788FCBDEEC00A616A41F61F4710EE39
:10423000100A7E423A460D1A0844314600F088FAC8
:1042400004463A463146284600F082FA2146FFF7F6
:10425000B1FAF8BD05E02770DAE794F832000028DB
:10426000F7D1FFF727FBF4E71A4C00080080FFFFA7
:1042700018050020000000000548012100F8321B4D
:1042800000F80219002120F82C19FFF7E9BC000002
:1042900018050020024900200870FFF70BBB000042
:1042A0001805002010B5806B0021C185FEF77CF950
:1042B00010BD70B5846B2068406994F84110C0F35C
:1042C000C0100025212904D118B1E584204600F052
:1042D0008EF82068406994F84210C0F380102229BB
:1042E00004D118B1E585204600F05AF8606C40F022
:1042F000100060642046FEF757F970BD10B5014606
:10430000806B096809684FF00002C9052ED4C28588
:1043100001680C3151E8003F23F4807341E8003418
:10432000002CF5D10168143151E8003F23F001035E
:1043300041E80034002CF5D10168143151E8003F08
:1043400023F0400341E80034002CF5D1202180F80F
:104350004210016B012909D101680C3151E8003F7D
:1043600023F0100341E80034002CF5D14263016BC7
:10437000012902D0FEF7FAFB10BD818DFEF713F97B
:1043800010BD10B5806B01214163016B012902D082
:10439000FEF7EDFB10BD818D4908FEF704F910BD55
:1043A00001680C3151E8002F22F4907241E800239B
:1043B000002BF5D10168143151E8002F22F00102E1
:1043C00041E80023002BF5D1016B012909D10168D7
:1043D0000C3151E8002F22F0100241E80023002B9D
:1043E000F5D1202180F84210002101637047016857
:1043F0000C3151E8002F22F0C00241E80023002BCD
:10440000F5D1202180F84110704708B590F842108E
:10441000222901D0022008BD82684FF480539A42BD
:1044200001D1016921B1816A9A421BD04AB10AE0E7
:104430000268816A5268C2F308020A80816A891C94
:1044400008E0026972B10268526802F07F020A70E5
:10445000816A491C8162C18D491E0904090CC1850C
:1044600003D01BE002685268F1E70168CA6822F0D5
:104470002002CA600168CA6822F48072CA600168BA
:104480004A6922F001024A61202180F8421000218D
:104490004163026B012A03D0FEF768FB002008BDD0
:1044A000016301680C3151E8002F22F0100241E84D
:1044B0000023002BF5D101680A68D20602D50A68EC
:1044C00049680091818DFEF76EF8E7E770B5044604
:1044D00000680169E26821F44051114301612169DA
:1044E000A068E26908436169114308432168CA680A
:1044F00049F20C639A430243CA6020684169A26989
:1045000021F440711143416131492068884202D051
:104510003049884202D1FDF793F901E0FDF780F9B7
:10452000E2690023192164253226B2F5004F626842
:1045300028D0A0FB0101930F9200FBF7ADFE0146CE
:10454000B0FBF5F06FF01802504301EB800006EB72
:104550000010B0FBF5F000F0F002B1FBF5F002EB5B
:104560000012B1FBF5F06FF01803584301EB800027
:1045700006EB0010B0FBF5F000F00F0021681044CE
:10458000886070BDA0FB010192185B41FBF784FEBF
:104590000146B0FBF5F00201B1FBF5F06FF0180336
:1045A000584301EB800006EBC000B0FBF5F000F0D3
:1045B000F80002EB4002B1FBF5F0584301EB80003C
:1045C00006EBC000B0FBF5F000F00700D6E70000F6
:1045D000001001400014014038B581620446828514
:1045E000002013466064222284F84220E56B1F4AB3
:1045F000EA63E56B1E4A2A64E56B1E4AEA64E26BD5
:1046000010650A462168E06B091DFCF751FC30B1CA
:1046100010206064202084F84200012038BD20680A
:10462000016840680090206948B120680C3050E86B
:10463000001F41F4807140E80012002AF5D1206883
:10464000143050E8001F41F0010140E80012002A38
:10465000F5D12068143050E8001F41F0400140E8D7
:104660000012002AF5D1002038BD0000FD420008EC
:1046700083430008B34200082DE9F84398461746E3
:104680000D460446089E24E0701C22D0FCF754FD21
:10469000A0EB0800B0421AD8CEB12068C168490723
:1046A00017D5802D15D0402D13D00168C9430907B7
:1046B0000FD401680025406800902046FFF770FE87
:1046C0000820606484F840500120BDE8F88303208E
:1046D000FBE72068006835EA000004D00020B842FB
:1046E000D2D00020F1E70120F9E700000148FEF7F1
:1046F00051BC0000000200200148FDF757BF000038
:10470000480200200148FDF751BF00009002002040
:10471000FEE70907090E002804DB00F1E02080F81D
:104720000014704700F00F0000F1E02080F8141D25
:10473000704730380A2801D20120704700207047A6
:10474000884201DA084670479042FCDD1046704707
:10475000884201DA084670479042FCDD10467047F7
:104760009AB0FCF787FEFFF743FBFEF73FFDFEF72D
:10477000F7FCFEF7ABFDFEF7C9FDFEF7E1FDFEF726
:10478000D5FEFEF711FEFEF765FEFEF799FEFEF779
:10479000E9FEFEF703FFFFF7D3F8FFF7B6F80024B2
:1047A0000C23C9A2214620460094FFF773F9FFF7B6
:1047B000AEFCFEF7EFFFFCF775F9FEF78FFCFFF795
:1047C000C3FCFEF7FDFFAF234FF4FA720121C1488D
:1047D000FFF7DAFA0121BF48FFF79EFAFFF795F8D5
:1047E00000210C23BCA208460094FFF753F90C23C8
:1047F000BCA2012100200094FFF74CF9FEF71AFC3F
:10480000BB48FDF749FBBB4D4FF6FF7ADFF8E8B236
:10481000DFF8E882DFF8E892FEF76AFC0646FEF76A
:1048200025FC01280ED1A87898B10021A970A948CB
:10483000FFF772FAA87828B1C820FCF771FBA548E9
:10484000FFF786FA287830B1012811D002281DD14F
:1048500017E00121EAE7012E18D16C60A9484FF456
:104860007A714162FFF708FDFEF7AAFF012004E01C
:10487000022E0BD1FFF70EFD02202870FFF745F83E
:1048800004E0FEF725FF012E00D12C70FCF754FC4C
:10489000A968401AC828BFD9FCF74EFC0C26A860AE
:1048A000CDE9006468780021C20901230846FFF7BA
:1048B000B7F8CDE9006468780123C0F380120021C5
:1048C0000620FFF7ADF8CDE9006468780123C0F356
:1048D000401200210C20FFF7A3F8CDE900646878AE
:1048E0000123C0F3001200211220FFF799F8CDE94F
:1048F000006468780123C0F3C00200211820FFF78C
:104900008FF8CDE9006468780123C0F380020021AC
:104910001E20FFF785F8CDE9006468780123C0F315
:10492000400200212420FFF77BF8CDE9006468787D
:10493000012300F0010200212A20FFF771F82878F6
:1049400020B1012806D002280BD17EE00C236EA2F4
:10495000009402E00C236DA2009400213220FFF7A6
:1049600099F868686421B0FBF1F3B0FBF1F201FB48
:1049700013061027CDE90074032301210020FFF75F
:104980004FF810232E22012118200094FEF7FAFF81
:10499000CDE900740223324601212020FFF740F8C0
:1049A00010237322012130200094FEF7EBFF5849B9
:1049B000DBF80000574F09685E46CDE9000156A2BA
:1049C000162103A83B68FBF7DFFC0C2303AA032195
:1049D00000200094FFF75EF8544855A20168D8F80B
:1049E0000000CDE90001162103A8D9F80030FBF73B
:1049F000CBFC0C2303AA042100200094FFF74AF803
:104A00004048D9F80020D8F80010406A511ACDE982
:104A10000010386831684BA2431A162103A8FBF72F
:104A2000B3FC0C2303AA052100200094FFF732F801
:104A3000494806884188878856450AD13B4647A29F
:104A4000162103A8FBF7A0FC0BE00C2348A200945E
:104A500083E7CDE90017334646A2162103A8FBF7EA
:104A600093FC0C2303AA062100200094FFF712F800
:104A7000564506D0BB1B44A2162103A8FBF784FCB5
:104A800004E044A2162103A8FBF77EFC0C2303AA32
:104A9000072100200094FEF7FDFFDBF80000D8F8A6
:104AA0000020D9F800108DE807001A483CA24021E8
:104AB000036809A8FBF768FC82B20A2309A93C48ED
:104AC000FEF756F8A8E6000032364820426F6F74B1
:104AD0002E2E2E00AC0500205072657373204B45BE
:104AE00059000000746F20535441525400000000DC
:104AF000E0000020000000203C00002040000020DA
:104B0000300000201805002049444C0052554E004A
:104B1000340000202C0000204C3A252B3035642F27
:104B2000252B3036642F25303564000038000020F6
:104B3000523A252B3035642F252B3036642F253003
:104B40003564000045252B3035642F252B30356426
:104B500020425325303464006400002042616C6CB4
:104B60003A202D2D2D2F2D2D2D20542564000000B1
:104B70005354500042616C6C3A202533752C253318
:104B80007520542564000000446C743A20252B6481
:104B900000000000446C743A202D2D2D0000000010
:104BA00025642C25642C25642C25640D0A00000046
:104BB000480200200246012000E05043491EC9B2CD
:104BC000FBD2704710B500290AD00878002807D01A
:104BD00005487844FBF7A6FE002801D0002010BD50
:104BE0000248784410BD0000920800008A080000C6
:104BF0004FF04070E1EE100A7047000610160006F4
:104C00001016000000000000000001020304060767
:104C100008090000000001020304B80BDC05E803EA
:104C2000FA0006FF18FC24FA48F400000000000017
:104C30000000002F000000000700070000147F1490
:104C40007F1400242A7F2A1200626408132300368E
:104C50004955225000000503000000001C224100BD
:104C6000000041221C000014083E08140008083E01
:104C70000808000000A060000008080808080000FC
:104C800060600000002010080402003E5149453ECB
:104C90000000427F400000426151494600214145E9
:104CA0004B31001814127F10002745454539003C50
:104CB0004A4949300001710905030036494949361E
:104CC00000064949291E000036360000000056360D
:104CD00000000008142241000014141414140000F1
:104CE0004122140800020151090600324959513E7F
:104CF000007C1211127C007F49494936003E414137
:104D00004122007F4141221C007F49494941007FE7
:104D100009090901003E4149497A007F0808087FD6
:104D20000000417F4100002040413F01007F081406
:104D30002241007F40404040007F020C027F007F04
:104D40000408107F003E4141413E007F09090906E9
:104D5000003E4151215E007F09192946004649491C
:104D600049310001017F0101003F4040403F001FE9
:104D70002040201F003F4038403F00631408146368
:104D800000070870080700615149454300007F4152
:104D9000410000552A552A55000041417F0000047A
:104DA00002010204004040404040000001020400B3
:104DB000002054545478007F484444380038444418
:104DC000442000384444487F0038545454180008A4
:104DD0007E0901020018A4A4A47C007F08040478C2
:104DE0000000447D4000004080847D00007F10284A
:104DF00044000000417F4000007C04180478007CDF
:104E00000804047800384444443800FC242424185E
:104E10000018242418FC007C08040408004854549A
:104E2000542000043F444020003C4040207C001CB3
:104E30002040201C003C4030403C004428102844C6
:104E4000001CA0A0A07C004464544C44141414140E
:104E5000141400000000000000000000000000002A
:104E60000000000000F800000000000000333000E7
:104E7000000000100C06100C0600000000000000EE
:104E8000000040C07840C0784000043F04043F0464
:104E90000400007088FC08300000001820FF211E6C
:104EA0000000F008F000E018000000211C031E21A3
:104EB0001E0000F00888700000001E21232419271E
:104EC000211010160E00000000000000000000007D
:104ED0000000000000E01804020000000007182095
:104EE000400000020418E000000000402018070005
:104EF0000000404080F0804040000202010F0102AB
:104F00000200000000F0000000000101011F01018B
:104F10000100000000000000000080B070000000F0
:104F2000000000000000000000000001010101017C
:104F3000010100000000000000000030300000000F
:104F400000000000000080601804006018060100E6
:104F5000000000E010080810E000000F10202010F2
:104F60000F00001010F8000000000020203F20205B
:104F700000000070080808887000003028242221F2
:104F800030000030088888483000001820202011A8
:104F90000E000000C02010F8000000070424243F89
:104FA000240000F808888808080000192120201132
:104FB0000E0000E0108888180000000F112020115A
:104FC0000E0000380808C83808000000003F000044
:104FD00000000070880808887000001C222121222F
:104FE0001C0000E010080810E0000000312222112F
:104FF0000F00000000C0C0000000000000303000C2
:105000000000000000800000000000008060000040
:105010000000000080402010080000010204081079
:105020002000404040404040400004040404040488
:105030000400000810204080000000201008040236
:105040000100007048080808F00000000030360138
:105050000000C030C828E810E000071827242314F7
:105060000B000000C038E0000000203C23020227B3
:10507000382008F8888888700000203F2020201100
:105080000E00C0300808080838000718202020103B
:10509000080008F808080810E000203F2020201031
:1050A0000F0008F88888E8081000203F20202320FF
:1050B000180008F88888E8081000203F2000030046
:1050C0000000C03008080838000007182020221E01
:1050D000020008F808000008F808203F210101211B
:1050E0003F20000808F8080800000020203F20208A
:1050F000000000000808F8080800C08080807F00D9
:10510000000008F888C028180800203F2001263831
:10511000200008F8080000000000203F2020202088
:10512000300008F8F800F8F80800203F003F003F82
:10513000200008F830C00008F808203F20000718B9
:105140003F00E01008080810E0000F102020201099
:105150000F0008F808080808F000203F21010101AD
:105160000000E01008080810E0000F182424385050
:105170004F0008F8888888887000203F2000030CC2
:1051800030200070880808083800003820212122CB
:105190001C00180808F8080818000000203F20002C
:1051A000000008F808000008F808001F2020202050
:1051B0001F000878880000C83808000007380E0172
:1051C0000000F80800F80008F800033C0700073C5E
:1051D0000300081868808068180820302C03032C0E
:1051E00030200838C800C83808000000203F2000E0
:1051F000000010080808C8380800203826212020A0
:105200001800000000FE020202000000007F404083
:105210004000000C30C00000000000000001063813
:10522000C00000020202FE000000004040407F007B
:105230000000000004020202040000000000000060
:10524000000000000000000000008080808080805E
:105250008080000202040000000000000000000046
:10526000000000008080808000000019242222229B
:105270003F2008F8008080000000003F112020112E
:105280000E000000008080800000000E1120202011
:105290001100000000808088F800000E112020100E
:1052A0003F200000808080800000001F22222222F8
:1052B0001300008080F0888888180020203F20207C
:1052C00000000000808080808000006B94949493A4
:1052D000600008F8008080800000203F210000204E
:1052E0003F2000809898000000000020203F2020F0
:1052F0000000000000809898000000C08080807F3F
:10530000000008F8000080808000203F24022D303B
:105310002000000808F8000000000020203F2020A6
:1053200000008080808080808000203F20003F201F
:10533000003F8080008080800000203F210000200E
:105340003F200000808080800000001F202020205F
:105350001F00808000808000000080FFA1202011BD
:105360000E000000008080808000000E112020A030
:10537000FF80808080008080800020203F212000EE
:1053800001000000808080808000003324242424D9
:105390001900008080E0808000000000001F2020B5
:1053A00000008080000000808000001F202020106E
:1053B0003F20808080000080808000010E30080641
:1053C000010080800080008080800F300C030C3052
:1053D0000F0000808000808080000020312E0E3180
:1053E0002000808080000080808080818E70180680
:1053F000010000808080808080000021302C2221EC
:10540000300000000000807C020200000000003F2D
:1054100040400002027C800000000040403F00004D
:10542000000000000000FF00000000000000FF007E
:10543000000004000008000000000000000200015D
:105440000000100074550008000000206C000000EF
:10545000D4010008E05500086C000020C40C0000D6
:10546000F00100081001000043000000F8FFFFFFFA
:105470000040404040404040404041414141414067
:10548000404040404040404040404040404040401C
:1054900040050202020202020202020202020202AB
:1054A00002202020202020202020200202020202B0
:1054B0000202909090909090101010101010101008
:1054C0001010101010101010101010100202020214
:1054D0000202888888888888080808080808080858
:1054E0000808080808080808080808080202020254
:1054F000400000000000000000000000000000006C
:10550000000000000000000000000000000000009B
:10551000000000000000000000000000000000008B
:10552000000000000000000000000000000000007B
:10553000000000000000000000000000000000006B
:10554000000000000000000000000000000000005B
:10555000000000000000000000000000000000004B
:10556000000000000000000000000000000000003B
:10557000000000000000010000000000000000002A
:105580000100000010000000000000000024F400F2
:10559000000000000000000000000000000000000B
:1055A00000000000000000000000000000000000FB
:1055B000000000000000000000000000AED580A840
:1055C0003FD30040A0C0DA1281CFD9F1DB40A4A6BE
:1055D0008D14AF0000000000FFFF0000000000007D
:040000050800019955
:00000001FF
