:020000040800F2
:1000000090FF002061020008CF6300083D52000805
:10001000CD6300086B130008C19D000800000000BC
:10002000000000000000000000000000A101000826
:100030009D15000800000000FD0100087176000811
:100040007B0200087B0200087B0200087B0200089C
:100050007B0200087B0200087B0200087B0200088C
:100060007B0200087B0200087B020008C91300081D
:100070007B0200087B020008D51300087B02000801
:100080007B020008E11300087B0200087B020008E5
:10009000BD1300087B0200087B0200087B020008F9
:1000A0007B0200087B0200087B0200087B0200083C
:1000B0007B0200087B0200087B0200087B0200082C
:1000C0007B0200087B0200087B0200087B0200081C
:1000D0007B020008A17E0008AD7E0008B97E000802
:1000E0007B0200087B0200087B0200087B020008FC
:1000F0007B0200087B0200083D7700087B020008B5
:100100007B0200087B0200087B0200087B020008DB
:100110007B020008257A00087B020008317700087E
:10012000ED1300087B020008F91300087B020008A9
:100130007B0200087B0200087B0200087B020008AB
:100140007B0200087B0200087B020008756700083C
:100150007B0200087B020008051400087B020008EF
:100160007B0200087B0200087B0200087B0200087B
:100170007B0200087B0200087B02000800000000F0
:100180007B0200087B020008DFF810D000F086FC3C
:100190000048004769CC0008AFF3008090FF0020C2
:1001A0002C4B19680868B0E8F04F80F30988BFF35A
:1001B0006F8F4FF0000080F311887047000000003F
:1001C00008480068006880F308884FF0000080F35A
:1001D000148862B661B6BFF34F8FBFF36F8F00DF35
:1001E00000BF00BF08ED00E0DFF80C00016841F43B
:1001F00070010160704700BF88ED00E0EFF30980F7
:10020000BFF36F8F134B1A681EF0100F08BF20ED5D
:10021000108A20E9F04F106009B44FF0500080F3CD
:100220001188BFF34F8FBFF36F8F0EF00DFA4FF0B1
:10023000000080F3118809BC19680868B0E8F04F25
:100240001EF0100F08BFB0EC108A80F30988BFF3CE
:100250006F8F704730000020EFF30580704700007B
:100260000648804706480047FEE7FEE7FEE7FEE750
:10027000FEE7FEE7FEE7FEE7FEE7FEE72177000880
:10028000890100082DE9F05F0546002092469B4653
:1002900088460646814640241BE02846414647469C
:1002A000224600F051FA53465A46C01A914110D3E3
:1002B00011461846224600F038FA2D1A67EB01085D
:1002C0004F4622460120002100F02FFA17EB0009CB
:1002D0004E41201EA4F10104DFDC484631462A4687
:1002E0004346BDE8F09F40EA01039B0703D009E0C5
:1002F00008C9121F08C0042AFAD203E011F8013B12
:1003000000F8013B521EF9D27047D2B201E000F86A
:10031000012B491EFBD270470022F6E710B51346A9
:100320000A4604461946FFF7F0FF204610BD421C5E
:1003300010F8011B0029FBD1801A70472DE9FE4FF0
:10034000804681EA0300C00F0C46009021F0004176
:1003500023F00045B8EB0200A94105D240462146F2
:1003600090461C460B46024623F00040104347D0FF
:10037000270DC7F30A00C3F30A510290401A0190F7
:1003800040286BDAC3F3130040F4801B00989246B8
:1003900020B10023D2EB030A63EB0B0B0198594603
:1003A000C0F14002504600F0C0F906460D465046E6
:1003B0005946019A00F0D8F910EB08006141002479
:1003C00087EA115284EAE7731A4340D0009A62B375
:1003D000019A012A4FEA075215DC001B61EB02016A
:1003E0004FF0004202EA0752CDE90042001C41F5FD
:1003F000801132462B4600F00FFA03B0BDE8F08FB3
:1004000040462146F9E7001B61EB0201001C41F563
:10041000801300185B412018A2F5001747EB030179
:1004200040EAD570B6196D4111E06D084FEA360605
:1004300045EAC0754FEA0752001B61EB0201001C40
:1004400041F5801149084FEA300000195141324608
:100450002B4603B0BDE8F04F00F0CFB90098012261
:1004600040000023D0EB020263EBE07300982146CA
:100470004FEAE074B8EB000061EB0401E9E783F0B8
:1004800000435BE781F0004158E72DE9FE4F81EA28
:10049000030404F0004421F0004100944FF0000BED
:1004A00023F0004350EA01045ED052EA03045BD01B
:1004B000C3F30A54C1F30A552C44A4F2F334019453
:1004C000A0FB0254C1F3130141F48011C3F31303E1
:1004D00043F4801301FB024400FB034E840A970A95
:1004E00044EA815447EA8357A4FB076802958D0AC2
:1004F00005FB07854FEA932C04FB0C542705029D4E
:100500004FEA065847EA1637B5EB08056EEB070CBD
:10051000870E920E47EA811742EA8312A7FB020177
:10052000B6EB0B0164EB00042B0D43EA0C335E18B1
:1005300044EB1C50DA465146E7FB0201C5F31304B5
:100540004FEA0B3343EA14534FEA0432019C43EA67
:100550000603A4F10C040294009CCDE900B400F061
:100560005BF903B0BDE8F08F00200146F9E72DE903
:10057000F04D81EA030404F0004B21F000451446DD
:100580004FF0000A23F0004150EA050220D054EA5F
:1005900001021DD0C5F30A570246C5F31303C1F388
:1005A0001300C1F30A5640F4801543F48013A7EBFF
:1005B0000608101BD64608F2FD3873EB050002D37F
:1005C00008F1010801E092185B41B8F1000F03DA6D
:1005D00000200146BDE8F08D00204FF48011064652
:1005E00084460EE0171B73EB050705D3121B63EB64
:1005F000050306434CEA010C49084FEA3000921803
:100600005B4150EA0107EDD152EA030012D082EAC1
:10061000040083EA0501084305D0101BAB4106D254
:100620000122002306E000224FF0004302E06FF0B9
:10063000010253101AEB06004CEB085110EB0A00B4
:1006400041EB0B01BDE8F04D00F0D7B80EB5C10F7E
:1006500080EAE0700844CA07002140F233438DE885
:100660000E000A460B4600F0D7F803B000BDC1F3F8
:100670000A5210B5C1F3130140F2FF3341F4801167
:100680009A4201DA002010BD40F233439A42A2F2AE
:10069000334203DC524200F057F810BD904010BDC9
:1006A00000F0004230F000400AD0C10D01F5607149
:1006B000C0F3160042EA0151C208400711437047D7
:1006C00000200146704701F0004330B421F00041A2
:1006D00050EA010206D00A0DA2F56072C1F31301BF
:1006E000002A02DC30BC00207047440F44EAC104F9
:1006F000C100E01830BC00EBC25000F047B830B584
:100700000B46014600202022012409E021FA02F5CF
:100710009D4205D303FA02F5491B04FA02F5284469
:10072000151EA2F10102F1DC30BD202A04DB203AC3
:1007300000FA02F1002070479140C2F1200320FA34
:1007400003F3194390407047202A04DB203A21FA32
:1007500002F00021704721FA02F3D040C2F12002DA
:100760009140084319467047202A06DBCB17203AF0
:1007700041FA02F043EAE07306E041FA02F3D040A6
:10078000C2F1200291400843194670470029A8BFD2
:100790007047401C490008BF20F00100704710B4AA
:1007A000B0FA80FC00FA0CF050EA010404BF10BC5F
:1007B000704749B1CCF1200421FA04F411FA0CF18C
:1007C00018BF012121430843A3EB0C01CB1D4FEAC5
:1007D00000614FEA102042BF002010BC704700EBC0
:1007E000C35010440029A4BF10BC7047401C4900EE
:1007F00008BF20F0010010BC704710B5141E73F143
:10080000000408DA401C41F1000192185B411A43D0
:1008100001D120F0010010BD2DE9F04D92469B461C
:1008200011B1B1FA81F202E0B0FA80F220329046C2
:10083000FFF77BFF04460F4640EA0A0041EA0B013E
:1008400053465A46084313D0114653EA010019D0C3
:10085000C8F140025046FFF777FF05460E46504666
:1008600059464246FFF761FF084305D0012004E0E6
:1008700020463946BDE8F08D0020054346EAE07683
:100880002C4337430A986305E40AA0EB08000022D2
:10089000FD0A44EA47540A3002D500200146E9E740
:1008A000010510196941DDE9084500196941BDE8F4
:1008B000F04DA2E770B521F0004303430CD0C1F323
:1008C0000A550024D5EB040564EB0403D617AD1AD2
:1008D000B34102DB0020014670BD201841EB0251FC
:1008E00070BD2DE9F04D00231A461B1A8A4103DB27
:1008F00000200146BDE8F08DC1F30A52C1F3130197
:1009000041F480154FF0000BD10702D100186D4162
:10091000521E0027044640F2FF11384601EB620ADE
:100920003E468046024600204FF48011FFF70CFF40
:10093000C2197141BB1846EB0100B4EB030C75EB17
:10094000000C04D3E41A65EB000517460E46241983
:1009500008F101006D4180463428E3DDF91946EBCA
:100960000600091BA84103D24FF0FF32134601E0F5
:10097000002213461BEB070046EB0A51BDE8F04D81
:10098000FFF73BBF2DE9F041054621F000400C4642
:10099000284309D0C4F30A5040F23341884205DDB0
:1009A00028462146BDE8F0812846FBE740F2FE31AB
:1009B000884210DC0CDB4FEA043040EA155050EA64
:1009C000053105D0104804F0004101430020E9E75B
:1009D00000200146E6E7A0F233404642C6F140025D
:1009E00028462146FFF7A1FE0746884628462146AD
:1009F0003246FFF7A9FE43463A46FFF7FEFE32466F
:100A0000BDE8F041FFF791BE0000F03FC1F30A528C
:100A1000C1F3130140F2FF3341F480119A4202DA2C
:100A200000200146704740F233439A42A2F233421B
:100A300002DC5242FFF788BEFFF777BE30B5041ED6
:100A400071F1000404DB4FF00044404264EB01010B
:100A5000141E73F1000405DB1C464FF000435242A4
:100A600063EB04038B4208BF824230BD30B5041EE5
:100A700071F1000404DB4FF00044404264EB0101DB
:100A8000141E73F1000405DB1C464FF00043524274
:100A900063EB0403994208BF904230BD064C074DFA
:100AA00006E0E06840F0010394E80700984710343E
:100AB000AC42F6D3FFF76CFBA0000108C0000108B0
:100AC00070B58C1810F8015B15F0070301D110F810
:100AD000013B2A1106D110F8012B03E010F8016B3D
:100AE00001F8016B5B1EF9D12B0705D40023521EC0
:100AF0000DD401F8013BFAE710F8013BCB1A921C28
:100B000003E013F8015B01F8015B521EF9D5A14225
:100B1000D8D3002070BD10B50146806B026C12F076
:100B2000500F05D0026CD20626D500F07FFF10BD15
:100B3000016C41F40071016401688A6812F0405F41
:100B400017D1027EAAB9CA6A12F4700F02D08A685D
:100B500052050ED44A6822F020024A60016C21F44A
:100B600080710164016CC90403D4016C41F001017E
:100B7000016400F059FF10BD806BC26CBDE81040ED
:100B80000846104710B5806B40210164416C41F06C
:100B90000401416400F04AFF10BD10B5806B00F005
:100BA00044FF10BD464910B54A6822F440324A60FD
:100BB0004A6843681A434A6001684A6822F48072AE
:100BC0004A6001684A68036942EA03224A60016890
:100BD0004A6822F040724A6001684A6883681A4392
:100BE0004A6001688A6822F400628A6001688A6843
:100BF000C3681A438A60816A6FF07062D1420168EB
:100C00008A6822F070628A6001688A680CD0836A00
:100C10001A438A6001688A6822F040528A6001683B
:100C20008A68C36A1A4301E022F040528A60016870
:100C30008A6822F002028A6001688A68037E42EABA
:100C400043028A6090F82010002901684A680FD09A
:100C500042F400624A6001684A6822F460424A60D5
:100C600001684A68174C436A04EB43331A4301E0B6
:100C700022F400624A600168CA6A22F47002CA6201
:100C80000168CA6A838B104C04EB03531A43CA628F
:100C900001688A6822F400728A6001688A6890F8A4
:100CA000303042EA43228A6001688A6822F4806216
:100CB0008A6001688A68406942EA8020886010BDC5
:100CC0000023014000E0FFFF0000F0FF10B5A0226C
:100CD0000549064800F056FFBDE81040502204497F
:100CE000044800F04FBF0000A0E30020680300208C
:100CF000E0E40020B00300202DE9F0413B4C002649
:100D0000054694F805C024A32FA2BCF1000F0BD018
:100D1000204600270079411CC9B2BCF1010F16D052
:100D2000BCF1020F34D125E030490220432DC978AF
:100D300002D0442D05D02BE02B2929D1012161714E
:100D400002E02B2924D160710126207120E01A5C79
:100D5000AA4209D00D38102808D8A5F1300009287A
:100D600002D93138192801D8012600E067712171B4
:100D7000184607E0105CA84201D1012600E0677127
:100D800021711046FFF7D3FA2179884200D16771AB
:100D9000E5703046BDE8F0812B434F4E4E4543543D
:100DA000494E473C3C58583A58583A58583A58587F
:100DB0003A58583A58580D0A2B434F4E4E45435413
:100DC00045440D0A000000002B444953433A535553
:100DD00043434553530D0A2B52454144590D0A2BA9
:100DE0005041495241424C450D0A0000100200207A
:100DF0002DE9F041484C0026054694F808E035A35B
:100E00003CA240A1BEF1000F10D02046002790F870
:100E100007C0BEF1010F0CF10100C0B223D0BEF13A
:100E2000020F36D0BEF1030F50D13FE03A48022105
:100E3000432D807904D04F2D0AD0442D0CD045E0AD
:100E40002B2803D0432841D001263FE0012006E0B3
:100E500043283BD1217203E02B2837D10320207295
:100E60000126E17132E013F80C10A9420BD0ACF16D
:100E70000D0CBCF1100F08D8A5F13001092902D9D9
:100E80001139192901D8012600E02772E0711846AE
:100E900008E012F80C10A94201D1012600E02772E7
:100EA000E0711046FFF743FAE1790CE011F80C20ED
:100EB000AA4201D1012600E02772E0710846FFF73F
:100EC00036FAE179401C884200D12772A57130467C
:100ED000BDE8F0812B434F4E4E454354494E473CAD
:100EE0003C58583A58583A58583A58583A58583A34
:100EF00058580D0A434F4E4E45435445440D0D0A74
:100F0000000000002B444953433A53554343455393
:100F1000530D0D0A00000000100200202DED068B7D
:100F2000002090B005468DF800004FF001080646FD
:100F30009FEDFE8ADFF8F8A3DFF8F8B3F0EE488AF9
:100F40008146DFEDFDAA9FEDFDAAFD4C4FF0FF327B
:100F50006946DBF800000DF00DFE0128F6D19DF882
:100F6000000009F08FF8412D08D19DF800004128BC
:100F700004D1B9F1000F01D14FF00109F1480DF191
:100F8000040C0FC88CE80F009DF80000FFF730FF3D
:100F900007469DF80000FFF7AFFE384410F0FF0F42
:100FA000D4D19DF800004B2804D04A2804D0492809
:100FB00004D005E0022102E0012100E00021884682
:100FC000DF4AA0F140010932C9B24B1E82F801800C
:100FD000072B02D8403D8D4200D10E460546D84829
:100FE000093006709FEDD80A062E31D006DC062E99
:100FF0006BD2DFE806F06A1014181B20182E4BD0B5
:1010000004DC072E35D0082E5FD135E0192E47D0ED
:101010001A2E5AD149E0CD48B0F908000FE0CB486C
:10102000B0F9080018E08DED028A1DE0C748B0F95C
:101030000800404223E0C548B0F90800404200EEF5
:10104000100AB8EEC00AC0EE0A0ACDED020A2EE080
:10105000BE48B0F90800404200EE100AB8EEC00ADF
:10106000C0EE0A0ACDED020A8DED038ACDED04AA89
:1010700021E08DED028A0AE0B448B0F9080000EEE4
:10108000900AF8EEE00A80EE8A1A8DED021A8DEDD4
:10109000038A8DED040A0EE0AC480189643102E058
:1010A000AA480189643901810FE08DED028A8DED36
:1010B000038A8DED048AB9F1000F06D0002101A842
:1010C00008F0C4FE08B14FF000099DF80000612847
:1010D0000AD062280DD063280BD0642814D065286C
:1010E00007D0662822D009E0994FB8688047F86891
:1010F0008047C821DAF81020012090479DF80000B1
:101100007B281BD07D2828D02078012818D00228E1
:101110007FF41CAF8F4FF878502821D0572824D067
:10112000787823287ED06078A07074E08748017EAC
:1011300011B100210176DCE70121FBE701202070DD
:1011400060783221B0FBF1F201FB120281499DF877
:101150000030401C8B546070F8E602202070D9E704
:10116000774801210930C1707CE0754901200931BF
:1011700088708DF804008DED028A8DED038A8DED67
:10118000048A002101A808F061FEC8200DF0D0F803
:101190000CF0F6FF6D48B0F908100591816D0691CD
:1011A000C16D079140690890042105A808F018FE58
:1011B00007460DF005F8B7BB4FF47A71DAF8102046
:1011C0004EE06178081AFFF741FA41EC110B9FEDF0
:1011D000620B09F061FD5F48A778B0EE409A384491
:1011E000F0EE609A10F8010C3038FFF72FFA53EC4C
:1011F000192BFFF74AF941EC190B18EE900AFFF78B
:101200004FFA53EC192BFFF799F8FFF75CFA08EE49
:10121000900A7F1EA770A0780428D2D24D4840784B
:10122000303801E035E01DE004281BD2DFE800F093
:1012300002090D11BDEEE80A444910EE100A0881BA
:101240000BE04248C0ED168A07E04048C0ED178A1F
:1012500003E0BCEEE80A3D4884E0DAF81020C8213B
:10126000012090473948B0F90810002901DA00211F
:1012700001814169642901D9642141610020207004
:101280006070A070F0EE488A32213248FFF744F8CF
:101290005CE600200590F0EE488A242106A8FFF7BE
:1012A0003BF860783228DDD87D2139540021F2EEF8
:1012B000040A06AB1EE000BFA0F13002092A0AD8DA
:1012C00000EE102AB0EE681AB8EEC00AF0EE408ABE
:1012D00041EE208A0CE03A280AD1059803EB800001
:1012E000C0ED008A0598F0EE488A401CC0B2059017
:1012F000491CC9B2785C7D28DED1059803EB8000DB
:10130000C0ED008A9DED060A1048BDEEC00A10EE41
:10131000101A01819DED070A80ED160A9DED080A5D
:1013200080ED170A9DED090A1AE000000000000098
:10133000C80000200C000020DB0F49BF00007A44E9
:101340001002002090FE0008DB0F493F2002002021
:1013500050010020AAE90020000000000000244005
:10136000BCEEC00A80ED050A77E7FEE730B58BB02A
:1013700001200DF04BFA104CE0602078012818D0C5
:1013800000200125CDE9060505900090019002900E
:10139000039004900E20CDE908506946606800F083
:1013A00015FD606801F09EF80221606800F094FC71
:1013B00025700BB030BD0000DC000020014800F0BB
:1013C0001CBE0000B8040020014801F019B900005B
:1013D000D0080020014801F013B90000F0090020F6
:1013E000014801F00DB9000090090020014801F00A
:1013F00007B90000F8030020014801F001B900001E
:1014000058040020014801F0FBB80000300900201A
:1014100001681823CAB2103AB2FBF3F2054B6FF31E
:101420000901032A9B5CC36500D9091D8165084633
:1014300070470000FCF3000810B5014600208B69DE
:101440008A6A4FF0C07453B1B3F5005F15D072B122
:10145000012A0CD0022A0AD0032A09D104E01AB1C9
:10146000012A06D0022A03D1C96AC90100D5012088
:1014700010BDC96AA142FAD010BD002AF7D0012AD6
:10148000F2D0022AF3D0032AF3D010BD30B504689D
:10149000256825F480252560046863608368402BF7
:1014A000036803D099600068C26030BD9A6000682C
:1014B000C16030BD0148406870470000001000E086
:1014C0000748006840F08070054908600020054921
:1014D00048600846006840F001000860704700005E
:1014E000FCED00E0001000E008B50DF089FD0A4DAC
:1014F0000A4E0B4F00244FF4FA7800902878401CD5
:10150000C0B22870022801D334803C70414668463E
:101510000CF034FFF2E70000DC020020EC020020B7
:10152000E902002070B504460021084604EB810260
:10153000491CC2F888091029F8D300224FF400652D
:10154000A118521C81F81C01AA42F9D320706070C6
:101550000121A170C4F8C80921764022A2716076E9
:1015600084F81C0984F81D1984F81F0984F81E09E1
:10157000090204F11C00FEF7CFFE294604F58E7027
:10158000FEF7CAFE122104F62610FEF7C5FE3E2124
:1015900004F63810FEF7C0FE002070BD704772B62A
:1015A000FEE70000F8B51C4C00211CA2606803692E
:1015B000084698470C2000906068194D01230021CF
:1015C00086682A781E20B04760680A2115A2036940
:1015D00000209847D5F80100022300EE100A606849
:1015E00003220A2146692020B047606814210FA217
:1015F000036900209847D5F80500022300EE100A81
:1016000060680322142145692020A847606880692A
:1016100001B0BDE8F0400047D0020020454E3A003E
:101620000CEA00205961773A000000004865693AE9
:1016300000000000002229B101291AD002291BD084
:101640004FF440720E490B6823F440730B600B6833
:1016500013430B600A6822F0F8020A600A6802234A
:1016600003EBC00002430A60086840F48030086061
:1016700070474FF48072E5E74FF40072E2E7000034
:10168000103C02401348016889050FD5016821F418
:1016900000710160016841F400610160016821F49A
:1016A00000610160016841F4007101600168490551
:1016B0000FD5016821F480610160016841F4805117
:1016C0000160016821F480510160016841F480618A
:1016D00001607047003C024008490A6822F44072E9
:1016E0000A600A6842F004020A600A684FF4803314
:1016F00043EA002002430A6070470000103C0240A9
:10170000064A136823F44073136013681360136868
:1017100043F001031360017070470000103C024069
:10172000094910B50C6824F440740C600C6844F44A
:1017300040740C600C6844F001040C600260BFF35C
:101740006F8F436010BD0000103C0240074A1368D1
:1017500023F440731360136843F4807313601368B9
:1017600043F001031360018070470000103C024009
:10177000074A136823F440731360136843F400733B
:101780001360136843F001031360016070470000A9
:10179000103C024017490868C206174805D5C269BF
:1017A00042F01002C26110220A600A68920605D552
:1017B000C26942F00802C26120220A600A68520629
:1017C00005D5C26942F00402C26140220A600A687B
:1017D000120605D5C26942F00202C26180220A6087
:1017E0000A68920705D5C26942F02002C261022050
:1017F000086070470C3C0240980A002070B51149FF
:1018000004460020C86101F033FA06460E4D09E097
:10181000601C07D024B101F02BFA801BA04201D933
:10182000032070BD2868C003F2D42868C00701D027
:1018300001202860286810F0F200F2D0FFF7AAFF1C
:10184000012070BD980A00200C3C024070B5D040C9
:1018500000F001000C460870097B002601250529CF
:101860003AD2DFE801F00337091D330088B30DF0E9
:10187000C7FB606002200AE00DF0C2FB6168401AFD
:10188000A060217829B1B0F57A7F25D90420207392
:1018900022E032281FD30DF0B3FB60600320F6E78F
:1018A0000DF0AEFB6168401AA06022784FF4C87159
:1018B000012A04D088420FD32573012070BD8842CD
:1018C000FAD2322808D92573022070BD257303206F
:1018D00070BD01E000B926730020F9E778B5002457
:1018E000009490F83C20012A19D0012280F83C2075
:1018F0000A6807230568092A13D9EE680A3A02EB39
:10190000420293409E43EE600B788A680A3B03EBE9
:1019100043039A400368DD682A43DA6010E002203E
:1019200078BD2E6902EB420293409E432E610B78F4
:101930008A6803EB43039A4003681D692A431A61CE
:101940004A681F23072A13D205686E6B521E02EBEA
:10195000820293409E436E630B790A885B1E92B2AB
:1019600003EB83039A4003685D6B2A435A6327E0C5
:1019700005680D2A12D22E6BD21F02EB8202934011
:101980009E432E630B790A88DB1F92B203EB83031D
:101990009A4003681D6B2A431A6311E0EE6A0D3A00
:1019A00002EB820293409E43EE620B790A880D3B64
:1019B00092B203EB83039A400368DD6A2A43DA623A
:1019C000164B0568144A9D4206D10D68122D03D1AD
:1019D000556845F48005556005689D4218D10B682F
:1019E000102B01D0112B13D1536843F40003536023
:1019F000096810290CD10A490A4A0968B1FBF2F1B9
:101A000001EB8101490000E0491E00910029FBD152
:101A100080F83C40002078BD0023014000200140B8
:101A20002C00002040420F0070477047704770B58F
:101A300004004FF0000503D0206C002610B107E031
:101A4000012070BD204600F01DF8666484F83C60FB
:101A5000206CC00610D4206C20F4885040F00200A6
:101A600020642046FFF79EF86664206C20F0020098
:101A700040F00100206400E0012584F83C60284625
:101A800070BD00002DE9F04786B006461421684677
:101A9000FEF742FC3548344C14383368002533498E
:101AA000032207154FF400684FF400594FF4807A71
:101AB000A34228D10B6843F480730B60096801F4DA
:101AC00080710591016841F0020101600068009297
:101AD00000F002000590CDE901256946244800F098
:101AE000BDFF254C234804F10C03C4E90005A560A3
:101AF00083E8A0072562204665622EE0B463A663F2
:101B000006B0BDE8F0871D4CA342F9D10B6843F441
:101B100000730B60096801F400710591016841F0E0
:101B2000010101600068694600F001000590022093
:101B30008DE82500124800F091FF0F4C0D486034ED
:101B4000303020604FF00070C4E9010504F10C034F
:101B5000204683E8A0072562656200F021FE002888
:101B6000CCD0FFF71CFDC9E70020014044380240FB
:101B70000004024010640240F803002000210140EC
:101B800000000240F8B5044600200E46009094F88C
:101B90003C10012907D0012184F83C1021688B6892
:101BA000DB0702D011E00220F8BD8B6843F001038F
:101BB0008B604049404B0968B1FBF3F101EB4101F7
:101BC00000E0491E00910029FBD121688B68DB05EC
:101BD00003D58B6823F480738B6021688B68DB07E7
:101BE0005DD0236C40F20165AB4343F48073236402
:101BF0004968490505D5216C21F4005141F4805113
:101C00002164216CC90404D5616C21F00601616472
:101C100000E0606484F83C00A16B2948274DC8634C
:101C2000A16B28480864A16B2748C86421686FF03D
:101C3000220008602068416841F0806141602068AE
:101C4000816841F4807181602168134632464C31CD
:101C5000A06B00F00FFE68681C49C006206806D023
:101C6000884224D1816811F0405F13D01FE0884280
:101C7000F8D0174A904203D1D1F80423D206F1D00C
:101C8000144A904213D1D1F8041301F01F01102916
:101C9000E8D30CE0816841F08041816007E0206C6E
:101CA00040F010002064606C40F00100606400208F
:101CB000F8BD00002C00002040420F00002301402E
:101CC000170B00089B0B0008850B00080020014043
:101CD000002101400022014090F82020012A07D075
:101CE000022A05D0416A41F48021416201207047F7
:101CF000006842690A43426100207047F0B590F8DD
:101D000020500468A468012D05D0022D03D0416A3B
:101D100041F4802157E014F0406F01D1E5004FD528
:101D2000C4F301640125A5401D608D684FF4C073A4
:101D30009DB1CE6835434E6845EAC605066803EB9B
:101D40000417F5514FF4C275076805EB04150E69C9
:101D50007E51097D012905D009E00E88CD6845EA4C
:101D60004655EBE701684E5946F480764E5111799D
:101D7000D579567941EA056195792D0445EA06251C
:101D800029434FF4C676056806EB0416A95111786D
:101D9000D57841EA0561957852782D0445EA02220A
:101DA00011434FF4C475026805EB041551510068E6
:101DB00003EB0411425842F0010242500020F0BDF2
:101DC000416A41F4001141620120F0BD10B590F864
:101DD0002020012A07D0022A05D0416A41F480213F
:101DE0004162012010BD3B48D0F8002242F00102C0
:101DF000C0F80022D0F8002222F47C52C0F8002261
:101E0000D0F800224B6A42EA0322C0F800220A7D81
:101E100002F01F0301229A40D0F81C329343C0F80D
:101E20001C32CB69B3B9D0F80C329343C0F80C32F2
:101E30008C894B6864F31F434C6900EBC404C4F8FD
:101E400040320C890B6864F31F434C6900EBC404F7
:101E5000C4F84432CB69012B16D1D0F80C321343AD
:101E6000C0F80C320C884B6864F31F434C6900EBDC
:101E7000C404C4F840320C89CB6864F31F434C6936
:101E800000EBC404C4F844328B69002BD0F8043250
:101E90000ED01343C0F804320B69002BD0F8143273
:101EA00008D01343C0F81432096A012904D008E0AD
:101EB0009343EFE79343F5E7D0F81C121143C0F8C2
:101EC0001C12D0F8001221F00101C0F8001200200D
:101ED00010BD000000640040704770B590F82040CD
:101EE000012C05D0022C03D0416A41F4802128E066
:101EF000046809B32469A40720D04FF4D874056896
:101F000004EB01142D5915F00405956005682D5951
:101F10001AD0ED08556005682C5904F00204D4600D
:101F20004FF4DA74056804EB01142E5906F00F061D
:101F3000082E0CD308250DE0E468DCE7416A41F483
:101F400000114162012070BD6D0D1560E3E72D5950
:101F500005F00F05156105682D59C5F30725956135
:101F600005682C59240C54614FF4DC72046802EBB0
:101F70000112A4581C700468A458240A5C700468F8
:101F8000A458240C9C700468A258120EDA704FF406
:101F9000DE72046802EB0112A4581C710468A45894
:101FA000240A5C710468A458240C9C710468A2582B
:101FB000120EDA71006829B1016941F02001016156
:101FC000002070BDC16841F02001C160F8E7024601
:101FD000002092F82010012901D002290CD11168AB
:101FE0008A68520100D501208A68120100D5401C80
:101FF0008968C90000D5401C70472DE9F05F05468F
:10200000006800244669D0F804908768D0F80CB0C6
:10201000D0F810A0D0F81880F10748D0F90714D0F4
:1020200001218160B80703D5284600F088FA0CE04A
:10203000780702D54FF4006407E0380702D54FF463
:10204000805402E0284600F079FAF80516D5296890
:102050004FF480708860B80503D5284600F071FA07
:102060000CE0780502D544F4005407E0380502D5A9
:1020700044F4804402E0284600F062FAF80316D5E2
:1020800029684FF480308860B80303D5284600F0F3
:102090005AFA0CE0780302D544F4004407E0380310
:1020A00002D544F4803402E0284600F04BFA3007B1
:1020B00007D55FEACB6004D52968102044F400748A
:1020C000C86070074FF0080707D55FEA0B7004D5AA
:1020D0002868C760284600F057F9B00706D5286879
:1020E000C068800702D0284600F050F9700607D576
:1020F0005FEACA6004D52968102044F4806408614E
:10210000B00607D55FEA0A7004D52868076128463B
:1021100000F0E4F9F00606D528680069800702D0CF
:10212000284600F0DCF9B00308D55FEAC96005D5A0
:10213000296810204860284600F0D2F9F00307D53E
:102140005FEA097004D528684760284600F0FCF96A
:10215000300446D55FEA497040D5F00504D55FEA02
:10216000C87001D044F00104B00504D55FEA88705E
:1021700001D544F00204700504D55FEA487001D52A
:1021800044F00404300529D518F0700F26D008F06B
:102190007000402815D006DC102809D020280AD06D
:1021A000302816D10AE050280ED0602811D10EE058
:1021B00044F008040DE044F010040AE044F0200468
:1021C00007E044F0400404E044F0800401E044F4FB
:1021D00080742868816921F0700181612968042078
:1021E0004860002C05D0686A204368622846FFF7E3
:1021F00073FEBDE8F09F70B5040003D094F8200092
:1022000010B104E0012070BD204600F081F8206884
:10221000016841F00101016000F02AFD0546052634
:1022200004E000F025FD401B0A2811D82068406812
:10223000C007F6D02068016821F00201016000F0BB
:1022400017FD05460BE000F013FD401B0A2806D9D8
:10225000606A40F40030606284F82060D2E7206851
:1022600040688007EFD4207E0128206801683DD0B7
:1022700021F080010160607E01282068016838D06B
:1022800021F040010160A07E01282068016833D060
:1022900021F020010160E07E0128206801682ED035
:1022A00041F010010160207F01282068016829D0D9
:1022B00021F008010160607F01282068016824D0B6
:1022C00021F004010160D4E902010843D4E90412B9
:1022D000114308436168491E08432168C861002012
:1022E0006062012084F82000002070BD41F0800170
:1022F000C0E741F04001C5E741F02001CAE721F005
:102300001001CFE741F00801D4E741F00401D9E71B
:1023100010B586B0044614216846FDF7FDFF174945
:102320002068884227D116480021026842F00072D6
:102330000260006800F000700590114810380268D3
:1023400042F0080202600068022200F008000590D6
:102350000320CDE90210CDE900020920049069466E
:10236000084800F07BFB00220521142000F04AFF02
:10237000142000F039FF06B010BD000000640040DA
:1023800040380240000C02407047000070B590B029
:102390000025019501AB04AA29460295FFF79DFD92
:1023A0000395002865D10698002862D10498454C11
:1023B000A0F5807181391AD0A0F50071023958D189
:1023C0009DF804100126227806FA01F010432070CF
:1023D000C1EBC1003C49089A08440DF10501521EA9
:1023E000FDF781FF2078C04380074AD05EE0374B7D
:1023F0000BAE0FCB86E80F00BDF8040040BA00B268
:1024000000EE100AF8EEC00A9FED310A80EE801A45
:102410008DED0C1ABDF80600B5EEC01A40BA00B238
:1024200000EE900AF8EEE01AC1EE800ACDED0D0A3A
:10243000BDF8080040BA00B201EE900AB8EEE12AF9
:10244000C2EE001AF1EE10FACDED0E1A13D1F5EE30
:10245000C00AF1EE10FA0ED1F5EEC01AF1EE10FA44
:1024600009D1A078401CC0B2A0700A2804D90A2063
:10247000A07010B070BDA57003A90BA807F0E6FC12
:1024800014E01448667005700F4825701938D0F8AC
:1024900019100161D0F81D10416190F821100176EA
:1024A000A0684168084819388847A0800398002828
:1024B000DFD009494FF080500860BFF34F8FBFF362
:1024C0006F8FD6E7E802002015EA0020A0FE000882
:1024D00000007A44DC02002004ED00E07047704701
:1024E0007047000070B5044690F82000012804D021
:1024F000606A40F40020606218E0022084F8200046
:102500002068016821F00101016000F0B1FB05467F
:102510000EE000BF00F0ACFB401B0A2808D9606A3F
:1025200040F400306062052084F82000012070BD76
:1025300020684068C007EDD1606270BD7047704789
:10254000704770477047704770472DE9F041044667
:10255000876D00F08DFB064694F8350000250228B3
:1025600006D08020606584F834500120BDE8F081F9
:102570002068016821F0160101602068416921F09E
:1025800080014161206C08B9A06C20B1206801680D
:1025900021F0080101602068016821F0010101605B
:1025A0000CE000F065FB801B052807D92020606542
:1025B000032084F8350084F83450D7E72068006899
:1025C000C007EED194F85C103F208840B86001202D
:1025D00084F8350084F834500020C7E790F83510AF
:1025E000022903D08021416501207047052180F830
:1025F00035100068016821F001010160002070477A
:102600002DE9F84304464FF00009CDF800906348E7
:102610004FF41651A56D0068B0FBF1F72E6894F8E1
:102620005C10082000FA01F131420FD021680A68DD
:1026300052070BD50A6822F004020A6094F85C1075
:102640008840A860606D40F00100606594F85C10FF
:102650004FF0010808FA01F0304208D021684969BA
:10266000090604D5A860606D40F00200606594F82A
:102670005C1004208840304208D02168096889072E
:1026800004D5A860606D40F00400606594F85C10AB
:1026900010208840304218D021680968090714D5F5
:1026A000A86020680168490304D50068000308D5C4
:1026B000A16C07E00168C90503D4016821F0080195
:1026C0000160216C09B12046884794F85C102020F5
:1026D0008840304231D021680968C9062DD5A860EC
:1026E00094F8350005282068016806D0490347D5CD
:1026F000006800031DD4616C1CE021F0160101602C
:102700002068416921F080014161206C08B9A06C0A
:1027100020B12068016821F00801016094F85C1084
:102720003F208840A86084F8358084F83490216D7B
:102730001FE0E16B09B120468847606D00282BD06F
:10274000606DC00714D0052084F83500206801684A
:1027500021F0010101600098401C0090B84203D8AC
:1027600020680068C007F6D184F8358084F834907A
:10277000E16C002910D001B02046BDE8F0430847C5
:102780000168C905D5D4016821F01001016084F801
:10279000358084F83490CCE7BDE8F8832C00002025
:1027A0002DE9F041044600F063FA06465CB10220D0
:1027B00084F83500002584F834502068016821F041
:1027C000010101600DE00120BDE8F08100F050FA48
:1027D000801B052805D920206065032084F835007A
:1027E000F2E720680068C007F0D12268116820482D
:1027F0000140D4E901031843D4E9033633431843B5
:1028000063691843A3691843E3691843236A1843AB
:102810000843616A042903D1D4E90B13194308431F
:10282000106020684069666A20F0070130460E4358
:10283000012704280CD1A06A0643E06A40B1204673
:10284000FEF7FAFD20B14020606584F83570BAE7E4
:10285000206846612046FEF7DBFD94F85C203F21AE
:1028600091408160656584F835700020ACE7000018
:102870003F8010F02DE9F0410446866D90F8340059
:10288000002501280DD0012084F8340094F835701B
:102890000020012F07D084F8340002252846BDE827
:1028A000F0810220FBE7022784F83570606520463E
:1028B000FEF7ECFD94F85C103F208840B060206883
:1028C000016841F016010160206C20B120680168A8
:1028D00041F0080101602068016841F001010160D8
:1028E000DCE7000070B5044600F0C2F90546601C44
:1028F00002D004480078044400F0BAF9401BA0421A
:10290000FAD370BD200000202DE9F047044622488C
:102910000F46017E01290AD00121804601764CF242
:1029200050394846FEF76AFF020003D02FE002202C
:10293000BDE8F0874FF0FF3038602068174D012860
:1029400001D0A6681CE0207C6168FEF7C5FE484601
:10295000FEF754FF0246286820F00400286014E0C7
:10296000217C3046FEF766FE4846FEF747FF020030
:10297000286820F0FA00286001D03E6005E0761C4F
:10298000D4E902100844B042EAD8FEF77BFE0021E9
:1029900088F818101046CBE7980A0020103C024037
:1029A0000348016841F000410160002070470000C9
:1029B000103C02402DE9F0471B4E05461446307E80
:1029C0001F468946012808D0012030764CF2503845
:1029D0004046FEF713FF18B114E00220BDE8F0876F
:1029E0009DB1012D16D0022D19D022463B464846F6
:1029F000FEF796FE4046FEF701FF0C490A6822F0FA
:102A000001020A6000213176E8E7E1B24846FEF7AC
:102A100077FEEFE7A1B24846FEF798FEEAE72146C7
:102A20004846FEF7A5FEE5E7980A0020103C024064
:102A3000074900200A68002A09DA054A054B0C3AC2
:102A40001360054B13600968002900DA0120704704
:102A5000103C024023016745AB89EFCD2DE9F84FCB
:102A6000DFF8BCA10022012503264FF00F090AF16F
:102A7000040BAAF1040E00BF0B6805FA02F4234010
:102A8000A34270D10F7907F00307012F01D0022F65
:102A900016D187684FEA420806FA08FC27EA0C07B5
:102AA000D1F80CC00CFA08FC4CEA070CC0F808C0BE
:102AB0004768A7430C79C4F3001494403C43446036
:102AC0000C79E443A4070AD0C4684FEA420C06FA22
:102AD0000CF7BC438F6807FA0CF72743C7600C79E3
:102AE00004F00304022C12D1D40800EB840CDCF8AF
:102AF00020405707FF0E09FA07F824EA0804D1F826
:102B0000108008FA07F848EA0408CCF82080046826
:102B10004FEA420C06FA0CF7BC430F7907F00307A3
:102B200007FA0CF7274307604C6814F4403F70D055
:102B30003C4C276847F480472760246822F003074D
:102B400004F480440094384C07EB040CDCF808488B
:102B500097074FEA177809FA08F7BC43334FB84292
:102B600002D1002724E054E0314FB84201D10127BF
:102B70001EE0304FB84201D1022719E02E4FB84273
:102B800001D1032714E02D4FB84201D104270FE0F3
:102B90002B4FB84201D105270AE02A4FB84201D194
:102BA000062705E0284FB84201D1072700E0082793
:102BB00007FA08F72743CCF80878DAF800405746B8
:102BC000D1F804C09C435FEACC2C00D51C433C6088
:102BD000DBF800405F46D1F804C09C435FEA8C2CD0
:102BE00000D51C433C60DEF800407746D1F804C0B5
:102BF0009C435FEA8C3C00D51C433C60084F083F77
:102C00003C68D1F804C09C435FEACC3C00D51C432F
:102C10003C60521C102AFFF42FAFBDE8F88F000073
:102C2000083C0140443802400030014000000240AE
:102C30000004024000080240000C02400010024064
:102C40000014024000180240001C024000690840C5
:102C500000D001207047426921EA02030A4043EA9A
:102C60000241816170470AB1816170470904FBE745
:102C7000014880687047000020000020D0F8DC0385
:102C800006F011B8D0F8DC0306F022B8006806F0B0
:102C9000E3BC006806F0E4BCC1EB011100EB81006D
:102CA000002200F81A2F4270C272827210467047DA
:102CB000C1EB011100EB810090F84C007047C1EBB3
:102CC000011100EB8100806B704710B5044690F84D
:102CD000D403012809D0012084F8D403206806F029
:102CE000CAFC002084F8D40310BD022010BD2DE9D9
:102CF000FF4F83B00546DDE9117690F8D403DDF887
:102D0000408093468A4601281CD0CAEB0A11012351
:102D100005EB810485F8D4334FF0000984F819904D
:102D20000698207584F815A084F826700BF07F00B3
:102D3000A07551462846FFF7AFFF5FEA0B6005D547
:102D4000E37505E0022007B0BDE8F08F84F8179026
:102D5000286806F085FC012F06D1B8F1010F03D1D8
:102D600010B9BC2E00D9BC2684F81880B0B22085DA
:102D7000CDF80080CDE9017028685A465146069B7F
:102D800006F0E4FC85F8D493DDE7D0F8DC0306F028
:102D900017B82DE9F0030E46DDE906C9DDE9087430
:102DA000C1EB061100EB81010225CA7581F82630BE
:102DB000BCF1000F0AD081F82A50002463B1012B26
:102DC00031D0022B28D0032B16D125E04FF0030879
:102DD00081F82A804C76F0E7BCF1010F0CD11AB1D2
:102DE0008A7E012A19D007E0D7B9012281F83D2057
:102DF00000E0C2B181F82A50C1F82C904F6381F8ED
:102E00004C408C634E7581F84D4082790068BDE876
:102E1000F003143106F02ABD12B191F83C20E8E726
:102E200091F83D20E5E781F82A40E5E72DE9F041FA
:102E300006680446304606F01AFC012877D120685F
:102E400006F0D0FE002872D0206806F0CBFE80028B
:102E500003D521684FF400104861206806F0C2FED7
:102E6000C00203D521684FF480104861206806F045
:102E7000B9FE400103D521684FF0806048612068A9
:102E800006F0B0FE800702D5216802204861206864
:102E900006F0A8FE800018D521684FF00050486168
:102EA000D6F84004C00710D11021304606F096FB3A
:102EB000304606F077FB607A022803D101212068B2
:102EC00006F06CFE2046FFF7DDFE206806F08AFE65
:102ED000C00102D5204602F024F9206806F082FEE7
:102EE000000705D5204600F0C8F821680820486191
:102EF000206806F077FE800124D5206806F0B2FC39
:102F0000074600254FF0010815E000BF05F00F014E
:102F100008FA01F038420DD006EB4510D0F8000554
:102F2000E9B20004204603D501F0C2FD02E01CE036
:102F300001F07CFF6D1C6079A842E7D821684FF052
:102F400000704861206806F04DFEC043C0060CD4F6
:102F50002068816921F010018161204602F02BF97F
:102F60002068816941F010018161BDE8F081F8B508
:102F7000040005D094F8D5032568002610B106E0BA
:102F80000120F8BD84F8D463204600F029F803201E
:102F900084F8D503B5F1A04F00D1A671206806F0E2
:102FA000CDFA207C8DF8000094E80F0006F066FA58
:102FB000022560B90121206806F050FE38B9207C56
:102FC0008DF8000094E80F0006F080FD10B184F841
:102FD000D553D5E7012084F8D5030020F8BD0000C3
:102FE00010B586B0044614216846FDF795F92068AF
:102FF000B0F1A04F2FD119480021026842F0010220
:103000000260006800F0010005904FF4C05000908D
:103010000220CDE90101032003900A2004906946B3
:103020000F48FFF71BFD0D48001D016841F08001AE
:1030300001600A481430016841F480410160006871
:10304000002200F4804005900521432000F0DAF8CA
:10305000432000F0C9F806B010BD0000303802402F
:1030600000000240D0F8DC0305F0C7BED0F8DC0356
:1030700005F0C7BE006806F0D8BDD0F8DC0305F047
:1030800067BE10B5044690F8D40301280DD0012086
:1030900084F8D4030121206806F068FA206806F05D
:1030A0007BFA002084F8D40310BD022010BD10B5B7
:1030B000044690F8D403012809D0012084F8D403F1
:1030C000206806F0F9FD002084F8D40310BD02202A
:1030D00010BD000002488168027811448160704789
:1030E000200000200B4810B5016841F40071016018
:1030F000016841F480610160016841F48071016000
:10310000032000F09FF8002000F006F800F050F8CF
:10311000002010BD003C024030B505461F4887B076
:103120000024016841F020010160006806A900F058
:103130002000009001A800F031F90498A8B100F037
:103140004DF940001649174AB0FBF1F11648491EE7
:10315000026040F2E732C0E90324C0E9011484614F
:1031600000F0B6FB040003D015E000F037F9E9E702
:103170000D4800F053FC04000DD1372000F034F866
:10318000102D07D200222946372000F03BF80748CF
:10319000056000E0012407B0204630BD4038024001
:1031A00040420F0000140040500A0020240000207C
:1031B0000C4882B0016841F480410160006800F46D
:1031C000804000900748001F016841F08051016075
:1031D0000068002200F0805000900F21901E02B085
:1031E00000F010B844380240002809DB00F01F024C
:1031F000012191404009800000F1E020C0F8001159
:1032000070470000F0B40E4B1B680C46C3F302235A
:10321000C3F10705042D00D90425191D072901D282
:10322000002300E0DB1E012606FA05F1491E2140BD
:1032300099409E40761E16403143F0BC06F0A5BF73
:103240000CED00E0064900F0070208684FF6FF03A6
:10325000184040EA0220034A10430860704700000B
:103260000CED00E00000FA052DE9F0470E460500E0
:1032700065D0DFF81481D8F80000F7B200F007003D
:10328000B04207D288F80070D8F8000000F00700BC
:10329000B04254D128683D4C810712D5400703D570
:1032A000206840F4E05020602878000703D52068AB
:1032B00040F4604020602068A96820F0F0000843D6
:1032C00020602878C0072DD0304968680839012867
:1032D00012D0022813D0032811D0096889070029C9
:1032E0002DDA216821F0030101432160FFF7C0FCC2
:1032F000814641F2883A0EE009688903EFE70968E0
:103300008901ECE7FFF7B4FCA0EB0901514502D9B4
:103310000320BDE8F0872068696800F00C00B0EB7E
:10332000810FEFD1D8F80010404601F00701B142FB
:1033300007D90770006800F00700B04201D00120F3
:10334000E7E72878400705D52068E96820F4E050D1
:10335000084320602878000706D52068296920F4F2
:10336000604040EAC100206000F058F82168084A37
:10337000C1F30311515CC840064908600648006863
:10338000FFF7CAFE0020C4E7003C024008380240B4
:1033900004F400082C000020240000200F2202600A
:1033A0000C4A136803F003034360136803F0F0034F
:1033B0008360136803F4E053C36012684FF4E05372
:1033C00003EAD20202610448006800F007000860C6
:1033D0007047000008380240003C0240044805499C
:1033E00000680968044AC1F38221515CC8407047F3
:1033F0002C0000200838024014F400080448054955
:1034000000680968044AC1F34231515CC840704702
:103410002C0000200838024014F40008154810B5AC
:10342000006810F00C02144813D04110042A0FD089
:10343000082A0ED10F4C241F2268236802F03F0295
:103440005B0207D52068C0F38810A0FB010106E0ED
:10345000084610BD2168C1F38811A1FB00010023BB
:10346000FCF710FF2168C1F30141491C4900B0FB82
:10347000F1F010BD083802400024F4002DE9F84FA7
:1034800004006ED02078DFF84C93C007A9F1040542
:103490004AD009F104000168C1F38101012908D073
:1034A0000068C0F3810002280AD1D9F80000400268
:1034B00006D52868800337D560680028E1D033E05E
:1034C0006068B0F5803F10D0B0F5A02F286810D00C
:1034D00020F480302860286820F48020286060680C
:1034E000A8B1FFF7C5FB06460DE0286840F4803020
:1034F000F4E740F480202860F7E700BFFFF7B8FB4F
:10350000801B642873D828688003F7D50CE0FFF788
:10351000AFFB064605E000BFFFF7AAFB801B64284F
:10352000F0D828688003F7D42078DFF8AC828007D1
:103530004FF0000A3ED5A748001D016811F00C0F9E
:1035400008D00068C0F3810002280BD1D9F8000030
:10355000400207D42868800716D5E068012800D10A
:1035600012E033E1E068B8B10120C8F80000FFF7CD
:103570007FFB064605E000BFFFF77AFB801B0228B1
:10358000C0D828688007F7D52868216920F0F8009E
:1035900040EAC10028600DE0C8F800A0FFF768FB12
:1035A000064604E0FFF764FB801B02281FD828684A
:1035B0008007F7D42078000722D5864F87486169B5
:1035C000703771B101210160FFF752FB064604E03C
:1035D000FFF74EFB801B022809D838688007F7D513
:1035E0000EE0C0F800A0FFF743FB064605E082E0CE
:1035F000FFF73EFB801B02287DD838688007F7D490
:103600002078400768D5DFF8CCB100270BF13C0BE0
:10361000DBF80000C0000BD4DBF8001041F0805153
:10362000CBF80010DBF80000012700F0805000907C
:103630006B4E3068C00510D4306840F48070306044
:10364000FFF716FB009005E0FFF712FB0099401A08
:10365000022850D83068C005F6D55E4EA0686C369A
:1036600001280FD00528306810D020F0010030600C
:10367000306820F004003060A068B8B1FFF7F8FAB5
:1036800000900FE0306840F00100F4E740F00400E3
:103690003060F7E7FFF7ECFA0099411A41F2883001
:1036A000814266D830688007F4D50EE0FFF7E0FA73
:1036B000009007E0FFF7DCFA0099411A41F28830E8
:1036C000814256D830688007F4D42FB1DBF800105F
:1036D00021F08051CBF80010A069C8B33D49091D05
:1036E0000968C1F3810102294AD00228504607D057
:1036F000C8F8600000E03CE0FFF7BAFA04463BE09F
:103700004746C8F86000FFF7B3FA064605E000BF79
:10371000FFF7AEFA801B02282BD828688001F7D467
:10372000D4E907010843A16A2E4A490802EB014186
:10373000626A41EA8211084394F82C1040EA016160
:10374000C9F8001001203866FFF792FA044606E037
:103750003EE000BFFFF78CFA001B022809D828685A
:103760008001F7D534E000BFFFF782FA001B022882
:1037700002D90320BDE8F88F28688001F4D427E03F
:103780000128F7D0D9F80000E26900F480019142E5
:103790001CD1226A00F03F01914217D147F6C07157
:1037A000626A0140B1EB821F10D1A26A4FF0FF3371
:1037B00000F4403103EB5202B1EB024F06D194F812
:1037C0002C1000F07060B0EB016F01D00120D1E748
:1037D0000020CFE70438024000004742800E4742F5
:1037E000007000400000FFFF7047704710B590F870
:1037F0003C20012A22D0012280F83C20CA688C6833
:1038000022F4407222434C6822F4806222430C6806
:1038100022F4006222430C6922F4805222434C6954
:1038200022F400522243C969002322F480420A4351
:1038300001684A6480F83C30002010BD022010BDB1
:1038400070B590F83C20012A32D0012480F83C4029
:10385000022280F83D2003685A689D6822F07006B5
:103860000A6832435A60134B02689A4214D0B2F18C
:10387000804F11D0104B9A420ED0104B9A420BD071
:103880000F4B9A4208D00F4B9A4205D00E4B9A42EA
:1038900002D00E4B9A4204D1496825F080031943A7
:1038A000916080F83D40002180F83C10084670BDD2
:1038B000022070BD000001400004004000080040EC
:1038C000000C00400004014000400140001800408E
:1038D00010B5040003D094F83D0010B107E00120BA
:1038E00010BD002084F83C00204600F01FF80220A4
:1038F00084F83D00211D206803F022FF012084F898
:10390000460084F83E0084F83F0084F8400084F8C4
:10391000410084F8420084F8430084F8440084F8AD
:10392000450084F83D00002010BD000008B5184A8D
:1039300001681848914207D1016841F00101016016
:10394000006800F001000BE0134A91420AD11148CF
:10395000001F016841F010010160006800F01000D4
:10396000009008BD0D4A914207D1016841F4003131
:103970000160006800F40030F2E7094A9142F0D19A
:10398000016841F480210160006800F48020E7E7CD
:103990000000014044380240001000400044014053
:1039A0000048014090F83D10012901D001207047E6
:1039B000022180F83D1000681149884214D0B0F10E
:1039C000804F11D00F4988420ED00F4988420BD04A
:1039D0000E49884208D00E49884205D00D498842D8
:1039E00002D00D49884204D1816801F007010629FF
:1039F00003D0016841F00101016000207047000020
:103A0000000001400004004000080040000C00409D
:103A100000040140004001400018004090F83D10B3
:103A2000012901D001207047022180F83D10016872
:103A3000CA6842F00102CA6000681149884214D085
:103A4000B0F1804F11D00F4988420ED00E49884204
:103A50000BD00E49884208D00D49884205D00D4947
:103A6000884202D00C49884204D1816801F00701E4
:103A7000062903D0016841F0010101600020704770
:103A8000000001400004004000080040000C00401D
:103A900000040140004001400018004070B5044699
:103AA00090F83C000025012817D0012684F83C60DE
:103AB000022084F83D002068826822F0770222F418
:103AC0007F4282600868502838D00DDC20284FD013
:103AD00005DC90B3102811D14AE0022070BD3028D7
:103AE00046D040280AD13BE060282FD070280DD066
:103AF000B0F5805F03D0B0F5005F12D0012584F8E7
:103B00003D60002084F83C00284670BDCB68D1E9B8
:103B10000121206803F08DFE2068816841F0770163
:103B200009E0CB68D1E90121206803F082FE20681A
:103B3000816841F480418160E1E719E0CA68496821
:103B4000206803F04BFF5021206806E0CA684968EE
:103B5000206803F054FF6021206803F074FECEE774
:103B6000CA684968206803F039FF40212068F4E7FB
:103B7000226801461046F0E72DE9F0410D460400A9
:103B800003D094F83D0018B108E00120BDE8F081B1
:103B9000002084F83C00204600F040F8022084F821
:103BA0003D002068816844F2070291438160211D35
:103BB000206803F0C5FD226890689169166A2B6839
:103BC000AF69034340F20330814341EA0721A8680B
:103BD000EF6908434FF6FC418843E96840EA072053
:103BE000014328692F6A000140EA073008436968E9
:103BF0006D6926F0AA0646EA0515294393602268F6
:103C0000906154F8460B0162012004F81F09E07529
:103C10002076E0762077A0750020B7E7F0B587B072
:103C2000044614216846FCF777FB354922680024D6
:103C3000334810390225334EB2F1804F14D0324B45
:103C40009A4241D1026842F002020260006800F02C
:103C500002000590086840F002000860086800F063
:103C600002000590302043E0026842F00102026049
:103C7000006800F001000590086840F0010008604D
:103C8000086800F001000590086840F00200086034
:103C90000868012700F0020005904FF400400090F2
:103CA000CDE90154CDE9034769461848FEF7D6FE31
:103CB00008200090CDE90154CDE90347694630461C
:103CC000FEF7CCFE07B0F0BD114B9A42FAD1026864
:103CD00042F004020260006800F0040005900868E9
:103CE00040F002000860086800F002000590C02063
:103CF0000090CDE9015469463046CDE90345DFE740
:103D0000403802400004024000040040000002402D
:103D10000008004070B590F83E60044690F83F50AF
:103D200090F8423090F84320022021B104290ED0AF
:103D3000012E1BD114E0012E18D1012B16D184F8CD
:103D40003E0084F8420001220021206820E0012D7D
:103D50000CD1012A0AD184F83F0084F8430014E012
:103D6000012D03D1012B01D1012A01D0012070BD09
:103D700084F83E0084F83F0084F8420084F8430051
:103D800001220021206803F047FD01220421206860
:103D900003F042FD2068016841F00101016000204C
:103DA00070BD70472DE9F04104460068C66805699A
:103DB0004FF00007A90713D5B10711D5F91E01610E
:103DC00001202077206880698007204602D0FFF715
:103DD000E8FF04E000F035F9204600F035FA2777D7
:103DE000680716D5700714D521686FF004000861C4
:103DF000022020772068806910F4407F204602D09E
:103E0000FFF7CFFF04E000F01CF9204600F01CFA99
:103E10002777280715D5300713D521686FF00800DC
:103E20000861042020772068C0698007204602D0FE
:103E3000FFF7B7FF04E000F004F9204600F004FAB1
:103E40002777E80616D5F00614D521686FF0100024
:103E50000861082020772068C06910F4407F204660
:103E600002D0FFF79EFF04E000F0EBF8204600F0E0
:103E7000EBF92777E80708D0F00706D021686FF044
:103E800001000861204600F045FA280608D53006F2
:103E900006D521686FF0800008612046FFF7A4FC7A
:103EA000680608D5700606D521686FF040000861E5
:103EB000204600F039FAA8060AD5B00608D52168D0
:103EC0006FF0200008612046BDE8F041FFF78DBC8F
:103ED000BDE8F08170B586B0044614216846FCF751
:103EE0001BFA2468384D0022384902233848AC4276
:103EF00010D10A6842F010020A600968029301F0CA
:103F0000100105914FF4D441CDE900130121CDE911
:103F1000033157E02F4E0325B44213D1086840F017
:103F2000040008600868694600F00400059040201D
:103F30000090CDE9013228482FE000BFFEF78EFD4A
:103F400006B070BD254EB44209D10C6844F010048F
:103F50000C60096801F010010591602119E0204E04
:103F60002048B44209D10C6844F002040C6009688E
:103F700001F00201059181150BE01B4EB4420FD1F7
:103F80000C6844F002040C60096801F0020105911C
:103F900071150091CDE901326946CDE90325CDE7E0
:103FA000124DAC42CCD10C6844F002040C6009689C
:103FB00001F002010591E9130091CDE901320921D7
:103FC000CDE903216946B9E70000014030380240DD
:103FD000001002400004014000080240004001407F
:103FE0000044014000040240004801400018004025
:103FF00070B5044690F83C00002501280FD0012040
:1040000084F83C006AB1042A0FD0082A11D00C2A87
:1040100013D00125002084F83C00284670BD022002
:1040200070BD206803F018FCF4E7206803F044FC3E
:10403000F0E7206803F076FCECE7206803F0A6FCCC
:10404000E8E7704710B5040003D094F83D0010B1C4
:1040500007E0012010BD002084F83C00204600F05D
:104060001FF8022084F83D00211D206803F068FB42
:10407000012084F8460084F83E0084F83F0084F86C
:10408000400084F8410084F8420084F8430084F83A
:10409000440084F8450084F83D00002010BD000075
:1040A00008B500680B49884212D10B48016841F0FD
:1040B000020101600068002200F00200009005216A
:1040C0002E20FFF79FF8BDE808402E20FFF78CB8A0
:1040D00008BD0000000401404438024070B50446A9
:1040E00090F83C0000260D4601280FD0012084F8EE
:1040F0003C006AB1042A1DD0082A2FD00C2A3FD0D8
:104100000126002084F83C00304670BD022070BDBE
:10411000206803F0A1FB2068816941F008018161FA
:104120002068816921F004018161206881692A6920
:10413000114311E0206803F0BFFB2068816941F45E
:10414000006181612068816921F48061816120685A
:1041500081692A6941EA02218161D2E7206803F07E
:10416000E1FB2068C16941F00801C1612068C169B3
:1041700021F00401C1612068C1692A69114311E07D
:10418000206803F003FC2068C16941F40061C1614B
:104190002068C16921F48061C1612068C1692A6910
:1041A00041EA0221C161ACE710B5040003D094F8E4
:1041B0003D0010B107E0012010BD002084F83C0054
:1041C000204600F01FF8022084F83D00211D2068E1
:1041D00003F0B6FA012084F8460084F83E0084F823
:1041E0003F0084F8400084F8410084F8420084F8DD
:1041F000430084F8440084F8450084F83D00002022
:1042000010BD000008B500680C49884208D10C4870
:10421000016841F480310160006800F480300BE0F7
:104220000849884209D10648001F016841F0400151
:104230000160006800F04000009008BD00400140AF
:1042400044380240001800407047000010B5044692
:10425000022249B104290ED0082913D094F8410054
:10426000012816D0012010BD94F83E000128F9D194
:1042700084F83E200FE094F83F000128F2D184F842
:104280003F2008E094F840000128EBD184F840205A
:1042900001E084F841200122206803F0BDFA1649AC
:1042A0002068164A884201D0904203D1436C43F4FF
:1042B000004343642068884213D0B0F1804F10D08F
:1042C0000F4988420DD00F4988420AD00E498842D2
:1042D00007D0904205D00D49884202D00C4988424F
:1042E00004D1816801F00701062903D0016841F07B
:1042F00001010160002010BD0000014000040140E8
:104300000004004000080040000C00400040014054
:104310000018004000680349884201D1FEF7DABE68
:104320007047000000140040704738B5044690F80C
:104330004200202801D0022038BD61B15AB10120CD
:10434000206300206063204603F00EFD0028F3D1B7
:10435000216B012901D0012038BD21680A68496814
:10436000009121680C3151E8002F42F0100241E821
:104370000023002BF5D138BD08B500220092114A68
:1043800090421ED190F8420020281AD10E480068B1
:1043900038B10E4A0023A2F8C8106A460B490AF049
:1043A00089FBC82209490748FFF7BFFF009800288A
:1043B00007D007494FF080500860BFF34F8FBFF31D
:1043C0006F8F08BDB00700201400002040E60020D9
:1043D00004ED00E070470000F8B501680446086885
:1043E000CA684B6910F00F0F4FF0000559D003F069
:1043F000010602F49077374365D0C10705D0D10597
:1044000003D5616C41F001016164410705D5D9070D
:1044100003D0616C41F002016164810705D5D907C1
:1044200003D0616C41F004016164010707D502F01B
:104430002001314303D0616C41F008016164616C7B
:1044400000293AD0800604D5900602D5204603F014
:10445000A3FB20684069616CC0F38010090700D499
:1044600060B3204603F063FB20684069400621D515
:104470002068143050E8001F21F0400140E800128D
:10448000002AF5D1E06BA8B16E490165E06BFEF73B
:10449000A5F8002811D0E06B016D01B0BDE8F04037
:1044A000084783060FD593060DD52046BDE8F84092
:1044B00003F072BB2046FFF78DFFF8BD2046FFF7E3
:1044C00089FF6564F8BD266B2023012E7DD1C606C9
:1044D0007BD5D60679D508684868009048694FF0C2
:1044E0000206400641D5E16B086840680004000CF4
:1044F000E8D0A28D8242E5D9E085C869B0F5807F19
:104500002DD020680C3050E8001F21F4807140E865
:104510000012002AF5D12068143050E8001F21F065
:10452000010140E80012002AF5D12068143050E85B
:10453000001F21F0400140E80012002AF5D184F864
:104540004230256320680C3050E8001F21F0100134
:1045500040E80012002AF5D1E06BFDF7F6FF666334
:10456000A08DE18D401A81B22AE0A08DE18D401A24
:1045700081B2E08D0028A5D00029A3D022680C329A
:1045800052E8000F20F4907042E80007002FF5D1A8
:104590002068143050E8002F22F0010240E8002784
:1045A000002FF5D184F84230256320680C3050E8A4
:1045B000002F22F0100240E80023002BF5D16663A3
:1045C0002046FFF7D9FEF8BDFFE705062BD51506F7
:1045D00029D594F841002128F5D1A068B0F5805F75
:1045E00001D12069B0B1206A411C216221680078A4
:1045F0004860E08C401E0004000CE084E3D1206899
:10460000C16821F08001C1602068C16841F04001AB
:10461000C160D8E7206A0088C0F308004860206ABB
:10462000801C2062E5E74006CDD55006CBD5CA6890
:10463000204622F04002CA6084F8413000F037FA88
:10464000C1E70000317A000870B5040004D094F886
:104650004100002510B106E0012070BD84F84050F3
:10466000204600F023F8242084F841002068C16827
:1046700021F40051C160204603F0F0FA206801697E
:1046800021F4904101612068416921F02A014161D2
:104690002068C16841F40051C1606564202084F83D
:1046A000410084F842006563002070BD2DE9F04FA1
:1046B00087B0054614216846FBF72EFE9F48DFF8B9
:1046C000788210380221D5F800C000249B4B0322C9
:1046D000DFF86CB28E060715C44557D1D3F800C079
:1046E0004CF4801CC3F800C01B6803F480130593CE
:1046F000036843F004030360036803F004030593B5
:10470000036843F0080303600068894600F008006E
:104710000590C802CDE900090DF1080C90464FF054
:10472000080A8CE8100569468648FEF797F90420C8
:10473000CDE900090DF10809694689E810055846D8
:10474000FEF78CF9DFF804827F494046C8F8001074
:10475000C0E90164C0E90347C8F81440C8F818402C
:10476000C8F81C40C8F82040C8F82440FEF718F8E4
:1047700008B1FCF714FFC5F83C8000220521352064
:10478000C8F83850FEF73EFD352048E0DFF8C0811C
:104790004FF007094FF0400AC44545D1674B1B1D38
:1047A000D3F800C04CF0100CC3F800C01B6803F035
:1047B00010030593036843F001030360006800F0F1
:1047C000010005904FF4C0608DE81300CDE9032986
:1047D00069466048FEF742F9DFF870815E4908F1EA
:1047E00060084046C0E90347C8F81440C8F81840BC
:1047F000C8F81C40C8F8204088E84204C8F82440A3
:10480000FDF7CEFF08B1FCF7CAFEC5F838800022DC
:1048100005212520C8F83850FEF7F4FC2520FEF7C6
:10482000E3FC07B0BDE8F08FDFF83081C4453FD12D
:10483000D3F800C04CF4003CC3F800C01B6803F47C
:1048400000330593036843F008030360006800F039
:104850000800059060208DE81300CDE90329694622
:104860005846FEF7FBF8DFF8E480374908F1C00846
:1048700040469031C0E90347C8F81440C8F81840D2
:10488000C8F81C40C8F8204088E84204C8F8244012
:10489000FDF786FF08B1FCF782FEC5F838800022DC
:1048A00005212620C8F83850FEF7ACFC2620B6E7D4
:1048B000DFF8AC80C445B4D1D3F800C04CF4802CF0
:1048C000C3F800C01B6803F480230593036843F01A
:1048D00008030360006800F0080005904FF4407082
:1048E0008DE81300CDE9032969465846FEF7B6F86E
:1048F000DFF87080144940464831C0E90347C8F8E2
:104900001440C8F81840C8F81C40C8F8204088E88F
:104910004204C8F82440FDF743FF08B1FCF73FFE0E
:10492000C5F83880002205212720C8F83850FEF746
:1049300069FC272073E70000005000404038024027
:10494000000C02400008024010600240D008002025
:104950000010014000000240B864024000440040E2
:1049600000480040F009002090F84230202B01D090
:104970000220704721B11AB10023036303F03CBA4F
:104980000120704738B500210091184988420BD1A9
:104990001748006820B100236A4616490AF08AF8D1
:1049A00001221449114813E0134988421DD1134CC8
:1049B000012020701248006838B100236A4611496E
:1049C0000AF078F80AF022FB606001220D490A48DB
:1049D000FFF7CAFF0098002807D00B494FF080501E
:1049E0000860BFF34F8FBFF36F8F38BD40080020C2
:1049F0000C0000200400002088080020E0020020B5
:104A0000100000200500002004ED00E070472DE9B3
:104A1000F843044690F84100984616460D46202873
:104A200002D00220BDE8F88385B17EB10020606429
:104A3000212084F84100FEF71BF9A6848146E68414
:104A4000A0682027B0F5805F02D003E00120E9E7ED
:104A5000206910B12E4600250EE000260CE08021D2
:104A6000204603F0E4F9A8B9C6B116F8010B216895
:104A70004860E08C401EE084E08C4B464FF0000222
:104A8000CDF800800028EAD14FF04001204603F025
:104A9000CEF940B184F841700320C3E735F8020B2A
:104AA000C0F30800E3E784F841700020BAE77047DC
:104AB0002DE9F05F054600680E46074605F08AF8C6
:104AC000C6EB061140074FF007084FF0040905EB4D
:104AD000810401D5484633E03146286805F07AF86C
:104AE000C0054FF0080A08D507EB46114FF4807057
:104AF000C1F8080584F84DA028E03146286805F083
:104B000069F8000705D507EB4611C1F808A506208E
:104B10000CE03146286805F05DF8400509D507EB43
:104B200046114FF48060C1F80805092084F84D0053
:104B30000CE03146286805F04DF800060AD58020C3
:104B400007EB4611C1F8080584F84D803146286806
:104B500004F091FD3146286805F03CF8800528688E
:104B6000314604D504F087FD4FF4007059E105F09B
:104B700031F8C0074FF0200B4FF0010A4FF000084A
:104B80004ED007EB4617C7F808B5E07E012807D1DD
:104B900084F81B80D7F8040520F48030C7F804059A
:104BA000A87930B1206BD7F81015C1F31201401A63
:104BB000A06384F84DA0C4F844805246C7F808A505
:104BC00094F8260030B1022804D003280AD0012826
:104BD00008D013E03146286804F04DFD1020C7F8D6
:104BE00008050BE0D7F8000540F00050C7F80005B5
:104BF00084F84C2031462846FEF7C7F8A8790128EA
:104C000007D1208DA16B0144491EB1FBF0F0C00714
:104C100004D014F83C0F80F001002070BDE8F09F34
:104C20003146286804F0D6FF80060CD507EB461104
:104C3000C1F808B5A07E0128F0D184F81BA003209C
:104C400084F84D00B4E03146286804F0C3FF8007C3
:104C50004FF0050B75D507EB46100221C0F808157B
:104C600094F84D20012A16D0062A19D0072A1CD004
:104C7000092A1AD0052A33D0032A63D0042A7DD00A
:104C8000082A7ED0022AC9D094F84C203146284602
:104C9000FEF77BF8C2E784F84D1084F84CA0F3E7E8
:104CA00084F84D1084F84CB0EEE784F84D10626C37
:104CB000521C6264022A10D9C4F84480A27E414684
:104CC000012A07D1E1762177D0F8041521F480314B
:104CD000C0F8041584F84C90D6E784F84C1022E014
:104CE00084F84D10E27E012ACED194F82620032AC2
:104CF000F3D1A26C521CA264022A11D9C4F84880D4
:104D000084F81B80616C032901D284F81CA0D0F8C0
:104D1000041521F48031C0F8041584F84C9002E0A9
:104D200084F84C10B0E794F8261009B10229ABD1F1
:104D3000D0F8001521F0804141F00041C0F8001585
:104D4000A2E724E084F84D10E27E012A9CD184F889
:104D50004C10D0F8041541F48031C0F80415D0F897
:104D60000C1541F04001C0F80C15D0F80C1521F0DD
:104D70002001C0F80C15D6E700E002E084F84D10E1
:104D8000ABE784F84D10606C401C6064A2E73146CC
:104D9000286804F01FFF400610D507EB461140209D
:104DA000C1F8080584F84DB0A07E08B9C4F8448065
:104DB00031462868BDE8F05F04F05DBC31462868E4
:104DC00004F008FFC0067FF565AF94F826000328BD
:104DD00003D028B1022803D00FE0C4F8448006E0D5
:104DE000C4F84480A87910B1E07E012818D184F875
:104DF0004D903146286804F03EFCE07E01280FD13A
:104E000007EB461084F81B80D0F8041521F480319C
:104E1000C0F80415D0F80C1541F02001C0F80C15AD
:104E2000102007EB4611C1F80805F7E62DE9F05F01
:104E3000054600680F46064604F0CCFEC7EB071196
:104E400040074FF0040A05EB810405D506EB471136
:104E5000C1F808A5072089E03946286804F0BAFEA1
:104E600080064FF000084FF001094FF0020B28D5E3
:104E700006EB47112020C1F80805607E03260128B3
:104E800009D184F8198084F84CB084F84D60394613
:104E9000286804F0F0FBA07E012810D1E07E0028F5
:104EA0000DD194F82600012801D084F81B9084F8D5
:104EB0004D603946286804F0DEFBC4F84480BDE844
:104EC000F09F3946286804F085FE800506D506EB7C
:104ED00047114FF40070C1F8080549E039462868C9
:104EE00004F078FEC00720D0C4F844803946286812
:104EF00004F070FE400606D506EB471184F81990C1
:104F00004020C1F80805E07E48B106EB471084F860
:104F10001B80D0F8041521F48031C0F8041506EB8D
:104F200047114846C1F8089520E03946286804F042
:104F300051FE40060ED5052084F84D00A07E08B92C
:104F400084F81990C4F844803946286804F093FB2B
:104F5000402028E03946286804F03CFE00070DD5C3
:104F600006EB47110820C1F80805062084F84D001B
:104F700039462868BDE8F05F04F07DBB39462868F3
:104F800004F028FEC00613D5C4F8448084F84DA070
:104F9000607E18B9207E08B984F8199039462868CF
:104FA00004F069FB102006EB4711C1F8080586E7FD
:104FB0003946286804F00EFE000626D5A87970B19F
:104FC000606C401C6064022811D9C4F844805246C9
:104FD00084F84CA039462846FDF7D7FE13E0072099
:104FE00084F84D003946286804F045FB0BE006EBD9
:104FF000471084F84CB0D0F8001521F0804141F002
:105000000041C0F800158020CDE73946286804F03B
:10501000E1FD400509D5092084F84D00394628688E
:1050200004F029FB4FF48060BDE73946286804F09E
:10503000D1FD8007BBD506EB47125846C2F808B52C
:1050400094F84D10012917D003293AD004293ED0F5
:1050500005294CD006294DD0072901D00929A6D110
:1050600084F84D00616C491C6164022948D9C4F878
:10507000448084F84CA04DE084F84D0084F84C90B6
:1050800094F82600022801D0032843D1A87928B932
:1050900094F83D0080F0010084F83D00A8790128D3
:1050A00038D1606B10B3218D0844401EB0FBF1F085
:1050B000C0072FD094F83D0080F0010084F83D0037
:1050C00028E084F84D00E17E012916D022E084F822
:1050D0004D0084F84C00E07E01281BD184F81B8031
:1050E000D2F8040520F48030C2F8040512E084F8F8
:1050F0004D0002E084F84D00052084F84C0009E0E2
:1051000084F84C00D2F8000520F0804040F00040C8
:10511000C2F8000594F84C2039462846FDF735FEC4
:10512000CDE67CB504680546D4F840040190D4F877
:10513000400420F02E0000900198800709D50198C6
:10514000C00702D02846FDF799FD009840F0020004
:1051500000900198000724D5009840F008000090C6
:10516000019840071AD5687A022803D0E879012807
:105170000CD00FE00198C0F341400228286803D00A
:10518000012104F00BFD05E00221FAE74EF6602054
:10519000C4F804042846FDF769FF02E02846FDF73D
:1051A00061FF01988006009802D540F02000009031
:1051B000C4F840047CBD2DE9F04102460068064673
:1051C000016AC1F3434301F00F07C1F30A15022B33
:1051D0002ED1002D2CD0C7EB071102EB8104E16A20
:1051E000002925D0A26B636B2A449A4222D82A4612
:1051F00004F0FCFCE06A2844E062A06B2844A06351
:1052000006EB4710D0F81015228DC1F3C941AA4210
:105210000ED100290CD0D0F8001521F0804141F0CA
:105220000041C0F8001514F83C0F80F00100207018
:10523000BDE8F081042084F84C00F9E7FEE70000A7
:10524000FEB54FF4FA760127164C0020CDE9007622
:105250008DF808007F22656902ABD0212046A8475F
:10526000CDE9007605460022D4F818C002ABD02163
:105270002046E0472844C5B29DF80800EA280ED130
:105280004020CDE900768DF808000622666902AB61
:10529000D0212046B047284410F0FF0000D0012064
:1052A000FEBD0000300100202DE9FE434FF4FA76E8
:1052B0000124614DCDE900464FF000088DF80880CB
:1052C0007F226F6902ABD0212846B847CDE900465E
:1052D00007460022D5F818C002ABD0212846E04787
:1052E0003844C7B29DF80800EA287DD18020CDE976
:1052F00000468DF808000622D5F814C002ABD02174
:105300002846E0470744E96964208847CDE900461C
:105310008DF8088003226E6902ABD0212846B04781
:105320006426CDE900468DF8084007440622D5F8EA
:1053300014C002ABD0212846E04707442020CDE925
:1053400000468DF808007F22D5F814C002ABD021AA
:105350002846E047CDE900464FF007098DF8089050
:1053600007440022D5F814C002ABD0212846E047FC
:1053700007443320CDE900468DF808000122D5F816
:1053800014C002ABD0212846E047CDE900468DF895
:10539000089007441122D5F814C002ABD02128464A
:1053A000E04707443120CDE900468DF8080014227B
:1053B000D5F814C002ABD0212846E047CDE900461D
:1053C0008DF8088007447F22D5F814C002ABD021A5
:1053D0002846E04707440220CDE900460F228DF819
:1053E000080002ABD02100E022E0D5F814C0284626
:1053F000E047CDE9004607440122D5F818C002ABCA
:1054000018212846E0473844C7B29DF8080009280B
:105410000ED10820CDE900468DF8080031226C69D4
:1054200002AB18212846A047384410F0FF0000D0F6
:105430000120BDE8FE830000300100202DE9F0418D
:105440001D4616460C468046069F08F0A1FBE0B2BA
:1054500040F00101404608F076FB3946404608F02E
:10546000CCFB10B100246F1E10E0404608F0ACFBEE
:105470000320BDE8F081BC4201D0012100E0002101
:10548000404608F011FB3055641CA4B2AC42F2D384
:10549000404608F099FB0020EBE72DE9F0411D465E
:1054A00016460C468046069F08F072FBE1B2404665
:1054B00008F049FB3946404608F09FFBA0B10024A4
:1054C0000AE0315D404608F03EFB3946404608F0B0
:1054D00094FB48B1641CA4B2AC42F2D3404608F03D
:1054E00073FB0020BDE8F081404608F06DFB03200F
:1054F000F8E72DE9F0471E46DDE9085817460C4647
:10550000814608F045FBE1B2484608F01CFB4146E5
:10551000484608F072FBC8B1F9B2484608F013FBE0
:105520004146484608F069FB80B1484608F030FB28
:10553000E0B240F00101484608F005FB414648460C
:1055400008F05BFB10B100246F1E0DE00320BDE8E6
:10555000F087BC4201D0012100E00021484608F05C
:10556000A3FA3055641CA4B2AC42F2D3484608F00A
:105570002BFB0020EBE72DE9F0471D46DDE908682D
:1055800014460F46814608F003FBF9B2484608F07E
:10559000DAFA4146484608F030FBE8B1E1B2484645
:1055A00008F0D1FA4146484608F027FBA0B1002494
:1055B0000AE0295D484608F0C6FA4146484608F028
:1055C0001CFB48B1641CA4B2B442F2D3484608F0B4
:1055D000FBFA0020BDE8F0870320FBE770B5344CF0
:1055E000314D02232DED028B0322606895ED000AF8
:1055F0009FED2E8A0021466920EE080A0846B04732
:10560000606895ED010A022303220A21466920EE13
:10561000080A0020B047606895ED020A02230322C1
:105620001421466920EE080A0020B0476068022372
:1056300003220021466995ED030A4620B0476068C1
:10564000022303220A21466995ED040A4620B04749
:10565000606895ED050A022303221421456946205E
:10566000A8476068134D022303222321466995ED64
:10567000010A0020B0476068022303222321466903
:1056800095ED000A4620B047606895ED020A0223B6
:1056900003222D2145690020A84760688069BDEC80
:1056A000028BBDE87040004780E50020E12E654296
:1056B000D0020020C8E5002088B009F0A1FC3D4ED2
:1056C0004FF47A77079002E0384608F031FE3068F0
:1056D00080470028F8D1DFF8E0800025374C012111
:1056E000BA4688F8121004F11000DFF8D4B0354F34
:1056F00040F6B83906903269334930489047142251
:10570000059768460699FAF7EEFD94E80F00D6F87B
:1057100014C0E0474D4500D26D1C554544D194ED71
:10572000000A5846B0EEC00A10EE101A814216DA8E
:1057300094ED010AB0EEC00A10EE101A81420EDAA2
:1057400094ED020AB0EEC00A10EE101A594506DABE
:1057500098F81A10491C88F81A10B068804797ED1D
:10576000010A1A48B0EEC00A10EE101A81420EDA91
:1057700097ED000AB0EEC00A10EE101A814206DA68
:1057800098F81A10491C88F81A10F068804798F8A1
:105790001A1002294FF0000104D088F81A104FF4B3
:1057A000487501E088F812100A2107A808F0E6FD04
:1057B000A1E70000500100202002002080E5002029
:1057C000CDCC4C3DC8E50020A4E500200000A04061
:1057D000F0B587B0044664270C20784DCDE900076A
:1057E0000E462D22D5F818C004ABD0212846E0473C
:1057F000BDF81000112240BA00B200EE100A02AB50
:10580000B8EEC00A84ED030ABDF8120040BA00B237
:1058100000EE100AB8EEC00A84ED040ABDF81400C8
:1058200040BA00B200EE100AB8EEC00A84ED050AD4
:10583000BDF8160040BA00B200EE100AB8EEC00A79
:1058400084ED000ABDF8180040BA00B200EE100A5C
:10585000B8EEC00A84ED010ABDF81A0040BA00B2E1
:1058600000EE100A08201821B8EEC00A84ED020AE2
:10587000CDE90007AF692846B8479DF80F00C0F38F
:10588000C005BDB9BDF9080000EE100AB8EEC00AA7
:1058900084ED060ABDF90A0000EE100AB8EEC00A4F
:1058A00084ED070ABDF90C0000EE100AB8EEC00A3C
:1058B00084ED080A424894ED000A2422D0ED000A43
:1058C000214630EE600A84ED000A94ED010AD0ED25
:1058D000010A30EE600A84ED010A94ED020AD0ED6F
:1058E000020A30EE600A84ED020A94ED030AD0ED5C
:1058F000030A30EE600A84ED030A94ED040AD0ED49
:10590000040A30EE600A84ED040A94ED050AD0ED35
:10591000050A304630EE600A84ED050AFAF7E3FC2A
:105920002748242221463030FAF7DDFCD4ED030A63
:105930009FED240A002D60EE800AC4ED030AD4ED29
:10594000040A60EE800AC4ED040AD4ED050A20EED4
:10595000800A84ED050AD4ED000A9FED1B0A94ED40
:10596000021A60EE801AD4ED010A21EE001A60EEF0
:10597000800A9FED160A61EE801A60EE800A21EE21
:10598000000AC4ED001AC4ED010A84ED020A13D125
:10599000D4ED060A9FED0E0A60EE800AC4ED060AF9
:1059A000D4ED070A60EE800AC4ED070AD4ED080AB8
:1059B00020EE800A84ED080A07B0F0BD3001002017
:1059C000D4E50020CDCC1C3A00007A3C35FA8E3C60
:1059D0000020193E7FB500211B48009101910291E2
:1059E000184A0391026001244FF400320461C0E9B7
:1059F0000121047680F82010144AC0E90A2102250A
:105A0000C561C16080F830404461FCF710F808B10E
:105A1000FBF7C5FD0820CDE9000407200290694688
:105A20000948FBF75BFF08B1FBF7B9FD0920CDE999
:105A3000000569460448FBF751FF002801D0FBF739
:105A4000AEFD7FBD00200140680300200100000F73
:105A50001FB500211548009101910291124A03914E
:105A6000026001244FF400320461C0E90121047690
:105A700080F820100E4AC0E90A21C461C16080F894
:105A800030404461FBF7D3FF08B1FBF788FD0720E6
:105A90000094CDE9014069460448FBF71FFF002848
:105AA00001D0FBF77CFD1FBD00210140B0030020A9
:105AB0000100000F0F4810B50D490160062141603B
:105AC00000214FF440328160C0E903124FF480128C
:105AD0004261017641768176C17601774177FCF7A4
